S0150000666C795F636F6E74726F6C6C65722E733337F1
S11300000010002079080000110900001109000007
S11300101109000011090000110900001109000074
S11300201109000011090000110900001109000064
S11300301109000011090000110900001109000054
S11300401109000051860000110900001109000087
S11300509D7E0000A98600005D8600007586000074
S113006055860000110900000D1100000D1D00004F
S11300701109000011090000110900001109000014
S113008011090000110900003111000011090000DC
S113009011090000110900001109000011090000F4
S11300A011090000110900001109000011090000E4
S11300B0AD86000059860000D9170000E9860000CB
S11300C011090000D9730000110900001109000092
S11300D011090000110900001109000011090000B4
S11300E011090000110900001109000011090000A4
S11300F01109000011090000110900001109000094
S113010011090000110900001109000010B5054C87
S1130110237833B9044B13B10448AFF300800123AF
S1130120237010BD2411002000000000B0C40000A2
S113013008B5034B1BB103490348AFF3008008BD66
S11301400000000028110020B0C40000A3F5803A8C
S1130150704700BF174B002B08BF134B9D46FFF79A
S1130160F5FF00218B460F461348144A121A0AF071
S11301708DF80E4B002B00D098470D4B002B00D070
S113018098470020002104000D000D48002802D0EB
S11301900C48AFF300800AF047F82000290000F073
S11301A013F80AF02DF800BF00000800000000005A
S11301B00000000000100020241100209C460020B4
S11301C0000000000000000008B506F0E3F901F0AB
S11301D0F5F804F0B9FF05F007F805F0ADF805F0FF
S11301E013F805F0EDF8024B024AC3F8B020FEE71D
S11301F0504100200000A04108B500F07FF900BF85
S113020008BD000008B50421112002F015FC0121ED
S1130210084802F073F80221074802F00DFC02219D
S1130220064802F009FC0221054802F005FC0023FF
S1130230184608BD30253E0002001E0003002000C1
S11302400500240008B50121264802F057F80023D0
S113025001220D21052004F0ABFA002301220E2116
S1130260052004F0A5FA002301220F21052004F043
S11302709FFA002301220121082004F099FA0023A7
S113028001220221082004F093FA00230122032111
S1130290082004F08DFA012303220621002004F033
S11302A087FA012303220721002004F081FA0023A6
S11302B001220921012004F07BFA002301220421F8
S11302C0022004F075FA002301220521022004F023
S11302D06FFA012303220821032004F069FA00BF06
S11302E008BD00BF00350A00024BDB6C1B0EDBB2FD
S11302F018467047B081E00F00B583B01D4B012252
S11303005A64FFF7F1FF03468DF807309DF8073074
S1130310002B0CD1184B4AF6E8521A60174B1B6895
S1130320164A43F004031360134B00221A609DF82D
S11303300730012B05D8124B1B68114A43F40053B4
S11303401360104B1B6A23F444130E4A43F48813BE
S11303501362084B1B68074A43F4807313600A4B0B
S11303601B68094A43F4F843136000BF03B05DF807
S113037004FB00BF00000E4090310E4098310E4047
S113038064310E4000400E40A4310E4008B5FFF722
S1130390B3FF04F0BDFE00F0C9F804F0F7FD04F06B
S11303A029FE04F071FEFFF72DFF04F001FE00F0BA
S11303B0AFF800BF08BD08B500F088FBFFF742FFA7
S11303C000F02CFE00F010F800F0BAF800BF08BDF1
S11303D008B500F090F800BF08BD08B500F086F835
S11303E000BF08BD00BF704700B585B049F6404363
S11303F0029300238DF80C3002AB1946124800F02A
S1130400D9FC02AB1946114800F0D4FC02AB1946E2
S11304100F4800F0CFFC49F64043009300238DF8C9
S113042004306B4619460B4800F0C4FC6B46194671
S1130430094800F0BFFC6B461946084800F0BAFCB6
S113044000BF05B05DF804FB001000200810002078
S11304501010002018100020201000202810002068
S113046082B001900091FEE700B583B00190009145
S113047000990198FFF7F4FF00BF03B05DF804FB97
S113048084B00390CDE9002300BF04B0704700B5E9
S113049085B00390CDE90023DDE900230398FFF73D
S11304A0EFFF00BF05B05DF804FB000000B585B0A8
S11304B06B4600221A605A609A60DA60094B009316
S11304C06B460021184606F07FFB0346064A13607C
S11304D0054B1B68002B00D1FEE700BF05B05DF89B
S11304E004FB00BF8F0400003010002008B5FFF7A4
S11304F0DDFF00BF08BD0F231846704708B5002371
S113050004220521002004F053F90023184608BDF5
S113051008B50121044801F0F1FEFFF76DFE00F07B
S113052025F900BF08BD00BF00350A0008B5012148
S1130530024801F0E3FE00BF08BD00BF00350A0019
S113054008B5082000F036FB00BF08BD84B0019058
S11305500091019B03F1C0630393039B009A1A600B
S113056000BF04B0704784B001900091019B03F177
S113057080630393039B009A1A6000BF04B0704722
S113058000B583B0034600918DF807309DF807301D
S1130590002B42D09DF80730012B3BD09DF807304B
S11305A0022B34D09DF80730032B2DD09DF8073053
S11305B0042B27D09DF80730052B20D09DF8073059
S11305C0062B1AD09DF80730072B14D09DF807305E
S11305D0082B0ED09DF80730092B07D09DF8073063
S11305E00A2B01D107231AE0002318E04FF44043FB
S11305F015E00F2313E0002311E000230FE04FF672
S1130600FF730CE000230AE04FF47F4307E040F659
S1130610FF7304E04FF6C07301E040F2FF33009A29
S1130620D34003F00103002B04D140F2FE310D4806
S113063000F010FA9DF8072013465B0013441B01D9
S11306400C3303F1804303F520430121009A01FA9E
S113065002F211461846FFF786FF00BF03B05DF8AB
S113066004FB00BFB8A2000000B583B003460091AC
S11306708DF807309DF80730002B42D09DF80730E5
S1130680012B3BD09DF80730022B34D09DF8073066
S1130690032B2DD09DF80730042B27D09DF807306D
S11306A0052B20D09DF80730062B1AD09DF8073073
S11306B0072B14D09DF80730082B0ED09DF8073077
S11306C0092B07D09DF807300A2B01D107231AE024
S11306D0002318E04FF4404315E00F2313E00023F8
S11306E011E000230FE04FF6FF730CE000230AE053
S11306F04FF47F4307E040F6FF7304E04FF6C07306
S113070001E040F2FF33009AD34003F00103002BD1
S113071004D140F22D410D4800F09CF99DF80720CA
S113072013465B0013441B010C3303F1804303F5B0
S113073020430121009A01FA02F211461846FFF7FC
S113074005FF00BF03B05DF804FB00BFB8A20000C2
S113075008B504210020FFF713FF00BF08BD08B54A
S113076004210020FFF780FF00BF08BD30B589B029
S11307703B4B01AC1D460FCD0FC495E8070084E840
S113078007000121374801F0B9FD0121364801F085
S1130790B5FD01238DF81230344B039301AB194698
S11307A0334804F0D9FA012304220621022003F07D
S11307B0FFFF002301220721022003F0F9FF012398
S11307C004220821022003F0F3FF01230422042160
S11307D0002003F0EDFF264B264A9A67244B0B2298
S11307E05A674FF4487004F0BDFCFFF7B1FF1420C2
S11307F004F0B8FCFFF7B3FF232004F0B3FCFFF7C9
S1130800A7FFB9211A4804F0A3FBFFF7A8FF0023B0
S113081000220621022003F0CBFF0023002207213F
S1130820022003F0C5FF012300220821022003F067
S1130830BFFF012300220421002003F0B9FF0C486C
S113084004F01AFB0A4B00229A67094B00225A67EC
S11308500021054801F052FD00BF09B030BD00BFC2
S113086008A3000000350A000052040000127A00B8
S1130870000401400B0B000B00B585B000F0CAF872
S11308801F4B039319E0002302930EE0039B1A68A5
S1130890029B9B001A44039B5968029B9B000B44D8
S11308A012681A60029B01330293039B9B68029AAD
S11308B09A42EBD3039B0C330393039B114A934259
S11308C0E1D3114B019314E00023009309E0019B51
S11308D01A68009B9B00134400221A60009B01339A
S11308E00093019B5B68009A9A42F0D3019B083302
S11308F00193019B054A9342E6D3FFF72BFC00BF0B
S1130900B8C40000C4C40000C4C40000C4C40000CF
S1130910FEE7000000B583B000F020F801900A4B18
S1130920D3F808311B0AC3F308030093009B013377
S1130930019AB2FBF3F30193044A019B1360019BF8
S1130940184603B05DF804FB00400E403C10002044
S1130950014B1846704700BF00F0490282B01A4BA1
S1130960D3F8943003F00703023B032B1BD801A2F6
S113097052F823F0950900008D0900008509000054
S11309809D090000114B1B68019310E04FF40043D4
S113099001930CE00E4B1B68019308E00D4B1B68A0
S11309A05B08019303E00B4B1B68019300BF064BEC
S11309B0D3F800311B0A03F01F030133019AB2FB81
S11309C0F3F3184602B0704700400E403810002080
S11309D03410002040100020014B1B68184670475B
S11309E03410002000B583B00190084A019B1360C5
S11309F0074BD3F8943003F00703022B01D1FFF720
S1130A0089FF00BF03B05DF804FB00BF3410002071
S1130A1000400E40064B074A9A60054BD3F88830D5
S1130A20034A43F47003C2F8883000BF704700BF24
S1130A3000ED00E0000000004FF40043184670474A
S1130A404FF47A7318467047014B1B681846704779
S1130A503810002082B001900091FEE700B587B005
S1130A60039002910192029B1F2B03D991210A4802
S1130A70FFF7F0FF039B03F1424303F58013DA0011
S1130A80029B13449B000593059B019A1A6000BFC7
S1130A9007B05DF804FB00BF24A3000000B585B0D7
S1130AA003468DF807309DF80730002B01D0012351
S1130AB000E000230393039A04210348FFF7CEFFC9
S1130AC000BF05B05DF804FB40A4004000B585B04C
S1130AD00023039301212E4801F010FC002303930B
S1130AE0012304220221052003F062FE039803F08F
S1130AF05FFD0120FFF7D2FF01220121042002F053
S1130B0015FA244801F068FC0290234B1B68224A22
S1130B1043F001031360204BDB681F4A43F08073EA
S1130B20D3600123ADF806300F23ADF80430BDF8CF
S1130B3006305B021A46BDF804305B001A431749BD
S1130B40174B13430B60029B03F5D52303F2FC43BD
S1130B50DB08144AA2FB03239B0A134A013B1361DB
S1130B60114B0222C3F8F0200F4B4FF48072C3F8EC
S1130B7004234FF060430D4AC3F8B02F4FF0604395
S1130B800B4AC3F8802E0023184605B05DF804FB19
S1130B9000350A0006000E00F0ED00E0001000E051
S1130BA0E101004017916502000004E055CEACC598
S1130BB00900010082B001904FF06043D3F8002E89
S1130BC00121019B01FA03F34FF060411343C1F883
S1130BD0003E0023184602B07047000082B0019026
S1130BE0019B074A934203D0019B064A934202D1D8
S1130BF04FF0FF3301E04FF6FF73184602B0704721
S1130C0000A0014000A4014000B585B0039002910A
S1130C1001920398FFF7E2FF0246019B934204D935
S1130C2040F2FA210648FFF715FF039A029B1B01C5
S1130C3013446C33019A1A6000BF05B05DF804FBDD
S1130C4070A3000000B585B003900291019203984F
S1130C50FFF7C4FF0246019B934204D940F21531C9
S1130C600748FFF7F7FE039A029B06331B01134460
S1130C700433019A1A6000BF05B05DF804FB00BF9D
S1130C8070A3000082B00190019BDB69184602B09A
S1130C907047000000B583B0019000910198FFF700
S1130CA09DFF0246009B934204D940F289410548C6
S1130CB0FFF7D0FE019B009ADA6100BF03B05DF834
S1130CC004FB00BF70A3000084B001900091019B5D
S1130CD003F1C0630393039B009A1A6000BF04B03E
S1130CE0704784B001900091019B03F180630393EA
S1130CF0039B009A1A6000BF04B0704700B587B028
S1130D0003900291019202F075FB0590039B1A680F
S1130D10029BDB431A400199029B0B401A43039B3D
S1130D201A60059802F072FB00BF07B05DF804FB7F
S1130D3000B585B0019011230393019B144A93429B
S1130D4018D0134A934218D8124A93420FD0114A2A
S1130D50934212D8104A934203D0104A934203D0CC
S1130D600BE00F4B03930DE00E4B03930AE00E4B85
S1130D70039307E00D4B039304E05B210C48FFF75A
S1130D8069FE00BF039B184605B05DF804FB00BF75
S1130D9000A4014000A00140008001400084014003
S1130DA000020400001204000022040000320400C7
S1130DB0C0A3000000B58DB001900091019B1B6899
S1130DC01846FFF7B5FF0B9001210B9801F096FA36
S1130DD00121374801F092FA019B5879019B9B79D4
S1130DE01946009B1B79042203F0E2FC07AB0022A6
S1130DF01A605A609A6003238DF8223001238DF81B
S1130E00213002238DF81D30009B1B79012B0CBF70
S1130E1001230023DBB28DF82630019B1868019B67
S1130E201B79194607AB1A4603F0EEFE019B1B68BB
S1130E3003F13400019B1B79DB001F2202FA03F14A
S1130E40019BDB791A46019B1B79DB0002FA03F351
S1130E501A46FFF753FF0B9801F0BEFA0246009BB7
S1130E601B68B2FBF3F3013B0A93019B1B680A99CD
S1130E701846FFF70FFF019B1868019B1B7900229E
S1130E801946FFF7DFFE03AB00221A605A609A602E
S1130E901A7301238DF80C30019B1B6803AA1146B9
S1130EA0184603F035FE002318460DB05DF804FB28
S1130EB000350A0000B583B00190019B1B6803F163
S1130EC03002019B1B79194601238B4019461046B9
S1130ED0FFF7FAFE00BF03B05DF804FB00B583B072
S1130EE00190019B1B6803F13002019B1B79194699
S1130EF001238B4019461046FFF7F3FE00BF03B0F1
S1130F005DF804FB00B585B001900B468DF8033005
S1130F10019B1B681846FFF7B5FE0390019B1868F8
S1130F20019B1B7919469DF80330039A02FB03F3D6
S1130F30054AA2FB03235B091A46FFF765FE00BFBF
S1130F4005B05DF804FB00BF1F85EB5182B003467A
S1130F508DF807309DF90730002B0CDB9DF8073026
S1130F6003F01F0205499DF907305B09012000FACF
S1130F7002F241F8232000BF02B0704700E100E014
S1130F8082B003468DF807309DF90730002B0DDB46
S1130F909DF8073003F01F0206499DF907305B09ED
S1130FA0012000FA02F2603341F8232000BF02B0AE
S1130FB0704700BF00E100E086B00190019B0493FC
S1130FC0049B93FAA3F30393039B0593059B002BC4
S1130FD001D1202303E0059BB3FA83F3DBB2184667
S1130FE006B0704782B00190034A019BC2F82434D2
S1130FF000BF02B0704700BF00A0004082B0064BA3
S1131000D3F828340193044BD3F81C24019B1340D8
S1131010184602B0704700BF00A0004008B5122077
S113102002F01AFA0346002B05D01220FFF7A8FF9E
S11310301220FFF78BFF0A2002F00EFA0346002B62
S113104005D00A20FFF79CFF0A20FFF77FFF00BFAF
S113105008BD000000B585B0034600918DF8073047
S113106002F0DEF903909DF807300A4A1B0113448D
S11310700433009A1A609DF80730064A1B01134492
S11310800C3300221A70039802F0DAF900BF05B09D
S11310905DF804FB4011002000B587B001902BE0FF
S11310A00198FFF789FF05900122059B02FA03F3DB
S11310B0DB43019A13400193059B1B01124A13441D
S11310C00493049B5B68002B16D0049B1B7B002BB2
S11310D00AD0049B5B680293059BDAB2049B99686F
S11310E0029B1046984707E0049B5B680393059BAB
S11310F0DAB2039B10469847019B002BD0D100BF66
S113110000BF07B05DF804FB4011002000B583B0B8
S1131110FFF774FF034603F0553301930198FFF77B
S113112061FF0198FFF7B8FF00BF03B05DF804FB4F
S113113000B583B0FFF762FF034603F0AA330193BF
S11311400198FFF74FFF0198FFF7A6FF00BF03B018
S11311505DF804FB82B003468DF807309DF9073033
S1131160002B0CDB9DF8073003F01F0205499DF9A5
S113117007305B09012000FA02F241F8232000BF86
S113118002B0704700E100E082B003468DF80730FA
S11311909DF90730002B0DDB9DF8073003F01F028B
S11311A006499DF907305B09012000FA02F2603319
S11311B041F8232000BF02B0704700BF00E100E007
S11311C000B585B00190019B002B03D0019BB3F5C2
S11311D0004F04D940F62C510A48FFF73BFC019B11
S11311E00293029B002B01D1202303E0029BB3FA5C
S11311F083F3DBB2C3F11F030393039B184605B0CB
S11312005DF804FB14A4000000B583B00190019BB9
S1131210022B04D940F293110648FFF71BFC064A3F
S1131220019B04331B01134404331B68184603B0A9
S11312305DF804FB60A400000020044000B583B006
S113124001900091019B022B04D940F2A711074899
S1131250FFF700FC064A019B04331B0113440433CB
S1131260009A1A6000BF03B05DF804FB60A400009C
S11312700020044000B583B001900198FFF7C4FF3B
S11312800346184603B05DF804FB00B583B0019033
S1131290009100990198FFF7D1FF00BF03B05DF8FA
S11312A004FB0000014B9B68184670470020044073
S11312B082B00190024A019B136200BF02B07047E2
S11312C00020044082B00190044B5A6A019BDB4326
S11312D0024913404B6200BF02B070470020044033
S11312E082B00190044B5A6A0349019B13434B6239
S11312F000BF02B0704700BF0020044082B0054B1D
S11313005B6A0193034B9A69019B1340184602B030
S1131310704700BF0020044000B587B0019000234F
S1131320059300230493204B1B7883F00103DBB265
S1131330002B01D01D4B33E002F072F8039002E061
S1131340059B01330593059B032B0ADC1849059A79
S113135013469B001344DB000B441E331B78002B05
S1131360EED1059B042B02D1124B049314E0019B94
S1131370002B0FD00E49059A13469B001344DB0043
S11313800B441E3301221A70059A019B1A60002334
S1131390049301E0084B0493039802F051F8049B72
S11313A0184607B05DF804FBEA130020061000F0AD
S11313B040130020011000F0041000F008B5274B82
S11313C01B78002B01D0002345E00121244800F0C4
S11313D095FF0221234801F02FFB0120FFF7F0FEC7
S11313E00346DAB2204B1A710121204800F086FF2F
S11313F01D4803F0D9FA1E49012003F099FA40F27E
S1131400FF70FFF75FFF40F2FF70FFF751FF194BCA
S113141000229A601E20FFF7B7FE1E20FFF79AFEF7
S11314200120FFF75DFFA0220021134808F02EFFE2
S1131430124B00221A70124B00221A70114B002218
S11314401A60114B00221A60104B00221A60034BE1
S113145001221A700023184608BD00BFEA130020B9
S113146030253E000500240044100020A00914008B
S1131470501000200020044040130020E8130020F6
S1131480E9130020E4130020EC130020F0130020E3
S11314902DE9F04F8FB00390019200930B468DF825
S11314A00B3000230C93934B1B7883F00103DBB2C6
S11314B0002B01D0904B82E1039B032B01D98F4B6E
S11314C07DE101F0ADFF0B908D49039A13469B001B
S11314D01344DB000B441E331B7883F00103DBB29F
S11314E0002B04D00B9801F0ABFF864B67E1019B06
S11314F0002B0BD1009B002B03D0009B1899039861
S113150098470B9801F09CFF002358E1FFF7CAFEAF
S11315100D907B49039A13469B001344DB000B4454
S11315201833009A1A60019B00221C4615464FF09E
S113153000024FF00003EB0343EA5443E20312F5C5
S1131540FA7A43F1000B4FF47A724FF000035046DD
S1131550594608F0D3FC02460B4610461946684C1F
S1131560039A13469B001344DB0023440833C3E966
S113157000019DF80B30012B28D1019B4FF47A72A6
S113158002FB03F15E48039A13469B001344DB00FD
S113159003440833D3E9002313461B019B1A5B0061
S11315A0CB1A18465649039A13469B001344DB0092
S11315B00B44103318605249039A13469B0013449A
S11315C0DB000B4414330F221A6013E04C49039AD6
S11315D013469B001344DB000B440833D3E900019A
S11315E0474C039A13469B001344DB0023440833FF
S11315F0C3E900014249039A13469B001344DB00EC
S11316000B440833D3E9002312F1010843F1000924
S11316103B49039A13469B001344DB000B44C3E984
S113162000893749039A13469B001344DB000B449B
S11316301C3301221A703249039A13469B00134447
S1131640DB000B441F339DF80B201A702C49039ABE
S113165013469B001344DB000B442033189A1A6092
S1131660294B1B78002B04D00B9801F0E9FE0023D2
S1131670A5E0264B1B68B3F1FF3F04D0234B1B6846
S11316800133224A1360224B1B7883F00103DBB23F
S1131690002B41D01F4A0D9B13600420FFF708FE66
S11316A01749039A13469B001344DB000B44D3E908
S11316B00023CDE906236FF064030593059B002204
S11316C01E461746DDE90623964277EB030101D255
S11316D032463B46134604930D9A049B1344194621
S11316E00120FFF7D2FD0420FFF7FAFD084B012289
S11316F01A7057E0EA130020061000F0021000F000
S113170040130020031000F0E8130020E41300202D
S1131710E9130020E01300202B4B1B68012B41D15F
S11317202A49039A13469B001344DB000B441C33E1
S113173000221A700420FFF7C5FD254B1B680D9A83
S1131740D31A0A930A9800F09BF800F015FA0C9B40
S1131750002B09D11D49039A13469B001344DB0057
S11317600B441C3301221A700C9B01330C930D980B
S113177000F034FAFFF796FD0D90154B1B680D9A97
S1131780D31A0A930120FFF775FD0246104B1B681C
S1131790D31A09930F4B1B78002B03D00A9A099B89
S11317A09A42C7D2084B1B68002B04D0064B1B6817
S11317B0013B054A13600B9801F042FE00231846D2
S11317C00FB0BDE8F08F00BFE413002040130020E9
S11317D0E0130020E913002000B587B001F020FEDB
S11317E00490FFF78BFD0390039B23F00503184639
S11317F0FFF75EFD039B03F00403002B30D01D4B69
S113180001221A70FFF74EFD05900420FFF75AFDE0
S1131810194B1B68059AD31A0293029800F030F80A
S113182000F0AAF9059800F0D9F9FFF73BFD0590FF
S1131830114B1B68059AD31A02930120FFF71AFD76
S113184002460D4B1B68D31A01930C4B1B78002BDB
S113185003D0029A019B9A42D7D2064B00221A70F7
S113186000F030FA049801F0EBFD00BF07B05DF81A
S113187004FB00BFE8130020E0130020E91300205C
S11318802DE9F04F91B00B9000230F9369E1B94912
S11318900F9A13469B001344DB000B4403F11D0213
S11318A000231370B3490F9A13469B001344DB00C3
S11318B00B441C331B78002B00F05081AD490F9A68
S11318C013469B001344DB000B44D3E900230B991C
S11318D000200E460746964277EB03031AD2A54929
S11318E00F9A13469B001344DB000B44D3E90023F7
S11318F00B99002088468146B2EB080A63EB090B7A
S11319009C490F9A13469B001344DB000B44C3E924
S113191000AB23E197490F9A13469B001344DB0065
S11319200B441F331B78002B0BD192490F9A13469B
S11319309B001344DB000B4403F11C0200231370CF
S1131940F6E00B9B0022009301928A490F9A1346FA
S11319509B001344DB000B44D3E90023DDE900457D
S11319602146891A0891294661EB03030993DDE9AD
S11319700834CDE90C347F490F9A13469B00134475
S1131980DB000B440833D3E900457A490F9A134628
S11319909B001344DB000B440833D3E90023DDE947
S11319A00C0108F0ABFAA11A029165EB030303934F
S11319B070490F9A13469B001344DB000B44DDE986
S11319C00212C3E900126B490F9A13469B00134499
S11319D0DB000B4410331B68002B55DD65490F9A5F
S11319E013469B001344DB000B441433186861490D
S11319F00F9A13469B001344DB000B4410331B68FF
S1131A0018445C490F9A13469B001344DB000B44B3
S1131A101433186057490F9A13469B001344DB0094
S1131A200B4414331B681D2B40F2828051490F9ADA
S1131A3013469B001344DB000B44D3E90023511CE1
S1131A40049143F1000305934A490F9A13469B00FE
S1131A501344DB000B44DDE90412C3E900124549D9
S1131A600F9A13469B001344DB000B4414331B688A
S1131A70A3F11E003F490F9A13469B001344DB0059
S1131A800B441433186053E03A490F9A13469B00F1
S1131A901344DB000B441433186836490F9A134679
S1131AA09B001344DB000B4410331B68C01A3149FC
S1131AB00F9A13469B001344DB000B441433186045
S1131AC02C490F9A13469B001344DB000B44143338
S1131AD01B681D2B2CD927490F9A13469B001344CE
S1131AE0DB000B44D3E90023511E069143F1FF337D
S1131AF0079320490F9A13469B001344DB000B44C1
S1131B00DDE90612C3E900121A490F9A13469B0035
S1131B101344DB000B4414331B68A3F11E00154966
S1131B200F9A13469B001344DB000B4414331860D4
S1131B3010490F9A13469B001344DB000B441833DF
S1131B401B68002B0AD00B490F9A13469B001344C1
S1131B50DB000B4403F11D02012313700F9B0133BF
S1131B600F930F9B032B7FF792AE00BF00BF11B002
S1131B70BDE8F08F4013002010B582B0002301931C
S1131B8022E01549019A13469B001344DB000B44E1
S1131B901D331B78002B14D00F49019A13469B0068
S1131BA01344DB000B4418331C6801980A49019A5A
S1131BB013469B001344DB000B4420331B68194677
S1131BC0A047019B01330193019B032BD9DD00BF87
S1131BD000BF02B010BD00BF4013002030B58BB071
S1131BE001904FF0FF324FF0FF33CDE9062300237D
S1131BF0099327E03049099A13469B001344DB00FC
S1131C000B441C331B78002B19D02B49099A13461B
S1131C109B001344DB000B44D3E90001DDE90623F8
S1131C20904271EB03030AD22349099A13469B009D
S1131C301344DB000B44D3E90023CDE90623099BBD
S1131C4001330993099B032BD4DD1C4B00221A702A
S1131C50DDE90623B3F1FF3F08BFB2F1FF3F27D010
S1131C60DDE90623CDE904236FF064030393039BAA
S1131C7000221C461546DDE90423944275EB03015A
S1131C8001D222462B46CDE906230D4A019B13605F
S1131C900420FFF70DFB069A019B1344194601200B
S1131CA0FFF7F3FA054B01221A700420FFF718FB23
S1131CB000BF0BB030BD00BF40130020E91300206B
S1131CC0E013002008B5FFF719FB034603F00103F6
S1131CD0002B07D00120FFF7EBFA034B1B680133FD
S1131CE0014A136000BF08BDEC13002082B00190CC
S1131CF00091019B009A5A6100BF02B0704782B004
S1131D000190019BDB68184602B0704700B583B0B0
S1131D100948FFF7F4FF0190019B03F01003002B27
S1131D2006D010210448FFF7E1FF044B01221A708A
S1131D3000BF03B05DF804FB00800140F4130020F1
S1131D4000B583B00190019B1F2B04D94FF4B371EC
S1131D500548FEF77FFE0122019B02FA03F31846B1
S1131D6003B05DF804FB00BFB0A4000000B587B069
S1131D70039002910192029B1F2B03D991210A48DF
S1131D80FEF768FE039B03F1424303F58013DA0078
S1131D90029B13449B000593059B019A1A6000BFA4
S1131DA007B05DF804FB00BF00A5000084B00190FB
S1131DB00091019B03F1424303F58013DA00009B79
S1131DC013449B000393039B1B68184604B070479D
S1131DD0054B1B6803F04003002B01D1012300E0F5
S1131DE000231846704700BF3C300E4008B5FFF78B
S1131DF0EFFF034683F00103DBB2002B08D100BFE1
S1131E0012210448FFF7D2FF0346002BF8D100E06B
S1131E1000BF08BD04300E4008B5FFF7E7FF044BD0
S1131E205B681B0C03F00303DBB2184608BD00BF5C
S1131E3000300E40054B1B6C9BB241F6713293424D
S1131E4014BF01230023DBB21846704700000E4084
S1131E50024B00221A6400BF704700BF00000E400E
S1131E60024B41F671321A6400BF704700000E4005
S1131E70014B5B681846704700000E4082B0019029
S1131E80024A019B536000BF02B0704700000E403D
S1131E9000B585B0019001230393019B124A93423C
S1131EA004D8002303930023029308E0019B0F4A04
S1131EB0934202D80123029301E002230293039A7E
S1131EC010210B48FFF752FF094BD3F8003123F0E0
S1131ED08072029B1B0606491343C1F8003100BF00
S1131EE005B05DF804FB00BF0048E8010090D00392
S1131EF000400E4082B0034B1B680193019B1846BF
S1131F0002B070475810002000B583B0FEF726FDDC
S1131F100190074BD3F800311B0A03F01F03013370
S1131F20019A02FB03F3184603B05DF804FB00BFFB
S1131F3000400E4000B583B0104800F073FC034627
S1131F408DF803309DF80330072B05D0092B07D1FA
S1131F50FEF704FD01900BE0FFF7CCFF019007E0D2
S1131F600023019341F290410548FEF773FD00BF41
S1131F70019B184603B05DF804FB00BF06000E0089
S1131F8098A5000000B585B00190019B002B1FD1DE
S1131F90214800F047FC03468DF80B3000BF9DF844
S1131FA00B30013B072B29D801A252F823F000BFC4
S1131FB0DF1F0000FD1F0000FD1F0000ED1F0000DB
S1131FC0FD1F0000FD1F0000E51F0000F51F0000BD
S1131FD041F2B0411148FEF73DFD002317E0002314
S1131FE0039313E0FFF786FF03900FE0FEF7F4FC82
S1131FF003900BE0FFF788FF039007E000230393AF
S113200041F2C7410548FEF725FD00BF039B184672
S113201005B05DF804FB00BFB800320098A50000CD
S113202000B585B001900091FFF722FF034603F04D
S1132030407303930023029312E01D4A029BDB00CA
S113204013441A79009BDBB29A4206D1184A029BC8
S113205052F83330019A9A4206D9029B0133029313
S1132060029B042BE9D900E000BF029B052B07D19A
S11320700323039341F2CE510E48FEF7EBFC05E037
S11320800B4A029BDB0013445B790393039B1B06FF
S11320900393FFF7EDFE034623F04073039A1343C3
S11320A003930398FFF7EAFE00BF05B05DF804FB55
S11320B0E4A5000098A5000000B583B0FFF7BAFEC0
S11320C003468DF80730FFF7CBFEFEF741FC0346CD
S11320D000211846FFF7A4FF9DF80730002B01D01C
S11320E0FFF7B6FE00BF03B05DF804FB00B585B092
S11320F001900091FFF79EFE03468DF80F30FFF725
S1132100AFFE00990198FFF78BFF9DF80F30002B6D
S113211001D0FFF79DFE00BF05B05DF804FB86B05B
S113212001900F230593019B03330493059B0393B1
S1132130039A049B934228BF13460293029B1B07F6
S11321400293029B184606B070470000034B5B6A7B
S11321501B0903F003031846704700BF00400E40FC
S113216082B00190054B5B6A23F03002019B1B0196
S1132170024913434B6200BF02B0704700400E4057
S113218010B584B0019000230293019B424A93420C
S113219011D0019B404A934207D8019B3F4A934286
S11321A009D0019B3E4A934205D041F2CD613D489E
S11321B0FEF750FC00E000BF019800F033FB03463B
S11321C00393019B344A93421AD0019B324A9342AF
S11321D01DD8019B314A934204D0019B304A93425B
S11321E007D014E0304BD3F8803003F00703039397
S11321F013E02D4BD3F8843003F0070303930CE072
S1132200294BD3F8883003F00703039305E041F228
S1132210FC612448FEF71EFC00BF039B042B2ED850
S113222001A252F823F000BF792200003D220000F1
S113223045220000552200004D220000FEF7FCFB61
S1132240029024E0FEF700FC029020E0FEF7F8FB89
S113225002901CE0FEF782FB0446134BD3F80031D6
S11322601B0E03F0010301331846FFF769FD034613
S1132270B4FBF3F302930AE00023029307E0002384
S1132280029341F24E710748FEF7E4FB00BF029B44
S1132290184604B010BD00BF0500240002001E0053
S11322A00300200098A5000000400E4082B0019079
S11322B0094BD3F8443103F00103002B08D100BFCC
S11322C0054BD3F84021019B1340002BF8D100E0CB
S11322D000BF02B0704700BF00400E4000BF70470F
S11322E000BF704700B583B00190019800F0BAF9BF
S11322F003460133184603B05DF804FB00B587B00C
S113230001900B468DF8033000230493019B1B0AB4
S113231003F00F03013B092B32D801A252F823F03A
S1132320492300005523000081230000812300007D
S11323304F2300005B23000065230000812300007D
S11323406F2300007B2300001B4B05931EE01B4BF7
S113235005931BE01A4B059318E01A4B05930123D0
S1132360049313E0184B0593102304930EE0174BCA
S113237005934FF48033049308E0154B059305E06F
S113238041F66A311348FEF765FB11E0019B1B0B14
S113239003F01F030393049B002B02D00498FFF760
S11323A085FF9DF803301A4603990598FFF7DEFC74
S11323B007B05DF804FB00BF00400E40B0400E4083
S11323C0C0400E40E0400E40E8400E40F0400E4059
S11323D050410E4098A5000010B584B00190019BB7
S11323E003F47813B3F5781F00F01B81B3F5781F5D
S11323F000F22281B3F5481F00F00E81B3F5481FA7
S113240000F21A81B3F5401F00F0E580B3F5401FD8
S113241000F21281B3F5381F00F0B680B3F5381F0F
S113242000F20A81B3F5101F00F0E980B3F5101F24
S113243000F20281B3F5001F00F0B580B3F5001F70
S113244000F2FA80B3F5F01F79D0B3F5F01F00F273
S1132450F380B3F5D01F00F0AB80B3F5D01F00F2CA
S1132460EB80B3F5B01F7DD0B3F5B01F00F2E4806C
S1132470B3F5A01F68D0B3F5A01F00F2DD80B3F55B
S1132480801F00F0C580B3F5801F00F2D580B3F53E
S1132490602F00F0B980B3F5602F00F2CD80B3F562
S11324A0402F3DD0B3F5402F00F2C680B3F5202F66
S11324B023D0B3F5202F00F2BF80B3F5802F0DD0C9
S11324C0B3F5802F00F2B880002B03D0B3F5003FA2
S11324D017D0B1E0FEF742FA0390B5E0FEF73EFAFA
S11324E003905B4BD3F80C311B0AC3F3080301338D
S11324F0039AB2FBF3F30393A6E0FEF72FFA0390DB
S1132500A2E0FEF72BFA0390514BD3F808311B0AD3
S1132510C3F308030133039AB2FBF3F3039393E089
S1132520FEF71CFA03904A4BD3F814311B0A03F04C
S11325301F030133039AB2FBF3F3039384E045488A
S1132540FFF71EFE03907FE04348FFF719FE039058
S11325503F4BD3F8303103F00303039A22FA03F319
S1132560039371E03B48FFF70BFE0390384BD3F81D
S1132570203103F00F031846FFF7E2FB0246039BEA
S1132580B3FBF2F303935FE03248FFF7F9FD0390E6
S11325902F4BD3F820311B0903F00303039A22FACB
S11325A003F3039350E02D48FFF7EAFD03904BE05B
S11325B02A48FFF7E5FD0390254BD3F828311B0982
S11325C003F003031846FFF7BBFB0246039BB3FB70
S11325D0F2F3039338E02148FFF7D2FD03901C4B3C
S11325E0D3F828311B0A03F0030304331846FFF71A
S11325F0A7FB0246039BB3FBF2F3039324E01648C4
S1132600FFF7BEFD03901FE0FFF794FC03901BE06F
S1132610FFF770FC039017E00020FFF7B3FC039072
S113262012E0FEF79BF904460198FFF75BFE0346B0
S1132630B4FBF3F3039307E00023039341F69A41B9
S11326400748FEF707FA00BF039B184604B010BD05
S113265000400E4002001E0005002400030020007C
S113266098A5000000B585B00190019B1B0903F0FB
S11326700F030293029B013B092B00F2B88001A2D5
S113268052F823F0AD260000BD260000CD26000040
S1132690ED260000EF270000EF270000FD260000D4
S11326A00D27000067270000C7270000564BD3F80A
S11326B000311B0A03F01F030393A0E0524BD3F82D
S11326C014311B0A03F01F03039398E04E4BD3F815
S11326D000311B0E03F001030393039B01331846DF
S11326E0FFF72EFB0346013B039388E0464BD3F8E8
S11326F00C311B0AC3F30803039380E0424BD3F865
S113270008311B0AC3F30803039378E0019B3F4A93
S1132710934204D0019B3E4A93420DD01AE03A4BB7
S1132720D3F8203103F00F0303930398FFF708FB5A
S11327300346013B039315E0334BD3F820311B09C7
S113274003F0030303930398FFF7FAFA0346013BEC
S1132750039307E00023039341F60E512D48FEF73F
S113276079F900BF4BE0019B2B4A934204D0019BB3
S11327702A4A93420ED01DE0234BD3F828311B097B
S113278003F0030303930398FFF7DAFA0346013BCC
S1132790039317E01C4BD3F828311B0A03F00303FF
S11327A00393039B04331846FFF7CAFA0346013B1D
S11327B0039307E00023039341F632511548FEF7D3
S11327C049F900BF1BE0019B154A934206D10E4B09
S11327D0D3F8303103F00303039307E0002303939A
S11327E041F641510B48FEF735F900BF07E00023DD
S11327F0039341F666510748FEF72CF900BF039B8B
S1132800184605B05DF804FB00400E408006160033
S113281080162E0098A5000090171A00902730000B
S1132820A009140000B585B0019001238DF80F3084
S1132830019B03F00F030293029B013B072B00F261
S1132840E78001A252F823F069280000CB28000099
S113285009290000112A00005B29000099290000C1
S1132860112A0000C3290000714BD3F8943003F0FF
S11328700703023B052B23D801A252F823F000BF23
S1132880A9280000A128000099280000B128000010
S1132890C1280000B928000002238DF80F3013E08E
S11328A003238DF80F300FE004238DF80F300BE075
S11328B00B238DF80F3007E00C238DF80F3003E065
S11328C005238DF80F3000BFABE0594BD3F88030AF
S11328D003F00703042B0ED0042B10D8012B02D0D5
S11328E0022B04D00BE003238DF80F300BE00223FE
S11328F08DF80F3007E00A238DF80F3003E0012331
S11329008DF80F3000BF8CE0494BD3F8843003F0CE
S11329100703013B032B1BD801A252F823F000BF8D
S1132920312900003929000049290000412900000B
S113293003238DF80F300FE002238DF80F300BE0E6
S11329400A238DF80F3007E006238DF80F3003E0DB
S113295001238DF80F3000BF63E0354BD3F8883086
S113296003F00703042B0ED0042B10D8012B02D044
S1132970022B04D00BE003238DF80F300BE002236D
S11329808DF80F3007E00A238DF80F3003E00123A0
S11329908DF80F3000BF44E0254B1B6F03F001039B
S11329A0002B05D0012B07D109238DF80F3007E048
S11329B007238DF80F3003E001238DF80F3000BF9B
S11329C02FE01B4BD3F85C3103F03003302B16D0CF
S11329D0302B18D8202B0ED0202B14D8002B02D04B
S11329E0102B04D00FE001238DF80F300FE00723E4
S11329F08DF80F300BE004238DF80F3007E0082327
S1132A008DF80F3003E001238DF80F3000BF08E08C
S1132A1000238DF80F3042F2BB010648FEF71AF886
S1132A2000BF9DF80F30184605B05DF804FB00BFE9
S1132A3000400E4098A5000000B58BB001900B46F5
S1132A408DF803300323099303238DF823300023E7
S1132A50069300230593019B112B1BD19DF8033092
S1132A60042B03D1FDF7B8FF05900CE09DF803306B
S1132A70052B08D100F08CF90346BD4A934202D9D4
S1132A8000F086F90590059B002B03D000210598E2
S1132A9000F0E4FD019B03F00F030493049B013B4E
S1132AA0072B00F25B8101A252F823F0CD2A00002B
S1132AB0D72B00000D2C00005D2D0000ED2B000035
S1132AC0B12C00005D2D0000DD2C00009DF80330CA
S1132AD0023B0A2B48D801A252F823F0092B00002C
S1132AE0152B0000212B0000332B0000692B000064
S1132AF0692B0000692B0000692B00005D2B00008E
S1132B00452B0000512B00000423099300238DF86A
S1132B1023302FE00323099301238DF8233029E088
S1132B200223099302238DF823309248FFF7B0F96A
S1132B3020E00123099303238DF823308D48FFF708
S1132B40A7F917E00523099303238DF8233011E037
S1132B500723099306238DF823300BE042F27C11FE
S1132B608548FDF777FFFFE042F281118248FDF7C7
S1132B7071FFF9E09DF82330062B06D09DF8233031
S1132B8001220121184600F0D1F9FFF795FAFFF769
S1132B90A5FB059B002B01D0FFF728F9774A099B79
S1132BA05367FDF7B7FE0390FDF7D8FE03461846BA
S1132BB0FFF76EF9FFF730F9034619460398FFF75C
S1132BC095FA059B002B03D10121002000F046FD5E
S1132BD0FFF786FBC8E06A4B06939DF80330062B8B
S1132BE004D14FF407516448FDF734FF069B002BD2
S1132BF001D0069B00E0634B06939DF80330062B3F
S1132C0004D142F2D0115C48FDF724FF069B002B4F
S1132C1001D0069B00E05C4B06939DF80330013B1A
S1132C20092B3BD801A252F823F000BF552C000019
S1132C305B2C00006B2C00009D2C00009D2C0000E0
S1132C407B2C00009D2C00009D2C00009D2C00007E
S1132C50972C00000023079326E001220121002085
S1132C6000F064F9022307931EE0012201210120F0
S1132C7000F05CF90123079316E0FDF76FFE0346AD
S1132C801846FFF705F9012202214048FFF76EF8C4
S1132C900323079308E00423079305E042F2FB11A2
S1132CA03548FDF7D7FE5FE0069B079A1A605BE0A4
S1132CB09DF80330072B02D0092B04D007E02F4BDB
S1132CC000221A6709E02D4B01221A6705E042F23F
S1132CD085212948FDF7BEFE46E045E09DF8033016
S1132CE0013B072B28D801A252F823F00D2D000038
S1132CF0392D0000392D0000232D0000392D00004E
S1132D00392D0000132D0000332D000000230793FC
S1132D1018E001220121042000F008F9012307939F
S1132D2010E001220121022000F000F902230793A0
S1132D3008E00323079305E042F2E3210E48FDF780
S1132D4089FE11E00D4BD3F85C3123F03002079B70
S1132D501B010A491343C1F85C3105E042F2BA3160
S1132D600548FDF777FE00BF0BB05DF804FB00BF1C
S1132D70002D31010148E80198A5000000400E40F3
S1132D8080400E4088400E4084400E40B0400E40CB
S1132D90014B1B68184670474010002010B584B0E2
S1132DA001901120FFF73EFD0346042B04D142F2AB
S1132DB0A5613748FDF74EFE01220021022000F0F4
S1132DC0B5F8019B5B78002B07D1019B9B78002B06
S1132DD003D1019BDB78002B04D042F2E1612C4843
S1132DE0FDF738FE00230393019B1B7C012B04D1C8
S1132DF042F2E8612648FDF72DFE019B1B7C022B65
S1132E0001D101230393234B5B6A23F0010221497F
S1132E10039B13434B62019B1B781A4608211E48EF
S1132E20FEF7A4FF019B9B88DB02019A527A1146AC
S1132E30184A0B43D362174B1B6B03F07F62019B51
S1132E40DB88DB021343019A927A1A43019B1B7AB3
S1132E50DB0142EA0304019B1B7A1846FFF75FF982
S1132E6003460C4A23431363019B5B7B1A03019BB8
S1132E709B7B1B011343019AD27B1A43019B1B7B4F
S1132E801B04044913434B6300BF04B010BD00BFCF
S1132E9098A5000000400E4024400E4000B585B0C7
S1132EA001901120FFF7BEFC0346022B04D142F22D
S1132EB063711448FDF7CEFD134B9A6B134B13400B
S1132EC0019A12781A43019B5B78DB021A43019B37
S1132ED09B781B061A43019BDB781B021343039365
S1132EE0094B9B6B039A9A4207D0012200210020D0
S1132EF000F01CF8044A039B936300BF05B05DF81F
S1132F0004FB00BF98A5000000400E4080E4FFF8D9
S1132F1082B00346ADF80630034ABDF8063013808C
S1132F2000BF02B0704700BF5C10002000B589B03C
S1132F3003468DF807300B468DF8063013468DF89E
S1132F4005309DF80730042B3BD801A252F823F03A
S1132F50AD2F00009B2F0000772F0000652F00008D
S1132F60892F00000123059302230493012307936F
S1132F70002306932BE004230593082304930323DF
S1132F8007930223069322E010230593202304933E
S1132F90052307930423069319E040230593802314
S1132FA00493072307930623069310E04FF48073DA
S1132FB005934FF40073049309230793082306939E
S1132FC005E042F60A014948FDF744FD8BE09DF80F
S1132FD00630002B6AD000238DF80F309DF807309F
S1132FE0022B1BD1FFF7B2F80346002B16D1404B3E
S1132FF0DB6B03F48063002B04D142F619013B48D8
S1133000FDF728FD01238DF80F303A4B5B6A03F07E
S11330100103012B02D10120FFF7A2F8354A059BD9
S1133020136600BF06993448FEF7C0FE0346002B22
S1133030F8D09DF80530002B55D000BF07992E48D5
S1133040FEF7B4FE0346002BF8D09DF80730022BA0
S113305049D19DF80F30002B45D0264B5B6A03F015
S11330600103012B05D101222021022000F08EF959
S113307003E00021022000F02DF9022000F03EF8C8
S11330800290012200210220FFF750FF0299022042
S113309000F074F8174A059B136600BF0799164899
S11330A0FEF784FE0346002BF8D01CE0114A049B73
S11330B0136600BF0F4BD3F890300121069A01FA32
S11330C002F21340002BF5D19DF80530002B0AD0F5
S11330D000BF084BD3F890300121079A01FA02F29D
S11330E01340002BF5D109B05DF804FB98A500004E
S11330F000300E4000400E4090400E4000B585B0B8
S113310003468DF807309DF80730013B032B24D884
S113311001A252F823F000BF293100004D31000014
S11331203531000041310000124B1B6AC3F3080320
S113313003931AE00F4B1B6903F07F03039314E01E
S11331400C4B9B6903F07F0303930EE0094BD3F808
S11331509C30C3F30A03039307E00023039342F66E
S113316096010548FDF776FC00BF039B184605B0A1
S11331705DF804FB00400E4098A5000000B585B042
S1133180034600918DF807309DF80730013B032B6F
S113319000F28D8001A252F823F000BFAD3100008F
S11331A061320000ED31000027320000009BB3F5CE
S11331B0007F04D342F6BB014248FDF74BFC009B61
S11331C0C3F30803009300BF1A213F48FEF7EEFD46
S11331D00346002BF8D13D4B1B6A23F4FF7323F005
S11331E001033A49009A13430B6266E0009B7F2B6C
S11331F004D942F6C8013348FDF72CFC009B03F0C8
S11332007F03009300BF18212F48FEF7CFFD03462C
S1133210002BF8D12D4B1B6923F07F022B49009B17
S113322013430B6149E0009B7F2B04D942F6E30171
S11332302448FDF70FFC009B03F07F03009300BFBD
S113324019212148FEF7B2FD0346002BF8D11F4B8C
S11332509B6923F07F021D49009B13438B612CE083
S11332601A4BD3F8903003F00403002B04D042F639
S1133270F3011448FDF7EEFB144B5B6A23F03003B3
S1133280124A43F010035362009BDB0903F00F035F
S11332901846FEF744FF03900C4B1A6B0C4B13407B
S11332A0009A1A430949039B13430B6305E042F652
S11332B00D110448FDF7CEFB00BF00BF05B05DF85B
S11332C004FB00BF98A5000040410E4000400E40A2
S11332D000F8FF0F00B585B0034600918DF8073064
S11332E09DF80730022B04D042F625112448FDF73F
S11332F0B1FBFEF72BFF0346002B03D14FF4400331
S113330003931FE0009B302B10D0009B302B11D86F
S1133310009B002B06D0009B202B0BD14FF4000305
S113332003930FE04FF4400303930BE04FF4400387
S1133330039307E0134B03934FF425511048FDF713
S113334089FB00BF00BF104BD3F89020039B1340B0
S1133350039A9A42F7D1039B03F48003002B0AD00B
S1133360094BD3F8A03003F48063002B14BF01236E
S11333700023DBB200E00123184605B05DF804FB2E
S113338098A50000FF33E10700400E4000B583B06C
S1133390034600918DF8073013468DF806309DF8EA
S11333A00730022B16D1009B002B07D00F4B4FF494
S11333B08062C3F8A8200D4A009B53669DF806302E
S11333C0002B0DD09DF8073000991846FFF782FFB7
S11333D0034607E042F676110548FDF73BFB00E0A3
S11333E000BF0123184603B05DF804FB00400E4003
S11333F098A5000082B0EFF310830093009B019323
S113340072B600BF019B184602B0704782B00190AB
S1133410019B002B01D162B600BF00BF02B0704710
S113342084B0EFF311830193019B03936023029310
S1133430029B83F3118800BF039B184604B07047B6
S113344084B00190019B0393039B83F3118800BF15
S113345000BF04B07047000000B585B003468DF886
S113346007309DF90730002B03DB9DF90730322B21
S113347004DD40F21F310E48FDF7ECFA0D4B0393C7
S11334809DF907305A09039B53F822209DF8073011
S113349003F01F0322FA03F303F00103002B0CBF14
S11334A001230023DBB2184605B05DF804FB00BF1E
S11334B00CA6000000E100E000B587B00390029183
S11334C00192029B1F2B03D991210A48FDF7C2FAEE
S11334D0039B03F1424303F58013DA00029B134478
S11334E09B000593059B019A1A6000BF07B05DF825
S11334F004FB00BF5CA6000084B001900091019B16
S113350003F1424303F58013DA00009B13449B004C
S11335100393039B1B68184604B07047054B1B6854
S113352003F04003002B01D1012300E000231846DF
S1133530704700BF3C300E4008B5FFF7EFFF03466D
S113354083F00103DBB2002B08D100BF1221044831
S1133550FFF7D2FF0346002BF8D100E000BF08BDFF
S113356004300E4008B5FFF7E7FF044B5B681B0C03
S113357003F00303DBB2184608BD00BF00300E4061
S113358082B00190024A019BD36200BF02B070472F
S113359000300E40014B5B6A1846704700300E4005
S11335A0024B00225A6300BF704700BF00300E4038
S11335B0024B4AF6E8525A6300BF704700300E408F
S11335C082B003468DF807309DF80730C3F102033B
S11335D0102202FA03F3184602B0704784B0019037
S11335E01D4B9B690393039B23F03F030393019BB0
S11335F01B78002B01D0042200E00022019B5B78A1
S1133600002B01D0022300E000231343019A927897
S1133610002A01D0082200E000221343019AD27844
S1133620012A01D1012200E000221343019A1279F8
S11336301343039A13430393074A039B9361064B73
S11336401B6823F44032019B5B791B04024913433A
S11336500B6000BF04B0704700300E4000B585B069
S113366001900B468DF80330FFF758FF034683F0B3
S11336700103DBB2002B2AD1019B002B0FD1164B87
S1133680D3F800311B0A03F01F0301330293FDF743
S113369065F90246029B02FB03F3039301E0019BDD
S11336A003930E4B1B78002B0AD0039B0C4A9342C6
S11336B006D89DF803301946022000F013F807E0FD
S11336C09DF803301946002000F00CF800E000BF1C
S11336D005B05DF804FB00BF00400E40FC13002061
S11336E0002D310110B586B003460A468DF8073027
S11336F013468DF80630FFF711FF034683F00103EC
S1133700DBB2002B3FD1FFF72DFF03461A469DF88D
S11337100730934239D01E4BD3F800311B0A03F013
S11337201F0301330593FDF719F90490049B059ACF
S113373002FB03F303939DF80730022B0CD1039B88
S1133740144A934204D94FF4E3611348FDF782F914
S113375002210498FEF7CAFC104C9DF80730184665
S1133760FFF72EFF034623619DF80630002B01D09E
S1133770FFF7E2FE9DF80730002B07D100210498E3
S1133780FEF7B4FC02E000BF00E000BF06B010BDCD
S113379000400E40002D3101A8A6000000300E406C
S11337A0012318467047000000B583B00C4BDB6E54
S11337B00B4A43F08073D36600210A48FFF79CFE4E
S11337C00190019B002B03D0042000F075FD02E062
S11337D0002000F071FD00BF03B05DF804FB00BFE2
S11337E000300E404C300E4000B58BB001230993DD
S11337F0099B1B050893424BDB6C1B0A03F00F0368
S11338000793404B1B881A463E4B1B8828335B08A2
S1133810134403F12801079B5A1C13469B001344CD
S1133820B1FBF3F3013B0693069B05930723049333
S1133830049A059B934228BF13460693069B1B06D6
S11338400693069B23F0E063002B04D040F6ED01C1
S11338502D48FDF7FFF8089B23F4E003002B04D068
S113386040F6EE012848FDF7F5F8254BDB6C23F014
S1133870EE620699089B0B4321491343CB64234B07
S1133880B3F90030002B36DB204BB3F90030ADF830
S11338900E30BDF80E20BDF80E3028335B081344FB
S11338A003F12802079B01335900079B01335B088E
S11338B00B44B2FBF3F30293029B0193072300939F
S11338C0009A019B934228BF13460293029B1B015B
S11338D00293029B23F07003002B04D040F60611E0
S11338E00948FDF7B7F8064B1B6D23F07002044935
S11338F0029B13430B6500BF0BB05DF804FB00BFD4
S113390000300E40F6130020A8A60000FA13002091
S113391082B001900B46ADF80230019B9AB2044B81
S11339201A80044ABDF80230138000BF02B0704709
S1133930F6130020FA13002000B583B003468DF877
S113394007309DF80730002B02D0012B04D007E08C
S1133950084B094A9A6509E0064B084A9A6505E04E
S113396040F632110648FDF775F800BF00BF03B0FA
S11339705DF804FB00300E4077402057372110B724
S1133980A8A6000000B585B003468DF807300B46A5
S11339908DF8063013468DF80530344BD3F880315A
S11339A003939DF80630032B1CD801A252F823F090
S11339B0C1390000C9390000D3390000DD390000E5
S11339C0039BDBB2039314E0039B1B0ADBB2039358
S11339D00FE0039B1B0CDBB203930AE0039B1B0E5B
S11339E0039306E040F676112148FDF733F80023EF
S11339F038E09DF80530002B16D1039B1B0303937D
S1133A00039B23F47043002B06D040F68111184821
S1133A10FDF720F8002325E0164BDB6E23F47042FB
S1133A201449039B1343CB669DF80530012B18D131
S1133A30039B1B030393039B23F47043002B06D0C7
S1133A4040F68D110A48FDF705F800230AE0094BFA
S1133A50D3F8EC3023F470420649039B1343C1F8B6
S1133A60EC300123184605B05DF804FBB081E00F8B
S1133A70A8A6000000300E4000B589B00390029162
S1133A8011461A460B468DF8073013468DF806305A
S1133A9000230793002306939DF806301B029DF82C
S1133AA00720002A01D0012200E0002213430593DD
S1133AB0059B40F2013293425CD0059B40F20132F7
S1133AC0934200F29380059BB3F5407F00F082801F
S1133AD0059BB3F5407F00F28980059B40F20122EB
S1133AE093423BD0059B40F2012293427ED8059B32
S1133AF0B3F5007F62D0059BB3F5007F76D8059BB4
S1133B0040F2011293421DD0059BB3F5817F6DD223
S1133B10059BB3F5807F45D0059BB3F5807F65D8C1
S1133B20059B002B32D0059B012B5FD1374BD3F87B
S1133B3074310793079B1B0ADBB20693079BDBB226
S1133B40079359E0314BD3F874310793079B1B0E4D
S1133B500693079B1B0CDBB207934DE02B4BD3F86A
S1133B6078310793079B1B0ADBB20693079BDBB2F2
S1133B70079341E0254BD3F878310793079B1B0E3D
S1133B800693079B1B0CDBB2079335E01F4BD3F85E
S1133B906C310793079B1B0ADBB20693079BDBB2CE
S1133BA0079329E0194BD3F86C310793079B1B0E3D
S1133BB00693079B1B0CDBB207931DE0134BD3F852
S1133BC070310793079B1B0ADBB20693079BDBB29A
S1133BD0079311E00D4BD3F870310793079B1B0E2D
S1133BE00693079B1B0CDBB2079305E040F6F2112A
S1133BF00748FCF72FFF00BF039B079A1A60029B3C
S1133C00069A1A6000BF09B05DF804FBB081E00FAA
S1133C10A8A6000000B585B001906C4B02229A63FF
S1133C206A4B9B6B03F00F03022B06D040F6162160
S1133C306748FCF70FFF0023C3E0FFF7B1FD019BCA
S1133C401B89C82B04D94FF422616148FCF702FF99
S1133C50019B9A88019B1B899A4204D940F6212131
S1133C605B48FCF7F7FE019BB3F90C30C82B04DD6D
S1133C7040F622215648FCF7EDFE019B5B78012BB0
S1133C8009D1019B9B88C82B12D940F626215048A4
S1133C90FCF7E0FE0CE0019B5B78022B08D1019B52
S1133CA09B880A2B04D940F62B214948FCF7D2FE05
S1133CB0019BDB8842F21072934204D940F633210F
S1133CC04348FCF7C7FE019BDB884A2B02D800233C
S1133CD0039315E0019BDB88B3F5FA7F03D24FF021
S1133CE0805303930CE0019BDB8840F6C31293429C
S1133CF003D84FF00053039302E04FF04053039373
S1133D00324BDB6C23F0405323F00103019AB2F9E8
S1133D100C20002A01DB012100E00021039A0A4360
S1133D202A491343CB64294BD3F8EC30274A43F494
S1133D304073C2F8EC30019B9A88264B1A80FFF737
S1133D4033FD019B1B891A46019BB3F90C301946BC
S1133D501046FFF7DDFD019B9B88184600F03AFAF8
S1133D60019B9B7B1846FFF7E7FD019B5B880122C3
S1133D700121184600F0C0F8034683F00103DBB2CA
S1133D80002B06D040F66A211148FCF763FE00239D
S1133D9017E00E4BDB6B0D4A43F48063D363019B46
S1133DA05B78184600F01AF8019B9B7A202B01D10E
S1133DB0012300E000231A4605210748FFF77CFB96
S1133DC00123184605B05DF804FB00BF00300E4027
S1133DD0A8A60000F81300203C300E4000B585B0C2
S1133DE003468DF80730424B5B6B012B0CBF01235C
S1133DF000238DF80F30FFF7DBFB00BF3C4B9B6FBC
S1133E0003F00103002BF9D1394B1B6C03F00303BE
S1133E100293029B002B04D001220D213548FFF7A9
S1133E204BFB029BDBB29DF807209A4209D19DF817
S1133E300730002B58D100220D212E48FFF73CFB00
S1133E4052E0029B032B02D0029B002B22D19DF84F
S1133E500730022B03D09DF80730012B1AD14FF401
S1133E600020FFF78DFB00BF214B9B6F03F0010384
S1133E70002BF9D11E4B1B6C23F003031C4A43F0A7
S1133E800103136400BFFFF785FB034603F400231B
S1133E90002BF8D000BF164B9B6F03F00103002BDF
S1133EA0F9D1134B1B6C23F003029DF80730104922
S1133EB013430B6400BF0E4B9B6F03F00103002BF5
S1133EC0F9D19DF80730002B14BF01230023DBB286
S1133ED01A460D210748FFF7EFFA9DF80F30002B23
S1133EE003D0FFF75DFB00E000BF05B05DF804FB05
S1133EF000300E4054300E4010B594B001900B4683
S1133F008DF8033013468DF80230002313930023F9
S1133F10119309AB00221A605A609A6006AB002222
S1133F201A605A609A6003AB00221A605A609A6061
S1133F30A44B1B88ADF8083000238DF80A30019B90
S1133F40B3F5E16F06D3019B40F6B832934201D832
S1133F50012300E000238DF843309DF8433003F043
S1133F6001038DF843309DF8433083F00103DBB245
S1133F70002B06D040F67B319348FCF76BFD002301
S1133F801DE1019BB3F5E16F8CBF012300238DF884
S1133F9042309DF84230002B0AD04FF4E163139372
S1133FA040F6B8331193119A139BD31A129309E074
S1133FB04FF4966313934FF4E1631193119A139B97
S1133FC0D31A12939DF84230002B0BD07F4BD3F8B9
S1133FD068310893089B1B0E0593089B1B0CDBB2EE
S1133FE008930AE0794BD3F868310893089B1B0ABD
S1133FF0DBB20593089BDBB20893754BDB6C1B0F9C
S1134000DBB203F00303DBB28DF808309DF808300F
S11340109DF8422003A906A8FFF72EFD6C4BD3F8A8
S1134020EC301B0ADBB203F00303DBB28DF809307A
S11340309DF809409DF8422003AB191D06AB181DDD
S11340402346FFF719FD019A139BD31A0599089A81
S11340508A1A03FB02F2129BB2FBF3F30B930B9A43
S1134060089B13440B93019A139BD31A0399069A42
S11340708A1A03FB02F2129BB2FBF3F30993099A27
S1134080069B13440993019A139BD31A0499079A24
S11340908A1A03FB02F2129BB2FBF3F30A930A9A05
S11340A0079B13440A930B9A059B9A4213D80B9AC5
S11340B0089B9A420FD30A9A049B9A420BD80A9AF5
S11340C0079B9A4207D3099A039B9A4203D8099AF9
S11340D0069B9A4206D240F6C9313B48FCF7BAFC2B
S11340E000236CE09DF80230002B12D0384BDB6DBE
S11340F023F4FE4323F002030B9A120213439DF8A8
S11341004220002A01D0022200E000223049134359
S1134110CB659DF80330002B50D09DF808109DF816
S1134120423000221846FFF72DFC034683F00103BA
S1134130DBB2002B06D040F6D8312348FCF78AFCCA
S113414000233CE09DF809109DF8423001221846F6
S1134150FFF718FC034683F00103DBB2002B06D003
S11341604FF43E611848FCF775FC002327E0099BD7
S11341700F930A9B0E930E9A0F9B934238BF1346DC
S11341800993099B0D93E7230C930C9A0D9B93427F
S113419028BF134609930E4B5B6E23F4FF7323F081
S11341A00103099A520013439DF84220002A01D0CA
S11341B0012200E00022064913434B6601231846FE
S11341C014B010BDF4A60000A8A60000B081E00F52
S11341D000300E4000B585B0019000230393344BAA
S11341E01B6F03F007030293314BDB6C03F00103F5
S11341F0002B14D0029B012B11D9019B132B02D845
S1134200042303933DE0019B132B05D9019B272B2A
S113421002D80823039334E01023039331E0244BA2
S1134220DB6C03F00103002B14D1029B012B11D88A
S1134230019B092B02D80423039322E0019B092B41
S113424005D9019B132B02D80823039319E01023EB
S1134250039316E0164BDB6C03F00103002B0BD029
S1134260029B012B08D8019B272B02D80823039318
S113427007E01023039304E040F61E410D48FCF7C9
S1134280E9FB039B013B0393039B1A02039B1B0360
S113429013430393064BDB6C23F47F420449039BD3
S11342A01343CB64FFF7A0FA00BF05B05DF804FB2D
S11342B000300E40A8A6000000B585B003468DF876
S11342C0073000211248FFF717F90390039B002BD6
S11342D003D19DF80730012B07D9039B002B04D190
S11342E040F63C410B48FCF7B5FB0B4B1B6F23F02E
S11342F007029DF80730084913430B67074B1B88D7
S11343001846FFF767FF00BF05B05DF804FB00BF68
S11343104C300E40A8A6000000300E40F8130020D8
S113432000B587B0039002910192029B1F2B03D921
S113433091210A48FCF78EFB039B03F1424303F5EA
S11343408013DA00029B13449B000593059B019A9A
S11343501A6000BF07B05DF804FB00BFF8A60000B8
S113436084B001900091019B03F1C0630393039B0C
S1134370009A1A6000BF04B0704784B001900091A5
S1134380019B03F180630393039B009A1A6000BFAF
S113439004B0704700B587B0039002910192FFF713
S11343A029F80590039B1A68029BDB431A40019984
S11343B0029B0B401A43039B1A600598FFF726F8EB
S11343C000BF07B05DF804FB82B00190034A019B73
S11343D0C2F8243400BF02B0704700BF00A0004000
S11343E000B583B0034600918DF807309DF807307F
S11343F0002B42D09DF80730012B3BD09DF80730AD
S1134400022B34D09DF80730032B2DD09DF80730B4
S1134410042B27D09DF80730052B20D09DF80730BA
S1134420062B1AD09DF80730072B14D09DF80730BF
S1134430082B0ED09DF80730092B07D09DF80730C4
S11344400A2B01D107231AE0002318E04FF440435C
S113445015E00F2313E0002311E000230FE04FF6D3
S1134460FF730CE000230AE04FF47F4307E040F6BB
S1134470FF7304E04FF6C07301E040F2FF33009A8B
S1134480D34003F00103002B04D140F2FE310D4868
S1134490FCF7E0FA9DF8072013465B0013441B0168
S11344A00C3303F1804303F520430121009A01FA00
S11344B002F211461846FFF760FF00BF03B05DF833
S11344C004FB00BF44A7000000B583B0034600917D
S11344D08DF807309DF80730002B42D09DF8073047
S11344E0012B3BD09DF80730022B34D09DF80730C8
S11344F0032B2DD09DF80730042B27D09DF80730CF
S1134500052B20D09DF80730062B1AD09DF80730D4
S1134510072B14D09DF80730082B0ED09DF80730D8
S1134520092B07D09DF807300A2B01D107231AE085
S1134530002318E04FF4404315E00F2313E0002359
S113454011E000230FE04FF6FF730CE000230AE0B4
S11345504FF47F4307E040F6FF7304E04FF6C07367
S113456001E040F2FF33009AD34003F00103002B33
S113457004D140F22D410D48FCF76CFA9DF8072058
S113458013465B0013441B010C3303F1804303F512
S113459020430121009A01FA02F211461846FFF75E
S11345A0DFFE00BF03B05DF804FB00BF44A70000BA
S11345B000B583B00190019B1F2B03D952210848F9
S11345C0FCF748FA074BD3F8443423F003020549B7
S11345D0019B1343C1F8443400BF03B05DF804FBEE
S11345E094A7000000A0004000B587B0029101929A
S11345F01A4603468DF80F3013468DF80E3000230B
S113460005939DF80F30002B42D09DF80F30012BFD
S11346103BD09DF80F30022B34D09DF80F30032B84
S11346202DD09DF80F30042B27D09DF80F30052B8B
S113463020D09DF80F30062B1AD09DF80F30072B91
S113464014D09DF80F30082B0ED09DF80F30092B95
S113465007D09DF80F300A2B01D107231AE000235D
S113466018E04FF4404315E00F2313E0002311E05A
S113467000230FE04FF6FF730CE000230AE04FF431
S11346807F4307E040F6FF7304E04FF6C07301E098
S113469040F2FF33029AD34003F00103002B03D10D
S11346A0BF213B48FCF7D6F9019A029B534023F003
S11346B00303002B03D0C1213548FCF7CBF9019B40
S11346C0072B0FD8019B9B000F2202FA03F19DF8E0
S11346D00F20019B9B0002FA03F31A462D48FFF7B3
S11346E059FE11E0019B083B0593059B9B000F229B
S11346F002FA03F19DF80F20059B9B0002FA03F3D5
S11347001A462548FFF746FE019B072B10D8019B4C
S11347109B00032202FA03F1029B03F00302019BB4
S11347209B0002FA03F31A461C48FFF733FE0FE01E
S1134730059B9B00032202FA03F1029B03F0030290
S1134740059B9B0002FA03F31A461548FFF722FE65
S11347509DF80E301A4601991248FFF7E1FD9DF8C5
S113476020301A4601991048FFF7DAFD0122019B17
S113477002FA03F31846FFF727FE9DF824301A4681
S113478001990A48FFF7CCFD00BF07B05DF804FBB0
S113479094A7000000A4004004A4004008A4004022
S11347A00CA4004010A4004014A4004028A400401D
S11347B000B585B002910192009303468DF80F3045
S11347C09DF80F30002B42D09DF80F30012B3BD0C9
S11347D09DF80F30022B34D09DF80F30032B2DD0D1
S11347E09DF80F30042B27D09DF80F30052B20D0D7
S11347F09DF80F30062B1AD09DF80F30072B14D0DC
S11348009DF80F30082B0ED09DF80F30092B07D0E0
S11348109DF80F300A2B01D107231AE0002318E07A
S11348204FF4404315E00F2313E0002311E000236D
S11348300FE04FF6FF730CE000230AE04FF47F43D0
S113484007E040F6FF7304E04FF6C07301E040F266
S1134850FF33029AD34003F00103002B04D14FF439
S1134860B0713248FCF7F6F8019B002B0FD0009B87
S1134870002B06D09DF80F3002991846FFF724FE4E
S113488005E09DF80F3002991846FFF7A9FD029B39
S1134890072B19D89DF80F2013465B0013441B0106
S11348A0043303F1804303F52043029A92000F215D
S11348B001FA02F0029A9200019901FA02F2014609
S11348C01846FFF767FD1AE09DF80F2013465B00BA
S11348D013441B01083303F1804303F52043029A78
S11348E0083A92000F2101FA02F0029A083A920063
S11348F0019901FA02F201461846FFF74BFD019BAC
S1134900002B0FD1009B002B06D09DF80F3002998D
S11349101846FFF7D9FD05E09DF80F3002991846B7
S1134920FFF75EFD00BF05B05DF804FB94A700002F
S113493000B583B001900091019B022B03D94C2157
S11349401748FCF787F8009B5B791F2B03D94F218D
S11349501348FCF77FF8009B1B781A46009B5B7892
S11349609B001A43009B9B789B011A43009BDB78B6
S11349701B011A43009B1B79DB021A43009B5B79E2
S11349801B031A43009B9B795B0406491A43019B52
S113499004331B010B441A6000BF03B05DF804FB31
S11349A030A800000020044082B00190019B1B78D5
S11349B0002B01D0012200E00022019B5B78002B38
S11349C001D0042300E000231343019A9278002AC3
S11349D001D0102200E000221343019AD278002A69
S11349E001D0202200E000221A43019B1B791B0204
S11349F01A43019B5B791B031343019A9279002AA2
S1134A0002D04FF4004200E000221A43019BDB79FC
S1134A101B041343019A127A002A02D04FF4003285
S1134A2000E00022024913430B6000BF02B070474C
S1134A300020044000B585B00190019B002B03D1F8
S1134A4057211F48FCF706F81E4B5B69DBB29B003D
S1134A50DBB203F03C038DF80F301A4B1B699B0942
S1134A60DBB203F00303DAB29DF80F3013438DF881
S1134A700F30019B9DF80F209A70124B1B69DBB21B
S1134A8003F03F03DAB2019B5A700E4B9B691B097A
S1134A90DBB21B018DF80F300A4BDB691B09DBB25B
S1134AA003F00F03DAB29DF80F3013438DF80F3083
S1134AB0019B9DF80F201A7000BF05B05DF804FB40
S1134AC080A80000D0FF0FE082B00190019B0C4A47
S1134AD093420BD0019B0B4A934207D0019B0A4A95
S1134AE0934203D0019B094A934201D1012300E080
S1134AF0002303F00103DBB2184602B0704700BF85
S1134B00008001400084014000A0014000A4014055
S1134B1000B585B0019000910198FFF7D5FF0346D9
S1134B20002B03D1A5213748FBF794FF00230393FF
S1134B30009B1B7883F00103DBB2002B02D0019BA6
S1134B4002225A60019B00225A62009B9B781A063B
S1134B50009BDB781B041A43009B9B799B021A433E
S1134B60009BDB791B021343009A127A1343009AC9
S1134B705278002A01D0402200E000221343009A18
S1134B80527A002A01D0802200E000221343009AC6
S1134B90927A002A01D0202200E000221343009AD6
S1134BA0D27A002A01D0102200E000221343009A96
S1134BB0127B002A01D0082200E000221343039351
S1134BC0009B1B79002B02D04FF4005200E000221E
S1134BD0009B5B79002B02D04FF0805300E0002350
S1134BE01343039A13430393019B039A1A60009B94
S1134BF01B78002B02D0019B01225A6000BF05B034
S1134C005DF804FB20A9000000B585B00390029173
S1134C1001920398FFF758FF0346002B03D1F521B7
S1134C202948FBF717FF029B032B03D9F6212648DB
S1134C30FBF710FF019B1B789A06019B5B781B0610
S1134C401A43019B9B781B041A43019BDB781B03CB
S1134C501A43019B1B799B021A43019B5B791B023C
S1134C601343019A92791343019AD279002A02D00C
S1134C704FF0804200E000221343019A127A002A86
S1134C8002D04FF0005200E000221343019A527AFE
S1134C90002A01D0102200E000221343019A927AE4
S1134CA0002A01D0042200E000221A43019BDB7A8F
S1134CB01B071A430399029B06331B010B441A601A
S1134CC000BF05B05DF804FB20A9000082B001908C
S1134CD00B468DF803309DF8033063F07F03DBB29D
S1134CE01A46019B9A6500BF02B0704700B587B0B1
S1134CF0039002910192019B002B04D140F28E217A
S1134D001248FBF7A7FE029B002B03D11048FDF7C6
S1134D1063FB0290029B5A1E019B5B00B2FBF3F300
S1134D200593059B1B020593059A0A4B1340002B20
S1134D3004D040F2B3210548FBF78CFE039B059A8F
S1134D405A6100BF07B05DF804FB00BF70A9000002
S1134D5040410500070080FF00B583B00190009139
S1134D60019B404A934210D0019B3F4A93420CD08E
S1134D70019B3E4A934208D0019B3D4A934204D092
S1134D8040F269313B48FBF765FE019800F074F886
S1134D90019B1A68009B1B8A43F001039BB21946CE
S1134DA0009B9B7B002B02D04FF4806300E0002328
S1134DB00B431A43019B1A60019B1B68009A127DE6
S1134DC0002A02D04FF0005200E000221A43019B57
S1134DD01A60009B9B7C002B05D0009BDB7C194652
S1134DE00198FFF773FF009B1B7B43F48052019BE8
S1134DF05A60009B5968009B9B681A460198FFF70C
S1134E0075FF009B5B7B002B02D0019B1022DA60B4
S1134E10009B5B7D002B05D0019B1B6843F4803213
S1134E20019B1A60009B9B7D002B05D0019B1B6896
S1134E3043F40042019B1A60009BDB7D1B0703F0D7
S1134E40E042009B1B7E1B0503F4E0031A43019B15
S1134E501A66009B1B781A46019BDA6000BF03B0F8
S1134E605DF804FB0000014000040140000801401B
S1134E70000C014070A9000000B583B00190019BB3
S1134E802D4A934210D0019B2C4A93420CD0019B93
S1134E902B4A934208D0019B2A4A934204D040F201
S1134EA042412948FBF7D6FD019B40F6AA62DA602D
S1134EB0019B00221A60019B41F205025A60019B8A
S1134EC000229A60019B00225A61019B0022DA644D
S1134ED0019B1E4A9A64019B00221A66019B0022D0
S1134EE05A67019B00229A67019B0022DA67019BA3
S1134EF0114A93420BD0019B104A934207D0019B65
S1134F000F4A934203D0019B0E4A934202D1019B64
S1134F1000221A65019B00229A65019B074A93426D
S1134F2003D0019B074A934202D1019B0022DA6518
S1134F3000BF03B05DF804FB000001400004014021
S1134F4000080140000C014070A90000F9FF0100B5
S1134F5082B001900B468DF8033000BF019B1B69A2
S1134F6003F04003002BF9D09DF80320019B5A6302
S1134F7000BF019B1B6903F02003002BF9D0019BA8
S1134F80DB69DBB2184602B07047000010B584B08C
S1134F90064B6C460FCB84E80F006B461846FEF7B1
S1134FA039FE0023184604B010BD00BFC0A900009C
S1134FB000B583B06B4600221A609A8000238DF8F6
S1134FC0003000238DF8013000238DF802300023D7
S1134FD08DF8033000238DF8043002238DF805305A
S1134FE06B461846FEF7FAFA0023184603B05DF83C
S1134FF004FB000030B58DB01F4B06AC1D460FCD31
S11350000FC42B68238000238DF828304FF0FF3322
S11350100B931A4B5B6803F40023002B04D1174B4A
S11350209B68C3F308030B930B9BB3F1FF3F08D1B9
S1135030134B1B884FF6FF72934202D0104B1B8810
S11350400B930B9BB3F1FF3F02D140F243130B933D
S11350500B9BB3F1FF3F03D00B9B9BB2ADF81E300B
S11350600848FBF7BFFC06AB1846FDF797FE002384
S113507018460DB030BD00BFD0A90000B081E00FCC
S11350800001E00F00F0490200B583B00B4B1B6830
S1135090019300238DF8073020238DF80430072373
S11350A08DF8063001AB1846FDF7F8FE6420FDF7D5
S11350B02FFF0023184603B05DF804FBE4A90000A9
S11350C082B0034600918DF807309DF90730002B1C
S11350D00ADB009BDAB20C499DF907305201D2B2C7
S11350E00B4483F800230BE0009BDAB207499DF8D8
S11350F0073003F00F03043B5201D2B20B441A767B
S113510000BF02B0704700BF00E100E000ED00E026
S113511000B583B0FB238DF807300CE09DF9073010
S113512005211846FFF7CCFF9DF90730DBB20133A8
S1135130DBB28DF807309DF90730322BEEDD00230A
S1135140184603B05DF804FB08B5FBF71FF9FBF73D
S113515032F9FBF73DF9FBF740F9FBF743F900BFE0
S113516008BD000000B587B00190FBF7D3FB0346F0
S1135170174AA2FB03239B090593059B002B04D12B
S113518036211448FBF766FC1EE0134A059BB2FB6C
S1135190F3F30493049B002B04D13C210D48FBF74B
S11351A059FC11E0019B4FF47A7203FB02F2049B59
S11351B0B2FBF3F30393039B9B080293029B002B24
S11351C002D0029800F00CF807B05DF804FB00BFB1
S11351D0D34D6210E8A9000040420F000000000017
S11351E0013800D0FCE77047054B064A1A60044BAF
S11351F00A225A60024B00229A6000BF704700BF27
S113520000140020455400003E4B3F4A1A603D4BB9
S113521008221A713B4B03225A713A4B3B4A9A605B
S1135220384B06221A73374B00225A73354B384ACF
S11352301A61344B07221A75324B00225A75314BCE
S1135240344A9A612F4B0D221A772E4B05225A7736
S11352502C4B314A1A622B4B0F2283F82420294B02
S1135260052283F82520274B2C4A9A62254B0E22CF
S113527083F82C20234B052283F82D20214B284A28
S11352801A63204B012283F834201E4B082283F832
S113529035201C4B234A9A631A4B022283F83C2084
S11352A0184B082283F83D20164B1F4A1A64154BED
S11352B0032283F84420134B082283F84520114B22
S11352C01A4A9A640F4B092283F84C200D4B012291
S11352D083F84D200B4B164A1A650A4B042283F8B7
S11352E05420084B022283F85520064B114A9A6534
S11352F0044B052283F85C20024B022283F85D20D4
S113530000BF70470C140020895500003955000077
S113531061550000D95500002956000001560000CF
S11353207154000099540000C1540000B1550000AC
S1135330E95400001155000010B584B000238DF825
S11353400F3033E09DF80F2013465B0013449B009D
S113535008331A4A13441846FBF7DEFF9DF80F2062
S1135360164913465B0013449B000B44083318682A
S11353709DF80F20114913465B0013449B000B4416
S1135380043319689DF80F200C4C13465B0013443A
S11353909B0023441B68002200920A460021FCF76C
S11353A077F89DF80F3001338DF80F309DF80F30EA
S11353B0002BC7D000BF00BF04B010BD00140020F4
S11353C000B585B0FBF72AFE00238DF80F302EE0E0
S11353D09DF80F301A4ADB0013441A799DF80F30F8
S11353E0174951F8333019461046FBF733FE9DF840
S11353F00F30134ADB00134458799DF80F30104ADC
S1135400DB0013441B7919469DF80F300C4ADB006E
S113541013441B791A4601230193012300930123AA
S1135420FFF7E2F89DF80F3001338DF80F309DF847
S11354300F300B2BCCD900BF00BF05B05DF804FBC7
S11354400C14002000B585B00390029100F072FBAB
S1135450064B5A68054B1B680021009100210398F4
S1135460FCF716F800BF05B05DF804FB001400203B
S113547000B583B003468DF80730064B5B680133F3
S1135480044A5360012000F03BF900BF03B05DF80B
S113549004FB00BF6C14002000B583B003468DF8F4
S11354A00730064B9B680133044A9360012000F0E7
S11354B027F900BF03B05DF804FB00BF6C140020A3
S11354C000B583B003468DF80730064BDB68013323
S11354D0044AD360012000F013F900BF03B05DF863
S11354E004FB00BF6C14002000B583B003468DF8A4
S11354F00730064B1B690133044A1361002000F096
S1135500FFF800BF03B05DF804FB00BF6C1400207B
S113551000B583B003468DF80730064B5B69013351
S1135520044A5361002000F0EBF800BF03B05DF8BB
S113553004FB00BF6C14002000B583B003468DF853
S11355400730064B9B690133044A9361012000F044
S11355507FF800BF03B05DF804FB00BF6C140020AB
S113556000B583B003468DF80730064BDB69013381
S1135570044AD361012000F06BF800BF03B05DF86A
S113558004FB00BF6C14002000B583B003468DF803
S11355900730064B1B6A0133044A1362012000F0F2
S11355A057F800BF03B05DF804FB00BF6C14002083
S11355B000B583B003468DF80730064B5B6A0133B0
S11355C0044A5362002000F09BF800BF03B05DF86A
S11355D004FB00BF6C14002000B583B003468DF8B3
S11355E00730064B5B6B0133044A5363002000F021
S11355F02FF800BF03B05DF804FB00BF6C1400205B
S113560000B583B003468DF80730064B9B6B01331E
S1135610044A9363002000F01BF800BF03B05DF858
S113562004FB00BF6C14002000B583B003468DF862
S11356300730064BDB6B0133044AD363002000F0D0
S113564007F800BF03B05DF804FB00BF6C14002032
S113565010B582B003468DF807309DF80730184620
S113566000F014FD9DF80730184600F083FD9DF806
S11356700730184601F032F89DF807301F4A6821B8
S113568001FB03F313441B78052B00D900BE9DF8DE
S11356900730184601F062F89DF8074000F0DAF987
S11356A002461649682304FB03F30B4410331A60C3
S11356B09DF80730114A682101FB03F313440833B2
S11356C01A689DF807300D49682000FB03F30B446A
S11356D0143393F9003019469DF807300A440749FA
S11356E0682000FB03F30B4408331A609DF807306D
S11356F0184600F057FC00BF02B010BD5041002016
S113570082B003468DF8073000BF02B07047000036
S113571010B485B003468DF807309DF80730614911
S113572040F63C3203FB02F20A4402F5FE621268C0
S113573001325C4940F63C3000FB03F30B4403F5B3
S1135740FE631A609DF80730564A40F63C3101FB6F
S113575003F3134403F5FE631B6803939DF80710DA
S11357609DF807004F4C039A13465B00134440F620
S11357703C3200FB02F21344234403F522634A48FB
S1135780682201FB02F20244183204331188927831
S113579019809A709DF807209DF8073042496820C7
S11357A000FB02F20A44283212683E4840F2CF213C
S11357B003FB01F1039B0B4403F5FE739B000344BD
S11357C004331A609DF807209DF807303649682095
S11357D000FB02F20A4421321078324A40F63C318E
S11357E001FB03F31A44039B134403F5F5630246D8
S11357F01A709DF807209DF807302B49682000FB9C
S113580002F20A4430321268264840F2CF2103FBE8
S113581001F1039B0B44D2339B0003441A609DF8AF
S113582007209DF807302049682000FB02F20A4453
S11358304C3212681B4840F2CF2103FB01F1039B59
S11358400B4403F58C739B0003441A609DF80720F6
S11358509DF807301449682000FB02F20A442C32F8
S11358601268104840F2CF2103FB01F1039B0B4463
S113587003F242239B00034404331A609DF807306B
S1135880084A40F63C3101FB03F3134403F5FE637D
S11358901B68452B00DDFEE700BF05B05DF8044B37
S11358A0704700BFAC1400205041002082B0034672
S11358B00A468DF8073013468DF806309DF8072008
S11358C09DF807300B4940F63C3000FB03F30B44D2
S11358D003F5FE631B68074940F63C3000FB02F207
S11358E00A44134403F6F6239DF806201A7000BFF9
S11358F002B07047AC14002082B0034600918DF8CA
S113590007309DF807209DF807300B4940F63C30DE
S113591000FB03F30B4403F5FE631B68064940F2E6
S1135920CF2000FB02F213449B000B44009A1A6040
S113593000BF02B0704700BFAC14002082B0034621
S113594000918DF807309DF807209DF807300B492A
S113595040F63C3000FB03F30B4403F5FE631B6885
S1135960064940F2CF2000FB02F2134446339B0069
S11359700B44009A1A6000BF02B07047AC140020B8
S113598082B0034600918DF807309DF807209DF8FA
S113599007300B4940F63C3000FB03F30B4403F59E
S11359A0FE631B68064940F2CF2000FB02F2134459
S11359B08C339B000B44009A1A6000BF02B07047FE
S11359C0AC14002082B0034600918DF807309DF896
S11359D007209DF807300C4940F63C3000FB03F3E8
S11359E00B4403F5FE631B68074940F2CF2000FB1C
S11359F002F2134403F5AF739B000B44009A1A6040
S1135A0000BF02B0704700BFAC14002082B0034650
S1135A1000918DF807309DF807209DF807300C4958
S1135A2040F63C3000FB03F30B4403F5FE631B68B4
S1135A30074940F2CF2000FB02F2134403F5D2736E
S1135A409B000B44009A1A6000BF02B0704700BF6D
S1135A50AC14002008B501F063F90346184608BDEC
S1135A6030B583B00190019B1B7B002B0FD0019BB1
S1135A704FF000029A60019B4FF000021A60019BF4
S1135A804FF000025A60019B00221A734CE0019B04
S1135A90D3ED027AB7EE007A77EE877A019BC3EDF5
S1135AA0027A019B9B68184603F0C6FE02460B4629
S1135AB04FF000001E4904F041F802460B4614461C
S1135AC01D46019B5B68184603F0B6FE02460B4672
S1135AD02046294603F008FF02460B4614461D469D
S1135AE0019BD3ED027AB7EE007A77EEC76A019B89
S1135AF0D3ED027A86EEA77A019BD3ED007A67EEA6
S1135B00277A17EE900A03F097FE02460B462046CA
S1135B10294603F033FD02460B461046194604F0AD
S1135B209DF90246019B1A6000BF03B030BD00BF5F
S1135B300000F03F00B583B000238DF8073046E045
S1135B409DF80730184600F04FFE9DF80730682294
S1135B5002FB03F34833224A134404331846FFF785
S1135B607FFF9DF80730184600F06EFC9DF8073063
S1135B70184600F039F89DF80730184600F022F96D
S1135B80034618469DF80730154A682101FB03F3C4
S1135B90134460331B780343DBB21A469DF8073085
S1135BA0002A14BF01220022D0B20D4A682101FB51
S1135BB003F31344603302461A709DF80730184605
S1135BC0FFF7A6FD9DF8073001338DF807309DF8E7
S1135BD00730012BB4D900BF03B05DF804FB00BF4C
S1135BE0504100200000000010B582B003468DF83B
S1135BF007309DF80730704A682101FB03F3134412
S1135C0048331B68184603F017FE67A3D3E9002343
S1135C1004F0DCF80346002B18D09DF80730664AE0
S1135C20682101FB03F3134448331B68184603F04F
S1135C3003FE5FA3D3E9002304F0E6F80346002B38
S1135C4004D09DF807305D4A0021D1549DF80730F7
S1135C505A4AD35C032B00F2A38001A252F823F02A
S1135C60715C0000115D00003D5D0000855D000079
S1135C709DF80730504A682101FB03F3134448336D
S1135C801B68184603F0D8FD01231C4646A3D3E93C
S1135C90002304F09BF80346002B01D100231C468B
S1135CA0E3B283F00103DBB2002B1DD19DF8073072
S1135CB0414A682101FB03F3134448331B68184627
S1135CC003F0BAFD01231C4639A3D3E9002304F0F1
S1135CD09BF80346002B01D100231C46E3B283F05A
S1135CE00103DBB2002B58D09DF807209DF8073044
