S0150000666C795F636F6E74726F6C6C65722E733337F1
S1130000001000206D05000069050000690500006E
S11300106905000069050000690500006905000024
S11300206905000069050000690500006905000014
S11300306905000069050000690500006905000004
S113004069050000690500006905000069050000F4
S113005069050000690500006905000069050000E4
S113006069050000690500007D090000B50900006C
S113007069050000690500006905000069050000C4
S11300806905000069050000990900006905000080
S113009069050000690500006905000069050000A4
S11300A06905000069050000690500006905000094
S11300B06905000069050000690500006905000084
S11300C06905000069050000690500006905000074
S11300D06905000069050000690500006905000064
S11300E06905000069050000690500006905000054
S11300F06905000069050000690500006905000044
S113010069050000690500006905000010B5054C8B
S1130110237833B9044B13B10448AFF300800123AF
S1130120237010BDB010002000000000242900003E
S113013008B5034B1BB103490348AFF3008008BD66
S113014000000000B410002024290000A3F5803A28
S1130150704700BF174B002B08BF134B9D46FFF79A
S1130160F5FF00218B460F461348144A121A02F079
S1130170C3F90E4B002B00D098470D4B002B00D039
S113018098470020002104000D000D48002802D0EB
S11301900C48AFF3008002F08BF92000290000F036
S11301A015F802F071F900BF00000800000000001B
S11301B00000000000100020B0100020D812002021
S11301C000000000000000007047704708B502F00E
S11301D015F9FFF7F9FF02F01EF9FFF7F6FFFAE74A
S11301E000F016B908B50421112001F073F809488C
S11301F0012100F08FFC0848022101F06BF8074848
S1130200022101F067F80648022101F063F800209A
S113021008BD00BF30253E0002001E000300200080
S11302200500240010B52748012100F073FC0023C9
S113023018460122062101F051FE0023184601222E
S1130240072101F04BFE002318460122082101F08A
S113025045FE002318460122092101F03FFE012238
S113026010460023062101F039FE01221046002326
S1130270072101F033FE012210460023082101F07A
S11302802DFE012210460023092101F027FE002340
S113029001220B21022001F021FE0023012204216E
S11302A0022001F01BFE002301220521022001F09F
S11302B015FEBDE81040002301220821032001F0AF
S11302C00DBE00BF00350A0008B5224B01225A6456
S11302D0214BD3F8FC20214B120E12D14AF6E851DF
S11302E0C3F89011D3F8981141F00401C3F89811A0
S11302F0C3F89021D3F8642142F40052C3F8642176
S113030001E0012AF6D0164A136A23F4441343F495
S113031088131362A2F58042136843F48073136058
S113032002F54052D2F8A43143F4F843C2F8A431A0
S113033002F046F800F084F801F0D2FF01F0F4FF77
S113034002F02AF8FFF74EFF01F0E0FFBDE8084095
S113035000F068B800000E400081E00F00300E404D
S113036000400E4008B500F0A3F9FFF75BFF00F072
S1130370EDFA00F019F8BDE8084000F067B800F0A5
S113038045B870477047000008B50448282100F0BC
S1130390A1FABDE80840014800F094BA001000201A
S11303A0704770477047000030B585B049F6404546
S11303B0002469460F4800958DF8044000F008FABF
S11303C069460D4800F004FA69460C4800F000FA4A
S11303D002A90B4802958DF80C4000F0F9F902A926
S11303E0084800F0F5F902A9074800F0F1F905B052
S11303F030BD00BF001000200810002010100020A5
S11304001810002020100020281000200F20704712
S113041008B5002318460422052101F05FFD0020E1
S113042008BD000008B50548012100F073FBFFF783
S1130430D7FEBDE8084000F019B800BF00350A0037
S11304400148012100F066BB00350A00082000F0D5
S113045087B90000014B1022DA60704700A0004603
S1130460014B1022DA60704700A0004470B5384D8B
S1130470384E0FCD88B001AC0FC495E8070084E86E
S11304800700354C3548012100F044FB304601217A
S113049000F040FB0125324B039301A920468DF85F
S11304A0125001F0B3FE2B4604220621022001F073
S11304B015FD2A4600230721022001F00FFD2B46DB
S11304C004220821022001F009FD042211462B46D2
S11304D0002001F003FD234BA3670B2363674FF454
S11304E0487001F0A3FF1420FFF7BAFF01F09EFF4C
S11304F02320FFF7AFFF01F099FFB9212046FFF752
S1130500AFFF01F0E3FEFFF7A5FF00231A46062123
S1130510022001F0E3FC00231A460721022001F027
S1130520DDFC2B4600220821022001F0D7FC00222A
S113053010462B46042101F0D1FC204601F01EFE9A
S11305400021A1673046616700F0E4FA08B070BD8D
S113055024250000005204000004014000350A0074
S113056000127A000B0B000BFEE7000008B500F048
S113057083F8124B12498B4212D3124B12490020BA
S11305808B4218D3FFF7E6FD186850F822405868EC
S113059040F82240013298688242F5D30C33EAE7EE
S11305A00022F8E71C6844F8220001325C68A24289
S11305B0F8D30833E4E70022F8E700BF2C29000051
S11305C03829000038290000382900000048704705
S11305D000F04902104AD2F8943003F00703023BBA
S11305E0032B13D8DFE803F00C14020E0B4B1B682B
S11305F0D2F80001C0F304200130B3FBF0F07047DF
S1130600074BF4E7074B1B685B08F1E7054BEEE784
S11306104FF40043ECE700BF00400E403C100020C4
S1130620341000203810002008B5FFF7D3FF054B25
S1130630D3F80831C3F308230133B0FBF3F0024BC2
S1130640186008BD00400E4030100020014B1868AF
S1130650704700BF34100020054B1860054BD3F8D9
S1130660943003F00703022B01D1FFF7DDBF70477D
S11306703410002000400E40044B054A9A60D3F821
S1130680882042F47002C3F88820704700ED00E02F
S1130690000000004FF4004070474FF47A70704738
S11306A0014B1868704700BF3C100020FEE70000B3
S11306B008B52248012100F02DFA01230422022169
S11306C0052001F00BFC002001F0F2FB1C4B012281
S11306D0C3F810281146042000F06AFD194800F000
S11306E0A7FB194BD3F8F02042F00102C3F8F02025
S11306F0D3F8FC2042F08072C3F8FC20A3F55D43DC
S1130700124A1A6000F5D520114B00F2FC40B0FBF0
S1130710F3F0104B013802221861C3F8F0204FF4B3
S11307208072C3F804234FF060430B4AC3F8B02F20
S11307300A4AC3F8802E002008BD00BF00350A0015
S11307400080144206000E0000ED00E0FF030040AC
S1130750F8590D00000004E055CEACC509000100B5
S11307604FF060420123D2F8001E03FA00F0084360
S1130770C2F8000E0020704708B50E4B984213D003
S11307800DD8A3F50053984210D003F58063984226
S11307900ED009485B21FFF789FF112008BD074BE4
S11307A09842F6D10648F9E70648F7E70648F5E720
S11307B00648F3E700A001404025000000A40140E2
S11307C000320400002204000002040000120400AD
S11307D02DE9F043044689B000680D46FFF7CCFFCD
S11307E00121074600F096F93348012100F092F9FF
S11307F02B79A1796079042201F070FB0023CDE903
S11308000133039303238DF80A3001238DF8093053
S113081002238DF805302B79217920685A1E534222
S1130820534101AA8DF80E3001F038FCD4F8008051
S11308302379E6794FEAC30900F0DEFED8F83420C4
S113084006FA09F61F23564003FA09F333405340CE
S1130850C8F8343000F0D4FE384600F0E9FA2668CF
S1130860164B2D68B0FBF5F09E4200F1FF350BD01E
S113087003F580639E4207D0B5F5803F04D310484A
S113088040F28941FFF712FFF561237925680633A9
S113089005EB031300245C600D22214604A801F03B
S11308A02BFE0123284604A98DF8103001F096FB95
S11308B0204609B0BDE8F08300350A0000A00140DD
S11308C091250000037901229A40036803F1C06373
S11308D01A63704770B504680679E36959430B4B92
S11308E09C424FF06405B1FBF5F50BD003F5806332
S11308F09C4207D0B1F5C80F04D3054840F2FA2151
S1130900FFF7D4FE04EB0614E56670BD00A00140B9
S11309109125000070B50C4E0446012504B970BD44
S113092094FAA4F0B0FA80F006EB001205FA00F392
S113093024EA03045368002BF0D0117B11B19168B1
S11309409847EBE79847E9E7CC10002008B5122058
S113095000F05AFE28B1084B4FF48022C3F88021DE
S11309601A600A2000F050FE28B1034B4FF4806255
S1130970C3F880211A6008BD00E100E0054BD3F8FC
S11309802804D3F81C24104000F05530C3F8240484
S1130990FFF7C0BF00A00040054BD3F82804D3F8EC
S11309A01C24104000F0AA30C3F82404FFF7B2BF9F
S11309B000A00040044BDA68D20604D510225A6124
S11309C0024B01221A70704700800140CC120020B3
S11309D00C4B984210D90C4B984210D90222012397
S11309E00A490B640A49D1F8003123F0807343EAC1
S11309F00263C1F80031704700221346F0E7012278
S1130A00FBE700BF0048E8010090D0030000C843A2
S1130A1000400E4038B5114B5B68114B00221C4658
S1130A20C9B21D798D4202D11D68854212D20132AC
S1130A30052A03F10803F4D10A4841F2CE51FFF725
S1130A4035FE032205494B6823F0407343EA0263F1
S1130A504B6038BD04EBC2025279F3E700000E404C
S1130A60A8260000DF2500001F2810B5044604D97D
S1130A7003484FF4B371FFF719FE0120A04010BDE5
S1130A802B26000070B5084C41F67136256C26649F
S1130A90FFF79CFD0021FFF7BDFFADB2B5421CBFBF
S1130AA00023236470BD00BF00000E40044BDB6BC9
S1130AB05B0604D4034AD2F8C830002BFBD170473C
S1130AC000300E400000C64308B5FFF7EFFF024BAD
S1130AD05868C0F3014008BD00300E40044BD3F801
S1130AE04421D20703D4D3F840211042FBD17047EC
S1130AF000400E4070B5064C41F67136256C2664F4
S1130B00FFF788FFADB2B5421CBF0023236470BD5C
S1130B1000000E4038B5C0F30323013B092B24D851
S1130B20DFE803F02A2D2323051619231C20154C76
S1130B300023C0F3043513B11846FFF7CFFF04F1C7
S1130B40424404F5801405EBC404A400216038BDBC
S1130B500D4C0123EDE70D4C1023EAE70C4C4FF448
S1130B608033E6E70B4C0023E3E7BDE838400A484E
S1130B7041F66A31FFF79ABD084C0023D9E7084CC7
S1130B800023D6E7B0400E40E0400E40E8400E405F
S1130B90F0400E4050410E40DF25000000400E4062
S1130BA0C0400E4008B5C0F30313013B092B60D8C5
S1130BB0DFE803F0050B0F195F5F1F233C532E4B37
S1130BC0D3F80001C0F3042008BD2B4BD3F8140163
S1130BD0F8E7294BD3F80001C0F300600130FFF7B8
S1130BE043FF0138F0E7244BD3F80C01C0F308208D
S1130BF0EAE7214BD3F80801F8E7204B984209D0E3
S1130C001F4B98420CD041F60E511E48FFF74EFD83
S1130C100020D9E7184BD3F8200100F00F00DEE7DD
S1130C20154BD3F82001C0F30110D8E7164B9842B6
S1130C3008D003F5B01303F58053984206D041F66B
S1130C403251E2E70C4BD3F82801ECE70A4BD3F816
S1130C502801C0F301200430C1E70C4B984205D1B0
S1130C60054BD3F8300100F00300ADE741F64151E4
S1130C70CBE741F66651C8E700400E4080061600F7
S1130C8080162E00DF25000090171A00A00914001A
S1130C9008B5FFF787FF013008BD000000F00F0022
S1130CA0013808B5072844D8DFE800F0040F1943D9
S1130CB0232D4335264BD3F8943003F00703023B2E
S1130CC0052B3DD8234AD05C08BD214BD3F8803096
S1130CD003F00703013B032B34D81F4AF3E71C4BF3
S1130CE0D3F8843003F00703013B032B2AD81B4AB3
S1130CF0E9E7174BD3F8883003F00703013B032BD4
S1130D0020D8174ADFE7124B1B6F13F0010F0CBFFB
S1130D1007200920D8E70E4BD3F85C3103F03003E9
S1130D20202B11D0302B11D0102B14BF0120072001
S1130D30CAE70C4842F2BB01FFF7B8FC0020C3E746
S1130D400520C1E70120BFE70420BDE70820BBE779
S1130D5000400E407B26000081260000852600000E
S1130D6081260000DF25000038B52C4B984205464B
S1130D700AD02B4B984207D02A4B984204D02A48D9
S1130D8041F2CD61FFF792FC2846FFF787FF234B22
S1130D909D42044611D0224B9D4212D0214B9D42CC
S1130DA013D1224BD3F8804004F00704042C2DD82F
S1130DB0DFE804F02A11151D19001C4BD3F88440F8
S1130DC0F2E71A4BD3F88840EEE7174841F2FC618A
S1130DD0FFF76CFCEAE7BDE83840FFF75BBCBDE811
S1130DE03840FFF75DBCBDE83840FFF756BCFFF75D
S1130DF0F1FB0E4B0446D3F80001C0F30060013050
S1130E00FFF732FEB4FBF0F4204638BD064841F249
S1130E104E71FFF74BFC0024F6E700BF03002000EF
S1130E200500240002001E00DF25000000400E40E3
S1130E3038B500F47813B3F5B01F05467FD02ED82B
S1130E40B3F5402F69D011D8B3F5802F54D006D80C
S1130E5043B1B3F5003F5AD041F69A411AE0B3F5D5
S1130E60202FF9D1BDE83840FFF7B4BBB3F5801F9C
S1130E7000F0A280B3F5A01F57D0B3F5602FEBD1DB
S1130E805B48FFF70BFF072800F096800928E9D09C
S1130E9041F290415748FFF709FC002036E0B3F5D2
S1130EA0381F5AD013D8B3F5001F5FD00AD8B3F552
S1130EB0D01F5DD0B3F5F01FCED14F48BDE8384008
S1130EC0FFF752BFB3F5101FC6D14C48F6E7B3F590
S1130ED0481F57D0B3F5781F00F08280B3F5401F48
S1130EE0BAD14748FFF740FF464B0446D3F82801E0
S1130EF0C0F3012004302BE0FFF76CFB414BD3F827
S1130F000C31C3F308230133B0FBF3F038BDFFF712
S1130F1061FB3C4BD3F80831F3E7FFF75BFB394B3C
S1130F20D3F81431C3F30423EDE73448FFF71CFF6F
S1130F30344BD3F8303103F00303D840E6E72E48AE
S1130F40FFF712FF2F4B0446D3F8200100F00F00E7
S1130F50FFF78AFDB4FBF0F0D8E72748FFF704FF5A
S1130F60284BD3F82031C3F30113E6E72448A5E75F
S1130F702348FFF7F9FE234B0446D3F82801C0F3B6
S1130F800110E5E72048FFF789FE0138072824D837
S1130F9001A353F820F000BF9B0E0000DB0F0000FC
S1130FA0DB0F0000BF0F0000DB0F0000DB0F0000B1
S1130FB0B90F0000C70F0000144B1868A6E7BDE87E
S1130FC03840FFF743BBFFF705FB0E4BD3F8003166
S1130FD0C3F3042303FB000098E741F2C74159E738
S1130FE0FFF7F8FA04462846FFF752FEB2E700BFBF
S1130FF006000E00DF25000002001E00050024008C
S11310000300200000400E40B800320040100020D1
S1131010014B1880704700BF44100020013838B5D8
S11310200C46032864D8DFE800F002441A2FB1F517
S1131030007F04D3324842F6BB01FFF737FB314A45
S1131040C4F30804D2F86838002BFBD12E4A136A83
S113105023F4FF7323F001032343136238BD7F2974
S113106004D9274842F6C801FFF720FB254A04F0BB
S11310707F01D2F86038002BFBD1234B1C6924F08C
S11310807F040C431C61E9E77F2904D91C4842F61C
S1131090E301FFF70BFB1B4A04F07F01D2F864382D
S11310A0002BFBD1184B9C6924F07F040C439C61FA
S11310B0D4E7154DD5F890305B0704D5104842F6B7
S11310C0F301FFF7F3FA6B6A23F0300343F01003E4
S11310D06B62C4F3C311CB1C2A6B0C490F2B01EABE
S11310E0020128BF0F23214341EA03712963B5E7B5
S11310F0BDE83840024842F60D11FFF7D7BA00BFE9
S1131100DF2500000020C84300400E4000F8FF0F18
S1131110022810B50C4604D0144842F62511FFF7F6
S1131120C5FA134B5B6A13F0300F1BD0202C16D07A
S1131130302C17D0B4B10D484FF42551FFF7B6FA4F
S11311400C4B0B4AD2F8901033EA0101FAD15B023E
S11311504ABFD2F8A0000120C0F3802010BD4FF494
S11311600003EEE74FF44003EBE700BFDF25000088
S113117000400E40FF33E107022808B50CD129B125
S1131180094B4FF48060C3F8A80059664AB1BDE822
S113119008400220FFF7BCBF044842F67611FFF76F
S11311A085FA012008BD00BF00400E40DF25000085
S11311B004282DE9F04704460F4691461FD83D4BBD
S11311C03D4A13F800A03D4B13F80080F1B93C4BA5
S11311D033F810301366012303FA08F8D2F890307C
S11311E013EA080FFAD1B9F1000F5AD00125324A97
S11311F005FA0AF5D2F890302B42FBD151E0BDE854
S1131200F047304842F60A01FFF750BA2E4B022845
S113121033F8106047D1536A13F0300F43D12B4B8E
S1131220DB6B5A0504D4274842F61901FFF73EFA4E
S1131230214A536ADB0705D5536A23F0300343F090
S113124010035362224D1C4BA8441E664FEA8808C3
S1131250D8F80030002BFBD0B9F1000F21D0554451
S1131260AD002B68002BFCD0022C1AD1CFB1124F49
S1131270796A11F0010118D0012220212046FFF7DC
S11312807BFFD7F89C40012200210220FFF790FF4A
S1131290C4F30A010220FFF7C1FE3E662B68002B4F
S11312A0FCD0BDE8F0870027CCE72046FFF730FFED
S11312B0E7E700BF8926000000400E408E260000AC
S11312C09E260000DF2500009426000000300E401A
S11312D08004F210112838B50C460FD000F00F002E
S11312E00138072800F2EB80DFE810F024006600E4
S11312F09A00E9007D00B400E900C200042912D17B
S1131300FFF7A4F90546A8B10021284600F0A6FA83
S1131310023C0A2C45D8DFE804F04A4731374444FC
S113132044443D0F4D00052904D1664B1D68664BAE
S11313309D42E9D80025EBE703200524012211464C
S1131340FFF736FFFFF79EFB0DB1FFF7AFFB5F4BD7
S11313505C67FFF769F90446FFF73CF9FFF738FBD0
S1131360FFF7B2FB01462046FFF7C4FB002D5DD119
S113137028460121BDE8384000F070BA5448FFF710
S113138027FB02200446D9E75148FFF721FB01243B
S11313900320D3E742F27C11BDE838404D48FFF703
S11313A085B942F28111F7E701200324C6E7002042
S11313B00424C3E70724C5E7062933D14548464D2D
S11313C04FF40751FFF772F9424842F2D011FFF788
S11313D06DF9FFF7FFF8FFF7FBFA404B0122C3F862
S11313E00826032321E006293D4DEDD0013C092CBC
S11313F02BD801A353F824F0511400002F1400003B
S11314003D1400004B1400004B140000D3130000E3
S11314104B1400004B1400004B140000291400006E
S1131420304DE3E72C4DE1E704232B6038BD012266
S113143011460020FFF7BCFE0223F6E70122114605
S11314401046FFF7B5FE0123EFE742F2FB11A3E7D5
S11314500023EAE7072904D0092906D042F28521AE
S11314609AE71A4B00221A67E0E7184B0122FAE7C1
S11314704C1E072C1ED8DFE804F0201D1D161D1D70
S11314800F0403221149D1F85C3123F0300343EAFD
S11314900213C1F85C31C9E7012211460420FFF7A9
S11314A087FE0122EEE7012211460220FFF780FEAB
S11314B00222E7E742F2E3216EE70022E2E742F28A
S11314C0BA3169E738100020002D310100400E4088
S11314D00148E801DF25000080400E400010C843A9
S11314E088400E4084400E4010B504461120FFF79A
S11314F0D5FB042804D1274842F2A561FFF7D6F8AA
S1131500012200210220FFF753FE63781BB9A37860
S11315100BB9E37823B11F4842F2E161FFF7C6F843
S1131520237C012B04D11B4842F2E861FFF7BEF88B
S1131530194A217C536A23F00103022908BF43F0AE
S113154001035362154B2178C3F8A014637AA18870
S113155043EAC123D362136BA07A217A03F07F6339
S11315600343E08843EAC02343EAC11303310F294C
S113157028BF0F2143EA01731363A37B617B1B0123
S113158043EA0133E17B0B43217B43EA0143536389
S113159010BD00BFDF25000000400E400000C8431E
S11315A070B505461120FFF779FB022804D10F48D6
S11315B042F26371FFF77AF80D4E0E4BB26B2C7842
S11315C013401C436B7844EAC324AB7844EA0364B5
S11315D0EB7844EA0324B36BA34205D00021012233
S11315E00846FFF7E5FDB46370BD00BFDF250000CA
S11315F000400E4080E4FFF8EFF3108072B67047AD
S113160000B962B67047000038B5C5B2322D044641
S113161004D9084840F21F31FFF748F8064B640923
S113162005F01F0553F82400E840C04300F0010012
S113163038BD00BFD026000000E100E0034BD86BAA
S113164080F04000C0F38010704700BF00300E40AF
S113165038B542EA0323B3F5007F05460C463ED075
S113166019D8B3F5807F36D00AD883B3012B21D0A3
S11316701F4840F6F211FFF719F8002213461FE045
S113168040F201129342F3D11A4BD3F824321A0ECA
S1131690C3F3074314E0B3F5407F24D040F2013292
S11316A0934210D040F201229342E1D1114BD3F87E
S11316B0283202E00F4BD3F82432C3F30722DBB203
S11316C02B60226038BD0B4BD3F82832DFE7094B7F
S11316D0D3F81C32F1E7074BD3F81C32D7E7054B9C
S11316E0D3F82032E9E7034BD3F82032CFE700BF29
S11316F01D2700000081E00F08B5FFF79FFF20B110
S1131700024AD2F8C830002BFBD108BD0000C64302
S11317101A4B022810B5D3F830320C4612D00328E5
S113172013D0012814BFDBB2C3F307231B0323F434
S11317307042ECB95AB140F681111148FEF7B6FF78
S1131740002010BDC3F30743F0E71B0EEEE70D497D
S1131750CA6E22F470421343CB660120F1E70949B3
S1131760D1F8EC2022F470421343C1F8EC30F4E7D2
S1131770002AF4D040F68D11DFE700BF0081E00FAE
S11317801D27000000300E400378134A002B4378D5
S113179070B514BF04260026002B8378946914BF07
S11317A002250025002B037924F03F0443EA0403B7
S11317B0C47814BF08210021012C08BF43F00103A1
S11317C033432B430B4393611368417923F4403330
S11317D043EA0143136070BD00300E40F8B504467F
S11317E00F46FFF72BFF78B3FFF786FF174B5B68B5
S11317F0C3F301439C4227D0154BD3F80061FEF795
S1131800E9FE022C05460FD1124BC6F3042606FB53
S113181000069E4204D910484FF4E361FEF746FFE8
S113182002212846FFF766F9C4F10202102393400F
S1131830064A13610FB1FFF75FFF2CB92146284612
S1131840BDE8F840FFF756B9F8BD00BF00300E40C0
S113185000400E40002D31011D27000013B5024643
S1131860FFF7ECFEC8B152B90D4B0191D3F800411A
S1131870FEF7B0FEC4F30422019902FB0002094BF7
S11318801B7843B1084B9A4205D8022002B0BDE848
S11318901040FFF7A3BF0020F8E702B010BD00BF5F
S11318A000400E40D4120020002D3101224B4AF694
S11318B0E85210B5596B5A639A6FD207FCD41B6C6B
S11318C013F003031EBF1D4A0124C2F8B44A834225
S11318D004D110B9194BC3F8B40A10BD032B00D0BE
S11318E09BB9431E012B10D8134A4FF40023D36233
S11318F0936FDB07FCD4136C23F0030343F0010361
S113190013640D4A536A1C03FCD50B4B9A6FD20720
S1131910FCD41A6C22F0030202431A649A6F12F088
S11319200102FBD10038054C18BF01200129C4F87D
S1131930B40A08BF5A63D0E700300E400000C64323
S11319402DE9F04FA0F5E16389B00024B3F5966F5B
S1131950CDE90244CDE90444CDE9064406468A466D
S1131960934605D940F67B315548FEF79FFEA3E028
S1131970B0F5E16F534B8CBF0122002249D1D3F85B
S11319801832C3F30721DBB2079104934FF41675A1
S11319904FF4966748E0BBF1000F0ED0D9F85C20F5
S11319A022F4FE4222F00202B6F5E16F42EA01227D
S11319B018BF02200243C9F85C20BAF1000F26D0F8
S11319C020460021FFF7A4FE044610B940F6D831A2
S11319D0CAE701214046FFF79BFE044610B94FF4C5
S11319E03E61C1E7384A536EBD4238BF3D4623F4D9
S11319F0FF73E72D23F0010328BFE725B6F5E16F58
S1131A0018BF43F0010343EA4503536654E001243D
S1131A1052E0D3F81832190EC3F307430791049325
S1131A204FF496654FF4E167DFF89C90D9F84C4089
S1131A300192C4F30174234605A902A8FFF708FE26
S1131A40D9F8EC30019AC3F30128434606A903A848
S1131A50FFF7FEFD049BF01B079FF91A4143B1FBFE
S1131A60F5F299182CBF012300238F421ED3EBB942
S1131A70069A039FD31B4343B3FBF5F3FF182CBF14
S1131A8001230023BA4211D383B9059B029AA3EB25
S1131A90020C00FB0CF0B0FBF5F555192CBF01202E
S1131AA00020AB4202D300283FF475AF044840F64F
S1131AB0C931FEF7FBFD0024204609B0BDE8F08FD4
S1131AC01D2700000081E00F00300E40334A08B5A6
S1131AD0136FD16C11F0010F03F0060344D0002BF7
S1131AE042D0132857D9143813288CBF1023082345
S1131AF02A49013BCA6C180322F47F4240EA0323BB
S1131B001343CB64264BCA6C1B88C2F303222833CD
S1131B10013202EB820003EB5303B3FBF0F3C86C16
S1131B20013B072B28BF072320F0EE6040EA036344
S1131B3043F48013CB641B4BB3F90030002B12DB4E
S1131B4003F12800C0F34E030344500800EB4202A3
S1131B50B3FBF2F20B6D072A28BF072223F07003B0
S1131B6043EA02120A6508BDD16C01F00101194370
S1131B7004D109280FD90A380928B6E7D26CD2074C
S1131B8002D50BB92728B0E7074840F61E41FEF7F7
S1131B908DFD0023ACE70423AAE700BF00300E400C
S1131BA0D0120020D21200201D2700000C4BD3F8C5
S1131BB0803910B5044633B9012804D9094840F6E0
S1131BC03C41FEF773FD084A136F23F007032343D8
S1131BD01367064BBDE810401888FFF777BF00BFB6
S1131BE00000C6431D27000000300E40CE12002026
S1131BF038B55A4B02229A639B6B03F00F0393424E
S1131C00044607D0564840F61621FEF74FFD00253E
S1131C10284638BD0389C82B04D951484FF42261A2
S1131C20FEF744FDA28823899A4204D94C4840F621
S1131C302121FEF73BFDB4F90C30C82B04DD4848E4
S1131C4040F62221FEF732FD6378012B55D1A3889B
S1131C50C82B04D940F626214148FEF727FDE28827
S1131C6042F210739A4204D93D4840F63321FEF7FC
S1131C701DFDE3884A2B48D9B3F5FA7F47D340F6D4
S1131C80C312934294BF4FF000524FF04052334975
S1131C90B4F90C00CB6C23F0405323F0010300286B
S1131CA0A8BF43F001031343CB64D1F8EC30A288FE
S1131CB043F44073C1F8EC302A4B1A80CB6E43F0E6
S1131CC08073CB66284BD3F8800900B10420FFF75A
S1131CD06DFF264B21891980254BB4F90C20A0886F
S1131CE01A80FFF7F3FEA37BA3B1012B22D01C487B
S1131CF040F63211FEF7DAFC0FE0022BAFD1A388D5
S1131D000A2BACD940F62B21A6E70022BFE74FF0FF
S1131D108052BCE7114B174A9A650122608811462C
S1131D20FFF70EFE054640B90D4840F66A21FEF75E
S1131D30BDFC6DE7094B104AEEE7084AD36B43F448
S1131D408063D3636078FFF7B1FDA37AA3F1200227
S1131D5053425341044AC2F8943759E700300E40C5
S1131D601D270000CE1200200000C643D012002020
S1131D70D212002077402057372110B738B50D46CE
S1131D80044640B3012829D002282AD003282BD0A6
S1131D9004280ED005282AD0831F012B09D908282E
S1131DA028D0092828D00A2803D10723EB40DB07D1
S1131DB004D4134840F22D41FEF778FC30200C2364
S1131DC010FB043404F18C44012104F5204401FA8D
S1131DD005F5256038BD40F2FF33E7E74FF6C073E1
S1131DE0E4E740F6FF73E1E74FF47F43DEE74FF6A5
S1131DF0FF73DBE70F23D9E74FF44043D6E700BF77
S1131E006927000038B50D46044640B3012829D09F
S1131E1002282AD003282BD004280ED005282AD043
S1131E20831F012B09D9082828D0092828D00A287B
S1131E3003D10723EB40DB0704D4134840F2FE31FF
S1131E40FEF734FC30200C2310FB043404F18844E6
S1131E50012104F5204401FA05F5256038BD40F25E
S1131E60FF33E7E74FF6C073E4E740F6FF73E1E7BB
S1131E704FF47F43DEE74FF6FF73DBE70F23D9E729
S1131E804FF44043D6E700BF6927000070B505460C
S1131E900E461446FFF7B0FB296881EA040202EA01
S1131EA006044C402C60BDE87040FFF7A9BB00005D
S1131EB01F2810B5044603D906485221FEF7F6FB45
S1131EC0054AD2F8443423F003032343C2F84434CC
S1131ED010BD00BFB627000000A00040F8B50D46B5
S1131EE016461F460446C8B301283AD002283BD000
S1131EF003283CD004280ED005283BD0831F012B97
S1131F0009D9082839D0092839D00A2803D107214A
S1131F10E940CB0704D423484FF4B071FEF7C6FB65
S1131F2026B1294620466FB3FFF728FF04EB44038C
S1131F30072D4FEA03134FF00F0126D8A80006FA25
S1131F4000F2814018481844FFF7A0FF4EBB294611
S1131F50204617B3BDE8F840FFF710BF40F2FF3149
S1131F60D6E74FF6C071D3E740F6FF71D0E74FF4E0
S1131F707F41CDE74FF6FF71CAE70F21C8E74FF461
S1131F804041C5E7FFF73EFFD0E7A5F10800800018
S1131F9006FA00F281400548D5E7BDE8F840FFF7AE
S1131FA031BFF8BDB627000004A0004008A00040DF
S1131FB0094B98420DD003F58063984209D003F58C
S1131FC0E053984205D003F58063C31A5842584140
S1131FD070470120704700BF008001402DE9F84F91
S1131FE005460C46FFF7E4FF18B92B48A521FEF778
S1131FF05DFB217809B902236B60607800236B6272
S11320000028E278607AA37894F808B094F806A0DF
S113201094F8079014BF4FF040084FF000081204E2
S11320200028A07A42EA036314BF4FF0800E4FF0F9
S1132030000E43EA0B030028E07A43EA8A2314BF24
S11320404FF0200C4FF0000C43EA09230028207BBA
S113205043EA080314BF1027002743EA0E030028AD
S11320602079647943EA0C0314BF082600263B4315
S1132070002814BF4FF4005000203343002C14BF39
S11320804FF080540024034323432B6009B1012300
S11320906B60BDE8F88F00BF03280000F8B5054663
S11320A00C461646FFF784FF18B92048F521FEF7C1
S11320B0FDFA032C03D91D48F621FEF7F7FA7378CD
S11320C032781B0643EA8263B2791343B27843EA57
S11320D00243F27843EA0233327943EA8223727983
S11320E043EA0223F279002A327A14BF4FF0804780
S11320F00027002A727A14BF4FF000500020002AF3
S1132100B27AF67A43EA067343EA070314BF10214E
S113211000210343002A04F1060414BF0422002210
S11321200B43240113432B51F8BD00BF03280000C7
S113213070B506460C46154622B90D4840F28E216C
S1132140FEF7B4FA1CB90B48FEF772FE04460A4BBC
S11321506D00013CB4FBF5F413EA04234FEA0425B3
S113216004D0034840F2B321FEF7A0FA756170BDB4
S11321705128000040410500070080FF38B51E4B80
S11321801E4D984204460ED0A8420CD003F50063BD
S1132190984208D003F58063984204D0184840F26E
S11321A04241FEF783FA40F6AA63E36041F2050276
S11321B0002323606260134AA3606361E364A26442
S11321C023666367A367E3670B4B9C4209D0AC4269
S11321D007D003F500639C4203D003F580639C425F
S11321E001D1002323650023AC42A36502D0064A33
S11321F0944200D1E36538BD000001400004014071
S113220051280000F9FF0100000C014038B52D4BA6
S1132210984204460D4610D003F5806398420CD0D2
S113222003F58063984208D003F58063984204D094
S1132230254840F26931FEF739FA2046FFF79EFF40
S1132240A97B2A8A2368002942F0010214BF4FF4B3
S11322508061002113430B432A7D23602368002AF5
S113226014BF4FF00052002213432360AB7C1BB118
S1132270EB7C43F08003A3652B7B43F480536360C2
S1132280D5E901122046FFF753FF6B7B0BB11023F6
S1132290E3606B7D1BB1236843F480332360AB7D23
S11322A01BB1236843F400432360EB7D2A7E1B07A4
S11322B0120503F0E04302F4E002134323662B7893
S11322C0E36038BD000001405128000003695A064C
S11322D0FCD5416303699B06FCD5C069C0B2704755
S11322E07FB5094B6A4603F110061546186859680C
S11322F0144603C40833B3422246F7D12846FFF7F5
S113230077FC002004B070BDA028000013B50223A0
S11323100024684600948DF804408DF80530FFF7DA
S113232033FA204602B010BD70B5174B86B001AA2F
S113233003F11006154618685968144603C4083397
S1132340B3422246F7D11B882380104BD3F8B42024
S113235012030ED4D3F8B830C3F308030C48ADF815
S11323600A30FEF779F92846FFF7BEF8002006B0D8
S113237070BD084B1A884FF6FF7140F243138A422E
S113238018BF1346EAE700BFB02800000081E00F41
S113239000F049020001E00F07B5084B18680190EE
S11323A0202301A88DF80430FFF7FAF86420FEF723
S11323B02FFE002003B05DF804FB00BFC22800001C
S11323C010B50C480C4C6FF00402A02112F0800FE1
S11323D0D3B21BBF03F00F03043BA3181B1802F175
S11323E001020CBF83F800131976332AEED10020C2
S11323F010BD00BF00ED00E000E100E008B5FDF70E
S113240063FFFDF7AFFFFDF7BAFFFDF7BAFFBDE8C5
S11324100840FDF7B7BF08B5FDF7B6FFFDF7C0FFED
S1132420FDF7BFFFBDE80840FDF7BCBF10B504468B
S1132430FEF7FAF84FF47A729042B0FBF2F105D24B
S11324403621BDE810400B48FEF730B90A4BB3FB08
S1132450F1F30A49884201D93C21F2E702FB04F076
S1132460B0FBF3F0032804D9BDE81040800800F065
S113247007B810BDC628000040420F00E7CD9A3BC4
S1132480013800D0FCE7704708B5074B044613B188
S11324900021AFF30080054B1868836A03B19847A5
S11324A0204600F031F800BF0000000020290000A1
S11324B070B50D4D0D4C641BA4100026A64209D125
S11324C00B4D0C4C00F022F8641BA4100026A6420D
S11324D005D170BD55F8043B98470136EEE755F831
S11324E0043B98470136F2E7A8100020A81000200A
S11324F0A8100020AC10002002440346934200D1EF
S1132500704703F8011BF9E7FEE700BFF8B500BF09
S1132510F8BC08BC9E467047F8B500BFF8BC08BCC0
S11325209E467047050000000000000040420F0076
S11325300501000000000000000000000000000091
S1132540433A2F55736572732F4B4F424945442FBD
S113255053696D706C696369747953747564696FD8
S11325602F53444B732F6765636B6F5F73646B2FDB
S1132570706C6174666F726D2F6472697665722F08
S113258070776D2F7372632F736C5F70776D2E632A
S113259000633A5C75736572735C6B6F6269656442
S11325A05C73696D706C696369747973747564695B
S11325B06F5C73646B735C6765636B6F5F73646B91
S11325C05C706C6174666F726D5C656D6C69625C85
S11325D0696E635C656D5F74696D65722E68004336
S11325E03A2F55736572732F4B4F424945442F530D
S11325F0696D706C696369747953747564696F2F5C
S113260053444B732F6765636B6F5F73646B2F70F9
S11326106C6174666F726D2F656D6C69622F737275
S1132620632F656D5F636D752E6300633A5C75732C
S11326306572735C6B6F626965645C73696D706C01
S1132640696369747973747564696F5C73646B73BB
S11326505C6765636B6F5F73646B5C706C617466FD
S11326606F726D5C636F6D6D6F6E5C696E635C73CE
S11326706C5F636F6D6D6F6E2E68000403020B0553
S11326800C0302010A0302060A09070301050806EE
S113269002000400000140000400010010000002D8
S11326A0800008000200200040787D010000000046
S11326B0005A620200010000C0CF6A00020000005C
S11326C0809FD50002010000002D310102020000AC
S11326D0433A2F55736572732F4B4F424945442F2C
S11326E053696D706C696369747953747564696F47
S11326F02F53444B732F6765636B6F5F73646B2F4A
S1132700706C6174666F726D2F656D6C69622F7386
S113271072632F656D5F636F72652E6300433A2F9A
S113272055736572732F4B4F424945442F53696D5E
S1132730706C696369747953747564696F2F534459
S11327404B732F6765636B6F5F73646B2F706C6182
S113275074666F726D2F656D6C69622F7372632F6F
S1132760656D5F656D752E6300633A5C75736572A4
S1132770735C6B6F626965645C73696D706C6963CB
S113278069747973747564696F5C73646B735C6783
S113279065636B6F5F73646B5C706C6174666F729E
S11327A06D5C656D6C69625C696E635C656D5F67C9
S11327B070696F2E6800433A2F55736572732F4BFF
S11327C04F424945442F53696D706C69636974794C
S11327D053747564696F2F53444B732F6765636B30
S11327E06F5F73646B2F706C6174666F726D2F65AD
S11327F06D6C69622F7372632F656D5F6770696FAB
S11328002E6300433A2F55736572732F4B4F424921
S113281045442F53696D706C696369747953747599
S113282064696F2F53444B732F6765636B6F5F73DA
S1132830646B2F706C6174666F726D2F656D6C695B
S1132840622F7372632F656D5F74696D65722E6399
S113285000433A2F55736572732F4B4F42494544D9
S11328602F53696D706C6963697479537475646905
S11328706F2F53444B732F6765636B6F5F73646B88
S11328802F706C6174666F726D2F656D6C69622F49
S11328907372632F656D5F75736172742E630000CC
S11328A0000108070F000A00C8002000A000010072
S11328B000000000A00068010A200706020A0407BD
S11328C0000000020700433A2F55736572732F4BC3
S11328D04F424945442F53696D706C69636974793B
S11328E053747564696F2F53444B732F6765636B1F
S11328F06F5F73646B2F706C6174666F726D2F738E
S11329006572766963652F7564656C61792F73727E
S1132910632F736C5F7564656C61792E63000000CE
S10729204810002037
S10B292428D8FF7F0100000028
S10F292C38290000001000202C000000DE
S113293800800140000309110080014001030A11CD
S11329480080014002030B110084014000030C14B1
S1132958008401400102090D0084014002020A0DAD
S1132968C0EA210100F04902C0EA21010080000008
S1132978C0EA2101FFFF0000000000000000000081
S1132988000000000000000000000000000000003B
S1132998000000000000000000000000000000002B
S11329A8000000000000000000000000000000001B
S11329B8000000000000000000000000000000000B
S11329C800000000000000000000000000000000FB
S11329D80000000000000000310100000D010000AB
S903056D8A
