S0150000666C795F636F6E74726F6C6C65722E733337F1
S1130000001000209D0500009905000099050000DE
S11300109905000099050000990500009905000064
S11300209905000099050000990500009905000054
S11300309905000099050000990500009905000044
S113004099050000ED540000990500009905000091
S1130050394D000045550000F954000011550000C9
S1130060F154000099050000E1090000C50F0000EB
S11300709905000099050000990500009905000004
S11300809905000099050000FD090000990500008C
S113009099050000990500009905000099050000E4
S11300A099050000990500009905000099050000D4
S11300B049550000F5540000690E00008555000004
S11300C0990500007542000099050000990500009B
S11300D099050000990500009905000099050000A4
S11300E09905000099050000990500009905000094
S11300F09905000099050000990500009905000084
S113010099050000990500009905000010B5054CFB
S1130110237833B9044B13B10448AFF300800123AF
S1130120237010BD2C110020000000006890000016
S113013008B5034B1BB103490348AFF3008008BD66
S1130140000000003011002068900000A3F5803A00
S1130150704700BF174B002B08BF134B9D46FFF79A
S1130160F5FF00218B460F461348144A121A06F075
S1130170DBFF0E4B002B00D098470D4B002B00D01B
S113018098470020002104000D000D48002802D0EB
S11301900C48AFF3008006F095FF2000290000F022
S11301A014F806F07BFF00BF000008000000000008
S11301B000000000001000202C1100204C840020BE
S11301C00000000000000000704708B503F06AFA60
S11301D000F0FCFC00F088FE02F04EFDFFF7F4FF97
S11301E002F00AFE02F062FE012003F0A7FBFEE724
S11301F000F026B908B50421112001F073FB094869
S1130200012100F08FFF0848022101F06BFB074831
S1130210022101F067FB0648022101F063FB002084
S113022008BD00BF30253E0002001E000300200070
S11302300500240010B52748012100F073FF0023B6
S113024001220D21052002F0FFF9002301220E21D5
S1130250052002F0F9F9002301220F21052002F004
S1130260F3F9012211460023082002F0EDF90023DE
S113027001220221082002F0E7F9002301220321D0
S1130280082002F0E1F9002318460122062102F0B9
S1130290DBF9002318460122072102F0D5F90122D7
S11302A010460023092102F0CFF900230122042182
S11302B0022002F0C9F9002301220521022002F0E4
S11302C0C3F9BDE81040002301220821032002F0F5
S11302D0BBB900BF00350A0008B5224B01225A649D
S11302E0214BD3F8FC20214B120E12D14AF6E851CF
S11302F0C3F89011D3F8981141F00401C3F8981190
S1130300C3F89021D3F8642142F40052C3F8642165
S113031001E0012AF6D0164A136A23F4441343F485
S113032088131362A2F58042136843F48073136048
S113033002F54052D2F8A43143F4F843C2F8A43190
S113034002F07CFC00F094F802F008FC02F02AFCB5
S113035002F060FCFFF74EFF02F016FCBDE8084017
S113036000F078B800000E400081E00F00300E402D
S113037000400E4008B500F0B3F9FFF75BFF00F052
S113038005FB00F009F8BDE8084000F077B800F07C
S113039055B800F03DB8704730B585B049F64045D2
S11303A0002469460F4800958DF8044000F028FAAF
S11303B069460D4800F024FA69460C4800F020FA1A
S11303C002A90B4802958DF80C4000F019FA02A915
S11303D0084800F015FA02A9074800F011FA05B020
S11303E030BD00BF001000200810002010100020B5
S11303F0181000202010002028100020FEE708B567
S1130400FFF7FCFF08BD704708B5FFF7FCFF08BD08
S11304101FB5084B009300216846CDE901110391F3
S113042003F022FB044B186000B9FEE705B05DF849
S113043004FB00BF09040000301000200F207047A7
S113044008B5002318460422052102F0FDF8002017
S113045008BD000008B50548012100F063FEFFF760
S1130460C7FEBDE8084000F019B800BF00350A0017
S11304700148012100F056BE00350A00082000F0B2
S113048087B90000014B1022DA60704700A00046D3
S1130490014B1022DA60704700A0004470B5384D5B
S11304A0384E0FCD88B001AC0FC495E8070084E83E
S11304B00700354C3548012100F034FE3046012157
S11304C000F030FE0125324B039301A920468DF83C
S11304D0125002F0D9FA2B4604220621022002F01F
S11304E0B3F82A4600230721022002F0ADF82B4678
S11304F004220821022002F0A7F8042211462B4608
S1130500002002F0A1F8234BA3670B2363674FF489
S1130510487002F0BFFB1420FFF7BAFF02F0BAFBE9
S11305202320FFF7AFFF02F0B5FBB9212046FFF708
S1130530AFFF02F009FBFFF7A5FF00231A460621CF
S1130540022002F081F800231A460721022002F05B
S11305507BF82B4600220821022002F075F80022C5
S113056010462B46042102F06FF8204602F044FAAC
S11305700021A1673046616700F0D4FD08B070BD6A
S113058054710000005204000004014000350A00C8
S113059000127A000B0B000BFEE7000008B500F018
S11305A083F8124B12498B4212D3124B124900208A
S11305B08B4218D3FFF7CEFD186850F822405868D4
S11305C040F82240013298688242F5D30C33EAE7BE
S11305D00022F8E71C6844F8220001325C68A24259
S11305E0F8D30833E4E70022F8E700BF7090000076
S11305F07C9000007C9000007C90000000487047D4
S113060000F04902104AD2F8943003F00703023B89
S1130610032B13D8DFE803F00C14020E0B4B1B68FA
S1130620D2F80001C0F304200130B3FBF0F07047AE
S1130630074BF4E7074B1B685B08F1E7054BEEE754
S11306404FF40043ECE700BF00400E404010002090
S1130650381000203C10002008B5FFF7D3FF054BED
S1130660D3F80831C3F308230133B0FBF3F0024B92
S1130670186008BD00400E4034100020014B18687B
S1130680704700BF38100020054B1860054BD3F8A5
S1130690943003F00703022B01D1FFF7DDBF70474D
S11306A03810002000400E40044B054A9A60D3F8ED
S11306B0882042F47002C3F88820704700ED00E0FF
S11306C0000000004FF4004070474FF47A70704708
S11306D0014B1868704700BF40100020FEE700007F
S11306E008B52248012100F01DFD01230422022146
S11306F0052001F0A9FF002001F000FF1C4B01229E
S1130700C3F810281146042001F05AF8194800F0E3
S113071097FE194BD3F8F02042F00102C3F8F02001
S1130720D3F8FC2042F08072C3F8FC20A3F55D43AB
S1130730124A1A6000F5D520114B00F2FC40B0FBC0
S1130740F3F0104B013802221861C3F8F0204FF483
S11307508072C3F804234FF060430B4AC3F8B02FF0
S11307600A4AC3F8802E002008BD00BF00350A00E5
S11307700080144206000E0000ED00E0FF0300407C
S1130780F8590D00000004E055CEACC50900010085
S11307904FF060420123D2F8001E03FA00F0084330
S11307A0C2F8000E0020704708B50E4B984213D0D3
S11307B00DD8A3F50053984210D003F580639842F6
S11307C00ED009485B21FFF789FF112008BD074BB4
S11307D09842F6D10648F9E70648F7E70648F5E7F0
S11307E00648F3E700A001407071000000A4014036
S11307F0003204000022040000020400001204007D
S11308002DE9F043044689B000680D46FFF7CCFF9C
S11308100121074600F086FC3348012100F082FCE8
S11308202B79A1796079042201F00EFF0023CDE930
S11308300133039303238DF80A3001238DF8093023
S113084002238DF805302B79217920685A1E5342F2
S1130850534101AA8DF80E3002F05EF8D4F80080FE
S11308602379E6794FEAC30901F0CEF9D8F83420A8
S113087006FA09F61F23564003FA09F3334053409E
S1130880C8F8343001F0C4F9384600F0D9FD2668C0
S1130890164B2D68B0FBF5F09E4200F1FF350BD0EE
S11308A003F580639E4207D0B5F5803F04D310481A
S11308B040F28941FFF712FFF56123792568063379
S11308C005EB031300245C600D22214604A806F006
S11308D02BFC0123284604A98DF8103001F0BCFF3D
S11308E0204609B0BDE8F08300350A0000A00140AD
S11308F0C1710000037901229A40036803F1C063C7
S11309001A637047037901229A40036803F18063F4
S11309101A63704770B504680679E36959430B4B51
S11309209C424FF06405B1FBF5F50BD003F58063F1
S11309309C4207D0B1F5C80F04D3054840F2FA2110
S1130940FFF7CCFE04EB0614E56670BD00A0014081
S1130950C171000070B50C4E0446012504B970BD88
S113096094FAA4F0B0FA80F006EB001205FA00F352
S113097024EA03045368002BF0D0117B11B1916871
S11309809847EBE79847E9E74811002008B512209B
S113099001F04AF928B1084B4FF48022C3F88021B2
S11309A01A600A2001F040F928B1034B4FF4806229
S11309B0C3F880211A6008BD00E100E038B505469F
S11309C00C4601F028F9054B03EB051300225C608B
S11309D01A73BDE8384001F024B900BF4811002063
S11309E0054BD3F82804D3F81C24104000F05530EC
S11309F0C3F82404FFF7AEBF00A00040054BD3F8B2
S1130A002804D3F81C24104000F0AA30C3F82404AE
S1130A10FFF7A0BF00A000402DE9F0470027254CB8
S1130A200646B8464FF00109237F84F81D8053B170
S1130A30D4E90001864278EB01030BD2801B61F1FB
S1130A400001C4E900010137042F04F12804EBD1AB
S1130A50BDE8F087E37F33B92377A369002BF2D095
S1130A6084F81D90EFE7D4E9025A301A61EB410192
S1130A702A46534606F090F921696069AA1A6AEB7E
S1130A8003030029C4E900230BDD01441D2961612E
S1130A90E3D9013243F100031E39C4E90023616143
S1130AA0DBE7411A1D296161D7D9013A43F1FF33CC
S1130AB0F2E700BF5813002038B5074C0025637FC8
S1130AC01BB1A369216A284698470135042D04F116
S1130AD02804F4D138BD00BF581300204FF0FF3371
S1130AE0174A70B519460024157F3DB1D2E9006557
S1130AF09E4275EB010C3CBF334629460134042C5D
S1130B0002F12802F0D10F4D0026B1F1FF3F08BFDA
S1130B10B3F1FF3F2E7012D00B4A10600B4A1462DF
S1130B206FF064049C4276EB010138BF2346034412
S1130B30536501232B70536A43F00403536270BD61
S1130B4058130020501300204C13002000200440B0
S1130B50064B5A6A99690A40D20705D501221A62DE
S1130B60034A136801331360704700BF0020044038
S1130B70F813002038B5104B1B780546D3B101F0AB
S1130B804AF80E4A00231146947F14B945B90C4C17
S1130B900CE00133042B02F12802F5D1094C05E0E5
S1130BA0282202FB031101228A772B6001F039F815
S1130BB0204638BD044CFBE7511300205813002095
S1130BC0041000F0011000F0061000F070B5204D84
S1130BD02C78002C3AD11F481F4E012100F0A2FAB4
S1130BE01E48022100F07EFE01211D48347100F0F0
S1130BF099FA304601F0BEFD1A49012001F08EFD3C
S1130C00194B5A6A22F4FF6222F007025A6240F238
S1130C10FF721A62154A9C604FF08041C2F880113D
S1130C2011605A6A124842F001025A622146A02217
S1130C3006F07AFA0F4B1C700F4B1C700F4B1C60A4
S1130C400F4B1C600F4B1C6001232B70002070BDE8
S1130C505113002030253E004410002005002400DC
S1130C60A00914004D1000200020044000E100E021
S1130C705813002048130020501300205413002060
S1130C80F8130020FC1300202DE9F84F1446624AA3
S1130C901278054689469A46002A00F0B98003284E
S1130CA000F2B880DFF890814FF0280B0BFB058B26
S1130CB000F0B1FF9BF81E2007462AB900F0B1FFEF
S1130CC0564C2046BDE8F88F4CB9BAF1000F02D05B
S1130CD00A992846D047384600F0A3FFF1E7504A66
S1130CE04FF4004C4FF4FA7000219668CBF818A02A
S1130CF000234FF47A72E4FB0C0106F04DF8B9F1CD
S1130D00010FCBE9020103460AD14FF47A72624320
S1130D101E2404FB10240F22CBF81040CBF814201F
S1130D202820684308EB0002013348F800304FF0F4
S1130D300100107741F100010A98516082F81F9078
S1130D401062384A127822B1384600F06AFF002453
S1130D50B7E7354CDFF8E4A022689AF800C0013206
S1130D601EBF226801322260BCF1000F1BD12F4A42
S1130D7016602B4A042010626FF0640098427CEBEA
S1130D80010138BF034633445365536A43F00403F7
S1130D90536201238AF800302368002BD4D02368DF
S1130DA0013B2360D0E72368012BF5D1282303FB03
S1130DB005834FF00009DFF868B01C4A83F81C90E3
S1130DC0DBF8243023F00403CBF824301068301A05
S1130DD0FFF722FEFFF770FEB9F1000F04D12823BC
S1130DE003FB0583012119773046FFF777FE0F4A8D
S1130DF0DBF808601168DBF85430701A5B1A9AF853
S1130E00001009F101090029C6D09842D8D2C3E7DD
S1130E10074C56E7074C54E751130020031000F029
S1130E200020044048130020541300204C130020D9
S1130E30061000F0021000F0581300205013002098
S1130E40014B9868704700BF002004404FF47A7249
S1130E50A0FB020310F5804002FB013141F10001C7
S1130E60C00B40EA414070472DE9F8431A4C00F0AA
S1130E70D2FE636AA269134023F005025B070646AB
S1130E80226222D5154FA568DFF85480DFF854900C
S1130E9001233B70636A23F004036362D8F8000003
S1130EA0281AFFF7B9FDFFF707FE2846FFF716FEDD
S1130EB0D8F80020A568636DA91A9B1A99F8002038
S1130EC00AB19942E6D200233B70FFF741FE304657
S1130ED0BDE8F84300F0A5BE0020044048130020FC
S1130EE04C1300205013002070B588B00D22294EF9
S1130EF0294D002104A806F017F90024022301213A
S1130F0026488DF81010CDE9014403948DF80A3079
S1130F1000F008F901AA2146304601F0FDFC4FF625
S1130F20FF73F3618DF8124004A9304601F094FC7C
S1130F301B4800F085FA9DF81230D8400133DBB22B
S1130F400A2B28608DF8123002D8164B9842EBD841
S1130F501548164C00F074FA2E68B4FBF0F4002522
S1130F601348144A29460023E6FB040105F014FF44
S1130F70114B084A1860114B1D70936923F010033C
S1130F8093610F4B4FF40062C3F880211A60284626
S1130F9008B070BD0080014000140020000204006D
S1130FA04041050080841E007000020000B0710BF7
S1130FB020A1070040420F00041400200814002060
S1130FC000E100E0044BDA68D20604D510225A612D
S1130FD0024B01221A70704700800140081400205F
S1130FE00C4B984210D90C4B984210D90222012381
S1130FF00A490B640A49D1F8003123F0807343EAAB
S11310000263C1F80031704700221346F0E7012261
S1131010FBE700BF0048E8010090D0030000C8438C
S113102000400E4038B5114B5B68114B00221C4642
S1131030C9B21D798D4202D11D68854212D2013296
S1131040052A03F10803F4D10A4841F2CE51FFF70F
S113105045FB032205494B6823F0407343EA0263CE
S11310604B6038BD04EBC2025279F3E700000E4036
S1131070D87200000F7200001F2810B5044604D96E
S113108003484FF4B371FFF729FB0120A04010BDC2
S11310905B72000070B5084C41F67136256C26640D
S11310A0FFF7ACFA0021FFF7BDFFADB2B5421CBF9C
S11310B00023236470BD00BF00000E40044BDB6BB3
S11310C05B0604D4034AD2F8C830002BFBD1704726
S11310D000300E400000C64308B5FFF7EFFF024B97
S11310E05868C0F3014008BD00300E40044BD3F8EB
S11310F04421D20703D4D3F840211042FBD17047D6
S113110000400E4070B5064C41F67136256C2664DD
S1131110FFF788FFADB2B5421CBF0023236470BD46
S113112000000E4038B5C0F30323013B092B24D83B
S1131130DFE803F02A2D2323051619231C20154C60
S11311400023C0F3043513B11846FFF7CFFF04F1B1
S1131150424404F5801405EBC404A400216038BDA6
S11311600D4C0123EDE70D4C1023EAE70C4C4FF432
S11311708033E6E70B4C0023E3E7BDE838400A4838
S113118041F66A31FFF7AABA084C0023D9E7084CA4
S11311900023D6E7B0400E40E0400E40E8400E4049
S11311A0F0400E4050410E400F72000000400E40CF
S11311B0C0400E4008B5C0F30313013B092B60D8AF
S11311C0DFE803F0050B0F195F5F1F233C532E4B21
S11311D0D3F80001C0F3042008BD2B4BD3F814014D
S11311E0F8E7294BD3F80001C0F300600130FFF7A2
S11311F043FF0138F0E7244BD3F80C01C0F3082077
S1131200EAE7214BD3F80801F8E7204B984209D0CC
S11312101F4B98420CD041F60E511E48FFF75EFA60
S11312200020D9E7184BD3F8200100F00F00DEE7C7
S1131230154BD3F82001C0F30110D8E7164B9842A0
S113124008D003F5B01303F58053984206D041F655
S11312503251E2E70C4BD3F82801ECE70A4BD3F800
S11312602801C0F301200430C1E70C4B984205D19A
S1131270054BD3F8300100F00300ADE741F64151CE
S1131280CBE741F66651C8E700400E4080061600E1
S113129080162E000F72000090171A00A009140087
S11312A008B5FFF787FF013008BD000000F00F000C
S11312B0013808B5072844D8DFE800F0040F1943C3
S11312C0232D4335264BD3F8943003F00703023B18
S11312D0052B3DD8234AD05C08BD214BD3F8803080
S11312E003F00703013B032B34D81F4AF3E71C4BDD
S11312F0D3F8843003F00703013B032B2AD81B4A9D
S1131300E9E7174BD3F8883003F00703013B032BBD
S113131020D8174ADFE7124B1B6F13F0010F0CBFE5
S113132007200920D8E70E4BD3F85C3103F03003D3
S1131330202B11D0302B11D0102B14BF01200720EB
S1131340CAE70C4842F2BB01FFF7C8F90020C3E723
S11313500520C1E70120BFE70420BDE70820BBE763
S113136000400E40AB720000B1720000B572000084
S1131370B17200000F72000038B52C4B984205463C
S11313800AD02B4B984207D02A4B984204D02A48C3
S113139041F2CD61FFF7A2F92846FFF787FF234BFF
S11313A09D42044611D0224B9D4212D0214B9D42B6
S11313B013D1224BD3F8804004F00704042C2DD819
S11313C0DFE804F02A11151D19001C4BD3F88440E2
S11313D0F2E71A4BD3F88840EEE7174841F2FC6174
S11313E0FFF77CF9EAE7BDE83840FFF76BB9BDE8E1
S11313F03840FFF76DB9BDE83840FFF766B9FFF72D
S113140001F90E4B0446D3F80001C0F3006001302B
S1131410FFF732FEB4FBF0F4204638BD064841F233
S11314204E71FFF75BF90024F6E700BF03002000CC
S11314300500240002001E000F72000000400E4050
S113144038B500F47813B3F5B01F05467FD02ED815
S1131450B3F5402F69D011D8B3F5802F54D006D8F6
S113146043B1B3F5003F5AD041F69A411AE0B3F5BF
S1131470202FF9D1BDE83840FFF7C4B8B3F5801F79
S113148000F0A280B3F5A01F57D0B3F5602FEBD1C5
S11314905B48FFF70BFF072800F096800928E9D086
S11314A041F290415748FFF719F9002036E0B3F5AF
S11314B0381F5AD013D8B3F5001F5FD00AD8B3F53C
S11314C0D01F5DD0B3F5F01FCED14F48BDE83840F2
S11314D0FFF752BFB3F5101FC6D14C48F6E7B3F57A
S11314E0481F57D0B3F5781F00F08280B3F5401F32
S11314F0BAD14748FFF740FF464B0446D3F82801CA
S1131500C0F3012004302BE0FFF77CF8414BD3F803
S11315100C31C3F308230133B0FBF3F038BDFFF7FC
S113152071F83C4BD3F80831F3E7FFF76BF8394B0C
S1131530D3F81431C3F30423EDE73448FFF71CFF59
S1131540344BD3F8303103F00303D840E6E72E4898
S1131550FFF712FF2F4B0446D3F8200100F00F00D1
S1131560FFF78AFDB4FBF0F0D8E72748FFF704FF44
S1131570284BD3F82031C3F30113E6E72448A5E749
S11315802348FFF7F9FE234B0446D3F82801C0F3A0
S11315900110E5E72048FFF789FE0138072824D821
S11315A001A353F820F000BFAB140000EB150000BA
S11315B0EB150000CF150000EB150000EB15000043
S11315C0C9150000D7150000144B1868A6E7BDE83C
S11315D03840FFF753B8FFF715F80E4BD3F8003136
S11315E0C3F3042303FB000098E741F2C74159E722
S11315F0FFF708F804462846FFF752FEB2E700BF9B
S113160006000E000F72000002001E0005002400F8
S11316100300200000400E40B800320054100020A7
S1131620014B1880704700BF58100020013838B5AE
S11316300C46032864D8DFE800F002441A2FB1F501
S1131640007F04D3324842F6BB01FFF747F8314A22
S1131650C4F30804D2F86838002BFBD12E4A136A6D
S113166023F4FF7323F001032343136238BD7F295E
S113167004D9274842F6C801FFF730F8254A04F098
S11316807F01D2F86038002BFBD1234B1C6924F076
S11316907F040C431C61E9E77F2904D91C4842F606
S11316A0E301FFF71BF81B4A04F07F01D2F864380A
S11316B0002BFBD1184B9C6924F07F040C439C61E4
S11316C0D4E7154DD5F890305B0704D5104842F6A1
S11316D0F301FFF703F86B6A23F0300343F01003C0
S11316E06B62C4F3C311CB1C2A6B0C490F2B01EAA8
S11316F0020128BF0F23214341EA03712963B5E79F
S1131700BDE83840024842F60D11FEF7E7BF00BFBE
S11317100F7200000020C84300400E4000F8FF0F85
S1131720022810B50C4604D0144842F62511FEF7E1
S1131730D5FF134B5B6A13F0300F1BD0202C16D04F
S1131740302C17D0B4B10D484FF42551FEF7C6FF25
S11317500C4B0B4AD2F8901033EA0101FAD15B0228
S11317604ABFD2F8A0000120C0F3802010BD4FF47E
S11317700003EEE74FF44003EBE700BF0F720000F5
S113178000400E40FF33E107022808B50CD129B10F
S1131790094B4FF48060C3F8A80059664AB1BDE80C
S11317A008400220FFF7BCBF044842F67611FEF75A
S11317B095FF012008BD00BF00400E400F720000DD
S11317C004282DE9F04704460F4691461FD83D4BA7
S11317D03D4A13F800A03D4B13F80080F1B93C4B8F
S11317E033F810301366012303FA08F8D2F8903066
S11317F013EA080FFAD1B9F1000F5AD00125324A81
S113180005FA0AF5D2F890302B42FBD151E0BDE83D
S1131810F047304842F60A01FEF760BF2E4B02281B
S113182033F8106047D1536A13F0300F43D12B4B78
S1131830DB6B5A0504D4274842F61901FEF74EFF24
S1131840214A536ADB0705D5536A23F0300343F07A
S113185010035362224D1C4BA8441E664FEA8808AD
S1131860D8F80030002BFBD0B9F1000F21D055443B
S1131870AD002B68002BFCD0022C1AD1CFB1124F33
S1131880796A11F0010118D0012220212046FFF7C6
S11318907BFFD7F89C40012200210220FFF790FF34
S11318A0C4F30A010220FFF7C1FE3E662B68002B39
S11318B0FCD0BDE8F0870027CCE72046FFF730FFD7
S11318C0E7E700BFB972000000400E40BE7200009E
S11318D0CE7200000F720000C472000000300E408F
S11318E08004F210112838B50C460FD000F00F0018
S11318F00138072800F2EB80DFE810F024006600CE
S11319009A00E9007D00B400E900C200042912D164
S1131910FEF7B4FE0546A8B10021284600F0AEFA51
S1131920023C0A2C45D8DFE804F04A4731374444E6
S113193044443D0F4D00052904D1664B1D68664B98
S11319409D42E9D80025EBE7032005240122114636
S1131950FFF736FFFFF79EFB0DB1FFF7AFFB5F4BC1
S11319605C67FEF779FE0446FEF74CFEFFF738FB92
S1131970FFF7B2FB01462046FFF7C4FB002D5DD103
S113198028460121BDE8384000F078BA5448FFF7F2
S113199027FB02200446D9E75148FFF721FB012425
S11319A00320D3E742F27C11BDE838404D48FEF7EE
S11319B095BE42F28111F7E701200324C6E7002017
S11319C00424C3E70724C5E7062933D14548464D17
S11319D04FF40751FEF782FE424842F2D011FEF75F
S11319E07DFEFEF70FFEFFF7FBFA404B0122C3F822
S11319F00826032321E006293D4DEDD0013C092CA6
S1131A002BD801A353F824F0611A00003F1A0000F8
S1131A104D1A00005B1A00005B1A0000E319000075
S1131A205B1A00005B1A00005B1A0000391A000000
S1131A30304DE3E72C4DE1E704232B6038BD012250
S1131A4011460020FFF7BCFE0223F6E701221146EF
S1131A501046FFF7B5FE0123EFE742F2FB11A3E7BF
S1131A600023EAE7072904D0092906D042F2852198
S1131A709AE71A4B00221A67E0E7184B0122FAE7AB
S1131A804C1E072C1ED8DFE804F0201D1D161D1D5A
S1131A900F0403221149D1F85C3123F0300343EAE7
S1131AA00213C1F85C31C9E7012211460420FFF793
S1131AB087FE0122EEE7012211460220FFF780FE95
S1131AC00222E7E742F2E3216EE70022E2E742F274
S1131AD0BA3169E73C100020002D310100400E406E
S1131AE00148E8010F72000080400E400010C84316
S1131AF088400E4084400E4010B504461120FFF784
S1131B00D5FB042804D1274842F2A561FEF7E6FD7F
S1131B10012200210220FFF753FE63781BB9A3784A
S1131B200BB9E37823B11F4842F2E161FEF7D6FD19
S1131B30237C012B04D11B4842F2E861FEF7CEFD61
S1131B40194A217C536A23F00103022908BF43F098
S1131B5001035362154B2178C3F8A014637AA1885A
S1131B6043EAC123D362136BA07A217A03F07F6323
S1131B700343E08843EAC02343EAC11303310F2936
S1131B8028BF0F2143EA01731363A37B617B1B010D
S1131B9043EA0133E17B0B43217B43EA0143536373
S1131BA010BD00BF0F72000000400E400000C8438B
S1131BB070B505461120FFF779FB022804D10F48C0
S1131BC042F26371FEF78AFD0D4E0E4BB26B2C7818
S1131BD013401C436B7844EAC324AB7844EA03649F
S1131BE0EB7844EA0324B36BA34205D0002101221D
S1131BF00846FFF7E5FDB46370BD00BF0F72000037
S1131C0000400E4080E4FFF8EFF3108072B6704796
S1131C1000B962B67047EFF31180602383F3118833
S1131C20704780F31188704738B5C5B2322D044629
S1131C3004D9084840F21F31FEF750FD064B6409F1
S1131C4005F01F0553F82400E840C04300F00100EC
S1131C5038BD00BF0073000000E100E0034BD86B07
S1131C6080F04000C0F38010704700BF00300E4089
S1131C7038B542EA0323B3F5007F05460C463ED04F
S1131C8019D8B3F5807F36D00AD883B3012B21D07D
S1131C901F4840F6F211FEF721FD002213461FE013
S1131CA040F201129342F3D11A4BD3F824321A0EA4
S1131CB0C3F3074314E0B3F5407F24D040F201326C
S1131CC0934210D040F201229342E1D1114BD3F858
S1131CD0283202E00F4BD3F82432C3F30722DBB2DD
S1131CE02B60226038BD0B4BD3F82832DFE7094B59
S1131CF0D3F81C32F1E7074BD3F81C32D7E7054B76
S1131D00D3F82032E9E7034BD3F82032CFE700BF02
S1131D104D7300000081E00F08B5FFF79FFF20B16D
S1131D20024AD2F8C830002BFBD108BD0000C643DC
S1131D301A4B022810B5D3F830320C4612D00328BF
S1131D4013D0012814BFDBB2C3F307231B0323F40E
S1131D507042ECB95AB140F681111148FEF7BEFC4D
S1131D60002010BDC3F30743F0E71B0EEEE70D4957
S1131D70CA6E22F470421343CB660120F1E709498D
S1131D80D1F8EC2022F470421343C1F8EC30F4E7AC
S1131D90002AF4D040F68D11DFE700BF0081E00F88
S1131DA04D73000000300E400378134A002B437833
S1131DB070B514BF04260026002B8378946914BFE1
S1131DC002250025002B037924F03F0443EA040391
S1131DD0C47814BF08210021012C08BF43F001037B
S1131DE033432B430B4393611368417923F440330A
S1131DF043EA0143136070BD00300E40F8B5044659
S1131E000F46FFF72BFF78B3FFF786FF174B5B688E
S1131E10C3F301439C4227D0154BD3F80061FEF76E
S1131E20F1FB022C05460FD1124BC6F3042606FB28
S1131E3000069E4204D910484FF4E361FEF74EFCBD
S1131E4002212846FFF75EF9C4F1020210239340F1
S1131E50064A13610FB1FFF75FFF2CB921462846EC
S1131E60BDE8F840FFF74EB9F8BD00BF00300E40A2
S1131E7000400E40002D31014D73000013B50246A1
S1131E80FFF7ECFEC8B152B90D4B0191D3F80041F4
S1131E90FEF7B8FBC4F30422019902FB0002094BCC
S1131EA01B7843B1084B9A4205D8022002B0BDE822
S1131EB01040FFF7A3BF0020F8E702B010BD00BF39
S1131EC000400E4010140020002D3101224B4AF630
S1131ED0E85210B5596B5A639A6FD207FCD41B6C45
S1131EE013F003031EBF1D4A0124C2F8B44A8342FF
S1131EF004D110B9194BC3F8B40A10BD032B00D098
S1131F009BB9431E012B10D8134A4FF40023D3620C
S1131F10936FDB07FCD4136C23F0030343F001033A
S1131F2013640D4A536A1C03FCD50B4B9A6FD207FA
S1131F30FCD41A6C22F0030202431A649A6F12F062
S1131F400102FBD10038054C18BF01200129C4F857
S1131F50B40A08BF5A63D0E700300E400000C643FD
S1131F602DE9F04FA0F5E16389B00024B3F5966F35
S1131F70CDE90244CDE90444CDE9064406468A4647
S1131F80934605D940F67B315548FEF7A7FBA3E0FD
S1131F90B0F5E16F534B8CBF0122002249D1D3F835
S1131FA01832C3F30721DBB2079104934FF416757B
S1131FB04FF4966748E0BBF1000F0ED0D9F85C20CF
S1131FC022F4FE4222F00202B6F5E16F42EA012257
S1131FD018BF02200243C9F85C20BAF1000F26D0D2
S1131FE020460021FFF7A4FE044610B940F6D8317C
S1131FF0CAE701214046FFF79BFE044610B94FF49F
S11320003E61C1E7384A536EBD4238BF3D4623F4B2
S1132010FF73E72D23F0010328BFE725B6F5E16F31
S113202018BF43F0010343EA4503536654E0012417
S113203052E0D3F81832190EC3F3074307910493FF
S11320404FF496654FF4E167DFF89C90D9F84C4063
S11320500192C4F30174234605A902A8FFF708FE00
S1132060D9F8EC30019AC3F30128434606A903A822
S1132070FFF7FEFD049BF01B079FF91A4143B1FBD8
S1132080F5F299182CBF012300238F421ED3EBB91C
S1132090069A039FD31B4343B3FBF5F3FF182CBFEE
S11320A001230023BA4211D383B9059B029AA3EBFF
S11320B0020C00FB0CF0B0FBF5F555192CBF012008
S11320C00020AB4202D300283FF475AF044840F629
S11320D0C931FEF703FB0024204609B0BDE8F08FA8
S11320E04D7300000081E00F00300E40334A08B504
S11320F0136FD16C11F0010F03F0060344D0002BD1
S113210042D0132857D9143813288CBF102308231E
S11321102A49013BCA6C180322F47F4240EA032394
S11321201343CB64264BCA6C1B88C2F303222833A7
S1132130013202EB820003EB5303B3FBF0F3C86CF0
S1132140013B072B28BF072320F0EE6040EA03631E
S113215043F48013CB641B4BB3F90030002B12DB28
S113216003F12800C0F34E030344500800EB42027D
S1132170B3FBF2F20B6D072A28BF072223F070038A
S113218043EA02120A6508BDD16C01F0010119434A
S113219004D109280FD90A380928B6E7D26CD20726
S11321A002D50BB92728B0E7074840F61E41FEF7D1
S11321B095FA0023ACE70423AAE700BF00300E40E1
S11321C00C1400200E1400204D7300000C4BD3F8A7
S11321D0803910B5044633B9012804D9094840F6BA
S11321E03C41FEF77BFA084A136F23F007032343AD
S11321F01367064BBDE810401888FFF777BF00BF90
S11322000000C6434D73000000300E400A14002045
S113221038B55A4B02229A639B6B03F00F03934227
S1132220044607D0564840F61621FEF757FA002513
S1132230284638BD0389C82B04D951484FF422617C
S1132240FEF74CFAA28823899A4204D94C4840F6F6
S11322502121FEF743FAB4F90C30C82B04DD4848B9
S113226040F62221FEF73AFA6378012B55D1A38870
S1132270C82B04D940F626214148FEF72FFAE288FC
S113228042F210739A4204D93D4840F63321FEF7D6
S113229025FAE3884A2B48D9B3F5FA7F47D340F6A9
S11322A0C312934294BF4FF000524FF0405233494F
S11322B0B4F90C00CB6C23F0405323F00103002845
S11322C0A8BF43F001031343CB64D1F8EC30A288D8
S11322D043F44073C1F8EC302A4B1A80CB6E43F0C0
S11322E08073CB66284BD3F8800900B10420FFF734
S11322F06DFF264B21891980254BB4F90C20A08849
S11323001A80FFF7F3FEA37BA3B1012B22D01C4854
S113231040F63211FEF7E2F90FE0022BAFD1A388A9
S11323200A2BACD940F62B21A6E70022BFE74FF0D9
S11323308052BCE7114B174A9A6501226088114606
S1132340FFF70EFE054640B90D4840F66A21FEF738
S1132350C5F96DE7094B104AEEE7084AD36B43F41D
S11323608063D3636078FFF7B1FDA37AA3F1200201
S113237053425341044AC2F8943759E700300E409F
S11323804D7300000A1400200000C6430C14002002
S11323900E14002077402057372110B71F2970B53D
S11323A005460C46164603D906489121FEF796F9D0
S11323B005F1424000F5801004EBC004A40026603F
S11323C070BD00BF9973000038B50D46044640B394
S11323D0012829D002282AD003282BD004280ED083
S11323E005282AD0831F012B09D9082828D00928B9
S11323F028D00A2803D10723EB40DB0704D4134871
S113240040F22D41FEF76AF930200C2310FB04340E
S113241004F18C44012104F5204401FA05F52560FA
S113242038BD40F2FF33E7E74FF6C073E4E740F608
S1132430FF73E1E74FF47F43DEE74FF6FF73DBE71B
S11324400F23D9E74FF44043D6E700BFE5730000FC
S113245038B50D46044640B3012829D002282AD0B5
S113246003282BD004280ED005282AD0831F012B43
S113247009D9082828D0092828D00A2803D10723F5
S1132480EB40DB0704D4134840F2FE31FEF726F993
S113249030200C2310FB043404F18844012104F59A
S11324A0204401FA05F5256038BD40F2FF33E7E723
S11324B04FF6C073E4E740F6FF73E1E74FF47F4360
S11324C0DEE74FF6FF73DBE70F23D9E74FF4404312
S11324D0D6E700BFE573000070B505460E46144606
S11324E0FFF792FB296881EA040202EA06044C40E1
S11324F02C60BDE87040FFF78BBB00001F2810B5AF
S1132500044603D906485221FEF7E8F8054AD2F8F2
S1132510443423F003032343C2F8443410BD00BF02
S11325203274000000A000402DE9F0478A469DF86F
S113253020909DF8248015461F46044600284ED05E
S113254001284FD0022850D0032851D004280FD09E
S1132550052850D0831F012B0AD908284ED00928FA
S11325604ED00A2804D1072020FA0AF0C30703D466
S11325702C48BF21FEF7B2F88AEA050333F00303BF
S113258003D02848C121FEF7A9F8072D0AF0030A51
S11325904FF00F0137D8AE00234804FA06F2B140D9
S11325A0FFF79AFF032121480AFA06F2B140FFF728
S11325B093FF3A4629461E48FFF7F0FE4A4629464D
S11325C01C48FFF7EBFE1C4A1C480123AB40C2F831
S11325D0243429464246BDE8F047FFF7DFBE40F207
S11325E0FF30C1E74FF6C070BEE740F6FF70BBE7AF
S11325F04FF47F40B8E74FF6FF70B5E70F20B3E71D
S11326004FF44040B0E7A5F10806B6000C4804FAC0
S113261006F2B140FFF760FF03210A480AFA06F206
S1132620B140C4E73274000000A4004008A4004094
S113263010A4004014A4004000A0004028A40040BE
S113264004A400400CA40040F8B50D4616461F46ED
S11326500446C8B301283AD002283BD003283CD012
S113266004280ED005283BD0831F012B09D9082844
S113267039D0092839D00A2803D10721E940CB07EA
S113268004D423484FF4B071FEF728F826B1294644
S113269020466FB3FFF798FE04EB4403072D4FEA7F
S11326A003134FF00F0126D8A80006FA00F2814068
S11326B018481844FFF710FF4EBB2946204617B3AD
S11326C0BDE8F840FFF780BE40F2FF31D6E74FF691
S11326D0C071D3E740F6FF71D0E74FF47F41CDE7F7
S11326E04FF6FF71CAE70F21C8E74FF44041C5E731
S11326F0FFF7AEFED0E7A5F10800800006FA00F26D
S113270081400548D5E7BDE8F840FFF7A1BEF8BD14
S11327103274000004A0004008A00040022838B52C
S113272004460D4603D911484C21FDF7D7FF6B79B8
S11327301F2B03D90D484F21FDF7D0FFAB786A78E2
S11327409B0143EA82032A781343EA7843EA02139B
S11327502A7943EAC2236A7943EA0233AA79043420
S113276043EA42432401024A135138BD7F740000F6
S113277000200440427801790378002A827870B5F9
S113278014BF04260026002AC27814BF1025002591
S1132790002A42794FEA023242EA012242EA030263
S11327A0837914BF20240024002BC37942EA034315
S11327B043EA0603027A43EA050314BF4FF40041D7
S11327C000212343002A14BF4FF4003200220B439C
S11327D01343014A136070BD0020044010B5044641
S11327E018B910485721FDF779FF0F4AD2F8E430A1
S11327F0D2F8E0109B0003F03C03C1F381110B43BA
S1132800A370D2F8E03003F03F036370D2F8E830ED
S1132810D2F8EC2003F0F003C2F303121343237045
S113282010BD00BFCC74000000FF0FE0094B9842BC
S11328300DD003F58063984209D003F5E053984224
S113284005D003F58063C31A5842584170470120EC
S1132850704700BF008001402DE9F84F05460C4643
S1132860FFF7E4FF18B92B48A521FDF737FF2178BE
S113287009B902236B60607800236B620028E27858
S1132880607AA37894F808B094F806A094F80790B6
S113289014BF4FF040084FF0000812040028A07A3B
S11328A042EA036314BF4FF0800E4FF0000E43EA78
S11328B00B030028E07A43EA8A2314BF4FF0200C6C
S11328C04FF0000C43EA09230028207B43EA080365
S11328D014BF1027002743EA0E03002820796479E7
S11328E043EA0C0314BF082600263B43002814BF08
S11328F04FF4005000203343002C14BF4FF0805499
S11329000024034323432B6009B101236B60BDE81A
S1132910F88F00BF1B750000F8B505460C46164637
S1132920FFF784FF18B92048F521FDF7D7FE032CE3
S113293003D91D48F621FDF7D1FE737832781B06C2
S113294043EA8263B2791343B27843EA0243F278EA
S113295043EA0233327943EA8223727943EA022357
S1132960F279002A327A14BF4FF080470027002AF8
S1132970727A14BF4FF000500020002AB27AF67A1F
S113298043EA067343EA070314BF102100210343FB
S1132990002A04F1060414BF042200220B4324017C
S11329A013432B51F8BD00BF1B75000070B50646DC
S11329B00C46154622B90D4840F28E21FDF78EFED5
S11329C01CB90B48FEF73CFD04460A4B6D00013C64
S11329D0B4FBF5F413EA04234FEA042504D00348B6
S11329E040F2B321FDF77AFE756170BD6975000090
S11329F040410500070080FF38B51E4B1E4D98422C
S1132A0004460ED0A8420CD003F50063984208D0C7
S1132A1003F58063984204D0184840F24241FDF720
S1132A205DFE40F6AA63E36041F2050200232360E1
S1132A306260134AA3606361E364A264236663670C
S1132A40A367E3670B4B9C4209D0AC4207D003F564
S1132A5000639C4203D003F580639C4201D10023B0
S1132A6023650023AC42A36502D0064A944200D1F8
S1132A70E36538BD000001400004014069750000B1
S1132A80F9FF0100000C014038B52D4B9842044673
S1132A900D4610D003F5806398420CD003F5806393
S1132AA0984208D003F58063984204D0254840F248
S1132AB06931FDF713FE2046FFF79EFFA97B2A8AA2
S1132AC02368002942F0010214BF4FF48061002101
S1132AD013430B432A7D23602368002A14BF4FF05D
S1132AE00052002213432360AB7C1BB1EB7C43F008
S1132AF08003A3652B7B43F480536360D5E9011203
S1132B002046FFF753FF6B7B0BB11023E3606B7D13
S1132B101BB1236843F480332360AB7D1BB123686E
S1132B2043F400432360EB7D2A7E1B07120503F068
S1132B30E04302F4E002134323662B78E36038BDDC
S1132B40000001406975000003695A06FCD5416321
S1132B5003699B06FCD5C069C0B270477FB5094BB9
S1132B606A4603F11006154618685968144603C4EA
S1132B700833B3422246F7D12846FFF749FB002029
S1132B8004B070BDB875000013B502230024684674
S1132B9000948DF804408DF80530FFF705F92046C0
S1132BA002B010BD70B5174B86B001AA03F1100630
S1132BB0154618685968144603C40833B3422246BC
S1132BC0F7D11B882380104BD3F8B42012030ED402
S1132BD0D3F8B830C3F308030C48ADF80A30FDF756
S1132BE053FD2846FEF788FF002006B070BD084B51
S1132BF01A884FF6FF7140F243138A4218BF1346F6
S1132C00EAE700BFC87500000081E00F00F0490248
S1132C100001E00F07B5084B18680190202301A8B4
S1132C208DF80430FEF7C4FF6420FEF7F9FC0020A1
S1132C3003B05DF804FB00BFDA75000010B50C4862
S1132C400C4C6FF00402A02112F0800FD3B21BBF12
S1132C5003F00F03043BA3181B1802F101020CBF7D
S1132C6083F800131976332AEED1002010BD00BF7B
S1132C7000ED00E000E100E008B5FDF72DFBFDF7F5
S1132C8079FBFDF784FBFDF784FBBDE80840FDF705
S1132C9082BB000010B50446FDF7DEFC4FF47A72E7
S1132CA09042B0FBF2F105D23621BDE810400B484A
S1132CB0FDF714BD0A4BB3FBF1F30A49884201D96D
S1132CC03C21F2E702FB04F0B0FBF3F0032804D943
S1132CD0BDE81040800800F00BB810BDDE750000A0
S1132CE040420F00E7CD9A3B0000000000000000C6
S1132CF0013800D0FCE7704738B50D46044640B3B0
S1132D00012829D002282AD003282BD004280ED049
S1132D1005282AD0831F012B09D9082828D009287F
S1132D2028D00A2803D10723EB40DB0704D4134837
S1132D3040F2CF31FDF7D2FC30201C2310FB0434C9
S1132D4004F1047404F5204405EBC405AD002868BF
S1132D5038BD40F2FF33E7E74FF6C073E4E740F6CF
S1132D60FF73E1E74FF47F43DEE74FF6FF73DBE7E2
S1132D700F23D9E74FF44043D6E700BFE5730000C3
S1132D80034B93F8341093F83500FFF7B5BF00BF39
S1132D9014140020034B93F83C1093F83D00FFF704
S1132DA0ABBF00BF14140020034B93F8441093F8F6
S1132DB04500FFF7A1BF00BF14140020034B93F894
S1132DC0541093F85500FFF797BF00BF1414002068
S1132DD0034B93F85C1093F85D00FFF78DBF00BFC1
S1132DE014140020034B93F84C1093F84D00FFF794
S1132DF083BF00BF141400201F4B204A1A604FF4F5
S1132E0042729A801E4A9A6006229A811D4A1A6169
S1132E1007229A821C4A9A6140F20D529A831B4AF5
S1132E201A6240F20F529A84194A9A6240F20E5280
S1132E309A85184A1A6340F601029A86164A9A63DA
S1132E4040F602029A87154A1A6440F60302A3F870
S1132E504420134A9A6440F20912A3F84C20114A00
S1132E601A654FF40172A3F854200F4A9A6540F290
S1132E700522A3F85C20704714140020592F000089
S1132E80192F0000392F0000792F0000BD2F0000FA
S1132E90992F0000812D0000952D0000A92D000020
S1132EA0E52D0000BD2D0000D12D000073B5FDF708
S1132EB06DFD0B4C0025012621682079FDF77EFD70
S1132EC022796079CDE90066012311460135FFF7C7
S1132ED02BFB0C2D04F10804EED102B070BD00BF31
S1132EE01414002010B5044600F038FC00F0DCF99E
S1132EF0084B682202FB04339A6893F91410186192
S1132F000A4420469A6000F06FFA2046BDE810405B
S1132F1000F012B9087F002008B5064B197B587BD6
S1132F20FFF7EAFE20B1BDE808400120FFF7DABF51
S1132F3008BD00BF1414002008B5064B197D587D48
S1132F40FFF7DAFE20B1BDE808400120FFF7CABF51
S1132F5008BD00BF1414002008B5064B1979587930
S1132F60FFF7CAFE20B1BDE808400120FFF7BABF51
S1132F7008BD00BF1414002008B5064B197F587F04
S1132F80FFF7BAFE20B1BDE808400020FFF7AABF52
S1132F9008BD00BF1414002008B5074B93F82C108B
S1132FA093F82D00FFF7A8FE20B1BDE808400020EB
S1132FB0FFF798BF08BD00BF1414002008B5074BE5
S1132FC093F8241093F82500FFF796FE20B1BDE88E
S1132FD008400020FFF786BF08BD00BF141400207E
S1132FE038B50C460546F0B101281FD0022820D080
S1132FF0032821D0042804D04FF6FF73E340DB07F5
S113300004D40F4840F2CF31FDF768FB30201C2375
S113301010FB053505F1047505F5204504EBC504E1
S1133020A400206838BD40F2FF33E7E74FF6C073D1
S1133030E4E740F6FF73E1E74FF47F43DEE700BFC8
S1133040E5730000064B42F20C0202FB003041F231
S1133050A863C358184441F64473C154704700BF71
S113306074140020084B42F20C0202FB003210B52B
S113307041F2A864125940F6030404FB002003EB58
S11330808003196010BD00BF74140020084B42F285
S11330900C0202FB003210B541F2A864125940F64A
S11330A0030404FB002003EB8003C3F8201310BDCA
S11330B074140020094A42F20C0310B503FB0023E8
S11330C041F2A8641B5940F6030404FB003000F5E8
S11330D0C87002EB8000016010BD00BF74140020B2
S11330E0094A42F20C0310B503FB002341F2A86421
S11330F01B5940F6030404FB003000F57A7002EB20
S11331008000016010BD00BF74140020094A42F21F
S11331100C0310B503FB002341F2A8641B5940F6CD
S1133120030404FB003000F5966002EB80000160AC
S113313010BD00BF74140020F0B541F21C53104CB4
S1133140434304EB030C45F2305718215CF8076045
S1133150F2B201FB02331C440A4B682505FB00351F
S11331600FCD04F5844470340FC495E80300013690
S1133170C72E84E803004CF8076000DDFEE7F0BDCD
S113318074140020087F002038B5204C41F21C53F1
S113319003FB004345F230529D58D8B1012833D186
S11331A008210320EDB2FFF71BFF05EB45052C4476
S11331B045F234530621E0540020FFF711FF45F295
S11331C035530721E0540020FFF70AFF45F2365338
S11331D0E05438BD0D210520EDB2FFF701FF05EBEA
S11331E04505254444F218030F21E8540520FFF750
S11331F0F7FE44F219030E21E8540520FFF7F0FE10
S113320044F21A03E854E4E700BEE2E77414002031
S11332102DE9F843224D42F20C0303FB00F905EBC0
S1133220090641F2A8678046F4590134F451FFF7C6
S1133230ABFF04EB44031B4A68214B4401FB082207
S11332402B4403F5E753108B988140F6030000FBF1
S11332500840917E997300F2AA5305EB830334442A
S1133260916A596004F5AF5492F82130237000F547
S1133270167305EB8303116B196000F5487305EBB6
S1133280830300F27260D16C196005EB8005D36A88
S11332906B60F359C72B00DDFEE7BDE8F88300BF80
S11332A074140020087F002008B5FDF7C9FDBDE8AF
S11332B008400021FDF7CABD2DE9D043037B2DED65
S11332C0028B04464BB100238360036043600023F8
S11332D00373BDEC028BBDE8D08390ED028AF7EE58
S11332E0007A38EE278A78EE677A80ED028A87EED4
S11332F0887AD0ED007A67EE277A17EE900A03F009
S1133300E9F9064618EE100A0F4603F0E3F90246FF
S11333100B4600200B4903F05FFB8046606889463A
S113332003F0D8F902460B464046494603F02AFA10
S113333002460B463046394603F06EF803F0DCFCD7
S11333402060C6E70000F03F38B50C460546F0B1F2
S113335001281FD0022820D0032821D0042804D01B
S11333604FF6FF73E340DB0704D40F4840F2CF313C
S1133370FDF7B4F930201C2310FB053505F1047565
S113338005F5204504EBC504A400206838BD40F2CF
S1133390FF33E7E74FF6C073E4E740F6FF73E1E776
S11333A04FF47F43DEE700BFE573000010B5322120
S11333B00446FDF7AFFA2046BDE81040FDF79ABA7F
S11333C010B5074B682202FB0131044691F8211025
S11333D0FDF7A0FA2046BDE81040FDF78BBA00BF08
S11333E0087F0020FDF78EBA70B5044630B301287B
S11333F02DD1184B184A1A60184B194A1A60194BE8
S1133400194A1A4D1A60682303FB0455184E2B7E83
S1133410104A56F823301068214698476B7E0F4AAD
S113342056F82330106821469847AB7E0D4A56F86B
S1133430233010682146BDE870401847054B0D4AFB
S11334401A60064B0C4A1A60064B0C4AD9E700BEB8
S113345070BD00BFF87E002000100020FC7E00201C
S113346008100020007F002010100020087F00209A
S113347080100020181000202010002028100020A8
S113348010B5A8B1012824D108210320FFF75CFF5F
S1133490114C062184F86A000020FFF755FF07212C
S11334A084F86B000020FFF74FFF84F86C0010BD18
S11334B00F210520FFF748FF074C0E21E07005207F
S11334C0FFF742FF0D2120710520FFF73DFFA0709B
S11334D0EDE700BEEBE700BF087F002070B5154C98
S11334E0154E682303FB00440546E178A3784900A0
S11334F041EA83012379194301F007013154FFF7AD
S1133500A1FD94F82030012B09D8735D0B4A03EB1D
S11335104303D118D25A8B782283A37670BD022B31
S1133520FCD1735D03EB4302044B13441A8B9B7E63
S1133530F2E700BF087F0020C47E0020C67E002082
S11335402DE9F843344E682707FB006797ED127A9C
S1133550D7ED137A77EE677A2DED028B044617EEDA
S1133560900A17EE905A03F0B5F827A3D3E9002385
S11335708046894603F006F903F0BEFB24A3D3E991
S11335800023494608EE900A404603F0FBF88046C3
S1133590B86A894603F09EF802460B4640464946FF
S11335A002F03AFF03F0A8FBDFED1C7A08EE100AE4
S11335B0B4EEE78AF1EE10FA23DCDFED197AB4EE0B
S11335C0678AF1EE10FA48BFB0EE678A682303FBFE
S11335D0046686ED0A8A29462046FFF743FD18EE65
S11335E0901A2046FFF752FD18EE101A2046FFF7F6
S11335F061FD78EE287ABDEC028B17EE900ABDE8E7
S1133600F883B0EE678AE1E79A9999999999B93F55
S11336107B14AE47E17A843F087F00200000C84253
S11336200000C8C2000000002DE970431C4C68264D
S113363006FB00462DED028B96ED0C8A054618EE2E
S1133640100A03F047F812A3D3E900238046894601
S113365003F00AFB70B110A3D3E9002340464946A6
S113366003F020FB30B1002386F82030BDEC028B40
S1133670BDE87083B5EEC08A6820F1EE10FA00FB55
S11336800544CCBF0123022384F82030EEE700BFB9
S1133690F168E388B5F8E43EF168E388B5F8E4BE80
S11336A0087F0020224B0022022101201A705A7048
S11336B09A70D97018715A719871DA7119725872B6
S11336C09972DA721A7359739873DA731874597495
S11336D09974DA7418755A759A75DA751A765A7671
S11336E09A76DA76187759779977DA7783F820001B
S11336F083F8212083F8221083F8230083F8240020
S113370083F8251083F8262083F8271083F82800EF
S113371083F8292083F82A0083F82B2083F82C10BF
S113372083F82D2083F82E2083F82F20704700BFC4
S1133730C67E002010B50849682358430A18D37878
S1133740947812795B0043EA8403134303F007037C
S1133750013B0B5410BD00BF087F002010B5074A81
S1133760682358431318115C5878054A5970062485
S113377004FB0022525C1A7510BD00BF087F0020B4
S11337805A100020000000002DE9F84F304E682345
S11337902DED028B4343F218044692F82010D2F820
S11337A01080976841B9002111634C33012182F8DC
S11337B05810F018FFF780FD682044433519AB6BAF
S11337C0B8EB030B35D0286C381A32D002F070FFF6
S11337D01BA3D3E9002302F0D5FF03F08DFA08EE12
S11337E0100A584602F054FF1A4B002203F0F4F872
S11337F003F082FA07EE900AC8EE277A17EE900AD1
S113380002F068FF10A3D3E9002302F0BBFF03F02A
S113381073FABDEC028B00232863286504F14C0085
S1133820C5E90E83C5E910733044BDE8F84FFFF7CE
S113383043BDBDEC028BBDE8F88F00BFAFF3008041
S113384065732D3852C1F03F1E1E1E1E1E1EAE3F54
S1133850087F002000408F4010B50446FFF770FE3B
S1133860084B682202FB043307EE100AD3ED127AE8
S113387077EE877A2046C3ED0B7ABDE81040FFF758
S1133880C7BC00BF087F002070B5274D682303FB29
S11338900055D5ED0B7AF0EEE77A2DED028B044658
S11338A017EE900A02F016FF204B002202F06AFF86
S11338B01F4B002202F066FF03F01EFADFED1D7AB3
S11338C008EE100AC8EE277A17EE900A02F002FFFB
S11338D011A3D3E9002303F07FF803F00DFA0646A1
S11338E002F0F8FE0EA3D3E9002303F075F8124B9F
S11338F0002202F047FF03F0DFF918EE101A85F8F2
S113390021002046FFF7ECFBBDEC028B314620463C
S1133910BDE87040FFF7FABB86C954C1A8A4DE3FD6
S11339206666666666660A40087F002000003140CD
S113393000004E400000C345000059400B4B682274
S113394013B502FB00330A4C0A4A9A64FFF798FD48
S11339502046FDF70FF90021074A0091074B126832
S11339602068FDF791F902B010BD00BF087F002068
S11339708C1000200000404090100020DD39000031
S1133980144B682202FB003082B0C37882785B005B
S113399043EA82030279134303F00703013BDBB2DA
S11339A08DF807309DF807300B4A03EB4303D35CD3
S11339B083709DF8073003EB430313445B78C370B3
S11339C09DF8073003EB43031A449378037102B064
S11339D0704700BF087F002036760000F7B51D4C05
S11339E01D4E07462078FFF779FD2078FFF7A2FEE9
S11339F020781A4B682505FB00F172184FF0060E6B
S1133A0092F801C0715C0EFB0C335B5C1375FFF71D
S1133A1093FB207845437319725D5A70FFF7B4FE27
S1133A202078FFF719FF2078FFF7FEFD2078FFF7D5
S1133A302BFF2078FFF7D8FC2078FFF7A1FF0021A7
S1133A40074A0091074B12683846FDF71DF903B089
S1133A50F0BD00BF94100020087F00205A10002001
S1133A6090100020DD390000F8B50D4610B900248F
S1133A702046F8BD0E4F3E68002EF8D100F01CF829
S1133A8004460028F3D0386000F04AF8204600F0DD
S1133A903CF838B130463E6000F042F8204600F071
S1133AA02FF8E4E7002DE3D02046A847E0E700BF65
S1133AB0D87F002070470000F8B50546FEF7A4F84B
S1133AC00E4B1E68074626B93846FEF7A1F8344661
S1133AD010E0B46884B1237C9C46DB070CD495E8E1
S1133AE00F004CF0010C84E80F0084F810C0384635
S1133AF0FEF78EF82046F8BD3668E4E798100020FB
S1133B004FF4A472002103F00FBB10B5002104464A
S1133B1000F02AF82046BDE8104002F0BBB80000CF
S1133B2010B5044618B9054B054A136010BD01F0E1
S1133B307BFED4F89430002BF6D1F4E7B53A0000BC
S1133B409C10002010B50C4601F07EFE1CB101F063
S1133B50DDFE0128FBD1034BBDE810405B6800216A
S1133B6003201847A410002002F00AB938B505460E
S1133B700C46FEF749F8296BEB6A0C402343EB62D1
S1133B80FEF746F800200CB9002138BD4FF400714F
S1133B90FBE7000008B550B90548064B01601A6000
S1133BA0054B1A68054B1A601868FCF728FC08BD19
S1133BB0A010002028810020D87F00202C81002024
S1133BC00020704700207047084B094AD3F8883119
S1133BD0DB4303F4FE1343F40053B3FA83F30E33CD
S1133BE0A3EB4313013B1370704700BF00400E402A
S1133BF0AC10002008B500F053FB094B094A00281B
S1133C0008BF1A46136823F47F115B0803F4FE13FC
S1133C100B431360044B4FF00072DA6108BD00BF20
S1133C2018410840004108400040084008B500F031
S1133C3037FB064B4FF4001228B1C3F800214FF0B4
S1133C4000621A6208BDC3F81821F8E7004008446E
S1133C50014B1868704700BF348100202DE9F047FC
S1133C602D4C2E4B236000F05DFA4FF4FA73074697
S1133C704FF47A76B0FBF6F629482A4A7343190EB4
S1133C801B02181841F10001002303F085F8A0F588
S1133C9080730546A36220B960222B21FFF77AFFC7
S1133CA001254FF47A726A434FF0000A53465008D4
S1133CB0310203F071F81C4B19601C4BB7F57A7F85
S1133CC04FEA05688946044618604FEA152505D26F
S1133CD070222B215046FFF75DFF01264FF47A71C5
S1133CE0A8FB01087308C01801FB05814FF000030D
S1133CF041F10001324603F04FF80D4B02341960D4
S1133D000C4B49F10009A408186044EA8974024B79
S1133D10013C1C63BDE8F08700500840021101001B
S1133D2020A1070040420F004C8100204881002060
S1133D304481002040810020044B4FF00052C3F81E
S1133D4080211A60024B01225A60704700E100E0B2
S1133D5000500840054B0201134401221A604FF43D
S1133D60807303FA00F0024B586670470051084410
S1133D70005008401030034B0001185800F00100B7
S1133D80704700BF005008401030044B01F460013C
S1133D90000141F003011950704700BF0050084072
S1133DA038B5FDF738FF084A084B9D69547D084A29
S1133DB0D2F8882BE4B20AB19D690134FDF731FFD2
S1133DC0284604F0030138BD8C81002000500840CF
S1133DD000000A4308B5222000F0CCF8024B4FF44F
S1133DE080225A6008BD00BF00500840064B1B6883
S1133DF0434303EB8171054B1B68A3FB003013F1B4
S1133E00004341EB000070474481002040810020C2
S1133E1008B5FFF7C5FFBDE80840FFF7E7BF00009E
S1133E200D4A10B5146820F0404301464FF000429B
S1133E300020E4FB0320094A126802FB0300084B3C
S1133E401B6B98424FEA917104D901330131C01AB6
S1133E5001F0030110BD00BF488100204C81002007
S1133E600050084038B50446FFF7D2FF0546FFF777
S1133E70CFFF431BA342FAD338BD000038B5354BFE
S1133E80354C08220546C3F8C82034480121FDF703
S1133E9049F9334B1D702378013B012B0CD8237C4B
S1133EA0E07B01229A400C21302313FB001303F121
S1133EB0884303F520431A602A4B00225A67002DD9
S1133EC041D06368002B34D000F02CF9626800EB19
S1133ED05203B3FBF2F3013B1B0243F0F8032278D5
S1133EE0022A28D0032A2AD0012A2FD143F0020320
S1133EF007221D494FF6FF70C86701F10071CB67B7
S1133F00184B5A6753070CD5237CE07B01229A4057
S1133F100C21302313FB001303F18C4303F52043DE
S1133F201A604FF080439DB1104AC2F894300020CB
S1133F3038BDF823D3E743F001030522D9E743F062
S1133F4005030122D5E72A46F823D2E70022D0E769
S1133F50074AEAE700400E465481002000350A0073
S1133F60508100200000084000000844004008463A
S1133F7000400844044BD3F89430002BBCBF034BDF
S1133F80C3F88000704700BF0040084000000840AC
S1133F9008B5064B06491A684FF00450920003F026
S1133FA0B5F8BDE8084000F00FBA00BF609000000B
S1133FB07C76000007B501A8FEF710FC134B144AE9
S1133FC0C3F8442148F2E672C3F838214FF408627A
S1133FD0C3F834210F4AC3F8A0200F4A4AF63F41E0
S1133FE0916002F580424FF0C07191620022C3F8E3
S1133FF0FC200A4AC3F89C20094B7F225A6203F131
S1134000007323225A6203B05DF804FB00400840A9
S1134010C0E653517A27000F00300840806D6303D7
S1134020003008440F4B002210B5C3F88820C3F8B1
S11340308C20C3F890200C4A0121D1605A6812F0F8
S1134040706FFBD14FF00452DA67012402F5FD5280
S1134050C3F880401A66054B1B689847044BDC6024
S113406010BD00BF0040084000400846B0100020CA
S113407000400844034BFD22C3F8C8200122C3F8C2
S1134080CC20704700400E4638B5FFF7F3FF1B4BBA
S11340901B481C4C1C490222C3F8C8201B4B1A683D
S11340A042B102EA0005A54204BF5D681560083309
S11340B08B42F4D1164B0222C3F8C820154B164A82
S11340C0D3F83C111160154AC3F8942000F040F96C
S11340D0FFF770FF124B0322C3F8D820A3F5005357
S11340E00122C3F894204FF46072DA604FF04072FA
S11340F0C3F8F820C3F8102138BD00BF00400E46B5
S11341000000FFFF00000840B081E00F0080E00FD6
S113411000400E4400400840B41000200048F00065
S11341200060084608B5FCF76DFA044BD3F810316B
S1134130C3F308230133B0FBF3F008BD00400E4085
S1134140024B0122C3F89420704700BF0040084688
S1134150024B0122C3F89420704700BF004008447A
S1134160024B4022C3F89420704700BF004008442B
S1134170024B4022C3F89420704700BF0040084619
S1134180064B5B68C3F30363984206D10448C36BD0
S113419023F0F00242EA0112C26370470040084073
S11341A0001F00212DE9F84F0D46FFF731FEDFF81F
S11341B0989080460026FDF727FD214B5968C1F3EE
S11341C003639F1E012B8346FFB22AD0052B2AD0FE
S11341D0A3F10B01D1F1000A4AEB010A012F24D803
S11341E0184B9968C1F389140A0444BF6FEA8454D4
S11341F06FEA945424B26B1C03D0FFF709FEA0EBC2
S113420008065846FDF704FD14F5007F0FD1012F71
S113421002D9BAF1000F01D0AE42CCD32046BDE89A
S1134220F88F9A46DAE74FF0010A4C46E3E7C83CB8
S113423024B26FF4FF739C42B8BF1C46EEE700BF84
S1134240004008400070084000FEFFFF084910B518
S1134250D1F8703140B11C464A68D1F870319C42A3
S1134260F9D1C2F30362027003F00F0010BD00BF66
S11342700040084010B5FDF7C7FC084B1B68044616
S11342803BB1984728B1002200204FF4806100F030
S1134290ADF92046BDE81040FDF7BABC68810020A6
S11342A0034BD3F8380180F01000C0F300107047BE
S11342B000400840174B4FF4002210B5C3F8942077
S11342C0154C164BB0F1804F98BF1C46144BD3F8D5
S11342D08039F3B1134B14481B6F04F5F42404F52F
S11342E09074B4FBF0F4033CE4B203F00703A3427C
S11342F002D02046FDF76AFF0C4B1B784BB10C4BE8
S11343004FF47022C3F8942003F100732404C3F81B
S1134310944010BD00400846C0CF6A00E0673500F5
S11343200000C64300300E4040420F007081002060
S11343300040084408B5044B01221A70034B186866
S1134340FFF7B8FF002008BD708100206C810020B9
S1134350024B4FF48062C3F8942070470040084633
S11343600D4BD3F80421D3F8B030D2B2FF2A03D0D6
S113437043F30743591C01D190221923074903EB46
S1134380D37302EB630381F84B30022381F84A3084
S1134390232381F8493070470081E00F001F00217A
S11343A0074BD3F8D8304FF604014FF605029BB201
S11343B08B4208BF1346034A01209365704700BF30
S11343C00081E00F0050084070B5194C0FCC86B046
S11343D001AD0FC5C422236816482B60002102F0EA
S11343E0A3FE80220021144802F09EFE134B144ABF
S11343F0C3F8F020FFF7B4FF124B1B782BB101ADCB
S11344000FCD0B4E0FC62B6823600F4B0F4AC3F81A
S1134410DC2F0F4AC3F8E02F0E4AC3F8E42F02F151
S1134420957202F27112C3F8E82F06B070BD00BF96
S1134430C81F00213C1F0021BC1E0021001F0021B9
S11344403F0037003081002000100021020062028A
S113445009C805780708DC060A4B197801F0FF0241
S113446029B10021197008499202C1F8A020597895
S113447001F0FF0229B1002159709302024AC2F8E7
S1134480A4307047A781002000000846074BD3F8EA
S1134490E80E074BD3F88C301A0103D4054B1B6E7E
S11344A01B0401D500F58070704700BF0010002187
S11344B0004008400000084008B5FDF7A5FB0F4B7D
S11344C01A78B2B90E4A126812F4843F11D10D4A17
S11344D01021C2F894101B786BB9094B1B68DB05DB
S11344E009D4084B2022C3F89420BDE80840FDF706
S11344F08FBB054AECE7044BF4E700BF8981002039
S1134500808100200040084400400846044B0022FB
S11345101A70044B197811B11A70FFF7CDBF7047A8
S11345208A8100208981002010B5FDF76DFB0E21E2
S113453004460320FFF724FE044B40F201222046E8
S11345405A62BDE81040FDF763BB00BF000008409D
S113455008B5FDF759FB244B4FF08052C3F8802077
S1134560BFF34F8FBFF36F8F4FF48072C3F8802077
S1134570BFF34F8FBFF36F8F0222C3F88020BFF3C6
S11345804F8FBFF36F8F1022C3F88020BFF34F8F7C
S1134590BFF36F8F2022C3F88020BFF34F8FBFF388
S11345A06F8F4FF00052C3F88020BFF34F8FBFF3DB
S11345B06F8F8022C3F88020BFF34F8FBFF36F8FBC
S11345C04022C3F88020BFF34F8FBFF36F8F4FF0AB
S11345D00042C3F88020BFF34F8FBFF36F8FBDE855
S11345E00840FDF715BB00BF00E100E070B5084CC2
S11345F001232370074B1E68074BD3E90053324055
S11346001940284001F07AF80023237070BD00BFE0
S11346108881002078810020808100202DE9F84FD6
S1134620DDF828B003EA01080B9B06460D4602EAB2
S1134630000903EA0B0ABBF1000F40F06481031F79
S11346400B4300F02881052871F1000380F0FB8002
S113465050EA010300F07781431E0B4300F03781D9
S1134660FFF776FFB94BD3E9004724EA060427EAAB
S1134670050744EA090447EA0807C3E90047B44BBD
S1134680B44D1E68DFF8208326EA0B0646EA0A06C4
S11346901E60FFF711FFB04814F02A4F14BF48F210
S11346A002034FF40043B207C26E48BF43F4005301
S11346B083EA020122EA0302EA66A84A81660B4001
S11346C06503D36604F4802348BF4FF4805320036A
S11346D048BF43F48073E10648BF43F40053A20685
S11346E048BF43F40073650648BF43F48063200663
S11346F09B489C4DD0F80C2248BF43F4006383EAE6
S1134700020122EA0302C5F80C22974AC0F80812F3
S11347100B40B90507F40075C2F80C3248BF4FF4DA
S11347208025E20448BF45F48035A30348BF45F41F
S11347308015A00748BF45F4001514F4001F06D0E7
S1134740D8F8000001F024FB08B945F40025E10283
S11347508649874848BF45F40035FA0648BF45F402
S113476080050A6A730748BF45F0040585EA020319
S113477023F001031A4002621D40CB617D4B7E4849
S11347807E4A1D6216F0010F7D4B18BF1346826EE0
S11347907D0748BF43F400137A4D83EA020122EAFD
S11347A00302AA66784A41660B4000F500509366FE
S11347B0C26B04F0010305F5005583EA020122EA05
S11347C00302EA63714A81630B40D363D8F8002083
S11347D0200248BF6E4B92F8ED2058BF6D4B610725
S11347E048BF43F4806322B114F4C06F18BF43F48C
S11347F080736948694CD0F8EC10320748BF43F025
S1134800004383EA010222F4A0221140C4F8EC1010
S11348101340C0F8E820624AC2F8EC30FDF7F4F91E
S1134820604B4FF080521A604FF480721A6010226D
S11348301A6020221A604FF000521A6080221A6017
S113484040221A603DE0A0F580630B4306D020F4BB
S11348508063A3F500730B437FF402AFFDF7D4F933
S11348603A4BD3E9004124EA060421EA050144EA6B
S1134870090441EA0801C3E900414B4B1B6893F862
S1134880ED3013B314F4C06F1FD0454B4FF4807256
S1134890C3F8EC2015E0FDF7B7F92C4AD2E9003152
S11348A023F0040343EA090341EA0801C2E90031A1
S11348B059EA080314BF3A4A384A4FF48063C2F8ED
S11348C0EC30BDE8F84FFDF7A3B9344BDEE7FDF754
S11348D09BF91E4AD2E9003123F0010343EA09039C
S11348E041EA0801C2E90031304A59EA08034FF0AD
S11348F0010315BF93632E4902F1C062CB6314BF59
S1134900D3639363DDE750EA01037FF4A9AEBBF1FF
S1134910010F7FF4A5AEFDF777F90D4A136823F074
S1134920010343EA0A031360134A4FF48063BAF1A4
S1134930000F04D0536602F1C0629366C1E71149C7
S11349408B665366BDE7BDE8F88F00BF8081002009
S11349507881002000000844000008400000084658
S113496000600840006008440060084600400840B9
S1134970004008440040084600500840041C500011
S113498004185000005008440050084600700846BF
S11349900D0A0A09090A0A0900100840001008440F
S11349A00010084600E100E0D87F002000700840B5
S11349B000700844024B5868C0F3C000704700BF41
S11349C080810020024B186800F00100704700BF8E
S11349D080810020024B5868C0F3C030704700BF8C
S11349E080810020034B1B6813F4C06F14BF0120A7
S11349F0002070478081002010B50446FFF744FB77
S1134A00FFF7A6FD04F1480001F0CEFAFFF70AFB18
S1134A10FFF724F9FFF790F901F0E4FB072104F113
S1134A20A00001F027FC4FF440010020FFF7ACF98F
S1134A304FF400110120FFF7A7F9FFF7B1FC20B9EB
S1134A4040F2E3221421FFF7A5F8FFF773FCBDE859
S1134A5010400120FFF712BAF8B50B4C0B4DD4F8F7
S1134A6088300B4F0423C5F88830D4F888305B03B2
S1134A7000D4F8BD0426C7F888600220FFF7F2F9D5
S1134A80C5F88860F1E700BF0040084000400846D0
S1134A90004008441C4B70B5D3F888601B4D03F1EB
S1134AA08063A822C3F8882010221A60184A194B80
S1134AB093666B66FFF7D0FC174B1B7813B9032082
S1134AC0FFF748F900242C67FFF7C6FF134A144B7D
S1134AD0D2F8E81E0B40C2F8E83E124B0422C3F899
S1134AE08820114BB206C3F8C44008D503F580737F
S1134AF0DB6CB3F5817F22BF034B80229A60BDE853
S1134B00704001F01DB900BF00400840005008404B
S1134B100050084410000002A4810020001000216D
S1134B20DF0000FF00400844001E002110B528B932
S1134B3071B9154B4FF4C0625A6210BD41B9134AA2
S1134B4053681B0E13F00E0FF3D113689A06F0D4BA
S1134B50FFF7EAFC0D4C0020FFF778FB032801D097
S1134B60092806D1D4F88C30DB03F4D4636F0C2B02
S1134B70F1D9FFF771FF064B0122DA6003F17E439E
S1134B800422C3F88820D4E70060084400400840A9
S1134B900040084608B503210920FFF7F1FA024B4B
S1134BA020229A6008BD00BF0040084038B5054681
S1134BB0FDF72AF8044601F0A9F935B1FFF7A6FC80
S1134BC02046BDE83840FDF723B8084B1B78002B7E
S1134BD0F6D0074B1D78002DF2D1FFF797FC2A463B
S1134BE04FF480400021FFF701FDE9E78A810020AE
S1134BF0888100202DE9F843144606460D4601F04D
S1134C009FF8414BA022C3F888200320FFF7B2F895
S1134C1028B10320FFF79EF80420FFF79BF83B4BD5
S1134C203B4ADA664FF00009C3F87090FFF714FFAF
S1134C30384B3548D3F8BC2E374F42F02002C3F826
S1134C40BC2EFF2202604FF48072BA60D3F8E81ED3
S1134C50324A4FF004080A40C3F8E82EC0F88880AE
S1134C60C3F8C49E56B1FFF75FFCFFF7B3F8FFF734
S1134C7091FF4046FFF76EF8FFF7EEFBFB68D9079C
S1134C803FD5254A536813F0706FFBD11E4E244B59
S1134C90244AC6F88830D36B23F0F003D36315B1EC
S1134CA02046FFF783FF204BD3F8B4305A1C01D0C1
S1134CB05B0001D50123F3601CB31C4BDA6E9A66CA
S1134CC0154A136A23F00103D361194BD3F80C225C
S1134CD0C3F80822A3F54053DA6F9A67A3F500538B
S1134CE0D3F8EC20C3F8E82003F5C043DA6B9A63E9
S1134CF0A3F500530F4A5A66034B4FF60842C3F814
S1134D008820BDE8F88300BF0040084400500840F4
S1134D10000001010010002100400840DF0000FFF6
S1134D2010003000001F00210081E00F0000084047
S1134D30006008405000F0029E4B196EDA6E2DE9B7
S1134D40F04F01EA0208C3F8688003F5805385B088
S1134D50D3F8E070D3F8EC201740C3F8E87003F5FB
S1134D60A043D3F80012D3F80C2201EA020BC3F8D3
S1134D7008B2A3F5005359691A6A01EA02098E4A76
S1134D8009EA0202DA618D4BD3F80022910006D4BD
S1134D90D3F800319A00C3F3407640F1E180FCF788
S1134DA033FF874BDA68DE6D12F0060F9A6E06EA5F
S1134DB0020626F4800222F4006214BF4FF0010AB6
S1134DC04FF0000A5A66730704D57E4A537D0133B7
S1134DD0DBB25375FCF71CFFB8F1000F00F0E38061
S1134DE018F4004400F0D480FCF70EFF0146FFF7EE
S1134DF04DFB734C0546A269A3699A42FCD0A26993
S1134E009342FCD0FFF742FBA842034640F0AA803D
S1134E100846FCF7FDFE6C4B1D606C4BD3F88840D4
S1134E2014F4E05040F0A08025F07F4525F0DF0524
S1134E30002D40F0AB80FFF72DFE4FF0807418F08A
S1134E40020F16D0614B6249D3F8883003F46042F4
S1134E50C1F88820002A00F0A0801D0400F1A08081
S1134E6013F4005F14BF4FF000634FF000531C4372
S1134E70002518F4005818BF4FF00208554B3B406A
S1134E80002B4AD017F4206F0AD04FF4FA6206219F
S1134E900020FEF77FFE0020FFF788FE27F480271E
S1134EA0F80506D54A4BFF221A6044F4C064FFF7A4
S1134EB03BFB17F0090F0AD040F2E57208210020ED
S1134EC0FEF768FEFFF766FE434B01229A6217F075
S1134ED0106F0CD040F2EE7209210020FEF75AFE4A
S1134EE0FFF758FE00221146104600F0F3FF17F4B6
S1134EF0202F0AD040F2F67207210020FEF74AFE66
S1134F000020FFF753FE27F48027F90301D501F0B1
S1134F1041F9002FB8BF48F008087A070AD52F4B8B
S1134F20D3F8B4244FF40053002A3FD02C4A44F45D
S1134F30000453627B0548BF44F0040417F480273F
S1134F4000F0AF8001F0F0F8013806284CD8DFE813
S1134F5010F022012501220128012B012E012E012E
S1134F60B24639E71D4646E70190FFF793FD184B1B
S1134F700198C3F8880014F480550BD114F4806FA1
S1134F8014BF4FF080644FF0805458E74FF08074A2
S1134F90002554E74FF08044FAE74FF0007366E7CA
S1134FA04FF0004363E74446454667E70D4A5362C2
S1134FB0C0E700BF000008400000F7FF00E100E088
S1134FC0005008408C81002074810020004008407B
S1134FD000400844090B0B890010084000000243FC
S1134FE0001008440010084640F62802032100205F
S1134FF0FEF7D0FD7A4A136ED2F8800003F007035F
S11350000633012101FA03F3C0F30C001B1A9BB20F
S1135010072B13D9734BD3F8883058020ED4724837
S1135020136B126DC06C58B103F00703063399403B
S1135030C2F30C03C91A89B2072901D844F40074D5
S11350406A4B1B786BB3664BD3F8E03013F4A02F94
S113505027D1674B674A1B7873B916F480530BD179
S1135060117849B164492207D1F8E81E58BF0223D8
S113507021FA03F3980714D10420FEF76BFE5F4B6B
S11350805F49D966FFF742FA5A4A13782BB95D4B48
S11350905D4A1B682340134201D144F4804426F442
S11350A08056BBF1000F1DD01BF4805F18BF44F481
S11350B080241BF4807F18BF44F400241BF4005F99
S11350C018BF44F010041BF4007F18BF44F0200400
S11350D01BF4806F18BF44F040041BF4006F18BF2A
S11350E044F08004B9F1000F38D019F4802F18BFB0
S11350F045F4007519F4803F18BF44F4805419F442
S1135100801F18BF44F4003419F4001F18BF44F082
S1135110020419F4003F18BF44F4801419F4800FFA
S113512018BF45F0100519F4002F17D0324BD3F8EF
S1135130BC3E13F0C00F11D02A4B5A68C2F303626D
S1135140032A01D0072A35D1D3F88C20D10631D4D3
S1135150D3F8902012072DD444F40014002E00F04C
S11351600E81300540F18380284ADFF890B0D3786F
S1135170002B51D0013B4FF40061DBB2CBF864103B
S1135180D37033BB224A1278D2B1224A40F601418D
S1135190D166002269E044F480342BE744F40064CF
S11351A028E744F4806425E744F4807422E744F05B
S11351B008041FE74FF40022DA6129F40029CDE73F
S11351C0DBF8703013F4A05305D04FF48073CBF8A0
S11351D050300023DDE740F60142CBF87020D8E7D9
S11351E00010084000400840000008408981002069
S11351F08A810020A6810020001000210050084070
S11352000000010180810020088D01003881002008
S1135210A4810020005008460320FEF79BFDDBF824
S11352200C30A348A34913F0060F02BFA24B41F66A
S11352301F72DA66A14A4FF400635366D36813F011
S1135240060308BF1367C38A13F4006269D023F40A
S11352500063C3820B7803F0FF0B002B65D1FEF7CC
S1135260B9FDFFF717FC5B4620221C431543B1012F
S11352700BD52E20FEF77EFE8F4A4FF00073936607
S113528002F17C4245F008055366F20608D52B204E
S1135290FEF770FE884A1023936602F17C4253663F
S11352A016F4E00F05D1F3045DD5BAF1000F00F058
S11352B0A380B0023CD52920FEF75CFE45F0040A29
S11352C0FFF778FB98B17E497C4A7E4B53668B6628
S11352D07D49496849040AD5774920208B6653667D
S11352E0FEF748FE2D2045F00C0AFEF743FE16F4A7
S11352F0800B724D1ED00420FEF72CFD2720FEF7F4
S113530039FEFFF7C7FB4FF480036B666F4BD3F88E
S1135310E83E59065EBF6E4B02221A604AF0020A4A
S11353201DE00B784FF400539FE74FF4004330E740
S1135330AA46DCE7F3024CD50420FEF70BFD282037
S1135340FEF718FE2B6F002B40D1FFF7A3FB5A4A40
S11353505C4B936602F17C424AF0010A5366574B58
S113536000221A655546730509D55A4A9378002BCD
S113537000F09280013B9370002348EA0308424600
S113538020462946FFF732F90FB100F0F5FE19F473
S1135390002F00F086804C4B4FF40022DA6119F0A4
S11353A0206F00F0828019F0007F01D0FEF722FC0C
S11353B019F0006F01D0FEF739FC002200204FF4F1
S11353C0006105B0BDE8F04FFFF710B9C5F870B043
S11353D0BDE7F004C3D50420FEF7BCFC3E4BEB66EE
S11353E0FEF7F8FCEB6D13F4A00FB8D12A20FEF7FA
S11353F0C1FDFFF74FFB89E7364A13794BB1013BF7
S1135400DBB2137113B92E4B344ADA6644EA0A0448
S1135410A9E70420FEF79EFC0320FEF79BFC274B24
S11354202D4ADA66FCF7F0FB82460DF10F00FEF719
S11354300DFF2B4B1B7883460BB1FFF775F8BBF1BF
S1135440030F0ED1DFF880B00020FEF7FFFE032823
S113545007D1DBF88C30DA03F6D4DBF874300C2B8C
S1135460F2D99DF80F30032B08D11E4B0122504670
S11354701A704FF0000AFCF7CBFBC7E71A4BD3F8BE
S1135480E03013F4A02FF0D1FFF740F85046FCF7BA
S1135490BFFB4FF4804AB9E70220FEF75BFC01230F
S11354A06BE7B9F1000F7FF47AAF05B0BDE8F08F78
S11354B08C810020A4810020005008440050084042
S11354C0005008461000000200400840001000216F
S11354D00040084438810020000001010000010D53
S11354E0A58100208A81002000100840FFF724BC19
S11354F0FFF722BCFFF720BCFFF71EBC034A0123C1
S1135500136202F17C42D361704700BF004008443B
S11355100B4B10B55C691A6A1440A2B2DA61E20757
S113552004D55868C0F30360FFF7E8FF630706D5A6
S1135530BDE81040042200200021FFF757B810BD39
S113554000400840FFF7F8BB0C4A08B5136BD16B59
S11355500B409363DB070FD5094B187840F63322D1
S1135560122100F00100FEF715FBBDE808400022FF
S113557001200021FFF73AB808BD00BF00700840C1
S113558080810020044BDA6FD207FCD41A6FD96FE4
S11355900A409A67704700BF0030084070B50D4656
S11355A01446FCF731FB064BD3F8BC6E74402C4018
S11355B07440C3F8BC4EFCF72BFB06EA050070BD33
S11355C00010002170470000024B5868C0F30360CC
S11355D0704700BF0040084070470000431C07D0DC
S11355E0044B6FF0FF029A6103F10073104098615D
S11355F0704700BF00700844436B03F06003402B06
S113560013D0602B08D0203B59425941094BD9642F
S1135610094B80229A6070470029F7D00B68012B50
S113562006D9496941F00101F0E740F20111EDE7C3
S11356300021EBE7001F002100400840084B012136
S1135640D3F8EC20996203F1806352074FF40051C0
S1135650596242BF03F100730422C3F8EC2070477F
S11356600010084037B5214D0C4641B90A460721C0
S1135670FFF794FF1E4B6C635C6003B030BD0722E0
S11356801146FFF78BFF1B4B07225A60237985F8DD
S1135690343063790193012101A800F0A5FE019B38
S11356A0C2B2D34000F00F0040EA031085F8350081
S11356B0A27985F83620E27985F837202268AA6332
S11356C001932BB102EB430132F8023B8A4207D12A
S11356D02279013A1344084A9361FFF773FFCCE738
S11356E032F8020B834228BF0346EFE7001F002174
S11356F0341F002100000844000008403E4B2DE9FF
S1135700F3411D6840F2022317460B4000F00102EA
S1135710134306460C4643D0880709D5374BD3F8C4
S1135720E83E03F0C003402B02BF354B0221196051
S11357304FF0000852B30023002201200021CDE9DC
S11357400088FEF76BFF4FF0FF312846FEF72AFD75
S1135750414668830120FEF7F5F92A4BD3F88830D7
S1135760590208D46B6B13F0800F14BF264A274AE2
S11357704FF40013936126490868FFF72FFF4FF099
S1135780FF330B602B7C43F008032B74A20507D571
S113579001212846FEF7EAF924F4007406430C4379
S11357A0D5E93E233240234052EA030103D019498C
S11357B0284609688847FB070FD51749174A086820
S11357C0136800211160164A0121117003B1984732
S11357D0144B00215B680220984717F00E0F08D085
S11357E040F27F123B21002002B0BDE8F041FEF7F9
S11357F0D1B902B0BDE8F081D87F002000100021AB
S11358000040084600400840006008460060084424
S1135810BC100020B8100020B8810020B481002002
S1135820B2810020A410002038B10368044A002B80
S113583008BF1346034A13607047014BFAE700BFE1
S1135840D9550000B810002003282DE9F3414AD8A7
S1135850264B1E5C264B1F5C264B13F80080FCF77E
S1135860D3F90546FFF7AEF8044640B10023CDE96D
S113587000330022002301200021FEF7CFFEFFF7B2
S1135880A9F848B10023CDE9003300220023002009
S11358904FF40041FEF7C2FE39463046FFF746F9A1
S11358A0424639463046FFF7A5F9B4B1124BD3F856
S11358B088305B020AD4114B1B685B6B13F0800FBA
S11358C014BF0F4A0F4A4FF4001393610E4908683E
S11358D0FFF784FE4FF0FF330B60284602B0BDE8AB
S11358E0F041FCF795B902B0BDE8F08164760000A0
S11358F0687600006C76000000400840D87F0020E5
S11359000060084600600844BC10002008B5FFF79A
S11359105BFE0138C0B20B2802D8054B185C08BDE9
S1135920044BDB6813F0060F0CBF01200420F6E7DC
S1135930707600000050084038B5024688B9194B0B
S11359401B684BBBC1F11C040125C4F11C03002BD3
S1135950B8BF5B42232B23DC7DB1134B19700020AD
S113596038BDFFF7D3FF012818D10F4B93F900403E
S1135970C4F11C04641A0025E7E7D174FCF744F968
S11359800A4A5369E40223F4FF2304F4FF241C436A
S11359905461FCF73DF9E2E70320E1E70220DFE789
S11359A00120DDE7D87F0020B1810020007008408D
S11359B090F8C63053B9074BDA69920208D49B6F4A
S11359C013F4706F14BF012000207047002070474B
S11359D00120704700600840F8B51546426B82EA22
S11359E005030B4053404363384A01F00B030C4654
S11359F023EA0501516402F100722B406707064651
S1135A00536411D50121FFF7D3FF68B1FFF724F8E0
S1135A1015F0040F14BF2E4A2E4A4FF40073D361BD
S1135A202D4B0422C3F88820E10606D515F0100F8B
S1135A302A4B14BF00221B22DA64220618D52B0637
S1135A402CD5234B4FF400129A6103F17E430122BB
S1135A50C3F8F820FCF7D8F80E2107460320FEF718
S1135A608FFB1E4B40F201225A623846FCF7D0F8F5
S1135A70E00503D5E90523D5FEF76AFBA20503D5A6
S1135A80AB0520D5FEF774FB14F0600F04D0D6F8F4
S1135A9090103046FFF7B0FD0020F8BD104BD3F84E
S1135AA088305F02E4D496F8C6300A4A4FF40011F5
S1135AB09161002BDCD0064B0122C3F8F820D7E714
S1135AC0FEF73EFBDAE7FEF74BFBDDE70000084498
S1135AD00060084600600844004008440000084094
S1135AE00040084010B58B78012B02460C4600F2AA
S1135AF08D80CB78012B00F289800878012800F290
S1135B0085804978042900F2818009B1012B7DD177
S1135B10012845D02068C2F8EC006378002B40D1FE
S1135B203B49C1F884303B4B4FF0605199613A4B8B
S1135B301B7813B1394B06211967394B4FF080514B
S1135B40C3F8941003F17C43D3F888305B0208D483
S1135B50536B13F0800F14BF324A2E4A4FF40013D4
S1135B609361314A4FF48073C2F8EC3002F17C4205
S1135B70C2F8E830A378002B40D12C4B40F6FF72DA
S1135B805A62E378002B3CD1284B40F6FF725A65E9
S1135B90274B60225A64224B4022C3F888200020FD
S1135BA010BD013BDBB2032BE4D8224A52F8233068
S1135BB0184A4FF06051916102F1007243F40013EE
S1135BC09361134A0423C2F88430136F23F006034D
S1135BD043F004031367184B4FF08052C3F894202A
S1135BE0FEF700FF0028C5D0104A4FF48073C2F8B6
S1135BF0E83002F1C062C2F8EC30BBE7FFF71EFDEB
S1135C00BFE7064B60225A640B4BC5E70120C7E788
S1135C100000084000600844B081002000000844EF
S1135C200040084400600846001008440010084082
S1135C3000000846547600000040084610B5148859
S1135C403F2C084617D9B4FA84F4C4F11903DBB223
S1135C50062B01D8192C0CD0062B28BF0623194675
S1135C608B1DDCB20123A340138000F0CFF8002089
S1135C7010BD0021F4E70120FAE7000008B504484C
S1135C804822002101F050FABDE80840FFF79ABC11
S1135C90EC1E0021032373B580F8D43000234FF0A9
S1135CA0FF35C3746423C0E92D33C0E92F33C0E941
S1135CB007554564C0F8B030A0F8C4304575C582B6
S1135CC004461120FBF7F2FA042803D002263046DA
S1135CD002B070BD184B5B6813F4403FF6D1204608
S1135CE0FEF78AFE2046FFF7C9FF94F913102046F9
