S0150000666C795F636F6E74726F6C6C65722E733337F1
S113000000100020550500005105000051050000B6
S11300105105000051050000510500005105000084
S11300205105000051050000510500005105000074
S11300305105000051050000510500005105000064
S11300405105000051050000510500005105000054
S11300505105000051050000510500005105000044
S1130060510500005105000075090000310F000022
S11300705105000051050000510500005105000024
S113008051050000510500009109000051050000D0
S11300905105000051050000510500005105000004
S11300A051050000510500005105000051050000F4
S11300B05105000051050000D50D00005105000058
S11300C051050000510500005105000051050000D4
S11300D051050000510500005105000051050000C4
S11300E051050000510500005105000051050000B4
S11300F051050000510500005105000051050000A4
S113010051050000510500005105000010B5054CD3
S1130110237833B9044B13B10448AFF300800123AF
S1130120237010BDFC10002000000000A046000059
S113013008B5034B1BB103490348AFF3008008BD66
S11301400000000000110020A0460000A3F5803A42
S1130150704700BF174B002B08BF134B9D46FFF79A
S1130160F5FF00218B460F461348144A121A04F077
S113017053F80E4B002B00D098470D4B002B00D0AA
S113018098470020002104000D000D48002802D0EB
S11301900C48AFF3008004F01BF82000290000F0A5
S11301A014F804F001F800BF00000800000000008B
S11301B00000000000100020FC100020487F0020F8
S11301C00000000000000000704708B502F0D6FFF0
S11301D000F0C6FC00F03EFE02F036FCFFF7F4FF30
S11301E0012003F003F9FEE700F006B908B5042185
S11301F0112001F02DFB0948012100F049FF0848B6
S1130200022101F025FB0748022101F021FB0648E9
S1130210022101F01DFB002008BD00BF30253E0077
S113022002001E00030020000500240010B527482A
S1130230012100F02DFF002301220D21052002F0F1
S113024013F9002301220E21052002F00DF90023E9
S113025001220F21052002F007F901221146002393
S1130260082002F001F9002301220221082002F0F3
S1130270FBF8002301220321082002F0F5F80023F3
S113028018460122062102F0EFF800231846012245
S1130290072102F0E9F8012210460023092102F0A7
S11302A0E3F8002301220421022002F0DDF80023F8
S11302B001220521022002F0D7F8BDE810400023F6
S11302C001220821032002F0CFB800BF00350A0044
S11302D008B5224B01225A64214BD3F8FC20214B50
S11302E0120E12D14AF6E851C3F89011D3F89811BE
S11302F041F00401C3F89811C3F89021D3F86421A4
S113030042F40052C3F8642101E0012AF6D0164AEF
S1130310136A23F4441343F488131362A2F580424E
S1130320136843F48073136002F54052D2F8A43189
S113033043F4F843C2F8A43102F068FB00F074F807
S113034002F0F4FA02F016FB02F04CFBFFF74EFF4A
S113035002F002FBBDE8084000F058B800000E406F
S11303600081E00F00300E4000400E4008B500F060
S113037093F9FFF75BFF00F0E5FA00F009F8BDE838
S1130380084000F057B800F035B8704770470000D7
S113039030B585B049F64045002469460F480095BC
S11303A08DF8044000F008FA69460D4800F004FA9C
S11303B069460C4800F000FA02A90B4802958DF832
S11303C00C4000F0F9F902A9084800F0F5F902A977
S11303D0074800F0F1F905B030BD00BF001000205F
S11303E008100020101000201810002020100020F9
S11303F0281000200F20704708B500231846042257
S1130400052102F031F8002008BD000008B50548B8
S1130410012100F03DFEFFF7E7FEBDE8084000F0D3
S113042019B800BF00350A000148012100F030BEB0
S113043000350A00082000F087B90000014B1022A3
S1130440DA60704700A00046014B1022DA60704762
S113045000A0004470B5384D384E0FCD88B001ACC3
S11304600FC495E8070084E80700354C354801219E
S113047000F00EFE3046012100F00AFE0125324B49
S1130480039301A920468DF8125002F0E5F92B469A
S113049004220621022001F0E7FF2A460023072157
S11304A0022001F0E1FF2B4604220821022001F082
S11304B0DBFF042211462B46002001F0D5FF234B1D
S11304C0A3670B2363674FF4487002F0CBFA142040
S11304D0FFF7BAFF02F0C6FA2320FFF7AFFF02F0DE
S11304E0C1FAB9212046FFF7AFFF02F015FAFFF772
S11304F0A5FF00231A460621022001F0B5FF0023C0
S11305001A460721022001F0AFFF2B4600220821E2
S1130510022001F0A9FF002210462B46042101F01D
S1130520A3FF204602F050F90021A167304661671D
S113053000F0AEFD08B070BD44420000005204005B
S11305400004014000350A0000127A000B0B000B76
S1130550FEE7000008B500F083F8124B12498B4205
S113056012D3124B124900208B4218D3FFF7F2FD2D
S1130570186850F82240586840F8224001329868C0
S11305808242F5D30C33EAE70022F8E71C6844F80A
S1130590220001325C68A242F8D30833E4E7002267
S11305A0F8E700BFA8460000B4460000B4460000C7
S11305B0B44600000048704700F04902104AD2F8DF
S11305C0943003F00703023B032B13D8DFE803F056
S11305D00C14020E0B4B1B68D2F80001C0F304206C
S11305E00130B3FBF0F07047074BF4E7074B1B688F
S11305F05B08F1E7054BEEE74FF40043ECE700BF7F
S113060000400E403C100020341000203810002020
S113061008B5FFF7D3FF054BD3F80831C3F308231C
S11306200133B0FBF3F0024B186008BD00400E40EC
S113063030100020014B1868704700BF34100020B0
S1130640054B1860054BD3F8943003F00703022BD5
S113065001D1FFF7DDBF70473410002000400E4089
S1130660044B054A9A60D3F8882042F47002C3F818
S11306708820704700ED00E0000000004FF40040C7
S113068070474FF47A707047014B1868704700BF89
S11306903C100020FEE7000008B52248012100F0CC
S11306A0F7FC012304220221052001F0DDFE0020D5
S11306B001F0C4FE1C4B0122C3F81028114604208B
S11306C001F034F8194800F071FE194BD3F8F0200A
S11306D042F00102C3F8F020D3F8FC2042F080720B
S11306E0C3F8FC20A3F55D43124A1A6000F5D52037
S11306F0114B00F2FC40B0FBF3F0104B0138022226
S11307001861C3F8F0204FF48072C3F804234FF04B
S113071060430B4AC3F8B02F0A4AC3F8802E002066
S113072008BD00BF00350A000080144206000E0018
S113073000ED00E0FF030040F8590D00000004E064
S113074055CEACC5090001004FF060420123D2F838
S1130750001E03FA00F00843C2F8000E00207047A0
S113076008B50E4B984213D00DD8A3F50053984208
S113077010D003F5806398420ED009485B21FFF73F
S113078089FF112008BD074B9842F6D10648F9E7C6
S11307900648F7E70648F5E70648F3E700A00140F6
S11307A06042000000A40140003204000022040062
S11307B000020400001204002DE9F043044689B04D
S11307C000680D46FFF7CCFF0121074600F060FCEE
S11307D03348012100F05CFC2B79A1796079042273
S11307E001F042FE0023CDE90133039303238DF886
S11307F00A3001238DF8093002238DF805302B7956
S1130800217920685A1E5342534101AA8DF80E30B3
S113081001F06AFFD4F800802379E6794FEAC3092E
S113082001F0A8F9D8F8342006FA09F61F23564037
S113083003FA09F333405340C8F8343001F09EF909
S1130840384600F0B3FD2668164B2D68B0FBF5F072
S11308509E4200F1FF350BD003F580639E4207D022
S1130860B5F5803F04D3104840F28941FFF712FFE9
S1130870F56123792568063305EB031300245C60D6
S11308800D22214604A803F0C7FC0123284604A92D
S11308908DF8103001F0C8FE204609B0BDE8F083A1
S11308A000350A0000A00140B14200000379012292
S11308B09A40036803F1C0631A6370470379012205
S11308C09A40036803F180631A63704770B5046843
S11308D00679E36959430B4B9C424FF06405B1FB25
S11308E0F5F50BD003F580639C4207D0B1F5C80F32
S11308F004D3054840F2FA21FFF7CCFE04EB0614BA
S1130900E56670BD00A00140B142000070B50C4E18
S11309100446012504B970BD94FAA4F0B0FA80F03D
S113092006EB001205FA00F324EA03045368002BD3
S1130930F0D0117B11B191689847EBE79847E9E74C
S11309401811002008B5122001F024F928B1084B31
S11309504FF48022C3F880211A600A2001F01AF9AA
S113096028B1034B4FF48062C3F880211A6008BD9C
S113097000E100E0054BD3F82804D3F81C24104010
S113098000F05530C3F82404FFF7C0BF00A00040B6
S1130990054BD3F82804D3F81C24104000F0AA30E7
S11309A0C3F82404FFF7B2BF00A000402DE9F047CC
S11309B00027254C0646B8464FF00109237F84F8EA
S11309C01D8053B1D4E90001864278EB01030BD2B8
S11309D0801B61F10001C4E900010137042F04F117
S11309E02804EBD1BDE8F087E37F33B92377A3690B
S11309F0002BF2D084F81D90EFE7D4E9025A301AA4
S1130A0061EB41012A46534603F04CFA21696069BF
S1130A10AA1A6AEB03030029C4E900230BDD01448D
S1130A201D296161E3D9013243F100031E39C4E990
S1130A3000236161DBE7411A1D296161D7D9013ABD
S1130A4043F1FF33F2E700BF2813002038B5074C09
S1130A500025637F1BB1A369216A284698470135A5
S1130A60042D04F12804F4D138BD00BF281300205C
S1130A704FF0FF33174A70B519460024157F3DB176
S1130A80D2E900659E4275EB010C3CBF3346294612
S1130A900134042C02F12802F0D10F4D0026B1F1EB
S1130AA0FF3F08BFB3F1FF3F2E7012D00B4A106016
S1130AB00B4A14626FF064049C4276EB010138BF68
S1130AC023460344536501232B70536A43F0040304
S1130AD0536270BD28130020201300201C13002033
S1130AE000200440064B5A6A99690A40D20705D58A
S1130AF001221A62034A136801331360704700BF6E
S1130B0000200440C813002038B5104B1B7805465C
S1130B10D3B101F036F80E4A00231146947F14B97C
S1130B2045B90C4C0CE00133042B02F12802F5D139
S1130B30094C05E0282202FB031101228A772B606D
S1130B4001F025F8204638BD044CFBE721130020B2
S1130B5028130020041000F0011000F0061000F02B
S1130B6070B5204D2C78002C3AD11F481F4E01211E
S1130B7000F08EFA1E48022100F06AFE01211D4891
S1130B80347100F085FA304601F004FD1A49012061
S1130B9001F0D4FC194B5A6A22F4FF6222F00702D6
S1130BA05A6240F2FF721A62154A9C604FF080410B
S1130BB0C2F8801111605A6A124842F001025A6266
S1130BC02146A02203F028FB0F4B1C700F4B1C7016
S1130BD00F4B1C600F4B1C600F4B1C6001232B70D0
S1130BE0002070BD2113002030253E00401000205D
S1130BF005002400A009140049100020002004402E
S1130C0000E100E028130020181300202013002026
S1130C1024130020C8130020CC1300202DE9F84F22
S1130C201446624A1278054689469A46002A00F01C
S1130C30B980032800F2B880DFF890814FF0280BC8
S1130C400BFB058B00F09DFF9BF81E2007462AB97D
S1130C5000F09DFF564C2046BDE8F88F4CB9BAF120
S1130C60000F02D00A992846D047384600F08FFF7B
S1130C70F1E7504A4FF4004C4FF4FA7000219668A3
S1130C80CBF818A000234FF47A72E4FB0C0103F0B4
S1130C9009F9B9F1010FCBE9020103460AD14FF476
S1130CA07A7262431E2404FB10240F22CBF81040F6
S1130CB0CBF814202820684308EB0002013348F8DD
S1130CC000304FF00100107741F100010A985160A3
S1130CD082F81F901062384A127822B1384600F028
S1130CE056FF0024B7E7354CDFF8E4A022689AF8F1
S1130CF000C001321EBF226801322260BCF1000F25
S1130D001BD12F4A16602B4A042010626FF0640036
S1130D1098427CEB010138BF034633445365536A60
S1130D2043F00403536201238AF800302368002B44
S1130D30D4D02368013B2360D0E72368012BF5D18D
S1130D40282303FB05834FF00009DFF868B01C4A31
S1130D5083F81C90DBF8243023F00403CBF8243010
S1130D601068301AFFF722FEFFF770FEB9F1000F8A
S1130D7004D1282303FB0583012119773046FFF7AB
S1130D8077FE0F4ADBF808601168DBF85430701AFC
S1130D905B1A9AF8001009F101090029C6D098429B
S1130DA0D8D2C3E7074C56E7074C54E72113002079
S1130DB0031000F000200440181300202413002026
S1130DC01C130020061000F0021000F0281300206D
S1130DD0201300202DE9F8431A4C00F0D2FE636A78
S1130DE0A269134023F005025B070646226222D55E
S1130DF0154FA568DFF85480DFF8549001233B7049
S1130E00636A23F004036362D8F80000281AFFF72A
S1130E10CDFDFFF71BFE2846FFF72AFED8F8002079
S1130E20A568636DA91A9B1A99F800200AB1994222
S1130E30E6D200233B70FFF755FE3046BDE8F84389
S1130E4000F0A5BE00200440181300201C1300204D
S1130E502013002070B588B00D22294E294D0021A1
S1130E6004A803F0D9F900240223012126488DF8AF
S1130E701010CDE9014403948DF80A3000F008F90C
S1130E8001AA2146304601F02FFC4FF6FF73F361AF
S1130E908DF8124004A9304601F0C6FB1B4800F04F
S1130EA085FA9DF81230D8400133DBB20A2B286052
S1130EB08DF8123002D8164B9842EBD81548164CD0
S1130EC000F074FA2E68B4FBF0F400251348144AB9
S1130ED029460023E6FB040102F0E4FF114B084A13
S1130EE01860114B1D70936923F0100393610F4B2D
S1130EF04FF40062C3F880211A60284608B070BD20
S1130F0000800140D013002000020400404105008D
S1130F1080841E007000020000B0710B20A1070045
S1130F2040420F00D4130020D813002000E100E059
S1130F30044BDA68D20604D510225A61024B01220E
S1130F401A70704700800140D81300200C4B98425F
S1130F5010D90C4B984210D9022201230A490B6480
S1130F600A49D1F8003123F0807343EA0263C1F8DF
S1130F700031704700221346F0E70122FBE700BF6F
S1130F800048E8010090D0030000C84300400E4030
S1130F9038B5114B5B68114B00221C46C9B21D7950
S1130FA08D4202D11D68854212D20132052A03F115
S1130FB00803F4D10A4841F2CE51FFF76BFB032238
S1130FC005494B6823F0407343EA02634B6038BD24
S1130FD004EBC2025279F3E700000E40C84300005C
S1130FE0FF4200001F2810B5044604D903484FF4FB
S1130FF0B371FFF74FFB0120A04010BD4B4300002D
S113100070B5084C41F67136256C2664FFF7D2FAA8
S11310100021FFF7BDFFADB2B5421CBF002323641E
S113102070BD00BF00000E40044BDB6B5B0604D4B4
S1131030034AD2F8C830002BFBD1704700300E4071
S11310400000C64308B5FFF7EFFF024B5868C0F332
S1131050014008BD00300E40044BD3F84421D207B0
S113106003D4D3F840211042FBD1704700400E4016
S113107070B5064C41F67136256C2664FFF788FF7F
S1131080ADB2B5421CBF0023236470BD00000E4006
S113109038B5C0F30323013B092B24D8DFE803F060
S11310A02A2D2323051619231C20154C0023C0F3D5
S11310B0043513B11846FFF7CFFF04F1424404F599
S11310C0801405EBC404A400216038BD0D4C012339
S11310D0EDE70D4C1023EAE70C4C4FF48033E6E7C0
S11310E00B4C0023E3E7BDE838400A4841F66A3177
S11310F0FFF7D0BA084C0023D9E7084C0023D6E701
S1131100B0400E40E0400E40E8400E40F0400E403B
S113111050410E40FF42000000400E40C0400E40CF
S113112008B5C0F30313013B092B60D8DFE803F0D3
S1131130050B0F195F5F1F233C532E4BD3F800019F
S1131140C0F3042008BD2B4BD3F81401F8E7294B56
S1131150D3F80001C0F300600130FFF743FF01380A
S1131160F0E7244BD3F80C01C0F30820EAE7214B45
S1131170D3F80801F8E7204B984209D01F4B984256
S11311800CD041F60E511E48FFF784FA0020D9E72F
S1131190184BD3F8200100F00F00DEE7154BD3F80D
S11311A02001C0F30110D8E7164B984208D003F58C
S11311B0B01303F58053984206D041F63251E2E76A
S11311C00C4BD3F82801ECE70A4BD3F82801C0F301
S11311D001200430C1E70C4B984205D1054BD3F8EC
S11311E0300100F00300ADE741F64151CBE741F691
S11311F06651C8E700400E408006160080162E0097
S1131200FF42000090171A00A009140008B5FFF768
S113121087FF013008BD000000F00F00013808B559
S1131220072844D8DFE800F0040F1943232D433581
S1131230264BD3F8943003F00703023B052B3DD82B
S1131240234AD05C08BD214BD3F8803003F0070358
S1131250013B032B34D81F4AF3E71C4BD3F88430EB
S113126003F00703013B032B2AD81B4AE9E7174B7A
S1131270D3F8883003F00703013B032B20D8174A27
S1131280DFE7124B1B6F13F0010F0CBF072009207F
S1131290D8E70E4BD3F85C3103F03003202B11D088
S11312A0302B11D0102B14BF01200720CAE70C48A3
S11312B042F2BB01FFF7EEF90020C3E70520C1E7C6
S11312C00120BFE70420BDE70820BBE700400E4033
S11312D09B430000A1430000A5430000A14300007C
S11312E0FF42000038B52C4B984205460AD02B4BE0
S11312F0984207D02A4B984204D02A4841F2CD6143
S1131300FFF7C8F92846FFF787FF234B9D420446A1
S113131011D0224B9D4212D0214B9D4213D1224B1E
S1131320D3F8804004F00704042C2DD8DFE804F03F
S11313302A11151D19001C4BD3F88440F2E71A4BEF
S1131340D3F88840EEE7174841F2FC61FFF7A2F9B1
S1131350EAE7BDE83840FFF791B9BDE83840FFF748
S113136093B9BDE83840FFF78CB9FFF727F90E4B66
S11313700446D3F80001C0F300600130FFF732FEE9
S1131380B4FBF0F4204638BD064841F24E71FFF735
S113139081F90024F6E700BF0300200005002400C3
S11313A002001E00FF42000000400E4038B500F469
S11313B07813B3F5B01F05467FD02ED8B3F5402F70
S11313C069D011D8B3F5802F54D006D843B1B3F502
S11313D0003F5AD041F69A411AE0B3F5202FF9D1D3
S11313E0BDE83840FFF7EAB8B3F5801F00F0A280EB
S11313F0B3F5A01F57D0B3F5602FEBD15B48FFF7CF
S11314000BFF072800F096800928E9D041F29041AB
S11314105748FFF73FF9002036E0B3F5381F5AD09C
S113142013D8B3F5001F5FD00AD8B3F5D01F5DD031
S1131430B3F5F01FCED14F48BDE83840FFF752BF97
S1131440B3F5101FC6D14C48F6E7B3F5481F57D083
S1131450B3F5781F00F08280B3F5401FBAD1474836
S1131460FFF740FF464B0446D3F82801C0F30120A0
S113147004302BE0FFF7A2F8414BD3F80C31C3F34F
S113148008230133B0FBF3F038BDFFF797F83C4B6A
S1131490D3F80831F3E7FFF791F8394BD3F8143157
S11314A0C3F30423EDE73448FFF71CFF344BD3F8B0
S11314B0303103F00303D840E6E72E48FFF712FF6C
S11314C02F4B0446D3F8200100F00F00FFF78AFDEC
S11314D0B4FBF0F0D8E72748FFF704FF284BD3F814
S11314E02031C3F30113E6E72448A5E72348FFF7B7
S11314F0F9FE234B0446D3F82801C0F30110E5E7B5
S11315002048FFF789FE0138072824D801A353F89F
S113151020F000BF171400005715000057150000F5
S11315203B15000057150000571500003515000045
S113153043150000144B1868A6E7BDE83840FFF7D0
S113154079B8FFF73BF80E4BD3F80031C3F304230B
S113155003FB000098E741F2C74159E7FFF72EF873
S113156004462846FFF752FEB2E700BF06000E000D
S1131570FF42000002001E000500240003002000BA
S113158000400E40B800320050100020014B18807B
S1131590704700BF54100020013838B50C460328AA
S11315A064D8DFE800F002441A2FB1F5007F04D3B9
S11315B0324842F6BB01FFF76DF8314AC4F3080420
S11315C0D2F86838002BFBD12E4A136A23F4FF7338
S11315D023F001032343136238BD7F2904D927482C
S11315E042F6C801FFF756F8254A04F07F01D2F805
S11315F06038002BFBD1234B1C6924F07F040C437F
S11316001C61E9E77F2904D91C4842F6E301FFF78E
S113161041F81B4A04F07F01D2F86438002BFBD157
S1131620184B9C6924F07F040C439C61D4E7154D4E
S1131630D5F890305B0704D5104842F6F301FFF764
S113164029F86B6A23F0300343F010036B62C4F390
S1131650C311CB1C2A6B0C490F2B01EA020128BFD2
S11316600F23214341EA03712963B5E7BDE83840FC
S1131670024842F60D11FFF70DB800BFFF4200000B
S11316800020C84300400E4000F8FF0F022810B5A8
S11316900C4604D0144842F62511FEF7FBFF134B09
S11316A05B6A13F0300F1BD0202C16D0302C17D0CF
S11316B0B4B10D484FF42551FEF7ECFF0C4B0B4A27
S11316C0D2F8901033EA0101FAD15B024ABFD2F892
S11316D0A0000120C0F3802010BD4FF40003EEE70A
S11316E04FF44003EBE700BFFF42000000400E4010
S11316F0FF33E107022808B50CD129B1094B4FF497
S11317008060C3F8A80059664AB1BDE808400220C9
S1131710FFF7BCBF044842F67611FEF7BBFF012079
S113172008BD00BF00400E40FF42000004282DE920
S1131730F04704460F4691461FD83D4B3D4A13F8E7
S113174000A03D4B13F80080F1B93C4B33F8103046
S11317501366012303FA08F8D2F8903013EA080F4D
S1131760FAD1B9F1000F5AD00125324A05FA0AF527
S1131770D2F890302B42FBD151E0BDE8F04730481D
S113178042F60A01FEF786BF2E4B022833F810609A
S113179047D1536A13F0300F43D12B4BDB6B5A05FF
S11317A004D4274842F61901FEF774FF214A536A0C
S11317B0DB0705D5536A23F0300343F0100353626B
S11317C0224D1C4BA8441E664FEA8808D8F8003006
S11317D0002BFBD0B9F1000F21D05544AD002B688C
S11317E0002BFCD0022C1AD1CFB1124F796A11F020
S11317F0010118D0012220212046FFF77BFFD7F8F2
S11318009C40012200210220FFF790FFC4F30A014B
S11318100220FFF7C1FE3E662B68002BFCD0BDE81A
S1131820F0870027CCE72046FFF730FFE7E700BF4B
S1131830A943000000400E40AE430000BE43000038
S1131840FF420000B443000000300E408004F21058
S1131850112838B50C460FD000F00F0001380728C6
S113186000F2EB80DFE810F0240066009A00E90043
S11318707D00B400E900C200042912D1FEF7DAFEAB
S11318800546A8B10021284600F0AEFA023C0A2C15
S113189045D8DFE804F04A473137444444443D0F17
S11318A04D00052904D1664B1D68664B9D42E9D85D
S11318B00025EBE70320052401221146FFF736FF3C
S11318C0FFF79EFB0DB1FFF7AFFB5F4B5C67FEF7C5
S11318D09FFE0446FEF772FEFFF738FBFFF7B2FBEC
S11318E001462046FFF7C4FB002D5DD128460121A7
S11318F0BDE8384000F078BA5448FFF727FB0220CF
S11319000446D9E75148FFF721FB01240320D3E71C
S113191042F27C11BDE838404D48FEF7BBBE42F2AE
S11319208111F7E701200324C6E700200424C3E75C
S11319300724C5E7062933D14548464D4FF40751DE
S1131940FEF7A8FE424842F2D011FEF7A3FEFEF7CE
S113195035FEFFF7FBFA404B0122C3F808260323A8
S113196021E006293D4DEDD0013C092C2BD801A3E3
S113197053F824F0CD190000AB190000B919000088
S1131980C7190000C71900004F190000C71900004B
S1131990C7190000C7190000A5190000304DE3E77E
S11319A02C4DE1E704232B6038BD012211460020B1
S11319B0FFF7BCFE0223F6E7012211461046FFF7AB
S11319C0B5FE0123EFE742F2FB11A3E70023EAE7A8
S11319D0072904D0092906D042F285219AE71A4B37
S11319E000221A67E0E7184B0122FAE74C1E072C85
S11319F01ED8DFE804F0201D1D161D1D0F04032250
S1131A001149D1F85C3123F0300343EA0213C1F8E1
S1131A105C31C9E7012211460420FFF787FE012249
S1131A20EEE7012211460220FFF780FE0222E7E7DB
S1131A3042F2E3216EE70022E2E742F2BA3169E7BB
S1131A4038100020002D310100400E400148E8010B
S1131A50FF42000080400E400010C84388400E4002
S1131A6084400E4010B504461120FFF7D5FB04282E
S1131A7004D1274842F2A561FEF70CFE01220021A1
S1131A800220FFF753FE63781BB9A3780BB9E37800
S1131A9023B11F4842F2E161FEF7FCFD237C012BD8
S1131AA004D11B4842F2E861FEF7F4FD194A217C97
S1131AB0536A23F00103022908BF43F00103536270
S1131AC0154B2178C3F8A014637AA18843EAC12393
S1131AD0D362136BA07A217A03F07F630343E08817
S1131AE043EAC02343EAC11303310F2928BF0F215E
S1131AF043EA01731363A37B617B1B0143EA013354
S1131B00E17B0B43217B43EA0143536310BD00BFD8
S1131B10FF42000000400E400000C84370B5054677
S1131B201120FFF779FB022804D10F4842F26371B8
S1131B30FEF7B0FD0D4E0E4BB26B2C7813401C43D8
S1131B406B7844EAC324AB7844EA0364EB7844EA50
S1131B500324B36BA34205D0002101220846FFF7FA
S1131B60E5FDB46370BD00BFFF42000000400E40BD
S1131B7080E4FFF8EFF3108072B6704700B962B6E4
S1131B807047EFF31180602383F31188704780F36B
S1131B901188704738B5C5B2322D044604D90848B7
S1131BA040F21F31FEF776FD064B640905F01F0570
S1131BB053F82400E840C04300F0010038BD00BFE2
S1131BC0F043000000E100E0034BD86B80F04000DC
S1131BD0C0F38010704700BF00300E4038B542EAB1
S1131BE00323B3F5007F05460C463ED019D8B3F560
S1131BF0807F36D00AD883B3012B21D01F4840F60A
S1131C00F211FEF747FD002213461FE040F20112D5
S1131C109342F3D11A4BD3F824321A0EC3F3074379
S1131C2014E0B3F5407F24D040F20132934210D047
S1131C3040F201229342E1D1114BD3F8283202E061
S1131C400F4BD3F82432C3F30722DBB22B6022609C
S1131C5038BD0B4BD3F82832DFE7094BD3F81C32DD
S1131C60F1E7074BD3F81C32D7E7054BD3F8203202
S1131C70E9E7034BD3F82032CFE700BF3D4400002F
S1131C800081E00F08B5FFF79FFF20B1024AD2F8A8
S1131C90C830002BFBD108BD0000C6431A4B0228F4
S1131CA010B5D3F830320C4612D0032813D00128D3
S1131CB014BFDBB2C3F307231B0323F47042ECB954
S1131CC05AB140F681111148FEF7E4FC002010BD22
S1131CD0C3F30743F0E71B0EEEE70D49CA6E22F487
S1131CE070421343CB660120F1E70949D1F8EC2097
S1131CF022F470421343C1F8EC30F4E7002AF4D024
S1131D0040F68D11DFE700BF0081E00F3D44000085
S1131D1000300E400378134A002B437870B514BF8B
S1131D2004260026002B8378946914BF022500251D
S1131D30002B037924F03F0443EA0403C47814BF5E
S1131D4008210021012C08BF43F0010333432B4336
S1131D500B4393611368417923F4403343EA01430D
S1131D60136070BD00300E40F8B504460F46FFF70F
S1131D702BFF78B3FFF786FF174B5B68C3F3014370
S1131D809C4227D0154BD3F80061FEF717FC022CB8
S1131D9005460FD1124BC6F3042606FB00069E42ED
S1131DA004D910484FF4E361FEF774FC022128467D
S1131DB0FFF75EF9C4F1020210239340064A13614F
S1131DC00FB1FFF75FFF2CB921462846BDE8F84064
S1131DD0FFF74EB9F8BD00BF00300E4000400E4082
S1131DE0002D31013D44000013B50246FFF7ECFE1F
S1131DF0C8B152B90D4B0191D3F80041FEF7DEFB97
S1131E00C4F30422019902FB0002094B1B7843B17D
S1131E10084B9A4205D8022002B0BDE81040FFF7F3
S1131E20A3BF0020F8E702B010BD00BF00400E4081
S1131E30E0130020002D3101224B4AF6E85210B580
S1131E40596B5A639A6FD207FCD41B6C13F00303CB
S1131E501EBF1D4A0124C2F8B44A834204D110B9FA
S1131E60194BC3F8B40A10BD032B00D09BB9431E11
S1131E70012B10D8134A4FF40023D362936FDB076E
S1131E80FCD4136C23F0030343F0010313640D4AE1
S1131E90536A1C03FCD50B4B9A6FD207FCD41A6C03
S1131EA022F0030202431A649A6F12F00102FBD17A
S1131EB00038054C18BF01200129C4F8B40A08BF32
S1131EC05A63D0E700300E400000C6432DE9F04FBE
S1131ED0A0F5E16389B00024B3F5966FCDE902441F
S1131EE0CDE90444CDE9064406468A46934605D91D
S1131EF040F67B315548FEF7CDFBA3E0B0F5E16F2A
S1131F00534B8CBF0122002249D1D3F81832C3F3BA
S1131F100721DBB2079104934FF416754FF49667CB
S1131F2048E0BBF1000F0ED0D9F85C2022F4FE4249
S1131F3022F00202B6F5E16F42EA012218BF022044
S1131F400243C9F85C20BAF1000F26D020460021D4
S1131F50FFF7A4FE044610B940F6D831CAE70121C0
S1131F604046FFF79BFE044610B94FF43E61C1E7BB
S1131F70384A536EBD4238BF3D4623F4FF73E72D04
S1131F8023F0010328BFE725B6F5E16F18BF43F03E
S1131F90010343EA4503536654E0012452E0D3F8B5
S1131FA01832190EC3F30743079104934FF496654F
S1131FB04FF4E167DFF89C90D9F84C400192C4F3E8
S1131FC00174234605A902A8FFF708FED9F8EC30EE
S1131FD0019AC3F30128434606A903A8FFF7FEFDAF
S1131FE0049BF01B079FF91A4143B1FBF5F29918C2
S1131FF02CBF012300238F421ED3EBB9069A039F03
S1132000D31B4343B3FBF5F3FF182CBF0123002379
S1132010BA4211D383B9059B029AA3EB020C00FBCD
S11320200CF0B0FBF5F555192CBF01200020AB4294
S113203002D300283FF475AF044840F6C931FEF7D7
S113204029FB0024204609B0BDE8F08F3D44000080
S11320500081E00F00300E40334A08B5136FD16C95
S113206011F0010F03F0060344D0002B42D01328D3
S113207057D9143813288CBF102308232A49013B4D
S1132080CA6C180322F47F4240EA03231343CB644F
S1132090264BCA6C1B88C2F303222833013202EB9D
S11320A0820003EB5303B3FBF0F3C86C013B072B33
S11320B028BF072320F0EE6040EA036343F4801353
S11320C0CB641B4BB3F90030002B12DB03F1280067
S11320D0C0F34E030344500800EB4202B3FBF2F298
S11320E00B6D072A28BF072223F0700343EA02126C
S11320F00A6508BDD16C01F00101194304D1092816
S11321000FD90A380928B6E7D26CD20702D50BB921
S11321102728B0E7074840F61E41FEF7BBFA002324
S1132120ACE70423AAE700BF00300E40DC13002014
S1132130DE1300203D4400000C4BD3F8803910B569
S1132140044633B9012804D9094840F63C41FEF756
S1132150A1FA084A136F23F0070323431367064BBE
S1132160BDE810401888FFF777BF00BF0000C643E2
S11321703D44000000300E40DA13002038B55A4BBD
S113218002229A639B6B03F00F039342044607D029
S1132190564840F61621FEF77DFA0025284638BD3C
S11321A00389C82B04D951484FF42261FEF772FA0F
S11321B0A28823899A4204D94C4840F62121FEF78B
S11321C069FAB4F90C30C82B04DD484840F62221E2
S11321D0FEF760FA6378012B55D1A388C82B04D984
S11321E040F626214148FEF755FAE28842F2107380
S11321F09A4204D93D4840F63321FEF74BFAE3886E
S11322004A2B48D9B3F5FA7F47D340F6C312934219
S113221094BF4FF000524FF040523349B4F90C00D0
S1132220CB6C23F0405323F001030028A8BF43F0F4
S113223001031343CB64D1F8EC30A28843F4407318
S1132240C1F8EC302A4B1A80CB6E43F08073CB6616
S1132250284BD3F8800900B10420FFF76DFF264B0B
S113226021891980254BB4F90C20A0881A80FFF726
S1132270F3FEA37BA3B1012B22D01C4840F63211FC
S1132280FEF708FA0FE0022BAFD1A3880A2BACD9D2
S113229040F62B21A6E70022BFE74FF08052BCE7AF
S11322A0114B174A9A65012260881146FFF70EFE0A
S11322B0054640B90D4840F66A21FEF7EBF96DE793
S11322C0094B104AEEE7084AD36B43F48063D363A7
S11322D06078FFF7B1FDA37AA3F120025342534182
S11322E0044AC2F8943759E700300E403D440000D8
S11322F0DA1300200000C643DC130020DE130020A4
S113230077402057372110B738B50D46044640B3FF
S1132310012829D002282AD003282BD004280ED043
S113232005282AD0831F012B09D9082828D0092879
S113233028D00A2803D10723EB40DB0704D4134831
S113234040F22D41FEF7A6F930200C2310FB043493
S113235004F18C44012104F5204401FA05F52560BB
S113236038BD40F2FF33E7E74FF6C073E4E740F6C9
S1132370FF73E1E74FF47F43DEE74FF6FF73DBE7DC
S11323800F23D9E74FF44043D6E700BF8944000048
S113239038B50D46044640B3012829D002282AD076
S11323A003282BD004280ED005282AD0831F012B04
S11323B009D9082828D0092828D00A2803D10723B6
S11323C0EB40DB0704D4134840F2FE31FEF762F918
S11323D030200C2310FB043404F18844012104F55B
S11323E0204401FA05F5256038BD40F2FF33E7E7E4
S11323F04FF6C073E4E740F6FF73E1E74FF47F4321
S1132400DEE74FF6FF73DBE70F23D9E74FF44043D2
S1132410D6E700BF8944000070B505460E46144651
S1132420FFF7A8FB296881EA040202EA06044C408B
S11324302C60BDE87040FFF7A1BB00001F2810B559
S1132440044603D906485221FEF724F9054AD2F876
S1132450443423F003032343C2F8443410BD00BFC3
S1132460D644000000A00040F8B50D4616461F46AD
S11324700446C8B301283AD002283BD003283CD0F4
S113248004280ED005283BD0831F012B09D9082826
S113249039D0092839D00A2803D10721E940CB07CC
S11324A004D423484FF4B071FEF7F4F826B129465A
S11324B020466FB3FFF728FF04EB4403072D4FEAD0
S11324C003134FF00F0126D8A80006FA00F281404A
S11324D018481844FFF7A0FF4EBB2946204617B3FF
S11324E0BDE8F840FFF710BF40F2FF31D6E74FF6E2
S11324F0C071D3E740F6FF71D0E74FF47F41CDE7D9
S11325004FF6FF71CAE70F21C8E74FF44041C5E712
S1132510FFF73EFFD0E7A5F10800800006FA00F2BD
S113252081400548D5E7BDE8F840FFF731BFF8BD65
S1132530D644000004A0004008A00040022838B59A
S113254004460D4603D911484C21FEF7A3F86B79D4
S11325501F2B03D90D484F21FEF79CF8AB786A78FE
S11325609B0143EA82032A781343EA7843EA02137D
S11325702A7943EAC2236A7943EA0233AA79043402
S113258043EA42432401024A135138BD2345000063
S113259000200440427801790378002A827870B5DB
S11325A014BF04260026002AC27814BF1025002573
S11325B0002A42794FEA023242EA012242EA030245
S11325C0837914BF20240024002BC37942EA0343F7
S11325D043EA0603027A43EA050314BF4FF40041B9
S11325E000212343002A14BF4FF4003200220B437E
S11325F01343014A136070BD00200440094B984204
S11326000DD003F58063984209D003F5E053984256
S113261005D003F58063C31A58425841704701201E
S1132620704700BF008001402DE9F84F05460C4675
S1132630FFF7E4FF18B92B48A521FEF72BF8217802
S113264009B902236B60607800236B620028E2788A
S1132650607AA37894F808B094F806A094F80790E8
S113266014BF4FF040084FF0000812040028A07A6D
S113267042EA036314BF4FF0800E4FF0000E43EAAA
S11326800B030028E07A43EA8A2314BF4FF0200C9E
S11326904FF0000C43EA09230028207B43EA080397
S11326A014BF1027002743EA0E0300282079647919
S11326B043EA0C0314BF082600263B43002814BF3A
S11326C04FF4005000203343002C14BF4FF08054CB
S11326D00024034323432B6009B101236B60BDE84D
S11326E0F88F00BF70450000F8B505460C46164645
S11326F0FFF784FF18B92048F521FDF7CBFF032C21
S113270003D91D48F621FDF7C5FF737832781B06FF
S113271043EA8263B2791343B27843EA0243F2781C
S113272043EA0233327943EA8223727943EA022389
S1132730F279002A327A14BF4FF080470027002A2A
S1132740727A14BF4FF000500020002AB27AF67A51
S113275043EA067343EA070314BF1021002103432D
S1132760002A04F1060414BF042200220B432401AE
S113277013432B51F8BD00BF7045000070B50646E9
S11327800C46154622B90D4840F28E21FDF782FF12
S11327901CB90B48FEF70AFE04460A4B6D00013CC7
S11327A0B4FBF5F413EA04234FEA042504D00348E8
S11327B040F2B321FDF76EFF756170BDBE450000A8
S11327C040410500070080FF38B51E4B1E4D98425E
S11327D004460ED0A8420CD003F50063984208D0FA
S11327E003F58063984204D0184840F24241FDF753
S11327F051FF40F6AA63E36041F20502002323601F
S11328006260134AA3606361E364A264236663673E
S1132810A367E3670B4B9C4209D0AC4207D003F596
S113282000639C4203D003F580639C4201D10023E2
S113283023650023AC42A36502D0064A944200D12A
S1132840E36538BD0000014000040140BE450000BE
S1132850F9FF0100000C014038B52D4B98420446A5
S11328600D4610D003F5806398420CD003F58063C5
S1132870984208D003F58063984204D0254840F27A
S11328806931FDF707FF2046FFF79EFFA97B2A8ADF
S11328902368002942F0010214BF4FF48061002133
S11328A013430B432A7D23602368002A14BF4FF08F
S11328B00052002213432360AB7C1BB1EB7C43F03A
S11328C08003A3652B7B43F480536360D5E9011235
S11328D02046FFF753FF6B7B0BB11023E3606B7D46
S11328E01BB1236843F480332360AB7D1BB12368A1
S11328F043F400432360EB7D2A7E1B07120503F09B
S1132900E04302F4E002134323662B78E36038BD0E
S113291000000140BE45000003695A06FCD541632E
S113292003699B06FCD5C069C0B270477FB5094BEB
S11329306A4603F11006154618685968144603C41C
S11329400833B3422246F7D12846FFF717FC00208C
S113295004B070BD0C46000013B502230024684681
S113296000948DF804408DF80530FFF7D3F9204624
S113297002B010BD70B5174B86B001AA03F1100662
S1132980154618685968144603C40833B3422246EE
S1132990F7D11B882380104BD3F8B42012030ED434
S11329A0D3F8B830C3F308030C48ADF80A30FDF788
S11329B047FE2846FFF756F8002006B070BD084BC6
S11329C01A884FF6FF7140F243138A4218BF134628
S11329D0EAE700BF1C4600000081E00F00F0490256
S11329E00001E00F07B5084B18680190202301A8E7
S11329F08DF80430FFF792F86420FEF7C7FD00203D
S1132A0003B05DF804FB00BF2E46000010B50C486F
S1132A100C4C6FF00402A02112F0800FD3B21BBF44
S1132A2003F00F03043BA3181B1802F101020CBFAF
S1132A3083F800131976332AEED1002010BD00BFAD
S1132A4000ED00E000E100E008B5FDF741FCFDF712
S1132A508DFCFDF798FCFDF798FCBDE80840FDF7F8
S1132A6095BC000010B50446FDF7D2FD4FF47A7210
S1132A709042B0FBF2F105D23621BDE810400B487C
S1132A80FDF708BE0A4BB3FBF1F30A49884201D9AA
S1132A903C21F2E702FB04F0B0FBF3F0032804D975
S1132AA0BDE81040800800F00BB810BD32460000AD
S1132AB040420F00E7CD9A3B0000000000000000F8
S1132AC0013800D0FCE7704738B50C460546F0B134
S1132AD001281FD0022820D0032821D0042804D0A4
S1132AE04FF6FF73E340DB0704D40F4840F2CF31C5
S1132AF0FDF7D0FD30201C2310FB053505F10475CE
S1132B0005F5204504EBC504A400206838BD40F257
S1132B10FF33E7E74FF6C073E4E740F6FF73E1E7FE
S1132B204FF47F43DEE700BF89440000064B42F2C6
S1132B300C0202FB003041F2A863C358184441F66A
S1132B404473C154704700BFE4130020084B42F2A1
S1132B500C0202FB003210B541F2A864125940F68F
S1132B60030404FB002003EB8003196010BD00BFC5
S1132B70E4130020084B42F20C0202FB003210B5B1
S1132B8041F2A864125940F6030404FB002003EB4D
S1132B908003C3F8201310BDE4130020094A42F255
S1132BA00C0310B503FB002341F2A8641B5940F643
S1132BB0030404FB003000F5C87002EB80000160E0
S1132BC010BD00BFE4130020094A42F20C0310B503
S1132BD003FB002341F2A8641B5940F6030404FBE1
S1132BE0003000F57A7002EB8000016010BD00BF78
S1132BF0E4130020094A42F20C0310B503FB00233E
S1132C0041F2A8641B5940F6030404FB003000F5AC
S1132C10966002EB8000016010BD00BFE413002049
S1132C20F0B541F21C53104C434304EB030C45F242
S1132C30305718215CF80760F2B201FB02331C44E0
S1132C400A4B682505FB00350FCD04F58444703428
S1132C500FC495E803000136C72E84E803004CF83E
S1132C60076000DDFEE7F0BDE4130020787E00205D
S1132C7038B5204C41F21C5303FB004345F230525B
S1132C809D58D8B1012833D108210320EDB2FFF7B4
S1132C901BFF05EB45052C4445F234530621E05453
S1132CA00020FFF711FF45F235530721E0540020BF
S1132CB0FFF70AFF45F23653E05438BD0D210520D5
S1132CC0EDB2FFF701FF05EB4505254444F2180377
S1132CD00F21E8540520FFF7F7FE44F219030E21F3
S1132CE0E8540520FFF7F0FE44F21A03E854E4E741
S1132CF000BEE2E7E41300202DE9F843224D42F23E
S1132D000C0303FB00F905EB090641F2A8678046B2
S1132D10F4590134F451FFF7ABFF04EB44031B4AAD
S1132D2068214B4401FB08222B4403F5E753108B25
S1132D30988140F6030000FB0840917E997300F2ED
S1132D40AA5305EB83033444916A596004F5AF54E4
S1132D5092F82130237000F5167305EB8303116B91
S1132D60196000F5487305EB830300F27260D16CBF
S1132D70196005EB8005D36A6B60F359C72B00DD3E
S1132D80FEE7BDE8F88300BFE4130020787E00204E
S1132D902DE9D043037B2DED028B04464BB1002378
S1132DA083600360436000230373BDEC028BBDE8C2
S1132DB0D08390ED028AF7EE007A38EE278A78EE17
S1132DC0677A80ED028A87EE887AD0ED007A67EE22
S1132DD0277A17EE900A00F003FD064618EE100A53
S1132DE00F4600F0FDFC02460B4600200B4900F0A4
S1132DF079FE80466068894600F0F2FC02460B4684
S1132E004046494600F044FD02460B4630463946EA
S1132E1000F088FB00F0F6FF2060C6E70000F03FFA
S1132E2038B50C460546F0B101281FD0022820D041
S1132E30032821D0042804D04FF6FF73E340DB07B6
S1132E4004D40F4840F2CF31FDF724FC30201C237A
S1132E5010FB053505F1047505F5204504EBC504A3
S1132E60A400206838BD40F2FF33E7E74FF6C07393
S1132E70E4E740F6FF73E1E74FF47F43DEE700BF8A
S1132E808944000010B532210446FDF71FFD204699
S1132E90BDE81040FDF70ABD10B5074B682202FBE0
S1132EA00131044691F82110FDF710FD2046BDE8DC
S1132EB01040FDF7FBBC00BF787E0020FDF7FEBC90
S1132EC070B5044630B301282DD1184B184A1A6046
S1132ED0184B194A1A60194B194A1A4D1A6068237B
S1132EE003FB0455184E2B7E104A56F82330106805
S1132EF0214698476B7E0F4A56F8233010682146C6
S1132F009847AB7E0D4A56F8233010682146BDE839
S1132F1070401847054B0D4A1A60064B0C4A1A605C
S1132F20064B0C4AD9E700BE70BD00BF687E002086
S1132F30001000206C7E002008100020707E00200D
S1132F4010100020787E00207C1000201810002033
S1132F50201000202810002010B5A8B1012824D189
S1132F6008210320FFF75CFF114C062184F86A0056
S1132F700020FFF755FF072184F86B000020FFF7BE
S1132F804FFF84F86C0010BD0F210520FFF748FFA8
S1132F90074C0E21E0700520FFF742FF0D21207140
S1132FA00520FFF73DFFA070EDE700BEEBE700BF93
S1132FB0787E002070B5154C154E682303FB004441
S1132FC00546E178A378490041EA8301237919434E
S1132FD001F007013154FFF7A9FD94F82030012BCB
S1132FE009D8735D0B4A03EB4303D118D25A8B788B
S1132FF02283A37670BD022BFCD1735D03EB4302E5
S1133000044B13441A8B9B7EF2E700BF787E0020AA
S1133010347E0020367E00202DE9F843344E6827A4
S113302007FB006797ED127AD7ED137A77EE677A8C
S11330302DED028B044617EE900A17EE905A00F01D
S1133040CFFB27A3D3E900238046894600F020FC68
S113305000F0D8FE24A3D3E90023494608EE900AE1
S1133060404600F015FC8046B86A894600F0B8FB7B
S113307002460B464046494600F054FA00F0C2FEB0
S1133080DFED1C7A08EE100AB4EEE78AF1EE10FACE
S113309023DCDFED197AB4EE678AF1EE10FA48BF4B
S11330A0B0EE678A682303FB046686ED0A8A294624
S11330B02046FFF74BFD18EE901A2046FFF75AFD05
S11330C018EE101A2046FFF769FD78EE287ABDEC59
S11330D0028B17EE900ABDE8F883B0EE678AE1E749
S11330E09A9999999999B93F7B14AE47E17A843FAB
S11330F0787E00200000C8420000C8C20000000022
S11331002DE970431C4C682606FB00462DED028B0E
S113311096ED0C8A054618EE100A00F061FB12A326
S1133120D3E900238046894600F024FE70B110A341
S1133130D3E900234046494600F03AFE30B100236B
S113314086F82030BDEC028BBDE87083B5EEC08AF2
S11331506820F1EE10FA00FB0544CCBF01230223E2
S113316084F82030EEE700BFF168E388B5F8E43E68
S1133170F168E388B5F8E4BE787E0020224B002293
S1133180022101201A705A709A70D97018715A71FC
S11331909871DA71197258729972DA721A735973D2
S11331A09873DA73187459749974DA7418755A75B3
S11331B09A75DA751A765A769A76DA76187759778E
S11331C09977DA7783F8200083F8212083F8221096
S11331D083F8230083F8240083F8251083F826203D
S11331E083F8271083F8280083F8292083F82A001D
S11331F083F82B2083F82C1083F82D2083F82E20BD
S113320083F82F20704700BF367E002010B5084990
S1133210682358430A18D378947812795B0043EAF8
S11332208403134303F00703013B0B5410BD00BF99
S1133230787E0020000000002DE9F84F304E68230E
S11332402DED028B4343F218044692F82010D2F875
S11332501080976841B9002111634C33012182F831
S11332605810F018FFF794FD682044433519AB6BF0
S1133270B8EB030B35D0286C381A32D000F09EFA24
S11332801BA3D3E9002300F003FB00F0BBFD08EE11
S1133290100A584600F082FA1A4B002200F022FC71
S11332A000F0B0FD07EE900AC8EE277A17EE900AF8
S11332B000F096FA10A3D3E9002300F0E9FA00F035
S11332C0A1FDBDEC028B00232863286504F14C00AA
S11332D0C5E90E83C5E910733044BDE8F84FFFF724
S11332E057BDBDEC028BBDE8F88F00BFAFF3008083
S11332F065732D3852C1F03F1E1E1E1E1E1EAE3FAA
S1133300787E002000408F4010B50446FFF784FE0D
S1133310084B682202FB043307EE100AD3ED127A3D
S113332077EE877A2046C3ED0B7ABDE81040FFF7AD
S1133330E3BC00BF787E002070B5274D682303FBF3
S11333400055D5ED0B7AF0EEE77A2DED028B0446AD
S113335017EE900A00F044FA204B002200F098FA8D
S11333601F4B002200F094FA00F04CFDDFED1D7AB3
S113337008EE100AC8EE277A17EE900A00F030FA29
S113338011A3D3E9002300F0ADFB00F03BFD06469A
S113339000F026FA0EA3D3E9002300F0A3FB124B9E
S11333A0002200F075FA00F00DFD18EE101A85F8F1
S11333B021002046FFF708FCBDEC028B3146204675
S11333C0BDE87040FFF716BC86C954C1A8A4DE3F0F
S11333D06666666666660A40787E002000003140B4
S11333E000004E400000C345000059400B4B6822CA
S11333F013B502FB00330A4C0A4A9A64FFF7ACFD8A
S11334002046FDF781FB0021074A0091074B126813
S11334102068FDF703FC02B010BD00BF787E0020D9
S113342088100020000040408C1000208D340000E3
S1133430144B682202FB003082B0C37882785B00B0
S113344043EA82030279134303F00703013BDBB22F
S11334508DF807309DF807300B4A03EB4303D35C28
S113346083709DF8073003EB430313445B78C37008
S11334709DF8073003EB43031A449378037102B0B9
S1133480704700BF787E00208A460000F7B51D4CC7
S11334901D4E07462078FFF78DFD2078FFF7B6FE16
S11334A020781A4B682505FB00F172184FF0060EC0
S11334B092F801C0715C0EFB0C335B5C1375FFF773
S11334C0AFFB207845437319725D5A70FFF7B4FE61
S11334D02078FFF719FF2078FFF712FE2078FFF716
S11334E02BFF2078FFF7ECFC2078FFF7A1FF0021E9
S11334F0074A0091074B12683846FDF78FFB03B06B
S1133500F0BD00BF90100020787E002056100020EF
S11335108C1000208D34000081F0004102E000BFD7
S113352083F0004330B54FEA41044FEA430594EA7F
S1133530050F08BF90EA020F1FBF54EA000C55EABA
S1133540020C7FEA645C7FEA655C00F0E2804FEA8B
S11335505454D4EB5555B8BF6D420CDD2C4480EA6D
S1133560020281EA030382EA000083EA010180EA9D
S1133570020281EA0303362D88BF30BD11F0004FEB
S11335804FEA01314FF4801C4CEA113102D0404221
S113359061EB410113F0004F4FEA03334CEA13335C
S11335A002D0524263EB430394EA050F00F0A78074
S11335B0A4F10104D5F1200E0DDB02FA0EFC22FA6F
S11335C005F2801841F1000103FA0EF2801843FA63
S11335D005F359410EE0A5F120050EF1200E012A54
S11335E003FA0EFC28BF4CF0020C43FA05F3C01892
S11335F051EBE37101F0004507D54FF0000EDCF10B
S1133600000C7EEB00006EEB0101B1F5801F1BD3B3
S1133610B1F5001F0CD349085FEA30004FEA3C0CB7
S113362004F101044FEA445212F5800F80F09A80AD
S1133630BCF1004F08BF5FEA500C50F1000041EBB1
S1133640045141EA050130BD5FEA4C0C404141EBB5
S11336500101013C28BFB1F5801FE9D291F0000FB0
S113366004BF01460020B1FA81F308BF2033A3F15F
S11336700B03B3F120020CDA0C3208DD02F1140C56
S1133680C2F10C0201FA0CF021FA02F10CE002F191
S11336901402D8BFC2F1200C01FA02F120FA0CFC8A
S11336A0DCBF41EA0C019040E41AA2BF01EB0451D3
S11336B0294330BD6FEA04041F3C1CDA0C340EDCD1
S11336C004F11404C4F1200220FA04F001FA02F314
S11336D040EA030021FA04F345EA030130BDC4F1D2
S11336E00C04C4F1200220FA02F001FA04F340EAC7
S11336F00300294630BD21FA04F0294630BD94F078
S1133700000F83F4801306BF81F480110134013D5E
S11337104EE77FEA645C18BF7FEA655C29D094EACF
S1133720050F08BF90EA020F05D054EA000C04BF4D
S11337301946104630BD91EA030F1EBF0021002038
S113374030BD5FEA545C05D14000494128BF41F0D7
S1133750004130BD14F580043CBF01F5801130BD3B
S113376001F0004545F0FE4141F470014FF00000C6
S113377030BD7FEA645C1ABF194610467FEA655C77
S11337801CBF0B46024650EA013406BF52EA033519
S113379091EA030F41F4002130BD00BF90F0000F07
S11337A004BF0021704730B54FF4806404F1320443
S11337B04FF000054FF0000150E700BF90F0000FFC
S11337C004BF0021704730B54FF4806404F1320423
S11337D010F0004548BF40424FF000013EE700BFF3
S11337E042004FEAE2014FEA31014FEA02701FBF83
S11337F012F07F4393F07F4F81F06051704732F0B5
S11338007F4208BF704793F07F4F04BF41F400210B
S1133810704730B54FF4607401F0004521F0004169
S11338201CE700BF50EA010208BF704730B54FF0F3
S113383000050AE050EA010208BF704730B511F0F4
S1133840004502D5404261EB41014FF4806404F12C
S113385032045FEA915C3FF4D8AE4FF003025FEAB2
S1133860DC0C18BF03325FEADC0C18BF033202EB36
S1133870DC02C2F1200300FA03FC20FA02F001FA90
S113388003FE40EA0E0021FA02F11444BDE600BF33
S113389070B54FF0FF0C4CF4E06C1CEA11541DBFE2
S11338A01CEA135594EA0C0F95EA0C0F00F0DEF8AD
S11338B02C4481EA030621EA4C5123EA4C5350EA92
S11338C0013518BF52EA033541F4801143F48013E3
S11338D038D0A0FB02CE4FF00005E1FB02E506F074
S11338E00042E0FB03E54FF00006E1FB03569CF0C9
S11338F0000F18BF4EF0010EA4F1FF04B6F5007FCF
S113390064F5407404D25FEA4E0E6D4146EB060640
S113391042EAC62141EA55514FEAC52040EA5E50C9
S11339204FEACE2EB4F1FD0C88BFBCF5E06F1ED873
S1133930BEF1004F08BF5FEA500E50F1000041EBAA
S1133940045170BD06F0004646EA010140EA020057
S113395081EA0301B4EB5C04C2BFD4EB0C0541EA79
S1133960045170BD41F480114FF0000E013C00F38E
S1133970AB8014F1360FDEBF002001F0004170BDB2
S1133980C4F10004203C35DA0C341BDC04F11404CB
S1133990C4F1200500FA05F320FA04F001FA05F257
S11339A040EA020001F0004221F0004110EBD37024
S11339B021FA04F642EB06015EEA430E08BF20EA50
S11339C0D37070BDC4F10C04C4F1200500FA04F3F3
S11339D020FA05F001FA04F240EA020001F0004185
S11339E010EBD37041F100015EEA430E08BF20EAF8
S11339F0D37070BDC4F1200500FA05F24EEA020E40
S1133A0020FA04F301FA05F243EA020321FA04F06E
S1133A1001F0004121FA04F220EA020000EBD37025
S1133A205EEA430E08BF20EAD37070BD94F0000F25
S1133A300FD101F00046400041EB010111F4801F59
S1133A4008BF013CF7D041EA060195F0000F18BF0A
S1133A50704703F00046520043EB030313F4801F46
S1133A6008BF013DF7D043EA0603704794EA0C0F00
S1133A700CEA135518BF95EA0C0F0CD050EA410616
S1133A8018BF52EA4306D1D181EA030101F0004193
S1133A904FF0000070BD50EA410606BF10461946BB
S1133AA052EA430619D094EA0C0F02D150EA0136C7
S1133AB013D195EA0C0F05D152EA03361CBF104608
S1133AC019460AD181EA030101F0004141F0FE41A7
S1133AD041F470014FF0000070BD41F0FE4141F42B
S1133AE0780170BD70B54FF0FF0C4CF4E06C1CEA2B
S1133AF011541DBF1CEA135594EA0C0F95EA0C0FE0
S1133B0000F0A7F8A4EB050481EA030E52EA03359A
S1133B104FEA013100F088804FEA03334FF08055BB
S1133B2045EA131343EA12634FEA022245EA1115E8
S1133B3045EA10654FEA00260EF000419D4208BF99
S1133B40964244F1FD0404F5407402D25B084FEA46
S1133B503202B61A65EB03055B084FEA32024FF4F2
S1133B6080104FF4002CB6EB020E75EB030E22BF4F
S1133B70B61A754640EA0C005B084FEA3202B6EB0F
S1133B80020E75EB030E22BFB61A754640EA5C00BE
S1133B905B084FEA3202B6EB020E75EB030E22BF4E
S1133BA0B61A754640EA9C005B084FEA3202B6EB4F
S1133BB0020E75EB030E22BFB61A754640EADC000E
S1133BC055EA060E18D04FEA051545EA16754FEA70
S1133BD006164FEAC30343EA52734FEAC2025FEA8E
S1133BE01C1CC0D111F4801F0BD141EA00014FF01D
S1133BF000004FF0004CB6E711F4801F04BF0143EE
S1133C000020B4F1FD0C88BFBCF5E06F3FF6AFAE09
S1133C10B5EB030C04BFB6EB020C5FEA500C50F199
S1133C20000041EB045170BD0EF0004E4EEA11311C
S1133C3014EB5C04C2BFD4EB0C0541EA045170BD23
S1133C4041F480114FF0000E013C90E645EA060E67
S1133C508DE60CEA135594EA0C0F08BF95EA0C0F95
S1133C603FF43BAF94EA0C0F0AD150EA01347FF4DD
S1133C7034AF95EA0C0F7FF425AF104619462CE7B4
S1133C8095EA0C0F06D152EA03353FF4FDAE104617
S1133C90194622E750EA410618BF52EA43067FF468
S1133CA0C5AE50EA41047FF40DAF52EA43057FF4F8
S1133CB0EBAE12E74FF0FF3C06E000BF4FF0010C03
S1133CC002E000BF4FF0010C4DF804CD4FEA410C67
S1133CD07FEA6C5C4FEA430C18BF7FEA6C5C1BD034
S1133CE001B050EA410C0CBF52EA430C91EA030FB5
S1133CF002BF90EA020F0020704710F1000F91EA12
S1133D00030F58BF994208BF90422CBFD8176FEADF
S1133D10E37040F0010070474FEA410C7FEA6C5CAD
S1133D2002D150EA013C07D14FEA430C7FEA6C5CB4
S1133D30D6D152EA033CD3D05DF8040B704700BFE0
S1133D408446104662468C461946634600E000BF2E
S1133D5001B5FFF7B7FF002848BF10F1000F01BD00
S1133D604DF808EDFFF7F4FF0CBF012000205DF8CB
S1133D7008FB00BF4DF808EDFFF7EAFF34BF012050
S1133D8000205DF808FB00BF4DF808EDFFF7E0FFE9
S1133D9094BF012000205DF808FB00BF4DF808ED3A
S1133DA0FFF7CEFF94BF012000205DF808FB00BFA1
S1133DB04DF808EDFFF7C4FF34BF012000205DF883
S1133DC008FB00BF4A0011D212F5001211D20DD522
S1133DD06FF47873B3EB62520ED44FEAC12343F00D
S1133DE0004343EA505323FA02F070474FF00000B7
S1133DF0704750EA013002D14FF0FF3070474FF066
S1133E00000070474FEA4102B2F1E04324BFB3F52A
S1133E10001CDCF1FE5C0DD901F0004C4FEAC0023D
S1133E204CEA5070B2F1004F40EB830008BF20F021
S1133E300100704711F0804F21D113F13872BCBFDB
S1133E4001F00040704741F480114FEA5252C2F130
S1133E501802C2F1200C10FA0CF320FA02F018BF79
S1133E6040F001004FEAC1234FEAD32303FA0CFCCC
S1133E7040EA0C0023FA02F34FEA4303CCE77FEA5B
S1133E80625307D150EA01331EBF4FF0FE4040F4A5
S1133E904000704701F0004040F0FE4040F4000054
S1133EA0704700BF53B94AB9002908BF00281CBF96
S1133EB04FF0FF314FF0FF3000F074B9ADF1080C52
S1133EC06DE904CE00F006F8DDF804E0DDE9022334
S1133ED004B070472DE9F047089D04468E46002B38
S1133EE04DD18A42944669D9B2FA82F252B101FAAA
S1133EF002F3C2F1200120FA01F10CFA02FC41EABA
S1133F00030E94404FEA1C48210CBEFBF8F61FFA3E
S1133F108CF708FB16E341EA034306FB07F19942D9
S1133F200AD91CEB030306F1FF3080F01F8199428C
S1133F3040F21C81023E63445B1AA4B2B3FBF8F066
S1133F4008FB103344EA034400FB07F7A7420AD9ED
S1133F501CEB040400F1FF3380F00A81A74240F215
S1133F6007816444023840EA0640E41B00261DB180
S1133F70D4400023C5E900433146BDE8F0878B42B5
S1133F8009D9002D00F0EF800026C5E90001304674
S1133F903146BDE8F087B3FA83F6002E4AD18B424E
S1133FA002D3824200F2F980841A61EB03030120F8
S1133FB09E46002DE0D0C5E9004EDDE702B9FFDEE4
S1133FC0B2FA82F2002A40F09280A1EB0C014FEA8F
S1133FD01C471FFA8CFE0126200CB1FBF7F307FBEC
S1133FE0131140EA01410EFB03F0884208D91CEB8F
S1133FF0010103F1FF3802D2884200F2CB8043462C
S1134000091AA4B2B1FBF7F007FB101144EA01440A
S11340100EFB00FEA64508D91CEB040400F1FF3199
S113402002D2A64500F2BB800846A4EB0E0440EA87
S113403003409CE7C6F12007B34022FA07FC4CEA90
S1134040030C20FA07F401FA06F31C43F9404FEA83
S11340501C4900FA06F3B1FBF9F8200C1FFA8CFE98
S113406009FB181140EA014108FB0EF0884202FAEC
S113407006F20BD91CEB010108F1FF3A80F08880AD
S1134080884240F28580A8F102086144091AA4B26A
S1134090B1FBF9F009FB101144EA014100FB0EFEEB
S11340A08E4508D91CEB010100F1FF346CD28E451A
S11340B06AD90238614440EA0840A0FB0294A1EBAB
S11340C00E01A142C846A64656D353D05DB1B3EB08
S11340D0080261EB0E0101FA07F722FA06F3F14038
S11340E01F43C5E9007100263146BDE8F087C2F1DF
S11340F02003D8400CFA02FC21FA03F39140014357
S11341004FEA1C471FFA8CFEB3FBF7F007FB10368F
S11341100B0C43EA064300FB0EF69E4204FA02F43B
S113412008D91CEB030300F1FF382FD29E422DD98E
S1134130023863449B1B89B2B3FBF7F607FB1633C3
S113414041EA034106FB0EF38B4208D91CEB010143
S113415006F1FF3816D28B4214D9023E6144C91AC3
S113416046EA004638E72E46284605E70646E3E6D3
S11341701846F8E64B45A9D2B9EB020864EB0C0EDD
S11341800138A3E74646EAE7204694E74046D1E7EC
S1134190D0467BE7023B614432E7304609E764449A
S11341A0023842E7704700BF08B5074B044613B115
S11341B00021AFF30080054B1868836A03B1984768
S11341C0204600F031F800BF000000009C460000CB
S11341D070B50D4D0D4C641BA4100026A64209D1E8
S11341E00B4D0C4C00F022F8641BA4100026A642D0
S11341F005D170BD55F8043B98470136EEE755F8F4
S1134200043B98470136F2E7F4100020F410002034
S1134210F4100020F810002002440346934200D119
S1134220704703F8011BF9E7FEE700BFF8B500BFCC
S1134230F8BC08BC9E467047F8B500BFF8BC08BC83
S11342409E467047050000000000000040420F0039
S11342500501000000000000000000000000000054
S1134260433A2F55736572732F4B4F424945442F80
S113427053696D706C696369747953747564696F9B
S11342802F53444B732F6765636B6F5F73646B2F9E
S1134290706C6174666F726D2F6472697665722FCB
S11342A070776D2F7372632F736C5F70776D2E63ED
S11342B000633A5C75736572735C6B6F6269656405
S11342C05C73696D706C696369747973747564691E
S11342D06F5C73646B735C6765636B6F5F73646B54
S11342E05C706C6174666F726D5C656D6C69625C48
S11342F0696E635C656D5F74696D65722E680043F9
S11343003A2F55736572732F4B4F424945442F53CF
S1134310696D706C696369747953747564696F2F1E
S113432053444B732F6765636B6F5F73646B2F70BC
S11343306C6174666F726D2F656D6C69622F737238
S1134340632F656D5F636D752E6300633A5C7573EF
S11343506572735C6B6F626965645C73696D706CC4
S1134360696369747973747564696F5C73646B737E
S11343705C6765636B6F5F73646B5C706C617466C0
S11343806F726D5C636F6D6D6F6E5C696E635C7391
S11343906C5F636F6D6D6F6E2E68000403020B0516
S11343A00C0302010A0302060A09070301050806B1
S11343B0020004000001400004000100100000029B
S11343C0800008000200200040787D010000000009
S11343D0005A620200010000C0CF6A00020000001F
S11343E0809FD50002010000002D3101020200006F
S11343F0433A2F55736572732F4B4F424945442FEF
S113440053696D706C696369747953747564696F09
S11344102F53444B732F6765636B6F5F73646B2F0C
S1134420706C6174666F726D2F656D6C69622F7349
S113443072632F656D5F636F72652E6300433A2F5D
S113444055736572732F4B4F424945442F53696D21
S1134450706C696369747953747564696F2F53441C
S11344604B732F6765636B6F5F73646B2F706C6145
S113447074666F726D2F656D6C69622F7372632F32
S1134480656D5F656D752E6300633A5C7573657267
S1134490735C6B6F626965645C73696D706C69638E
S11344A069747973747564696F5C73646B735C6746
S11344B065636B6F5F73646B5C706C6174666F7261
S11344C06D5C656D6C69625C696E635C656D5F678C
S11344D070696F2E6800433A2F55736572732F4BC2
S11344E04F424945442F53696D706C69636974790F
S11344F053747564696F2F53444B732F6765636BF3
S11345006F5F73646B2F706C6174666F726D2F656F
S11345106D6C69622F7372632F656D5F6770696F6D
S11345202E6300433A2F55736572732F4B4F4249E4
S113453045442F53696D706C69636974795374755C
S113454064696F2F53444B732F6765636B6F5F739D
S1134550646B2F706C6174666F726D2F656D6C691E
S1134560622F7372632F656D5F727463632E6300D1
S1134570433A2F55736572732F4B4F424945442F6D
S113458053696D706C696369747953747564696F88
S11345902F53444B732F6765636B6F5F73646B2F8B
S11345A0706C6174666F726D2F656D6C69622F73C8
S11345B072632F656D5F74696D65722E6300433A93
S11345C02F55736572732F4B4F424945442F5369DE
S11345D06D706C696369747953747564696F2F5372
S11345E0444B732F6765636B6F5F73646B2F706CE1
S11345F06174666F726D2F656D6C69622F7372637F
S11346002F656D5F75736172742E63000001080776
S11346100F000A00C8002000A000010000000000F4
S1134620A00068010A200706020A0407000000022D
S11346300700433A2F55736572732F4B4F42494518
S1134640442F53696D706C6963697479537475642C
S1134650696F2F53444B732F6765636B6F5F73648C
S11346606B2F706C6174666F726D2F7365727669EF
S113467063652F7564656C61792F7372632F736C36
S11346805F7564656C61792E6300010001000101AE
S1134690000001010100010000000100941000204D
S10B46A0ACBAFF7F0100000029
S10F46A8B4460000001000203F00000099
S11346B400800140000309110080014001030A1134
S11346C40080014002030B110084014000030C1418
S11346D4008401400102090D0084014002020A0D14
S11346E4C0EA210100F04902C0EA2101008000006F
S11346F401000000000000000002000003000000AC
S1134704C0EA2101FFFF0000FF00010000000100D6
S113471400FF01FF0000000000000000FF01FF0093
S113472400010000000100FF00000000BD2E000095
S1134734992E0000852E0000010000000A000000EC
S11347440100000000000000000000000000000060
S11347540000000000000000000000000000000051
S11347640000000000000000000000000000000041
S11347740000000000000000000000000000000031
S11347840000000000000000000000000000000021
S11347940000000000000000000000000000000011
S10F47A400000000310100000D010000C5
S9030555A2
