S0150000666C795F636F6E74726F6C6C65722E733337F1
S113000000100020610500005D0500005D05000092
S11300105D0500005D0500005D0500005D05000054
S11300205D0500005D0500005D0500005D05000044
S11300305D0500005D0500005D0500005D05000034
S11300405D0500005D0500005D0500005D05000024
S11300505D0500005D0500005D0500005D05000014
S11300605D0500005D05000021090000CD0C0000C5
S11300705D0500005D0500005D0500005D050000F4
S11300805D0500005D0500003D0900005D05000000
S11300905D0500005D0500005D0500005D050000D4
S11300A05D0500005D0500005D0500005D050000C4
S11300B05D0500005D050000710B00005D0500009A
S11300C05D0500005D0500005D0500005D050000A4
S11300D05D0500005D0500005D0500005D05000094
S11300E05D0500005D0500005D0500005D05000084
S11300F05D0500005D0500005D0500005D05000074
S11301005D0500005D0500005D05000010B5054CAF
S1130110237833B9044B13B10448AFF300800123AF
S1130120237010BDC010002000000000643D0000DA
S113013008B5034B1BB103490348AFF3008008BD66
S113014000000000C4100020643D0000A3F5803AC4
S1130150704700BF174B002B08BF134B9D46FFF79A
S1130160F5FF00218B460F461348144A121A03F078
S1130170BDFB0E4B002B00D098470D4B002B00D03D
S113018098470020002104000D000D48002802D0EB
S11301900C48AFF3008003F085FB2000290000F039
S11301A015F803F06BFB00BF00000800000000001E
S11301B00000000000100020C0100020A014002047
S11301C000000000000000007047704708B500F010
S11301D071FC00F00DFD02F005FBFFF7F5FF02F0E6
S11301E0F3FC02F00CFBFFF7F0FFFAE700F00AB9AA
S11301F008B50421112001F0F9F90948012100F0A2
S113020015FE0848022101F0F1F90748022101F026
S1130210EDF90648022101F0E9F9002008BD00BF0C
S113022030253E0002001E000300200005002400CB
S113023010B52748012100F0F9FD002301220D210A
S1130240052001F0DFFF002301220E21052001F02B
S1130250D9FF002301220F21052001F0D3FF012241
S113026011460023082001F0CDFF002301220221C2
S1130270082001F0C7FF002301220321082001F018
S1130280C1FF002318460122062101F0BBFF002311
S113029018460122072101F0B5FF01221046002370
S11302A0092101F0AFFF002301220421022001F003
S11302B0A9FF002301220521022001F0A3FFBDE8CC
S11302C01040002301220821032001F09BBF00BF3E
S11302D000350A0008B5224B01225A64214BD3F899
S11302E0FC20214B120E12D14AF6E851C3F89011AA
S11302F0D3F8981141F00401C3F89811C3F8902180
S1130300D3F8642142F40052C3F8642101E0012AC5
S1130310F6D0164A136A23F4441343F48813136281
S1130320A2F58042136843F48073136002F54052CF
S1130330D2F8A43143F4F843C2F8A43102F034FAF9
S113034000F078F802F0C0F902F0E2F902F018FACD
S1130350FFF74EFF02F0CEF9BDE8084000F05CB8AC
S113036000000E400081E00F00300E4000400E40BF
S113037008B500F097F9FFF75BFF00F0B9FA00F059
S11303800DF8BDE8084000F05BB800F039B87047DC
S113039070477047704770477047000030B585B0AC
S11303A049F64045002469460F4800958DF80440FD
S11303B000F008FA69460D4800F004FA69460C4852
S11303C000F000FA02A90B4802958DF80C4000F0E9
S11303D0F9F902A9084800F0F5F902A9074800F064
S11303E0F1F905B030BD00BF001000200810002056
S11303F010100020181000202010002028100020C9
S11304000F20704708B5002318460422052101F087
S1130410F9FE002008BD000008B50548012100F0E0
S113042005FDFFF7E3FEBDE8084000F019B800BF82
S113043000350A000148012100F0F8BC00350A002B
S1130440082000F087B90000014B1022DA607047E1
S113045000A00046014B1022DA60704700A000445F
S113046070B5384D384E0FCD88B001AC0FC495E847
S1130470070084E80700354C3548012100F0D6FC1C
S11304803046012100F0D2FC0125324B039301A92F
S113049020468DF8125002F0ADF82B4604220621B6
S11304A0022001F0AFFE2A4600230721022001F0BA
S11304B0A9FE2B4604220821022001F0A3FE0422F7
S11304C011462B46002001F09DFE234BA3670B230E
S11304D063674FF4487002F09DF91420FFF7BAFFE8
S11304E002F098F92320FFF7AFFF02F093F9B92146
S11304F02046FFF7AFFF02F0DDF8FFF7A5FF00236A
S11305001A460621022001F07DFE00231A46072127
S1130510022001F077FE2B4600220821022001F080
S113052071FE002210462B46042101F06BFE20468A
S113053002F018F80021A1673046616700F076FCEC
S113054008B070BD183900000052040000040140D6
S113055000350A0000127A000B0B000BFEE70000C6
S113056008B500F083F8124B12498B4212D3124B98
S1130570124900208B4218D3FFF7ECFD186850F89D
S11305802240586840F82240013298688242F5D3EC
S11305900C33EAE70022F8E71C6844F82200013231
S11305A05C68A242F8D30833E4E70022F8E700BF0E
S11305B06C3D0000783D0000783D0000783D00006F
S11305C00048704700F04902104AD2F8943003F012
S11305D00703023B032B13D8DFE803F00C14020ECD
S11305E00B4B1B68D2F80001C0F304200130B3FBAD
S11305F0F0F07047074BF4E7074B1B685B08F1E723
S1130600054BEEE74FF40043ECE700BF00400E401B
S11306103C100020341000203810002008B5FFF7EB
S1130620D3FF054BD3F80831C3F308230133B0FBE0
S1130630F3F0024B186008BD00400E40301000205B
S1130640014B1868704700BF34100020054B186038
S1130650054BD3F8943003F00703022B01D1FFF7C5
S1130660DDBF70473410002000400E40044B054AA3
S11306709A60D3F8882042F47002C3F88820704747
S113068000ED00E0000000004FF4004070474FF41C
S11306907A707047014B1868704700BF3C10002007
S11306A0FEE7000008B52248012100F0BFFB01234A
S11306B004220221052001F0A5FD002001F08CFD9B
S11306C01C4B0122C3F810281146042000F0FCFE44
S11306D0194800F039FD194BD3F8F02042F001021B
S11306E0C3F8F020D3F8FC2042F08072C3F8FC2059
S11306F0A3F55D43124A1A6000F5D520114B00F2B0
S1130700FC40B0FBF3F0104B013802221861C3F82F
S1130710F0204FF48072C3F804234FF060430B4A77
S1130720C3F8B02F0A4AC3F8802E002008BD00BFCA
S113073000350A000080144206000E0000ED00E0BF
S1130740FF030040F8590D00000004E055CEACC58D
S1130750090001004FF060420123D2F8001E03FAA1
S113076000F00843C2F8000E0020704708B50E4B95
S1130770984213D00DD8A3F50053984210D003F536
S1130780806398420ED009485B21FFF789FF11204E
S113079008BD074B9842F6D10648F9E70648F7E743
S11307A00648F5E70648F3E700A0014034390000A5
S11307B000A40140003204000022040000020400EE
S11307C0001204002DE9F043044689B000680D4688
S11307D0FFF7CCFF0121074600F028FB3348012135
S11307E000F024FB2B79A1796079042201F00AFD41
S11307F00023CDE90133039303238DF80A30012349
S11308008DF8093002238DF805302B792179206881
S11308105A1E5342534101AA8DF80E3001F032FEA4
S1130820D4F800802379E6794FEAC30901F070F81F
S1130830D8F8342006FA09F61F23564003FA09F3C0
S113084033405340C8F8343001F066F8384600F0BD
S11308507BFC2668164B2D68B0FBF5F09E4200F138
S1130860FF350BD003F580639E4207D0B5F5803F7A
S113087004D3104840F28941FFF712FFF561237950
S11308802568063305EB031300245C600D22214622
S113089004A803F02BF80123284604A98DF810308E
S11308A001F090FD204609B0BDE8F08300350A0050
S11308B000A001408539000070B50C4E04460125A6
S11308C004B970BD94FAA4F0B0FA80F006EB0012FB
S11308D005FA00F324EA03045368002BF0D0117BDB
S11308E011B191689847EBE79847E9E7DC100020DD
S11308F008B5122001F01CF828B1084B4FF48022EF
S1130900C3F880211A600A2001F012F828B1034BC1
S11309104FF48062C3F880211A6008BD00E100E052
S1130920054BD3F82804D3F81C24104000F05530AC
S1130930C3F82404FFF7C0BF00A00040054BD3F860
S11309402804D3F81C24104000F0AA30C3F824046F
S1130950FFF7B2BF00A000402DE9F0470027254C67
S11309600646B8464FF00109237F84F81D8053B131
S1130970D4E90001864278EB01030BD2801B61F1BC
S11309800001C4E900010137042F04F12804EBD16C
S1130990BDE8F087E37F33B92377A369002BF2D056
S11309A084F81D90EFE7D4E9025A301A61EB410153
S11309B02A46534602F0E0FD21696069AA1A6AEBEF
S11309C003030029C4E900230BDD01441D296161EF
S11309D0E3D9013243F100031E39C4E90023616104
S11309E0DBE7411A1D296161D7D9013A43F1FF338D
S11309F0F2E700BFF012002038B5074C0025637FF2
S1130A001BB1A369216A284698470135042D04F1D6
S1130A102804F4D138BD00BFF01200204FF0FF339A
S1130A20174A70B519460024157F3DB1D2E9006517
S1130A309E4275EB010C3CBF334629460134042C1D
S1130A4002F12802F0D10F4D0026B1F1FF3F08BF9B
S1130A50B3F1FF3F2E7012D00B4A10600B4A1462A0
S1130A606FF064049C4276EB010138BF23460344D3
S1130A70536501232B70536A43F00403536270BD22
S1130A80F0120020E4120020E012002000200440B4
S1130A90064B5A6A99690A40D20705D501221A629F
S1130AA0034A136801331360704700BF00200440F9
S1130AB09013002070B5204D2C78002C3AD11F489B
S1130AC01F4E012100F0B2F91E48022100F08EFDF4
S1130AD001211D48347100F0A9F9304601F028FCC9
S1130AE01A49012001F0F8FB194B5A6A22F4FF62FB
S1130AF022F007025A6240F2FF721A62154A9C60A1
S1130B004FF08041C2F8801111605A6A124842F0D5
S1130B1001025A622146A02202F0E8FE0F4B1C702B
S1130B200F4B1C700F4B1C600F4B1C600F4B1C6059
S1130B3001232B70002070BDE512002030253E00FB
S1130B404010002005002400A009140049100020D2
S1130B500020044000E100E0F0120020DC1200203C
S1130B60E4120020E81200209013002094130020C7
S1130B702DE9F8431A4C00F0D2FE636AA2691340CF
S1130B8023F005025B070646226222D5154FA568AD
S1130B90DFF85480DFF8549001233B70636A23F03C
S1130BA004036362D8F80000281AFFF7D5FEFFF7A4
S1130BB023FF2846FFF732FFD8F80020A568636DAD
S1130BC0A91A9B1A99F800200AB19942E6D2002387
S1130BD03B70FFF75DFF3046BDE8F84300F0A5BE6B
S1130BE000200440DC120020E0120020E412002067
S1130BF070B588B00D22294E294D002104A802F0B9
S1130C0075FE00240223012126488DF81010CDE939
S1130C10014403948DF80A3000F008F901AA214632
S1130C20304601F02FFC4FF6FF73F3618DF812404C
S1130C3004A9304601F0C6FB1B4800F085FA9DF874
S1130C401230D8400133DBB20A2B28608DF8123001
S1130C5002D8164B9842EBD81548164C00F074FA9B
S1130C602E68B4FBF0F400251348144A29460023E7
S1130C70E6FB040102F080FC114B084A1860114B9A
S1130C801D70936923F0100393610F4B4FF40062BE
S1130C90C3F880211A60284608B070BD0080014066
S1130CA098130020000204004041050080841E00C7
S1130CB07000020000B0710B20A1070040420F0039
S1130CC09C130020A013002000E100E0044BDA682C
S1130CD0D20604D510225A61024B01221A707047C1
S1130CE000800140A01300200C4B984210D90C4BFB
S1130CF0984210D9022201230A490B640A49D1F807
S1130D00003123F0807343EA0263C1F80031704775
S1130D1000221346F0E70122FBE700BF0048E80188
S1130D200090D0030000C84300400E4038B5114B7A
S1130D305B68114B00221C46C9B21D798D4202D159
S1130D401D68854212D20132052A03F10803F4D149
S1130D500A4841F2CE51FFF7A3FC032205494B6830
S1130D6023F0407343EA02634B6038BD04EBC202D4
S1130D705279F3E700000E409C3A0000D33900009A
S1130D801F2810B5044604D903484FF4B371FFF784
S1130D9087FC0120A04010BD1F3A000070B5084C2C
S1130DA041F67136256C2664FFF70AFC0021FFF733
S1130DB0BDFFADB2B5421CBF0023236470BD00BFAC
S1130DC000000E40044BDB6B5B0604D4034AD2F8EC
S1130DD0C830002BFBD1704700300E400000C643E2
S1130DE008B5FFF7EFFF024B5868C0F3014008BD98
S1130DF000300E40044BD3F84421D20703D4D3F877
S1130E0040211042FBD1704700400E4070B5064CA3
S1130E1041F67136256C2664FFF788FFADB2B54202
S1130E201CBF0023236470BD00000E4038B5C0F31E
S1130E300323013B092B24D8DFE803F02A2D2323C5
S1130E40051619231C20154C0023C0F3043513B1D7
S1130E501846FFF7CFFF04F1424404F5801405EB74
S1130E60C404A400216038BD0D4C0123EDE70D4CF2
S1130E701023EAE70C4C4FF48033E6E70B4C0023D5
S1130E80E3E7BDE838400A4841F66A31FFF708BC99
S1130E90084C0023D9E7084C0023D6E7B0400E40A5
S1130EA0E0400E40E8400E40F0400E4050410E40FD
S1130EB0D339000000400E40C0400E4008B5C0F3D6
S1130EC00313013B092B60D8DFE803F0050B0F196E
S1130ED05F5F1F233C532E4BD3F80001C0F3042063
S1130EE008BD2B4BD3F81401F8E7294BD3F80001C4
S1130EF0C0F300600130FFF743FF0138F0E7244BF3
S1130F00D3F80C01C0F30820EAE7214BD3F8080119
S1130F10F8E7204B984209D01F4B98420CD041F679
S1130F200E511E48FFF7BCFB0020D9E7184BD3F83D
S1130F30200100F00F00DEE7154BD3F82001C0F3C9
S1130F400110D8E7164B984208D003F5B01303F507
S1130F508053984206D041F63251E2E70C4BD3F865
S1130F602801ECE70A4BD3F82801C0F30120043030
S1130F70C1E70C4B984205D1054BD3F8300100F082
S1130F800300ADE741F64151CBE741F66651C8E7AE
S1130F9000400E408006160080162E00D339000053
S1130FA090171A00A009140008B5FFF787FF013055
S1130FB008BD000000F00F00013808B5072844D828
S1130FC0DFE800F0040F1943232D4335264BD3F8F3
S1130FD0943003F00703023B052B3DD8234AD05C31
S1130FE008BD214BD3F8803003F00703013B032BEA
S1130FF034D81F4AF3E71C4BD3F8843003F00703BB
S1131000013B032B2AD81B4AE9E7174BD3F8883056
S113101003F00703013B032B20D8174ADFE7124BE9
S11310201B6F13F0010F0CBF07200920D8E70E4BEC
S1131030D3F85C3103F03003202B11D0302B11D0C6
S1131040102B14BF01200720CAE70C4842F2BB0151
S1131050FFF726FB0020C3E70520C1E70120BFE717
S11310600420BDE70820BBE700400E406F3A0000B3
S1131070753A0000793A0000753A0000D33900004F
S113108038B52C4B984205460AD02B4B984207D0D2
S11310902A4B984204D02A4841F2CD61FFF700FB65
S11310A02846FFF787FF234B9D42044611D0224B6D
S11310B09D4212D0214B9D4213D1224BD3F8804044
S11310C004F00704042C2DD8DFE804F02A11151DC0
S11310D019001C4BD3F88440F2E71A4BD3F888402C
S11310E0EEE7174841F2FC61FFF7DAFAEAE7BDE8F8
S11310F03840FFF7C9BABDE83840FFF7CBBABDE8BE
S11311003840FFF7C4BAFFF75FFA0E4B0446D3F832
S11311100001C0F300600130FFF732FEB4FBF0F4CD
S1131120204638BD064841F24E71FFF7B9FA002453
S1131130F6E700BF030020000500240002001E00A3
S1131140D339000000400E4038B500F47813B3F5ED
S1131150B01F05467FD02ED8B3F5402F69D011D8E3
S1131160B3F5802F54D006D843B1B3F5003F5AD01D
S113117041F69A411AE0B3F5202FF9D1BDE8384081
S1131180FFF722BAB3F5801F00F0A280B3F5A01FC9
S113119057D0B3F5602FEBD15B48FFF70BFF07285F
S11311A000F096800928E9D041F290415748FFF7B2
S11311B077FA002036E0B3F5381F5AD013D8B3F5C8
S11311C0001F5FD00AD8B3F5D01F5DD0B3F5F01F70
S11311D0CED14F48BDE83840FFF752BFB3F5101FDA
S11311E0C6D14C48F6E7B3F5481F57D0B3F5781F7E
S11311F000F08280B3F5401FBAD14748FFF740FFA3
S1131200464B0446D3F82801C0F3012004302BE0F8
S1131210FFF7DAF9414BD3F80C31C3F30823013358
S1131220B0FBF3F038BDFFF7CFF93C4BD3F80831EE
S1131230F3E7FFF7C9F9394BD3F81431C3F30423A7
S1131240EDE73448FFF71CFF344BD3F8303103F09B
S11312500303D840E6E72E48FFF712FF2F4B04465E
S1131260D3F8200100F00F00FFF78AFDB4FBF0F083
S1131270D8E72748FFF704FF284BD3F82031C3F3FE
S11312800113E6E72448A5E72348FFF7F9FE234BBB
S11312900446D3F82801C0F30110E5E72048FFF71E
S11312A089FE0138072824D801A353F820F000BF91
S11312B0B3110000F3120000F3120000D712000073
S11312C0F3120000F3120000D1120000DF1200003C
S11312D0144B1868A6E7BDE83840FFF7B1B9FFF72B
S11312E073F90E4BD3F80031C3F3042303FB00005E
S11312F098E741F2C74159E7FFF766F904462846E3
S1131300FFF752FEB2E700BF06000E00D33900001B
S113131002001E00050024000300200000400E40CF
S1131320B800320050100020014B1880704700BFF5
S113133054100020013838B50C46032864D8DFE87F
S113134000F002441A2FB1F5007F04D3324842F66C
S1131350BB01FFF7A5F9314AC4F30804D2F8683891
S1131360002BFBD12E4A136A23F4FF7323F00103ED
S11313702343136238BD7F2904D9274842F6C801A4
S1131380FFF78EF9254A04F07F01D2F86038002B6C
S1131390FBD1234B1C6924F07F040C431C61E9E757
S11313A07F2904D91C4842F6E301FFF779F91B4A67
S11313B004F07F01D2F86438002BFBD1184B9C69F0
S11313C024F07F040C439C61D4E7154DD5F890308C
S11313D05B0704D5104842F6F301FFF761F96B6A25
S11313E023F0300343F010036B62C4F3C311CB1C2E
S11313F02A6B0C490F2B01EA020128BF0F2321435A
S113140041EA03712963B5E7BDE83840024842F672
S11314100D11FFF745B900BFD33900000020C843C0
S113142000400E4000F8FF0F022810B50C4604D00F
S1131430144842F62511FFF733F9134B5B6A13F096
S1131440300F1BD0202C16D0302C17D0B4B10D483F
S11314504FF42551FFF724F90C4B0B4AD2F89010A6
S113146033EA0101FAD15B024ABFD2F8A00001209D
S1131470C0F3802010BD4FF40003EEE74FF44003A7
S1131480EBE700BFD339000000400E40FF33E10713
S1131490022808B50CD129B1094B4FF48060C3F878
S11314A0A80059664AB1BDE808400220FFF7BCBF56
S11314B0044842F67611FFF7F3F8012008BD00BF97
S11314C000400E40D339000004282DE9F0470446BB
S11314D00F4691461FD83D4B3D4A13F800A03D4BA3
S11314E013F80080F1B93C4B33F810301366012334
S11314F003FA08F8D2F8903013EA080FFAD1B9F1D8
S1131500000F5AD00125324A05FA0AF5D2F8903074
S11315102B42FBD151E0BDE8F047304842F60A01C6
S1131520FFF7BEB82E4B022833F8106047D1536A38
S113153013F0300F43D12B4BDB6B5A0504D42748EF
S113154042F61901FFF7ACF8214A536ADB0705D5C7
S1131550536A23F0300343F010035362224D1C4BB3
S1131560A8441E664FEA8808D8F80030002BFBD048
S1131570B9F1000F21D05544AD002B68002BFCD0ED
S1131580022C1AD1CFB1124F796A11F0010118D08F
S1131590012220212046FFF77BFFD7F89C4001223F
S11315A000210220FFF790FFC4F30A010220FFF795
S11315B0C1FE3E662B68002BFCD0BDE8F0870027F7
S11315C0CCE72046FFF730FFE7E700BF7D3A000095
S11315D000400E40823A0000923A0000D3390000E5
S11315E0883A000000300E408004F210112838B50B
S11315F00C460FD000F00F000138072800F2EB80F2
S1131600DFE810F0240066009A00E9007D00B400D1
S1131610E900C200042912D1FFF712F80546A8B167
S11316200021284600F0AEFA023C0A2C45D8DFE837
S113163004F04A473137444444443D0F4D000529E2
S113164004D1664B1D68664B9D42E9D80025EBE743
S11316500320052401221146FFF736FFFFF79EFB06
S11316600DB1FFF7AFFB5F4B5C67FEF7D7FF044696
S1131670FEF7AAFFFFF738FBFFF7B2FB014620464F
S1131680FFF7C4FB002D5DD128460121BDE8384099
S113169000F078BA5448FFF727FB02200446D9E744
S11316A05148FFF721FB01240320D3E742F27C11C8
S11316B0BDE838404D48FEF7F3BF42F28111F7E729
S11316C001200324C6E700200424C3E70724C5E758
S11316D0062933D14548464D4FF40751FEF7E0FF44
S11316E0424842F2D011FEF7DBFFFEF76DFFFFF731
S11316F0FBFA404B0122C3F80826032321E0062904
S11317003D4DEDD0013C092C2BD801A353F824F016
S11317106917000047170000551700006317000001
S113172063170000EB160000631700006317000046
S11317306317000041170000304DE3E72C4DE1E74B
S113174004232B6038BD012211460020FFF7BCFEA4
S11317500223F6E7012211461046FFF7B5FE0123E6
S1131760EFE742F2FB11A3E70023EAE7072904D0DD
S1131770092906D042F285219AE71A4B00221A67FA
S1131780E0E7184B0122FAE74C1E072C1ED8DFE8CD
S113179004F0201D1D161D1D0F0403221149D1F84C
S11317A05C3123F0300343EA0213C1F85C31C9E72A
S11317B0012211460420FFF787FE0122EEE70122F1
S11317C011460220FFF780FE0222E7E742F2E321FE
S11317D06EE70022E2E742F2BA3169E738100020EE
S11317E0002D310100400E400148E801D3390000CA
S11317F080400E400010C84388400E4084400E4094
S113180010B504461120FFF7D5FB042804D127485E
S113181042F2A561FEF744FF012200210220FFF7F6
S113182053FE63781BB9A3780BB9E37823B11F483F
S113183042F2E161FEF734FF237C012B04D11B4803
S113184042F2E861FEF72CFF194A217C536A23F027
S11318500103022908BF43F001035362154B2178A9
S1131860C3F8A014637AA18843EAC123D362136B3B
S1131870A07A217A03F07F630343E08843EAC0231C
S113188043EAC11303310F2928BF0F2143EA01732F
S11318901363A37B617B1B0143EA0133E17B0B43AD
S11318A0217B43EA0143536310BD00BFD3390000D9
S11318B000400E400000C84370B505461120FFF7F4
S11318C079FB022804D10F4842F26371FEF7E8FE67
S11318D00D4E0E4BB26B2C7813401C436B7844EACC
S11318E0C324AB7844EA0364EB7844EA0324B36B7F
S11318F0A34205D0002101220846FFF7E5FDB463A9
S113190070BD00BFD339000000400E4080E4FFF8F2
S1131910EFF3108072B6704700B962B67047EFF308
S11319201180602383F31188704780F31188704716
S113193038B5C5B2322D044604D9084840F21F31E7
S1131940FEF7AEFE064B640905F01F0553F82400AC
S1131950E840C04300F0010038BD00BFC43A0000B5
S113196000E100E0034BD86B80F04000C0F380102E
S1131970704700BF00300E4038B542EA0323B3F588
S1131980007F05460C463ED019D8B3F5807F36D08B
S11319900AD883B3012B21D01F4840F6F211FEF779
S11319A07FFE002213461FE040F201129342F3D15E
S11319B01A4BD3F824321A0EC3F3074314E0B3F5D9
S11319C0407F24D040F20132934210D040F20122F1
S11319D09342E1D1114BD3F8283202E00F4BD3F8F4
S11319E02432C3F30722DBB22B60226038BD0B4BD9
S11319F0D3F82832DFE7094BD3F81C32F1E7074B61
S1131A00D3F81C32D7E7054BD3F82032E9E7034B70
S1131A10D3F82032CFE700BF113B00000081E00F74
S1131A2008B5FFF79FFF20B1024AD2F8C830002B57
S1131A30FBD108BD0000C6431A4B022810B5D3F8E9
S1131A4030320C4612D0032813D0012814BFDBB265
S1131A50C3F307231B0323F47042ECB95AB140F6D5
S1131A6081111148FEF71CFE002010BDC3F307438B
S1131A70F0E71B0EEEE70D49CA6E22F470421343E1
S1131A80CB660120F1E70949D1F8EC2022F4704239
S1131A901343C1F8EC30F4E7002AF4D040F68D117A
S1131AA0DFE700BF0081E00F113B000000300E4073
S1131AB00378134A002B437870B514BF042600261C
S1131AC0002B8378946914BF02250025002B037929
S1131AD024F03F0443EA0403C47814BF082100211E
S1131AE0012C08BF43F0010333432B430B439361A1
S1131AF01368417923F4403343EA0143136070BD12
S1131B0000300E40F8B504460F46FFF72BFF78B3BC
S1131B10FFF786FF174B5B68C3F301439C4227D052
S1131B20154BD3F80061FEF74FFD022C05460FD18B
S1131B30124BC6F3042606FB00069E4204D9104845
S1131B404FF4E361FEF7ACFD02212846FFF75EF98E
S1131B50C4F1020210239340064A13610FB1FFF748
S1131B605FFF2CB921462846BDE8F840FFF74EB97F
S1131B70F8BD00BF00300E4000400E40002D310182
S1131B80113B000013B50246FFF7ECFEC8B152B991
S1131B900D4B0191D3F80041FEF716FDC4F3042266
S1131BA0019902FB0002094B1B7843B1084B9A428E
S1131BB005D8022002B0BDE81040FFF7A3BF002003
S1131BC0F8E702B010BD00BF00400E40A81300208B
S1131BD0002D3101224B4AF6E85210B5596B5A6375
S1131BE09A6FD207FCD41B6C13F003031EBF1D4A6B
S1131BF00124C2F8B44A834204D110B9194BC3F882
S1131C00B40A10BD032B00D09BB9431E012B10D87E
S1131C10134A4FF40023D362936FDB07FCD4136C95
S1131C2023F0030343F0010313640D4A536A1C03B6
S1131C30FCD50B4B9A6FD207FCD41A6C22F003022A
S1131C4002431A649A6F12F00102FBD10038054C6A
S1131C5018BF01200129C4F8B40A08BF5A63D0E7A9
S1131C6000300E400000C6432DE9F04FA0F5E163BB
S1131C7089B00024B3F5966FCDE90244CDE904445C
S1131C80CDE9064406468A46934605D940F67B319B
S1131C905548FEF705FDA3E0B0F5E16F534B8CBF4B
S1131CA00122002249D1D3F81832C3F30721DBB251
S1131CB0079104934FF416754FF4966748E0BBF10F
S1131CC0000F0ED0D9F85C2022F4FE4222F002026A
S1131CD0B6F5E16F42EA012218BF02200243C9F8B7
S1131CE05C20BAF1000F26D020460021FFF7A4FEA5
S1131CF0044610B940F6D831CAE701214046FFF73F
S1131D009BFE044610B94FF43E61C1E7384A536E56
S1131D10BD4238BF3D4623F4FF73E72D23F0010392
S1131D2028BFE725B6F5E16F18BF43F0010343EA86
S1131D304503536654E0012452E0D3F81832190ED7
S1131D40C3F30743079104934FF496654FF4E16797
S1131D50DFF89C90D9F84C400192C4F301742346F7
S1131D6005A902A8FFF708FED9F8EC30019AC3F3DD
S1131D700128434606A903A8FFF7FEFD049BF01BB8
S1131D80079FF91A4143B1FBF5F299182CBF0123BF
S1131D9000238F421ED3EBB9069A039FD31B434300
S1131DA0B3FBF5F3FF182CBF01230023BA4211D370
S1131DB083B9059B029AA3EB020C00FB0CF0B0FB69
S1131DC0F5F555192CBF01200020AB4202D30028A1
S1131DD03FF475AF044840F6C931FEF761FC0024B6
S1131DE0204609B0BDE8F08F113B00000081E00FF0
S1131DF000300E40334A08B5136FD16C11F0010F57
S1131E0003F0060344D0002B42D0132857D91438CA
S1131E1013288CBF102308232A49013BCA6C1803DA
S1131E2022F47F4240EA03231343CB64264BCA6C5B
S1131E301B88C2F303222833013202EB820003EB36
S1131E405303B3FBF0F3C86C013B072B28BF0723F4
S1131E5020F0EE6040EA036343F48013CB641B4B31
S1131E60B3F90030002B12DB03F12800C0F34E035A
S1131E700344500800EB4202B3FBF2F20B6D072A55
S1131E8028BF072223F0700343EA02120A6508BD43
S1131E90D16C01F00101194304D109280FD90A3882
S1131EA00928B6E7D26CD20702D50BB92728B0E7C8
S1131EB0074840F61E41FEF7F3FB0023ACE704237A
S1131EC0AAE700BF00300E40A4130020A613002090
S1131ED0113B00000C4BD3F8803910B5044633B9DC
S1131EE0012804D9094840F63C41FEF7D9FB084AC9
S1131EF0136F23F0070323431367064BBDE8104019
S1131F001888FFF777BF00BF0000C643113B0000ED
S1131F1000300E40A213002038B55A4B02229A63B7
S1131F209B6B03F00F039342044607D0564840F6D8
S1131F301621FEF7B5FB0025284638BD0389C82BBA
S1131F4004D951484FF42261FEF7AAFBA2882389E1
S1131F509A4204D94C4840F62121FEF7A1FBB4F97A
S1131F600C30C82B04DD484840F62221FEF798FBCC
S1131F706378012B55D1A388C82B04D940F62621B8
S1131F804148FEF78DFBE28842F210739A4204D96D
S1131F903D4840F63321FEF783FBE3884A2B48D9BA
S1131FA0B3F5FA7F47D340F6C312934294BF4FF080
S1131FB000524FF040523349B4F90C00CB6C23F07B
S1131FC0405323F001030028A8BF43F00103134347
S1131FD0CB64D1F8EC30A28843F44073C1F8EC3000
S1131FE02A4B1A80CB6E43F08073CB66284BD3F810
S1131FF0800900B10420FFF76DFF264B2189198069
S1132000254BB4F90C20A0881A80FFF7F3FEA37BBC
S1132010A3B1012B22D01C4840F63211FEF740FB3D
S11320200FE0022BAFD1A3880A2BACD940F62B21A9
S1132030A6E70022BFE74FF08052BCE7114B174AD6
S11320409A65012260881146FFF70EFE054640B9E5
S11320500D4840F66A21FEF723FB6DE7094B104A51
S1132060EEE7084AD36B43F48063D3636078FFF7E9
S1132070B1FDA37AA3F1200253425341044AC2F8AA
S1132080943759E700300E40113B0000A2130020A2
S11320900000C643A4130020A61300207740205755
S11320A0372110B738B50D46044640B3012829D06E
S11320B002282AD003282BD004280ED005282AD0A1
S11320C0831F012B09D9082828D0092828D00A28D9
S11320D003D10723EB40DB0704D4134840F22D411E
S11320E0FEF7DEFA30200C2310FB043404F18C4498
S11320F0012104F5204401FA05F5256038BD40F2BC
S1132100FF33E7E74FF6C073E4E740F6FF73E1E718
S11321104FF47F43DEE74FF6FF73DBE70F23D9E786
S11321204FF44043D6E700BF5D3B000038B50D4691
S1132130044640B3012829D002282AD003282BD0F2
S113214004280ED005282AD0831F012B09D908287A
S113215028D0092828D00A2803D10723EB40DB071D
S113216004D4134840F2FE31FEF79AFA30200C23CF
S113217010FB043404F18844012104F5204401FADD
S113218005F5256038BD40F2FF33E7E74FF6C0732D
S1132190E4E740F6FF73E1E74FF47F43DEE74FF6F1
S11321A0FF73DBE70F23D9E74FF44043D6E700BFC3
S11321B05D3B000070B505460E461446FFF7A8FBCC
S11321C0296881EA040202EA06044C402C60BDE856
S11321D07040FFF7A1BB00001F2810B5044603D9C7
S11321E006485221FEF75CFA054AD2F8443423F03B
S11321F003032343C2F8443410BD00BFAA3B0000CC
S113220000A00040F8B50D4616461F460446C8B364
S113221001283AD002283BD003283CD004280ED011
S113222005283BD0831F012B09D9082839D0092858
S113223039D00A2803D10721E940CB0704D4234825
S11322404FF4B071FEF72CFA26B1294620466FB33D
S1132250FFF728FF04EB4403072D4FEA03134FF065
S11322600F0126D8A80006FA00F281401848184445
S1132270FFF7A0FF4EBB2946204617B3BDE8F84040
S1132280FFF710BF40F2FF31D6E74FF6C071D3E736
S113229040F6FF71D0E74FF47F41CDE74FF6FF7171
S11322A0CAE70F21C8E74FF44041C5E7FFF73EFFF7
S11322B0D0E7A5F10800800006FA00F28140054845
S11322C0D5E7BDE8F840FFF731BFF8BDAA3B0000F1
S11322D004A0004008A00040022838B504460D467A
S11322E003D911484C21FEF7DBF96B791F2B03D975
S11322F00D484F21FEF7D4F9AB786A789B0143EA85
S113230082032A781343EA7843EA02132A7943EAD8
S1132310C2236A7943EA0233AA79043443EA424382
S11323202401024A135138BDF73B00000020044049
S1132330427801790378002A827870B514BF0426A4
S11323400026002AC27814BF10250025002A4279ED
S11323504FEA023242EA012242EA0302837914BFBD
S113236020240024002BC37942EA034343EA0603F2
S1132370027A43EA050314BF4FF4004100212343CA
S1132380002A14BF4FF4003200220B431343014AC6
S1132390136070BD00200440094B98420DD003F532
S11323A08063984209D003F5E053984205D003F5C1
S11323B08063C31A5842584170470120704700BFD8
S11323C0008001402DE9F84F05460C46FFF7E4FF75
S11323D018B92B48A521FEF763F9217809B902231E
S11323E06B60607800236B620028E278607AA378DF
S11323F094F808B094F806A094F8079014BF4FF02E
S113240040084FF0000812040028A07A42EA03634F
S113241014BF4FF0800E4FF0000E43EA0B03002868
S1132420E07A43EA8A2314BF4FF0200C4FF0000CEB
S113243043EA09230028207B43EA080314BF10273A
S1132440002743EA0E0300282079647943EA0C0349
S113245014BF082600263B43002814BF4FF4005045
S113246000203343002C14BF4FF080540024034356
S113247023432B6009B101236B60BDE8F88F00BFD3
S1132480443C0000F8B505460C461646FFF784FFA9
S113249018B92048F521FEF703F9032C03D91D4888
S11324A0F621FEF7FDF8737832781B0643EA82635F
S11324B0B2791343B27843EA0243F27843EA02332F
S11324C0327943EA8223727943EA0223F279002AB9
S11324D0327A14BF4FF080470027002A727A14BF63
S11324E04FF000500020002AB27AF67A43EA0673CD
S11324F043EA070314BF102100210343002A04F117
S1132500060414BF042200220B43240113432B515D
S1132510F8BD00BF443C000070B506460C461546A5
S113252022B90D4840F28E21FEF7BAF81CB90B48C7
S1132530FEF70AFE04460A4B6D00013CB4FBF5F4B9
S113254013EA04234FEA042504D0034840F2B321DC
S1132550FEF7A6F8756170BD923C0000404105008D
S1132560070080FF38B51E4B1E4D984204460ED01E
S1132570A8420CD003F50063984208D003F58063A9
S1132580984204D0184840F24241FEF789F840F6D8
S1132590AA63E36041F20502002323606260134AE8
S11325A0A3606361E364A26423666367A367E3676C
S11325B00B4B9C4209D0AC4207D003F500639C420C
S11325C003D003F580639C4201D1002323650023DB
S11325D0AC42A36502D0064A944200D1E36538BDFB
S11325E00000014000040140923C0000F9FF01009A
S11325F0000C014038B52D4B984204460D4610D0CE
S113260003F5806398420CD003F58063984208D0A8
S113261003F58063984204D0254840F26931FEF7FF
S11326203FF82046FFF79EFFA97B2A8A23680029EA
S113263042F0010214BF4FF48061002113430B43A5
S11326402A7D23602368002A14BF4FF00052002221
S113265013432360AB7C1BB1EB7C43F08003A36585
S11326602B7B43F480536360D5E901122046FFF7C6
S113267053FF6B7B0BB11023E3606B7D1BB12368AD
S113268043F480332360AB7D1BB1236843F40043E0
S11326902360EB7D2A7E1B07120503F0E04302F45E
S11326A0E002134323662B78E36038BD0000014049
S11326B0923C000003695A06FCD5416303699B06FA
S11326C0FCD5C069C0B270477FB5094B6A4603F1B7
S11326D01006154618685968144603C40833B342F3
S11326E02246F7D12846FFF717FC002004B070BD3E
S11326F0E03C000013B502230024684600948DF8E2
S113270004408DF80530FFF7D3F9204602B010BD20
S113271070B5174B86B001AA03F110061546186868
S11327205968144603C40833B3422246F7D11B88C0
S11327302380104BD3F8B42012030ED4D3F8B8304E
S1132740C3F308030C48ADF80A30FDF77FFF2846B1
S1132750FFF756F8002006B070BD084B1A884FF6F4
S1132760FF7140F243138A4218BF1346EAE700BFE1
S1132770F03C00000081E00F00F049020001E00F8E
S113278007B5084B18680190202301A88DF8043080
S1132790FFF792F86420FEF7C7FD002003B05DF850
S11327A004FB00BF023D000010B50C480C4C6FF058
S11327B00402A02112F0800FD3B21BBF03F00F0359
S11327C0043BA3181B1802F101020CBF83F8001389
S11327D01976332AEED1002010BD00BF00ED00E0D1
S11327E000E100E008B5FDF775FDFDF7C1FDFDF75B
S11327F0CCFDFDF7CCFDBDE80840FDF7C9BD08B52B
S1132800FDF7C7FDFDF7C6FDFDF7C5FDBDE80840B2
S1132810FDF7C2BD10B50446FDF700FF4FF47A7210
S11328209042B0FBF2F105D23621BDE810400B48CE
S1132830FDF736BF0A4BB3FBF1F30A49884201D9CD
S11328403C21F2E702FB04F0B0FBF3F0032804D9C7
S1132850BDE81040800800F00BB810BD063D000034
S113286040420F00E7CD9A3B00000000000000004A
S1132870013800D0FCE77047044A602303FB0023BF
S11328801A7E0AB100F058B95A767047E013002056
S113289038B50C460546F0B101281FD0022820D0D7
S11328A0032821D0042804D04FF6FF73E340DB074C
S11328B004D40F4840F2CF31FDF7F2FE30201C2340
S11328C010FB053505F1047505F5204504EBC50439
S11328D0A400206838BD40F2FF33E7E74FF6C07329
S11328E0E4E740F6FF73E1E74FF47F43DEE700BF20
S11328F05D3B000038B5264C054668B301283BD142
S113290008210320FFF7C4FF062184F86200002099
S1132910FFF7BEFF072184F863000020FFF7B8FF2C
S113292084F86100602202FB0542937851785B00D1
S113293043EA8103D1780B43164903F007034B554F
S1132940117E01291AD8144903EB4303C818C95A44
S113295083781182937438BD0F210520FFF798FF07
S11329600E21A0700520FFF793FF0D21E0700520D4
S1132970FFF78EFF6070D5E700BED3E70229EAD1E6
S1132980054903EB43030B44198B9B7EE1E700BF2E
S1132990E0130020A9130020AB1300200000000066
S11329A02DE970432C4D602404FB005494ED107AFF
S11329B0D4ED127A77EE677A2DED028B064617EE88
S11329C0900A00F077FA20A3D3E9002380468946D1
S11329D000F0C8FA00F080FD1DA3D3E900234946A6
S11329E008EE100A404600F0BDFA8046206A894687
S11329F000F060FA02460B464046494600F0FCF8F7
S1132A0000F06AFD9FED157A07EE900AF4EEC77A9E
S1132A10F1EE10FA15DC9FED127AF4EE477AF1EE3E
S1132A2010FA48BFF0EE477A602000FB0655C5ED6A
S1132A30087A77EE887ABDEC028B17EE900ABDE82F
S1132A407083F0EE477AEFE79A9999999999B93F8B
S1132A507B14AE47E17A843FE01300200000C842B3
S1132A600000C8C2000000002DE970431C4C602621
S1132A7006FB00462DED028B96ED0A8A054618EEFC
S1132A80100A00F017FA12A3D3E9002380468946FE
S1132A9000F0DAFC68B110A3D3E9002340464946AC
S1132AA000F0F0FC28B100233376BDEC028BBDE8C6
S1132AB07083B5EEC08A6020F1EE10FA00FB054485
S1132AC0CCBF012302232376EFE700BFAFF30080DE
S1132AD0F168E388B5F8E43EF168E388B5F8E4BE4C
S1132AE0E013002010B50849602358430A1893786E
S1132AF05478D2785B0043EA8403134303F007035A
S1132B00013B0B5410BD00BFE013002010B5044678
S1132B10FFF746FF064A602303FB0423D3ED107A34
S1132B2007EE100A77EE877AC3ED117A10BD00BF65
S1132B30E0130020000000001D4B10B5602404FBCE
S1132B400034D4ED097AF0EEE77A17EE900A00F03B
S1132B50B1F9184B002200F005FA174B002200F0DF
S1132B6001FA00F0B9FCDFED157A07EE100AC7EEA2
S1132B70277A17EE900A00F09DF90BA3D3E90023FE
S1132B8000F01AFB00F0A8FC00F094F90C4B0022B2
S1132B9000F012FB0B4B002200F0E4F900F07CFC87
S1132BA0607610BDAFF3008086C954C1A8A4DE3F8F
S1132BB0E01300200000314000004E400000C345F7
S1132BC0000028400000594008B50120FFF792FE9C
S1132BD00120FFF787FF0120FFF798FF0120FFF78F
S1132BE043FFBDE808400120FFF746BE81F00041E5
S1132BF002E000BF83F0004330B54FEA41044FEADE
S1132C00430594EA050F08BF90EA020F1FBF54EA78
S1132C10000C55EA020C7FEA645C7FEA655C00F014
S1132C20E2804FEA5454D4EB5555B8BF6D420CDDE5
S1132C302C4480EA020281EA030382EA000083EA68
S1132C40010180EA020281EA0303362D88BF30BD08
S1132C5011F0004F4FEA01314FF4801C4CEA11315E
S1132C6002D0404261EB410113F0004F4FEA0333BD
S1132C704CEA133302D0524263EB430394EA050F48
S1132C8000F0A780A4F10104D5F1200E0DDB02FAB7
S1132C900EFC22FA05F2801841F1000103FA0EF24B
S1132CA0801843FA05F359410EE0A5F120050EF111
S1132CB0200E012A03FA0EFC28BF4CF0020C43FA42
S1132CC005F3C01851EBE37101F0004507D54FF04F
S1132CD0000EDCF1000C7EEB00006EEB0101B1F59F
S1132CE0801F1BD3B1F5001F0CD349085FEA3000E5
S1132CF04FEA3C0C04F101044FEA445212F5800FF0
S1132D0080F09A80BCF1004F08BF5FEA500C50F18C
S1132D10000041EB045141EA050130BD5FEA4C0C6F
S1132D20404141EB0101013C28BFB1F5801FE9D2CC
S1132D3091F0000F04BF01460020B1FA81F308BFEF
S1132D402033A3F10B03B3F120020CDA0C3208DDBB
S1132D5002F1140CC2F10C0201FA0CF021FA02F196
S1132D600CE002F11402D8BFC2F1200C01FA02F106
S1132D7020FA0CFCDCBF41EA0C019040E41AA2BF2B
S1132D8001EB0451294330BD6FEA04041F3C1CDAF3
S1132D900C340EDC04F11404C4F1200220FA04F013
S1132DA001FA02F340EA030021FA04F345EA0301BD
S1132DB030BDC4F10C04C4F1200220FA02F001FA7F
S1132DC004F340EA0300294630BD21FA04F0294601
S1132DD030BD94F0000F83F4801306BF81F480119A
S1132DE00134013D4EE77FEA645C18BF7FEA655C0D
S1132DF029D094EA050F08BF90EA020F05D054EADF
S1132E00000C04BF1946104630BD91EA030F1EBFE3
S1132E100021002030BD5FEA545C05D140004941E7
S1132E2028BF41F0004130BD14F580043CBF01F5DA
S1132E30801130BD01F0004545F0FE4141F47001C0
S1132E404FF0000030BD7FEA645C1ABF194610469B
S1132E507FEA655C1CBF0B46024650EA013406BF9C
S1132E6052EA033591EA030F41F4002130BD00BF5B
S1132E7090F0000F04BF0021704730B54FF4806418
S1132E8004F132044FF000054FF0000150E700BF99
S1132E9090F0000F04BF0021704730B54FF48064F8
S1132EA004F1320410F0004548BF40424FF00001E5
S1132EB03EE700BF42004FEAE2014FEA31014FEA28
S1132EC002701FBF12F07F4393F07F4F81F0605177
S1132ED0704732F07F4208BF704793F07F4F04BFC2
S1132EE041F40021704730B54FF4607401F000459F
S1132EF021F000411CE700BF50EA010208BF7047FF
S1132F0030B54FF000050AE050EA010208BF7047EF
S1132F1030B511F0004502D5404261EB41014FF458
S1132F20806404F132045FEA915C3FF4D8AE4FF060
S1132F3003025FEADC0C18BF03325FEADC0C18BF43
S1132F40033202EBDC02C2F1200300FA03FC20FA94
S1132F5002F001FA03FE40EA0E0021FA02F11444E1
S1132F60BDE600BF70B54FF0FF0C4CF4E06C1CEAFA
S1132F7011541DBF1CEA135594EA0C0F95EA0C0F6B
S1132F8000F0DEF82C4481EA030621EA4C5123EADE
S1132F904C5350EA013518BF52EA033541F480110D
S1132FA043F4801338D0A0FB02CE4FF00005E1FBC0
S1132FB002E506F00042E0FB03E54FF00006E1FB0A
S1132FC003569CF0000F18BF4EF0010EA4F1FF044D
S1132FD0B6F5007F64F5407404D25FEA4E0E6D418D
S1132FE046EB060642EAC62141EA55514FEAC5209E
S1132FF040EA5E504FEACE2EB4F1FD0C88BFBCF51A
S1133000E06F1ED8BEF1004F08BF5FEA500E50F1CA
S1133010000041EB045170BD06F0004646EA010190
S113302040EA020081EA0301B4EB5C04C2BFD4EBC2
S11330300C0541EA045170BD41F480114FF0000EBB
S1133040013C00F3AB8014F1360FDEBF002001F029
S1133050004170BDC4F10004203C35DA0C341BDCA3
S113306004F11404C4F1200500FA05F320FA04F075
S113307001FA05F240EA020001F0004221F00041A9
S113308010EBD37021FA04F642EB06015EEA430E1C
S113309008BF20EAD37070BDC4F10C04C4F120054C
S11330A000FA04F320FA05F001FA04F240EA0200FF
S11330B001F0004110EBD37041F100015EEA430ED0
S11330C008BF20EAD37070BDC4F1200500FA05F2F0
S11330D04EEA020E20FA04F301FA05F243EA02036F
S11330E021FA04F001F0004121FA04F220EA02007E
S11330F000EBD3705EEA430E08BF20EAD37070BDC4
S113310094F0000F0FD101F00046400041EB0101A3
S113311011F4801F08BF013CF7D041EA060195F085
S1133120000F18BF704703F00046520043EB03033F
S113313013F4801F08BF013DF7D043EA060370472C
S113314094EA0C0F0CEA135518BF95EA0C0F0CD037
S113315050EA410618BF52EA4306D1D181EA03017D
S113316001F000414FF0000070BD50EA410606BF77
S11331701046194652EA430619D094EA0C0F02D1BC
S113318050EA013613D195EA0C0F05D152EA033601
S11331901CBF104619460AD181EA030101F000411F
S11331A041F0FE4141F470014FF0000070BD41F068
S11331B0FE4141F4780170BD70B54FF0FF0C4CF442
S11331C0E06C1CEA11541DBF1CEA135594EA0C0F61
S11331D095EA0C0F00F0A7F8A4EB050481EA030EAE
S11331E052EA03354FEA013100F088804FEA033395
S11331F04FF0805545EA131343EA12634FEA022263
S113320045EA111545EA10654FEA00260EF0004123
S11332109D4208BF964244F1FD0404F5407402D275
S11332205B084FEA3202B61A65EB03055B084FEA06
S113323032024FF480104FF4002CB6EB020E75EB03
S1133240030E22BFB61A754640EA0C005B084FEA2B
S11332503202B6EB020E75EB030E22BFB61A7546A8
S113326040EA5C005B084FEA3202B6EB020E75EBF3
S1133270030E22BFB61A754640EA9C005B084FEA6B
S11332803202B6EB020E75EB030E22BFB61A754678
S113329040EADC0055EA060E18D04FEA051545EA67
S11332A016754FEA06164FEAC30343EA52734FEA10
S11332B0C2025FEA1C1CC0D111F4801F0BD141EA89
S11332C000014FF000004FF0004CB6E711F4801FEE
S11332D004BF01430020B4F1FD0C88BFBCF5E06FCE
S11332E03FF6AFAEB5EB030C04BFB6EB020C5FEADE
S11332F0500C50F1000041EB045170BD0EF0004E33
S11333004EEA113114EB5C04C2BFD4EB0C0541EA64
S1133310045170BD41F480114FF0000E013C90E661
S113332045EA060E8DE60CEA135594EA0C0F08BF25
S113333095EA0C0F3FF43BAF94EA0C0F0AD150EA24
S113334001347FF434AF95EA0C0F7FF425AF1046B7
S113335019462CE795EA0C0F06D152EA03353FF4DF
S1133360FDAE1046194622E750EA410618BF52EA5C
S113337043067FF4C5AE50EA41047FF40DAF52EA30
S113338043057FF4EBAE12E74FF0FF3C06E000BFCD
S11333904FF0010C02E000BF4FF0010C4DF804CDDA
S11333A04FEA410C7FEA6C5C4FEA430C18BF7FEA9A
S11333B06C5C1BD001B050EA410C0CBF52EA430CC8
S11333C091EA030F02BF90EA020F0020704710F148
S11333D0000F91EA030F58BF994208BF90422CBFD7
S11333E0D8176FEAE37040F0010070474FEA410CD0
S11333F07FEA6C5C02D150EA013C07D14FEA430CEE
S11334007FEA6C5CD6D152EA033CD3D05DF8040B5E
S1133410704700BF8446104662468C461946634690
S113342000E000BF01B5FFF7B7FF002848BF10F167
S1133430000F01BD4DF808EDFFF7F4FF0CBF0120AC
S113344000205DF808FB00BF4DF808EDFFF7EAFF28
S113345034BF012000205DF808FB00BF4DF808EDE3
S1133460FFF7E0FF94BF012000205DF808FB00BFD8
S11334704DF808EDFFF7CEFF94BF012000205DF862
S113348008FB00BF4DF808EDFFF7C4FF34BF01206F
S113349000205DF808FB00BF4A0011D212F50012AB
S11334A011D20DD56FF47873B3EB62520ED44FEA98
S11334B0C12343F0004343EA505323FA02F0704718
S11334C04FF00000704750EA013002D14FF0FF3056
S11334D070474FF0000070474FEA4102B2F1E043F9
S11334E024BFB3F5001CDCF1FE5C0DD901F0004CE7
S11334F04FEAC0024CEA5070B2F1004F40EB830037
S113350008BF20F00100704711F0804F21D113F162
S11335103872BCBF01F00040704741F480114FEA9B
S11335205252C2F11802C2F1200C10FA0CF320FA24
S113353002F018BF40F001004FEAC1234FEAD32341
S113354003FA0CFC40EA0C0023FA02F34FEA4303AB
S1133550CCE77FEA625307D150EA01331EBF4FF034
S1133560FE4040F44000704701F0004040F0FE404F
S113357040F40000704700BF53B94AB9002908BF9E
S113358000281CBF4FF0FF314FF0FF3000F074B93A
S1133590ADF1080C6DE904CE00F006F8DDF804E0A6
S11335A0DDE9022304B070472DE9F047089D044685
S11335B08E46002B4DD18A42944669D9B2FA82F2E2
S11335C052B101FA02F3C2F1200120FA01F10CFA1E
S11335D002FC41EA030E94404FEA1C48210CBEFB56
S11335E0F8F61FFA8CF708FB16E341EA034306FBDF
S11335F007F199420AD91CEB030306F1FF3080F06E
S11336001F81994240F21C81023E63445B1AA4B2BA
S1133610B3FBF8F008FB103344EA034400FB07F75C
S1133620A7420AD91CEB040400F1FF3380F00A819D
S1133630A74240F207816444023840EA0640E41B92
S113364000261DB1D4400023C5E900433146BDE83E
S1133650F0878B4209D9002D00F0EF800026C5E9E0
S1133660000130463146BDE8F087B3FA83F6002EF8
S11336704AD18B4202D3824200F2F980841A61EB70
S1133680030301209E46002DE0D0C5E9004EDDE78E
S113369002B9FFDEB2FA82F2002A40F09280A1EB76
S11336A00C014FEA1C471FFA8CFE0126200CB1FBCB
S11336B0F7F307FB131140EA01410EFB03F08842C4
S11336C008D91CEB010103F1FF3802D2884200F251
S11336D0CB804346091AA4B2B1FBF7F007FB1011E3
S11336E044EA01440EFB00FEA64508D91CEB040481
S11336F000F1FF3102D2A64500F2BB800846A4EBDC
S11337000E0440EA03409CE7C6F12007B34022FAC6
S113371007FC4CEA030C20FA07F401FA06F31C43F5
S1133720F9404FEA1C4900FA06F3B1FBF9F8200C02
S11337301FFA8CFE09FB181140EA014108FB0EF048
S1133740884202FA06F20BD91CEB010108F1FF3A98
S113375080F08880884240F28580A8F102086144A4
S1133760091AA4B2B1FBF9F009FB101144EA0141B2
S113377000FB0EFE8E4508D91CEB010100F1FF345D
S11337806CD28E456AD90238614440EA0840A0FBF5
S11337900294A1EB0E01A142C846A64656D353D0CB
S11337A05DB1B3EB080261EB0E0101FA07F722FAEF
S11337B006F3F1401F43C5E9007100263146BDE818
S11337C0F087C2F12003D8400CFA02FC21FA03F37B
S11337D0914001434FEA1C471FFA8CFEB3FBF7F0FC
S11337E007FB10360B0C43EA064300FB0EF69E4221
S11337F004FA02F408D91CEB030300F1FF382FD2BA
S11338009E422DD9023863449B1B89B2B3FBF7F661
S113381007FB163341EA034106FB0EF38B4208D93A
S11338201CEB010106F1FF3816D28B4214D9023E7B
S11338306144C91A46EA004638E72E46284605E799
S11338400646E3E61846F8E64B45A9D2B9EB02086A
S113385064EB0C0E0138A3E74646EAE7204694E7FA
S11338604046D1E7D0467BE7023B614432E730462D
S113387009E76444023842E7704700BF08B5074BC4
S1133880044613B10021AFF30080054B1868836A26
S113389003B19847204600F031F800BF0000000053
S11338A0603D000070B50D4D0D4C641BA410002646
S11338B0A64209D10B4D0C4C00F022F8641BA41055
S11338C00026A64205D170BD55F8043B9847013641
S11338D0EEE755F8043B98470136F2E7B8100020AC
S11338E0B8100020B8100020BC1000200244034689
S11338F0934200D1704703F8011BF9E7FEE700BFCC
S1133900F8B500BFF8BC08BC9E467047F8B500BFC8
S1133910F8BC08BC9E46704705000000000000008B
S113392040420F00050100000000000000000000FC
S113393000000000433A2F55736572732F4B4F42BA
S11339404945442F53696D706C6963697479537484
S11339507564696F2F53444B732F6765636B6F5F97
S113396073646B2F706C6174666F726D2F6472690F
S11339707665722F70776D2F7372632F736C5F701F
S1133980776D2E6300633A5C75736572735C6B6F5D
S1133990626965645C73696D706C69636974797379
S11339A0747564696F5C73646B735C6765636B6F78
S11339B05F73646B5C706C6174666F726D5C656D73
S11339C06C69625C696E635C656D5F74696D657278
S11339D02E6800433A2F55736572732F4B4F42493B
S11339E045442F53696D706C6963697479537475B8
S11339F064696F2F53444B732F6765636B6F5F73F9
S1133A00646B2F706C6174666F726D2F656D6C6979
S1133A10622F7372632F656D5F636D752E63006330
S1133A203A5C75736572735C6B6F626965645C7331
S1133A30696D706C696369747973747564696F5CBA
S1133A4073646B735C6765636B6F5F73646B5C70EB
S1133A506C6174666F726D5C636F6D6D6F6E5C69C3
S1133A606E635C736C5F636F6D6D6F6E2E680004C4
S1133A7003020B050C0302010A0302060A090703E9
S1133A8001050806020004000001400004000100D2
S1133A9010000002800008000200200040787D0130
S1133AA000000000005A620200010000C0CF6A005A
S1133AB002000000809FD50002010000002D3101AA
S1133AC002020000433A2F55736572732F4B4F4225
S1133AD04945442F53696D706C69636974795374F3
S1133AE07564696F2F53444B732F6765636B6F5F06
S1133AF073646B2F706C6174666F726D2F656D6C7F
S1133B0069622F7372632F656D5F636F72652E63D5
S1133B1000433A2F55736572732F4B4F4249454406
S1133B202F53696D706C6963697479537475646932
S1133B306F2F53444B732F6765636B6F5F73646BB5
S1133B402F706C6174666F726D2F656D6C69622F76
S1133B507372632F656D5F656D752E6300633A5CE8
S1133B6075736572735C6B6F626965645C73696DB0
S1133B70706C696369747973747564696F5C736478
S1133B806B735C6765636B6F5F73646B5C706C61B4
S1133B9074666F726D5C656D6C69625C696E635CA2
S1133BA0656D5F6770696F2E6800433A2F557365C2
S1133BB072732F4B4F424945442F53696D706C69A2
S1133BC06369747953747564696F2F53444B732F0D
S1133BD06765636B6F5F73646B2F706C6174666F82
S1133BE0726D2F656D6C69622F7372632F656D5FE3
S1133BF06770696F2E6300433A2F55736572732F94
S1133C004B4F424945442F53696D706C6963697425
S1133C107953747564696F2F53444B732F676563CD
S1133C206B6F5F73646B2F706C6174666F726D2F52
S1133C30656D6C69622F7372632F656D5F72746357
S1133C40632E6300433A2F55736572732F4B4F42B3
S1133C504945442F53696D706C6963697479537471
S1133C607564696F2F53444B732F6765636B6F5F84
S1133C7073646B2F706C6174666F726D2F656D6CFD
S1133C8069622F7372632F656D5F74696D65722E3F
S1133C906300433A2F55736572732F4B4F42494566
S1133CA0442F53696D706C696369747953747564D6
S1133CB0696F2F53444B732F6765636B6F5F736436
S1133CC06B2F706C6174666F726D2F656D6C6962B9
S1133CD02F7372632F656D5F75736172742E630049
S1133CE0000108070F000A00C8002000A00001001E
S1133CF000000000A00068010A200706020A040769
S1133D00000000020700433A2F55736572732F4B6E
S1133D104F424945442F53696D706C6963697479E6
S1133D2053747564696F2F53444B732F6765636BCA
S1133D306F5F73646B2F706C6174666F726D2F7339
S1133D406572766963652F7564656C61792F73722A
S1133D50632F736C5F7564656C61792E630000007A
S1073D6058100020D3
S10B3D64E8C3FF7F0100000029
S10F3D6C783D0000001000203000000032
S1133D7800800140000309110080014001030A1179
S1133D880080014002030B110084014000030C145D
S1133D98008401400102090D0084014002020A0D59
S1133DA8C0EA210100F04902C0EA210100800000B4
S1133DB801000000000000000002000003000000F1
S1133DC8C0EA2101FFFF000000000000000000001D
S1133DD800000000000000000000000000000000D7
S1133DE800000000000000000000000000000000C7
S1133DF800000000000000000000000000000000B7
S1133E0800000000000000000000000000000000A6
S1133E180000000000000000000000000000000096
S1133E280000000000000000310100000D01000046
S903056196
