S0150000666C795F636F6E74726F6C6C65722E733337F1
S1130000001000205D05000059050000590500009E
S11300105905000059050000590500005905000064
S11300205905000059050000590500005905000054
S11300305905000059050000590500005905000044
S11300405905000059050000590500005905000034
S11300505905000059050000590500005905000024
S11300605905000059050000A1090000850F000092
S11300705905000059050000590500005905000004
S11300805905000059050000BD090000590500008C
S113009059050000590500005905000059050000E4
S11300A059050000590500005905000059050000D4
S11300B05905000059050000290E000059050000EB
S11300C059050000590500005905000059050000B4
S11300D059050000590500005905000059050000A4
S11300E05905000059050000590500005905000094
S11300F05905000059050000590500005905000084
S113010059050000590500005905000010B5054CBB
S1130110237833B9044B13B10448AFF300800123AF
S1130120237010BDFC10002000000000AC4B000048
S113013008B5034B1BB103490348AFF3008008BD66
S11301400000000000110020AC4B0000A3F5803A31
S1130150704700BF174B002B08BF134B9D46FFF79A
S1130160F5FF00218B460F461348144A121A04F077
S1130170B3FA0E4B002B00D098470D4B002B00D048
S113018098470020002104000D000D48002802D0EB
S11301900C48AFF3008004F07BFA2000290000F043
S11301A014F804F061FA00BF000008000000000029
S11301B00000000000100020FC100020A87F002098
S11301C00000000000000000704708B503F022FAA8
S11301D000F0DCFC00F068FE02F006FDFFF7F4FF1F
S11301E002F0C2FD02F01AFE012003F05FFBFEE7FD
S11301F000F006B908B50421112001F053FB0948A9
S1130200012100F06FFF0848022101F04BFB074871
S1130210022101F047FB0648022101F043FB0020C4
S113022008BD00BF30253E0002001E000300200070
S11302300500240010B52748012100F053FF0023D6
S113024001220D21052002F0DFF9002301220E21F5
S1130250052002F0D9F9002301220F21052002F024
S1130260D3F9012211460023082002F0CDF900231E
S113027001220221082002F0C7F9002301220321F0
S1130280082002F0C1F9002318460122062102F0D9
S1130290BBF9002318460122072102F0B5F9012217
S11302A010460023092102F0AFF9002301220421A2
S11302B0022002F0A9F9002301220521022002F004
S11302C0A3F9BDE81040002301220821032002F015
S11302D09BB900BF00350A0008B5224B01225A64BD
S11302E0214BD3F8FC20214B120E12D14AF6E851CF
S11302F0C3F89011D3F8981141F00401C3F8981190
S1130300C3F89021D3F8642142F40052C3F8642165
S113031001E0012AF6D0164A136A23F4441343F485
S113032088131362A2F58042136843F48073136048
S113033002F54052D2F8A43143F4F843C2F8A43190
S113034002F034FC00F074F802F0C0FB02F0E2FBAF
S113035002F018FCFFF74EFF02F0CEFBBDE80840A8
S113036000F058B800000E400081E00F00300E404D
S113037000400E4008B500F093F9FFF75BFF00F072
S1130380E5FA00F009F8BDE8084000F057B800F0BD
S113039035B870477047000030B585B049F6404520
S11303A0002469460F4800958DF8044000F008FACF
S11303B069460D4800F004FA69460C4800F000FA5A
S11303C002A90B4802958DF80C4000F0F9F902A936
S11303D0084800F0F5F902A9074800F0F1F905B062
S11303E030BD00BF001000200810002010100020B5
S11303F01810002020100020281000200F20704723
S113040008B5002318460422052102F0FDF8002057
S113041008BD000008B50548012100F063FEFFF7A0
S1130420E7FEBDE8084000F019B800BF00350A0037
S11304300148012100F056BE00350A00082000F0F2
S113044087B90000014B1022DA60704700A0004613
S1130450014B1022DA60704700A0004470B5384D9B
S1130460384E0FCD88B001AC0FC495E8070084E87E
S11304700700354C3548012100F034FE3046012197
S113048000F030FE0125324B039301A920468DF87C
S1130490125002F0B1FA2B4604220621022002F087
S11304A0B3F82A4600230721022002F0ADF82B46B8
S11304B004220821022002F0A7F8042211462B4648
S11304C0002002F0A1F8234BA3670B2363674FF4CA
S11304D0487002F097FB1420FFF7BAFF02F092FB7A
S11304E02320FFF7AFFF02F08DFBB9212046FFF771
S11304F0AFFF02F0E1FAFFF7A5FF00231A46062139
S1130500022002F081F800231A460721022002F09B
S11305107BF82B4600220821022002F075F8002205
S113052010462B46042102F06FF8204602F01CFA14
S11305300021A1673046616700F0D4FD08B070BDAA
S113054004470000005204000004014000350A0082
S113055000127A000B0B000BFEE7000008B500F058
S113056083F8124B12498B4212D3124B12490020CA
S11305708B4218D3FFF7EEFD186850F822405868F4
S113058040F82240013298688242F5D30C33EAE7FE
S11305900022F8E71C6844F8220001325C68A24299
S11305A0F8D30833E4E70022F8E700BFB44B0000B7
S11305B0C04B0000C04B0000C04B00000048704717
S11305C000F04902104AD2F8943003F00703023BCA
S11305D0032B13D8DFE803F00C14020E0B4B1B683B
S11305E0D2F80001C0F304200130B3FBF0F07047EF
S11305F0074BF4E7074B1B685B08F1E7054BEEE795
S11306004FF40043ECE700BF00400E403C100020D4
S1130610341000203810002008B5FFF7D3FF054B35
S1130620D3F80831C3F308230133B0FBF3F0024BD2
S1130630186008BD00400E4030100020014B1868BF
S1130640704700BF34100020054B1860054BD3F8E9
S1130650943003F00703022B01D1FFF7DDBF70478D
S11306603410002000400E40044B054A9A60D3F831
S1130670882042F47002C3F88820704700ED00E03F
S1130680000000004FF4004070474FF47A70704748
S1130690014B1868704700BF3C100020FEE70000C3
S11306A008B52248012100F01DFD01230422022186
S11306B0052001F0A9FF002001F000FF1C4B0122DE
S11306C0C3F810281146042001F05AF8194800F024
S11306D097FE194BD3F8F02042F00102C3F8F02042
S11306E0D3F8FC2042F08072C3F8FC20A3F55D43EC
S11306F0124A1A6000F5D520114B00F2FC40B0FB01
S1130700F3F0104B013802221861C3F8F0204FF4C3
S11307108072C3F804234FF060430B4AC3F8B02F30
S11307200A4AC3F8802E002008BD00BF00350A0025
S11307300080144206000E0000ED00E0FF030040BC
S1130740F8590D00000004E055CEACC509000100C5
S11307504FF060420123D2F8001E03FA00F0084370
S1130760C2F8000E0020704708B50E4B984213D013
S11307700DD8A3F50053984210D003F58063984236
S11307800ED009485B21FFF789FF112008BD074BF4
S11307909842F6D10648F9E70648F7E70648F5E730
S11307A00648F3E700A001402047000000A40140F0
S11307B000320400002204000002040000120400BD
S11307C02DE9F043044689B000680D46FFF7CCFFDD
S11307D00121074600F086FC3348012100F082FC29
S11307E02B79A1796079042201F00EFF0023CDE971
S11307F00133039303238DF80A3001238DF8093064
S113080002238DF805302B79217920685A1E534232
S1130810534101AA8DF80E3002F036F8D4F8008066
S11308202379E6794FEAC30901F0CEF9D8F83420E8
S113083006FA09F61F23564003FA09F333405340DE
S1130840C8F8343001F0C4F9384600F0D9FD266800
S1130850164B2D68B0FBF5F09E4200F1FF350BD02E
S113086003F580639E4207D0B5F5803F04D310485A
S113087040F28941FFF712FFF561237925680633B9
S113088005EB031300245C600D22214604A803F049
S113089023FF0123284604A98DF8103001F094FFAA
S11308A0204609B0BDE8F08300350A0000A00140ED
S11308B071470000037901229A40036803F1C06381
S11308C01A637047037901229A40036803F1806335
S11308D01A63704770B504680679E36959430B4B92
S11308E09C424FF06405B1FBF5F50BD003F5806332
S11308F09C4207D0B1F5C80F04D3054840F2FA2151
S1130900FFF7CCFE04EB0614E56670BD00A00140C1
S11309107147000070B50C4E0446012504B970BD42
S113092094FAA4F0B0FA80F006EB001205FA00F392
S113093024EA03045368002BF0D0117B11B19168B1
S11309409847EBE79847E9E71811002008B512200B
S113095001F04AF928B1084B4FF48022C3F88021F2
S11309601A600A2001F040F928B1034B4FF4806269
S1130970C3F880211A6008BD00E100E038B50546DF
S11309800C4601F028F9054B03EB051300225C60CB
S11309901A73BDE8384001F024B900BF18110020D3
S11309A0054BD3F82804D3F81C24104000F055302C
S11309B0C3F82404FFF7AEBF00A00040054BD3F8F2
S11309C02804D3F81C24104000F0AA30C3F82404EF
S11309D0FFF7A0BF00A000402DE9F0470027254CF9
S11309E00646B8464FF00109237F84F81D8053B1B1
S11309F0D4E90001864278EB01030BD2801B61F13C
S1130A000001C4E900010137042F04F12804EBD1EB
S1130A10BDE8F087E37F33B92377A369002BF2D0D5
S1130A2084F81D90EFE7D4E9025A301A61EB4101D2
S1130A302A46534603F096FC21696069AA1A6AEBB8
S1130A4003030029C4E900230BDD01441D2961616E
S1130A50E3D9013243F100031E39C4E90023616183
S1130A60DBE7411A1D296161D7D9013A43F1FF330C
S1130A70F2E700BF2813002038B5074C0025637F38
S1130A801BB1A369216A284698470135042D04F156
S1130A902804F4D138BD00BF281300204FF0FF33E1
S1130AA0174A70B519460024157F3DB1D2E9006597
S1130AB09E4275EB010C3CBF334629460134042C9D
S1130AC002F12802F0D10F4D0026B1F1FF3F08BF1B
S1130AD0B3F1FF3F2E7012D00B4A10600B4A146220
S1130AE06FF064049C4276EB010138BF2346034453
S1130AF0536501232B70536A43F00403536270BDA2
S1130B0028130020201300201C1300200020044080
S1130B10064B5A6A99690A40D20705D501221A621E
S1130B20034A136801331360704700BF0020044078
S1130B30C813002038B5104B1B780546D3B101F01B
S1130B404AF80E4A00231146947F14B945B90C4C57
S1130B500CE00133042B02F12802F5D1094C05E025
S1130B60282202FB031101228A772B6001F039F855
S1130B70204638BD044CFBE7211300202813002035
S1130B80041000F0011000F0061000F070B5204DC4
S1130B902C78002C3AD11F481F4E012100F0A2FAF4
S1130BA01E48022100F07EFE01211D48347100F030
S1130BB099FA304601F0BEFD1A49012001F08EFD7C
S1130BC0194B5A6A22F4FF6222F007025A6240F279
S1130BD0FF721A62154A9C604FF08041C2F880117E
S1130BE011605A6A124842F001025A622146A02258
S1130BF003F072FD0F4B1C700F4B1C700F4B1C60ED
S1130C000F4B1C600F4B1C6001232B70002070BD28
S1130C102113002030253E00401000200500240050
S1130C20A0091400491000200020044000E100E065
S1130C302813002018130020201300202413002060
S1130C40C8130020CC1300202DE9F84F1446624A43
S1130C501278054689469A46002A00F0B98003288E
S1130C6000F2B880DFF890814FF0280B0BFB058B66
S1130C7000F0B1FF9BF81E2007462AB900F0B1FF2F
S1130C80564C2046BDE8F88F4CB9BAF1000F02D09B
S1130C900A992846D047384600F0A3FFF1E7504AA6
S1130CA04FF4004C4FF4FA7000219668CBF818A06A
S1130CB000234FF47A72E4FB0C0103F053FBB9F107
S1130CC0010FCBE9020103460AD14FF47A72624361
S1130CD01E2404FB10240F22CBF81040CBF8142060
S1130CE02820684308EB0002013348F800304FF035
S1130CF00100107741F100010A98516082F81F90B9
S1130D001062384A127822B1384600F06AFF002493
S1130D10B7E7354CDFF8E4A022689AF800C0013246
S1130D201EBF226801322260BCF1000F1BD12F4A82
S1130D3016602B4A042010626FF0640098427CEB2A
S1130D40010138BF034633445365536A43F0040337
S1130D50536201238AF800302368002BD4D023681F
S1130D60013B2360D0E72368012BF5D1282303FB43
S1130D7005834FF00009DFF868B01C4A83F81C9023
S1130D80DBF8243023F00403CBF824301068301A45
S1130D90FFF722FEFFF770FEB9F1000F04D12823FC
S1130DA003FB0583012119773046FFF777FE0F4ACD
S1130DB0DBF808601168DBF85430701A5B1A9AF893
S1130DC0001009F101090029C6D09842D8D2C3E71E
S1130DD0074C56E7074C54E721130020031000F09A
S1130DE00020044018130020241300201C130020AA
S1130DF0061000F0021000F0281300202013002039
S1130E00014B9868704700BF002004404FF47A7289
S1130E10A0FB020310F5804002FB013141F1000107
S1130E20C00B40EA414070472DE9F8431A4C00F0EA
S1130E30D2FE636AA269134023F005025B070646EB
S1130E40226222D5154FA568DFF85480DFF854904C
S1130E5001233B70636A23F004036362D8F8000043
S1130E60281AFFF7B9FDFFF707FE2846FFF716FE1D
S1130E70D8F80020A568636DA91A9B1A99F8002078
S1130E800AB19942E6D200233B70FFF741FE304697
S1130E90BDE8F84300F0A5BE00200440181300206C
S1130EA01C1300202013002070B588B00D22294E99
S1130EB0294D002104A803F00FFC00240223012182
S1130EC026488DF81010CDE9014403948DF80A30BA
S1130ED000F008F901AA2146304601F0D5FC4FF68E
S1130EE0FF73F3618DF8124004A9304601F06CFCE5
S1130EF01B4800F085FA9DF81230D8400133DBB26C
S1130F000A2B28608DF8123002D8164B9842EBD881
S1130F101548164C00F074FA2E68B4FBF0F4002562
S1130F201348144A29460023E6FB040103F01AFA85
S1130F30114B084A1860114B1D70936923F010037C
S1130F4093610F4B4FF40062C3F880211A60284666
S1130F5008B070BD00800140D013002000020400DE
S1130F604041050080841E007000020000B0710B37
S1130F7020A1070040420F00D4130020D813002002
S1130F8000E100E0044BDA68D20604D510225A616D
S1130F90024B01221A70704700800140D8130020D0
S1130FA00C4B984210D90C4B984210D902220123C1
S1130FB00A490B640A49D1F8003123F0807343EAEB
S1130FC00263C1F80031704700221346F0E70122A2
S1130FD0FBE700BF0048E8010090D0030000C843CD
S1130FE000400E4038B5114B5B68114B00221C4683
S1130FF0C9B21D798D4202D11D68854212D20132D7
S1131000052A03F10803F4D10A4841F2CE51FFF74F
S113101045FB032205494B6823F0407343EA02630E
S11310204B6038BD04EBC2025279F3E700000E4076
S113103088480000BF4700001F2810B5044604D9A3
S113104003484FF4B371FFF729FB0120A04010BD02
S11310500B48000070B5084C41F67136256C2664C7
S1131060FFF7ACFA0021FFF7BDFFADB2B5421CBFDC
S11310700023236470BD00BF00000E40044BDB6BF3
S11310805B0604D4034AD2F8C830002BFBD1704766
S113109000300E400000C64308B5FFF7EFFF024BD7
S11310A05868C0F3014008BD00300E40044BD3F82B
S11310B04421D20703D4D3F840211042FBD1704716
S11310C000400E4070B5064C41F67136256C26641E
S11310D0FFF788FFADB2B5421CBF0023236470BD87
S11310E000000E4038B5C0F30323013B092B24D87C
S11310F0DFE803F02A2D2323051619231C20154CA1
S11311000023C0F3043513B11846FFF7CFFF04F1F1
S1131110424404F5801405EBC404A400216038BDE6
S11311200D4C0123EDE70D4C1023EAE70C4C4FF472
S11311308033E6E70B4C0023E3E7BDE838400A4878
S113114041F66A31FFF7AABA084C0023D9E7084CE4
S11311500023D6E7B0400E40E0400E40E8400E4089
S1131160F0400E4050410E40BF47000000400E408A
S1131170C0400E4008B5C0F30313013B092B60D8EF
S1131180DFE803F0050B0F195F5F1F233C532E4B61
S1131190D3F80001C0F3042008BD2B4BD3F814018D
S11311A0F8E7294BD3F80001C0F300600130FFF7E2
S11311B043FF0138F0E7244BD3F80C01C0F30820B7
S11311C0EAE7214BD3F80801F8E7204B984209D00D
S11311D01F4B98420CD041F60E511E48FFF75EFAA1
S11311E00020D9E7184BD3F8200100F00F00DEE708
S11311F0154BD3F82001C0F30110D8E7164B9842E1
S113120008D003F5B01303F58053984206D041F695
S11312103251E2E70C4BD3F82801ECE70A4BD3F840
S11312202801C0F301200430C1E70C4B984205D1DA
S1131230054BD3F8300100F00300ADE741F641510E
S1131240CBE741F66651C8E700400E408006160021
S113125080162E00BF47000090171A00A009140042
S113126008B5FFF787FF013008BD000000F00F004C
S1131270013808B5072844D8DFE800F0040F194303
S1131280232D4335264BD3F8943003F00703023B58
S1131290052B3DD8234AD05C08BD214BD3F88030C0
S11312A003F00703013B032B34D81F4AF3E71C4B1D
S11312B0D3F8843003F00703013B032B2AD81B4ADD
S11312C0E9E7174BD3F8883003F00703013B032BFE
S11312D020D8174ADFE7124B1B6F13F0010F0CBF26
S11312E007200920D8E70E4BD3F85C3103F0300314
S11312F0202B11D0302B11D0102B14BF012007202C
S1131300CAE70C4842F2BB01FFF7C8F90020C3E763
S11313100520C1E70120BFE70420BDE70820BBE7A3
S113132000400E405B480000614800006548000032
S113133061480000BF47000038B52C4B9842054671
S11313400AD02B4B984207D02A4B984204D02A4803
S113135041F2CD61FFF7A2F92846FFF787FF234B3F
S11313609D42044611D0224B9D4212D0214B9D42F6
S113137013D1224BD3F8804004F00704042C2DD859
S1131380DFE804F02A11151D19001C4BD3F8844022
S1131390F2E71A4BD3F88840EEE7174841F2FC61B4
S11313A0FFF77CF9EAE7BDE83840FFF76BB9BDE821
S11313B03840FFF76DB9BDE83840FFF766B9FFF76D
S11313C001F90E4B0446D3F80001C0F3006001306C
S11313D0FFF732FEB4FBF0F4204638BD064841F274
S11313E04E71FFF75BF90024F6E700BF030020000D
S11313F00500240002001E00BF47000000400E400C
S113140038B500F47813B3F5B01F05467FD02ED855
S1131410B3F5402F69D011D8B3F5802F54D006D836
S113142043B1B3F5003F5AD041F69A411AE0B3F5FF
S1131430202FF9D1BDE83840FFF7C4B8B3F5801FB9
S113144000F0A280B3F5A01F57D0B3F5602FEBD105
S11314505B48FFF70BFF072800F096800928E9D0C6
S113146041F290415748FFF719F9002036E0B3F5EF
S1131470381F5AD013D8B3F5001F5FD00AD8B3F57C
S1131480D01F5DD0B3F5F01FCED14F48BDE8384032
S1131490FFF752BFB3F5101FC6D14C48F6E7B3F5BA
S11314A0481F57D0B3F5781F00F08280B3F5401F72
S11314B0BAD14748FFF740FF464B0446D3F828010A
S11314C0C0F3012004302BE0FFF77CF8414BD3F844
S11314D00C31C3F308230133B0FBF3F038BDFFF73D
S11314E071F83C4BD3F80831F3E7FFF76BF8394B4D
S11314F0D3F81431C3F30423EDE73448FFF71CFF9A
S1131500344BD3F8303103F00303D840E6E72E48D8
S1131510FFF712FF2F4B0446D3F8200100F00F0011
S1131520FFF78AFDB4FBF0F0D8E72748FFF704FF84
S1131530284BD3F82031C3F30113E6E72448A5E789
S11315402348FFF7F9FE234B0446D3F82801C0F3E0
S11315500110E5E72048FFF789FE0138072824D861
S113156001A353F820F000BF6B140000AB1500007A
S1131570AB1500008F150000AB150000AB15000083
S11315808915000097150000144B1868A6E7BDE8FC
S11315903840FFF753B8FFF715F80E4BD3F8003176
S11315A0C3F3042303FB000098E741F2C74159E762
S11315B0FFF708F804462846FFF752FEB2E700BFDB
S11315C006000E00BF47000002001E0005002400B4
S11315D00300200000400E40B800320050100020EC
S11315E0014B1880704700BF54100020013838B5F3
S11315F00C46032864D8DFE800F002441A2FB1F542
S1131600007F04D3324842F6BB01FFF747F8314A62
S1131610C4F30804D2F86838002BFBD12E4A136AAD
S113162023F4FF7323F001032343136238BD7F299E
S113163004D9274842F6C801FFF730F8254A04F0D8
S11316407F01D2F86038002BFBD1234B1C6924F0B6
S11316507F040C431C61E9E77F2904D91C4842F646
S1131660E301FFF71BF81B4A04F07F01D2F864384A
S1131670002BFBD1184B9C6924F07F040C439C6124
S1131680D4E7154DD5F890305B0704D5104842F6E1
S1131690F301FFF703F86B6A23F0300343F0100300
S11316A06B62C4F3C311CB1C2A6B0C490F2B01EAE8
S11316B0020128BF0F23214341EA03712963B5E7DF
S11316C0BDE83840024842F60D11FEF7E7BF00BFFF
S11316D0BF4700000020C84300400E4000F8FF0F41
S11316E0022810B50C4604D0144842F62511FEF722
S11316F0D5FF134B5B6A13F0300F1BD0202C16D090
S1131700302C17D0B4B10D484FF42551FEF7C6FF65
S11317100C4B0B4AD2F8901033EA0101FAD15B0268
S11317204ABFD2F8A0000120C0F3802010BD4FF4BE
S11317300003EEE74FF44003EBE700BFBF470000B0
S113174000400E40FF33E107022808B50CD129B14F
S1131750094B4FF48060C3F8A80059664AB1BDE84C
S113176008400220FFF7BCBF044842F67611FEF79A
S113177095FF012008BD00BF00400E40BF47000098
S113178004282DE9F04704460F4691461FD83D4BE7
S11317903D4A13F800A03D4B13F80080F1B93C4BCF
S11317A033F810301366012303FA08F8D2F89030A6
S11317B013EA080FFAD1B9F1000F5AD00125324AC1
S11317C005FA0AF5D2F890302B42FBD151E0BDE87E
S11317D0F047304842F60A01FEF760BF2E4B02285C
S11317E033F8106047D1536A13F0300F43D12B4BB9
S11317F0DB6B5A0504D4274842F61901FEF74EFF65
S1131800214A536ADB0705D5536A23F0300343F0BA
S113181010035362224D1C4BA8441E664FEA8808ED
S1131820D8F80030002BFBD0B9F1000F21D055447B
S1131830AD002B68002BFCD0022C1AD1CFB1124F73
S1131840796A11F0010118D0012220212046FFF706
S11318507BFFD7F89C40012200210220FFF790FF74
S1131860C4F30A010220FFF7C1FE3E662B68002B79
S1131870FCD0BDE8F0870027CCE72046FFF730FF17
S1131880E7E700BF6948000000400E406E480000D2
S11318907E480000BF4700007448000000300E403E
S11318A08004F210112838B50C460FD000F00F0058
S11318B00138072800F2EB80DFE810F0240066000E
S11318C09A00E9007D00B400E900C200042912D1A5
S11318D0FEF7B4FE0546A8B10021284600F0AEFA92
S11318E0023C0A2C45D8DFE804F04A473137444427
S11318F044443D0F4D00052904D1664B1D68664BD9
S11319009D42E9D80025EBE7032005240122114676
S1131910FFF736FFFFF79EFB0DB1FFF7AFFB5F4B01
S11319205C67FEF779FE0446FEF74CFEFFF738FBD2
S1131930FFF7B2FB01462046FFF7C4FB002D5DD143
S113194028460121BDE8384000F078BA5448FFF732
S113195027FB02200446D9E75148FFF721FB012465
S11319600320D3E742F27C11BDE838404D48FEF72E
S113197095BE42F28111F7E701200324C6E7002057
S11319800424C3E70724C5E7062933D14548464D57
S11319904FF40751FEF782FE424842F2D011FEF79F
S11319A07DFEFEF70FFEFFF7FBFA404B0122C3F862
S11319B00826032321E006293D4DEDD0013C092CE6
S11319C02BD801A353F824F0211A0000FF190000BA
S11319D00D1A00001B1A00001B1A0000A3190000B6
S11319E01B1A00001B1A00001B1A0000F919000042
S11319F0304DE3E72C4DE1E704232B6038BD012291
S1131A0011460020FFF7BCFE0223F6E7012211462F
S1131A101046FFF7B5FE0123EFE742F2FB11A3E7FF
S1131A200023EAE7072904D0092906D042F28521D8
S1131A309AE71A4B00221A67E0E7184B0122FAE7EB
S1131A404C1E072C1ED8DFE804F0201D1D161D1D9A
S1131A500F0403221149D1F85C3123F0300343EA27
S1131A600213C1F85C31C9E7012211460420FFF7D3
S1131A7087FE0122EEE7012211460220FFF780FED5
S1131A800222E7E742F2E3216EE70022E2E742F2B4
S1131A90BA3169E738100020002D310100400E40B2
S1131AA00148E801BF47000080400E400010C843D1
S1131AB088400E4084400E4010B504461120FFF7C4
S1131AC0D5FB042804D1274842F2A561FEF7E6FDC0
S1131AD0012200210220FFF753FE63781BB9A3788B
S1131AE00BB9E37823B11F4842F2E161FEF7D6FD5A
S1131AF0237C012B04D11B4842F2E861FEF7CEFDA2
S1131B00194A217C536A23F00103022908BF43F0D8
S1131B1001035362154B2178C3F8A014637AA1889A
S1131B2043EAC123D362136BA07A217A03F07F6363
S1131B300343E08843EAC02343EAC11303310F2976
S1131B4028BF0F2143EA01731363A37B617B1B014D
S1131B5043EA0133E17B0B43217B43EA01435363B3
S1131B6010BD00BFBF47000000400E400000C84346
S1131B7070B505461120FFF779FB022804D10F4800
S1131B8042F26371FEF78AFD0D4E0E4BB26B2C7858
S1131B9013401C436B7844EAC324AB7844EA0364DF
S1131BA0EB7844EA0324B36BA34205D0002101225D
S1131BB00846FFF7E5FDB46370BD00BFBF470000F2
S1131BC000400E4080E4FFF8EFF3108072B67047D7
S1131BD000B962B67047EFF31180602383F3118874
S1131BE0704780F31188704738B5C5B2322D04466A
S1131BF004D9084840F21F31FEF750FD064B640932
S1131C0005F01F0553F82400E840C04300F001002C
S1131C1038BD00BFB048000000E100E0034BD86BC2
S1131C2080F04000C0F38010704700BF00300E40C9
S1131C3038B542EA0323B3F5007F05460C463ED08F
S1131C4019D8B3F5807F36D00AD883B3012B21D0BD
S1131C501F4840F6F211FEF721FD002213461FE053
S1131C6040F201129342F3D11A4BD3F824321A0EE4
S1131C70C3F3074314E0B3F5407F24D040F20132AC
S1131C80934210D040F201229342E1D1114BD3F898
S1131C90283202E00F4BD3F82432C3F30722DBB21D
S1131CA02B60226038BD0B4BD3F82832DFE7094B99
S1131CB0D3F81C32F1E7074BD3F81C32D7E7054BB6
S1131CC0D3F82032E9E7034BD3F82032CFE700BF43
S1131CD0FD4800000081E00F08B5FFF79FFF20B129
S1131CE0024AD2F8C830002BFBD108BD0000C6431D
S1131CF01A4B022810B5D3F830320C4612D0032800
S1131D0013D0012814BFDBB2C3F307231B0323F44E
S1131D107042ECB95AB140F681111148FEF7BEFC8D
S1131D20002010BDC3F30743F0E71B0EEEE70D4997
S1131D30CA6E22F470421343CB660120F1E70949CD
S1131D40D1F8EC2022F470421343C1F8EC30F4E7EC
S1131D50002AF4D040F68D11DFE700BF0081E00FC8
S1131D60FD48000000300E400378134A002B4378EE
S1131D7070B514BF04260026002B8378946914BF21
S1131D8002250025002B037924F03F0443EA0403D1
S1131D90C47814BF08210021012C08BF43F00103BB
S1131DA033432B430B4393611368417923F440334A
S1131DB043EA0143136070BD00300E40F8B5044699
S1131DC00F46FFF72BFF78B3FFF786FF174B5B68CF
S1131DD0C3F301439C4227D0154BD3F80061FEF7AF
S1131DE0F1FB022C05460FD1124BC6F3042606FB69
S1131DF000069E4204D910484FF4E361FEF74EFCFE
S1131E0002212846FFF75EF9C4F102021023934031
S1131E10064A13610FB1FFF75FFF2CB9214628462C
S1131E20BDE8F840FFF74EB9F8BD00BF00300E40E2
S1131E3000400E40002D3101FD48000013B502465C
S1131E40FFF7ECFEC8B152B90D4B0191D3F8004134
S1131E50FEF7B8FBC4F30422019902FB0002094B0C
S1131E601B7843B1084B9A4205D8022002B0BDE862
S1131E701040FFF7A3BF0020F8E702B010BD00BF79
S1131E8000400E40E0130020002D3101224B4AF6A1
S1131E90E85210B5596B5A639A6FD207FCD41B6C85
S1131EA013F003031EBF1D4A0124C2F8B44A83423F
S1131EB004D110B9194BC3F8B40A10BD032B00D0D8
S1131EC09BB9431E012B10D8134A4FF40023D3624D
S1131ED0936FDB07FCD4136C23F0030343F001037B
S1131EE013640D4A536A1C03FCD50B4B9A6FD2073B
S1131EF0FCD41A6C22F0030202431A649A6F12F0A3
S1131F000102FBD10038054C18BF01200129C4F897
S1131F10B40A08BF5A63D0E700300E400000C6433D
S1131F202DE9F04FA0F5E16389B00024B3F5966F75
S1131F30CDE90244CDE90444CDE9064406468A4687
S1131F40934605D940F67B315548FEF7A7FBA3E03D
S1131F50B0F5E16F534B8CBF0122002249D1D3F875
S1131F601832C3F30721DBB2079104934FF41675BB
S1131F704FF4966748E0BBF1000F0ED0D9F85C200F
S1131F8022F4FE4222F00202B6F5E16F42EA012297
S1131F9018BF02200243C9F85C20BAF1000F26D012
S1131FA020460021FFF7A4FE044610B940F6D831BC
S1131FB0CAE701214046FFF79BFE044610B94FF4DF
S1131FC03E61C1E7384A536EBD4238BF3D4623F4F3
S1131FD0FF73E72D23F0010328BFE725B6F5E16F72
S1131FE018BF43F0010343EA4503536654E0012458
S1131FF052E0D3F81832190EC3F307430791049340
S11320004FF496654FF4E167DFF89C90D9F84C40A3
S11320100192C4F30174234605A902A8FFF708FE40
S1132020D9F8EC30019AC3F30128434606A903A862
S1132030FFF7FEFD049BF01B079FF91A4143B1FB18
S1132040F5F299182CBF012300238F421ED3EBB95C
S1132050069A039FD31B4343B3FBF5F3FF182CBF2E
S113206001230023BA4211D383B9059B029AA3EB3F
S1132070020C00FB0CF0B0FBF5F555192CBF012048
S11320800020AB4202D300283FF475AF044840F669
S1132090C931FEF703FB0024204609B0BDE8F08FE8
S11320A0FD4800000081E00F00300E40334A08B5BF
S11320B0136FD16C11F0010F03F0060344D0002B11
S11320C042D0132857D9143813288CBF102308235F
S11320D02A49013BCA6C180322F47F4240EA0323D5
S11320E01343CB64264BCA6C1B88C2F303222833E8
S11320F0013202EB820003EB5303B3FBF0F3C86C31
S1132100013B072B28BF072320F0EE6040EA03635E
S113211043F48013CB641B4BB3F90030002B12DB68
S113212003F12800C0F34E030344500800EB4202BD
S1132130B3FBF2F20B6D072A28BF072223F07003CA
S113214043EA02120A6508BDD16C01F0010119438A
S113215004D109280FD90A380928B6E7D26CD20766
S113216002D50BB92728B0E7074840F61E41FEF711
S113217095FA0023ACE70423AAE700BF00300E4021
S1132180DC130020DE130020FD4800000C4BD3F8C4
S1132190803910B5044633B9012804D9094840F6FA
S11321A03C41FEF77BFA084A136F23F007032343ED
S11321B01367064BBDE810401888FFF777BF00BFD0
S11321C00000C643FD48000000300E40DA13002032
S11321D038B55A4B02229A639B6B03F00F03934268
S11321E0044607D0564840F61621FEF757FA002554
S11321F0284638BD0389C82B04D951484FF42261BD
S1132200FEF74CFAA28823899A4204D94C4840F636
S11322102121FEF743FAB4F90C30C82B04DD4848F9
S113222040F62221FEF73AFA6378012B55D1A388B0
S1132230C82B04D940F626214148FEF72FFAE2883C
S113224042F210739A4204D93D4840F63321FEF716
S113225025FAE3884A2B48D9B3F5FA7F47D340F6E9
S1132260C312934294BF4FF000524FF0405233498F
S1132270B4F90C00CB6C23F0405323F00103002885
S1132280A8BF43F001031343CB64D1F8EC30A28818
S113229043F44073C1F8EC302A4B1A80CB6E43F000
S11322A08073CB66284BD3F8800900B10420FFF774
S11322B06DFF264B21891980254BB4F90C20A08889
S11322C01A80FFF7F3FEA37BA3B1012B22D01C4895
S11322D040F63211FEF7E2F90FE0022BAFD1A388EA
S11322E00A2BACD940F62B21A6E70022BFE74FF01A
S11322F08052BCE7114B174A9A6501226088114647
S1132300FFF70EFE054640B90D4840F66A21FEF778
S1132310C5F96DE7094B104AEEE7084AD36B43F45D
S11323208063D3636078FFF7B1FDA37AA3F1200241
S113233053425341044AC2F8943759E700300E40DF
S1132340FD480000DA1300200000C643DC1300201F
S1132350DE13002077402057372110B71F2970B5AE
S113236005460C46164603D906489121FEF796F910
S113237005F1424000F5801004EBC004A40026607F
S113238070BD00BF4949000038B50D46044640B34E
S1132390012829D002282AD003282BD004280ED0C3
S11323A005282AD0831F012B09D9082828D00928F9
S11323B028D00A2803D10723EB40DB0704D41348B1
S11323C040F22D41FEF76AF930200C2310FB04344F
S11323D004F18C44012104F5204401FA05F525603B
S11323E038BD40F2FF33E7E74FF6C073E4E740F649
S11323F0FF73E1E74FF47F43DEE74FF6FF73DBE75C
S11324000F23D9E74FF44043D6E700BF95490000B6
S113241038B50D46044640B3012829D002282AD0F5
S113242003282BD004280ED005282AD0831F012B83
S113243009D9082828D0092828D00A2803D1072335
S1132440EB40DB0704D4134840F2FE31FEF726F9D3
S113245030200C2310FB043404F18844012104F5DA
S1132460204401FA05F5256038BD40F2FF33E7E763
S11324704FF6C073E4E740F6FF73E1E74FF47F43A0
S1132480DEE74FF6FF73DBE70F23D9E74FF4404352
S1132490D6E700BF9549000070B505460E461446C0
S11324A0FFF792FB296881EA040202EA06044C4021
S11324B02C60BDE87040FFF78BBB00001F2810B5EF
S11324C0044603D906485221FEF7E8F8054AD2F833
S11324D0443423F003032343C2F8443410BD00BF43
S11324E0E249000000A000402DE9F0478A469DF82B
S11324F020909DF8248015461F46044600284ED09F
S113250001284FD0022850D0032851D004280FD0DE
S1132510052850D0831F012B0AD908284ED009283A
S11325204ED00A2804D1072020FA0AF0C30703D4A6
S11325302C48BF21FEF7B2F88AEA050333F00303FF
S113254003D02848C121FEF7A9F8072D0AF0030A91
S11325504FF00F0137D8AE00234804FA06F2B14019
S1132560FFF79AFF032121480AFA06F2B140FFF768
S113257093FF3A4629461E48FFF7F0FE4A4629468D
S11325801C48FFF7EBFE1C4A1C480123AB40C2F871
S1132590243429464246BDE8F047FFF7DFBE40F247
S11325A0FF30C1E74FF6C070BEE740F6FF70BBE7EF
S11325B04FF47F40B8E74FF6FF70B5E70F20B3E75D
S11325C04FF44040B0E7A5F10806B6000C4804FA01
S11325D006F2B140FFF760FF03210A480AFA06F247
S11325E0B140C4E7E249000000A4004008A4004050
S11325F010A4004014A4004000A0004028A40040FF
S113260004A400400CA40040F8B50D4616461F462D
S11326100446C8B301283AD002283BD003283CD052
S113262004280ED005283BD0831F012B09D9082884
S113263039D0092839D00A2803D10721E940CB072A
S113264004D423484FF4B071FEF728F826B1294684
S113265020466FB3FFF798FE04EB4403072D4FEABF
S113266003134FF00F0126D8A80006FA00F28140A8
S113267018481844FFF710FF4EBB2946204617B3ED
S1132680BDE8F840FFF780BE40F2FF31D6E74FF6D1
S1132690C071D3E740F6FF71D0E74FF47F41CDE737
S11326A04FF6FF71CAE70F21C8E74FF44041C5E771
S11326B0FFF7AEFED0E7A5F10800800006FA00F2AD
S11326C081400548D5E7BDE8F840FFF7A1BEF8BD55
S11326D0E249000004A0004008A00040022838B5E8
S11326E004460D4603D911484C21FDF7D7FF6B79F9
S11326F01F2B03D90D484F21FDF7D0FFAB786A7823
S11327009B0143EA82032A781343EA7843EA0213DB
S11327102A7943EAC2236A7943EA0233AA79043460
S113272043EA42432401024A135138BD2F4A0000B0
S113273000200440427801790378002A827870B539
S113274014BF04260026002AC27814BF10250025D1
S1132750002A42794FEA023242EA012242EA0302A3
S1132760837914BF20240024002BC37942EA034355
S113277043EA0603027A43EA050314BF4FF4004117
S113278000212343002A14BF4FF4003200220B43DC
S11327901343014A136070BD00200440094B984262
S11327A00DD003F58063984209D003F5E0539842B5
S11327B005D003F58063C31A58425841704701207D
S11327C0704700BF008001402DE9F84F05460C46D4
S11327D0FFF7E4FF18B92B48A521FDF75FFF217827
S11327E009B902236B60607800236B620028E278E9
S11327F0607AA37894F808B094F806A094F8079047
S113280014BF4FF040084FF0000812040028A07ACB
S113281042EA036314BF4FF0800E4FF0000E43EA08
S11328200B030028E07A43EA8A2314BF4FF0200CFC
S11328304FF0000C43EA09230028207B43EA0803F5
S113284014BF1027002743EA0E0300282079647977
S113285043EA0C0314BF082600263B43002814BF98
S11328604FF4005000203343002C14BF4FF0805429
S11328700024034323432B6009B101236B60BDE8AB
S1132880F88F00BF7C4A0000F8B505460C46164692
S1132890FFF784FF18B92048F521FDF7FFFE032C4C
S11328A003D91D48F621FDF7F9FE737832781B062B
S11328B043EA8263B2791343B27843EA0243F2787B
S11328C043EA0233327943EA8223727943EA0223E8
S11328D0F279002A327A14BF4FF080470027002A89
S11328E0727A14BF4FF000500020002AB27AF67AB0
S11328F043EA067343EA070314BF1021002103438C
S1132900002A04F1060414BF042200220B4324010C
S113291013432B51F8BD00BF7C4A000070B5064636
S11329200C46154622B90D4840F28E21FDF7B6FE3D
S11329301CB90B48FEF764FD04460A4B6D00013CCC
S1132940B4FBF5F413EA04234FEA042504D0034846
S113295040F2B321FDF7A2FE756170BDCA4A0000C2
S113296040410500070080FF38B51E4B1E4D9842BC
S113297004460ED0A8420CD003F50063984208D058
S113298003F58063984204D0184840F24241FDF7B1
S113299085FE40F6AA63E36041F20502002323604A
S11329A06260134AA3606361E364A264236663679D
S11329B0A367E3670B4B9C4209D0AC4207D003F5F5
S11329C000639C4203D003F580639C4201D1002341
S11329D023650023AC42A36502D0064A944200D189
S11329E0E36538BD0000014000040140CA4A00000C
S11329F0F9FF0100000C014038B52D4B9842044604
S1132A000D4610D003F5806398420CD003F5806323
S1132A10984208D003F58063984204D0254840F2D8
S1132A206931FDF73BFE2046FFF79EFFA97B2A8A0A
S1132A302368002942F0010214BF4FF48061002191
S1132A4013430B432A7D23602368002A14BF4FF0ED
S1132A500052002213432360AB7C1BB1EB7C43F098
S1132A608003A3652B7B43F480536360D5E9011293
S1132A702046FFF753FF6B7B0BB11023E3606B7DA4
S1132A801BB1236843F480332360AB7D1BB12368FF
S1132A9043F400432360EB7D2A7E1B07120503F0F9
S1132AA0E04302F4E002134323662B78E36038BD6D
S1132AB000000140CA4A000003695A06FCD541637C
S1132AC003699B06FCD5C069C0B270477FB5094B4A
S1132AD06A4603F11006154618685968144603C47B
S1132AE00833B3422246F7D12846FFF771FB002092
S1132AF004B070BD184B000013B5022300246846CF
S1132B0000948DF804408DF80530FFF72DF9204628
S1132B1002B010BD70B5174B86B001AA03F11006C0
S1132B20154618685968144603C40833B34222464C
S1132B30F7D11B882380104BD3F8B42012030ED492
S1132B40D3F8B830C3F308030C48ADF80A30FDF7E6
S1132B507BFD2846FEF7B0FF002006B070BD084B91
S1132B601A884FF6FF7140F243138A4218BF134686
S1132B70EAE700BF284B00000081E00F00F04902A3
S1132B800001E00F07B5084B18680190202301A845
S1132B908DF80430FEF7ECFF6420FEF721FD0020E1
S1132BA003B05DF804FB00BF3A4B000010B50C48BD
S1132BB00C4C6FF00402A02112F0800FD3B21BBFA3
S1132BC003F00F03043BA3181B1802F101020CBF0E
S1132BD083F800131976332AEED1002010BD00BF0C
S1132BE000ED00E000E100E008B5FDF775FBFDF73E
S1132BF0C1FBFDF7CCFBFDF7CCFBBDE80840FDF7BE
S1132C00C9BB000010B50446FDF706FD4FF47A7207
S1132C109042B0FBF2F105D23621BDE810400B48DA
S1132C20FDF73CBD0A4BB3FBF1F30A49884201D9D5
S1132C303C21F2E702FB04F0B0FBF3F0032804D9D3
S1132C40BDE81040800800F00BB810BD3E4B0000FA
S1132C5040420F00E7CD9A3B000000000000000056
S1132C60013800D0FCE7704738B50D46044640B340
S1132C70012829D002282AD003282BD004280ED0DA
S1132C8005282AD0831F012B09D9082828D0092810
S1132C9028D00A2803D10723EB40DB0704D41348C8
S1132CA040F2CF31FDF7FAFC30201C2310FB043432
S1132CB004F1047404F5204405EBC405AD00286850
S1132CC038BD40F2FF33E7E74FF6C073E4E740F660
S1132CD0FF73E1E74FF47F43DEE74FF6FF73DBE773
S1132CE00F23D9E74FF44043D6E700BF95490000CE
S1132CF0034B93F8341093F83500FFF7B5BF00BFCA
S1132D00E4130020034B93F83C1093F83D00FFF7C5
S1132D10ABBF00BFE4130020034B93F8441093F8B7
S1132D204500FFF7A1BF00BFE4130020034B93F855
S1132D30541093F85500FFF797BF00BFE413002029
S1132D40034B93F85C1093F85D00FFF78DBF00BF51
S1132D50E4130020034B93F84C1093F84D00FFF755
S1132D6083BF00BFE41300201F4B204A1A604FF4B6
S1132D7042729A801E4A9A6006229A811D4A1A61FA
S1132D8007229A821C4A9A6140F20D529A831B4A86
S1132D901A6240F20F529A84194A9A6240F20E5211
S1132DA09A85184A1A6340F601029A86164A9A636B
S1132DB040F602029A87154A1A6440F60302A3F801
S1132DC04420134A9A6440F20912A3F84C20114A91
S1132DD01A654FF40172A3F854200F4A9A6540F221
S1132DE00522A3F85C207047E4130020C92E0000DC
S1132DF0892E0000A92E0000E92E00002D2F0000CE
S1132E00092F0000F12C0000052D0000192D0000F1
S1132E10552D00002D2D0000412D000073B5FDF748
S1132E2095FD0B4C0025012621682079FDF7A6FDB0
S1132E3022796079CDE90066012311460135FFF757
S1132E4053FB0C2D04F10804EED102B070BD00BF99
S1132E50E413002010B5044600F038FC00F0DCF95F
S1132E60084B682202FB04339A6893F91410186122
S1132E700A4420469A6000F06FFA2046BDE81040EC
S1132E8000F012B9D87E002008B5064B197B587B98
S1132E90FFF7EAFE20B1BDE808400120FFF7DABFE2
S1132EA008BD00BFE413002008B5064B197D587D0A
S1132EB0FFF7DAFE20B1BDE808400120FFF7CABFE2
S1132EC008BD00BFE413002008B5064B19795879F2
S1132ED0FFF7CAFE20B1BDE808400120FFF7BABFE2
S1132EE008BD00BFE413002008B5064B197F587FC6
S1132EF0FFF7BAFE20B1BDE808400020FFF7AABFE3
S1132F0008BD00BFE413002008B5074B93F82C104C
S1132F1093F82D00FFF7A8FE20B1BDE8084000207B
S1132F20FFF798BF08BD00BFE413002008B5074BA6
S1132F3093F8241093F82500FFF796FE20B1BDE81E
S1132F4008400020FFF786BF08BD00BFE41300203F
S1132F5038B50C460546F0B101281FD0022820D010
S1132F60032821D0042804D04FF6FF73E340DB0785
S1132F7004D40F4840F2CF31FDF790FB30201C23DE
S1132F8010FB053505F1047505F5204504EBC50472
S1132F90A400206838BD40F2FF33E7E74FF6C07362
S1132FA0E4E740F6FF73E1E74FF47F43DEE700BF59
S1132FB095490000064B42F20C0202FB003041F23C
S1132FC0A863C358184441F64473C154704700BF02
S1132FD044140020084B42F20C0202FB003210B5EC
S1132FE041F2A864125940F6030404FB002003EBE9
S1132FF08003196010BD00BF44140020084B42F246
S11330000C0202FB003210B541F2A864125940F6DA
S1133010030404FB002003EB8003C3F8201310BD5A
S113302044140020094A42F20C0310B503FB0023A8
S113303041F2A8641B5940F6030404FB003000F578
S1133040C87002EB8000016010BD00BF4414002072
S1133050094A42F20C0310B503FB002341F2A864B1
S11330601B5940F6030404FB003000F57A7002EBB0
S11330708000016010BD00BF44140020094A42F2E0
S11330800C0310B503FB002341F2A8641B5940F65E
S1133090030404FB003000F5966002EB800001603D
S11330A010BD00BF44140020F0B541F21C53104C75
S11330B0434304EB030C45F2305718215CF80760D6
S11330C0F2B201FB02331C440A4B682505FB0035B0
S11330D00FCD04F5844470340FC495E80300013621
S11330E0C72E84E803004CF8076000DDFEE7F0BD5E
S11330F044140020D87E002038B5204C41F21C53E3
S113310003FB004345F230529D58D8B1012833D116
S113311008210320EDB2FFF71BFF05EB45052C4406
S113312045F234530621E0540020FFF711FF45F225
S113313035530721E0540020FFF70AFF45F23653C8
S1133140E05438BD0D210520EDB2FFF701FF05EB7A
S11331504505254444F218030F21E8540520FFF7E0
S1133160F7FE44F219030E21E8540520FFF7F0FEA0
S113317044F21A03E854E4E700BEE2E744140020F2
S11331802DE9F843224D42F20C0303FB00F905EB51
S1133190090641F2A8678046F4590134F451FFF757
S11331A0ABFF04EB44031B4A68214B4401FB082298
S11331B02B4403F5E753108B988140F6030000FB82
S11331C00840917E997300F2AA5305EB83033444BB
S11331D0916A596004F5AF5492F82130237000F5D8
S11331E0167305EB8303116B196000F5487305EB47
S11331F0830300F27260D16C196005EB8005D36A19
S11332006B60F359C72B00DDFEE7BDE8F88300BF10
S113321044140020D87E002008B5FDF7F1FDBDE878
S113322008400021FDF7F2BD2DE9D043037B2DEDCD
S1133230028B04464BB10023836003604360002388
S11332400373BDEC028BBDE8D08390ED028AF7EEE8
S1133250007A38EE278A78EE677A80ED028A87EE64
S1133260887AD0ED007A67EE277A17EE900A00F09C
S113327017FD064618EE100A0F4600F011FD02462F
S11332800B4600200B4900F08DFE8046606889469D
S113329000F006FD02460B464046494600F058FD44
S11332A002460B463046394600F09CFB01F00AF812
S11332B02060C6E70000F03F38B50C460546F0B183
S11332C001281FD0022820D0032821D0042804D0AC
S11332D04FF6FF73E340DB0704D40F4840F2CF31CD
S11332E0FDF7DCF930201C2310FB053505F10475CE
S11332F005F5204504EBC504A400206838BD40F260
S1133300FF33E7E74FF6C073E4E740F6FF73E1E706
S11333104FF47F43DEE700BF9549000010B532212A
S11333200446FDF7D7FA2046BDE81040FDF7C2BABF
S113333010B5074B682202FB0131044691F82110B5
S1133340FDF7C8FA2046BDE81040FDF7B3BA00BF48
S1133350D87E0020FDF7B6BA70B5044630B3012814
S11333602DD1184B184A1A60184B194A1A60194B78
S1133370194A1A4D1A60682303FB0455184E2B7E14
S1133380104A56F823301068214698476B7E0F4A3E
S113339056F82330106821469847AB7E0D4A56F8FC
S11333A0233010682146BDE870401847054B0D4A8C
S11333B01A60064B0C4A1A60064B0C4AD9E700BE49
S11333C070BD00BFC87E002000100020CC7E00200D
S11333D008100020D07E002010100020D87E00208D
S11333E07C1000201810002020100020281000203D
S11333F010B5A8B1012824D108210320FFF75CFFF0
S1133400114C062184F86A000020FFF755FF0721BC
S113341084F86B000020FFF74FFF84F86C0010BDA8
S11334200F210520FFF748FF074C0E21E07005200F
S1133430FFF742FF0D2120710520FFF73DFFA0702B
S1133440EDE700BEEBE700BFD87E002070B5154C59
S1133450154E682303FB00440546E178A378490030
S113346041EA83012379194301F007013154FFF73D
S1133470A1FD94F82030012B09D8735D0B4A03EBAE
S11334804303D118D25A8B782283A37670BD022BC2
S1133490FCD1735D03EB4302044B13441A8B9B7EF4
S11334A0F2E700BFD87E0020947E0020967E0020A4
S11334B02DE9F843344E682707FB006797ED127A2D
S11334C0D7ED137A77EE677A2DED028B044617EE6B
S11334D0900A17EE905A00F0E3FB27A3D3E90023E8
S11334E08046894600F034FC00F0ECFE24A3D3E9C6
S11334F00023494608EE900A404600F029FC804625
S1133500B86A894600F0CCFB02460B464046494661
S113351000F068FA00F0D6FEDFED1C7A08EE100A1F
S1133520B4EEE78AF1EE10FA23DCDFED197AB4EE9B
S1133530678AF1EE10FA48BFB0EE678A682303FB8E
S1133540046686ED0A8A29462046FFF743FD18EEF5
S1133550901A2046FFF752FD18EE101A2046FFF786
S113356061FD78EE287ABDEC028B17EE900ABDE877
S1133570F883B0EE678AE1E79A9999999999B93FE6
S11335807B14AE47E17A843FD87E00200000C84215
S11335900000C8C2000000002DE970431C4C6826DE
S11335A006FB00462DED028B96ED0C8A054618EEBF
S11335B0100A00F075FB12A3D3E900238046894664
S11335C000F038FE70B110A3D3E900234046494609
S11335D000F04EFE30B1002386F82030BDEC028BA3
S11335E0BDE87083B5EEC08A6820F1EE10FA00FBE6
S11335F00544CCBF0123022384F82030EEE700BF4A
S1133600F168E388B5F8E43EF168E388B5F8E4BE10
S1133610D87E0020224B0022022101201A705A7009
S11336209A70D97018715A719871DA711972587246
S11336309972DA721A7359739873DA731874597425
S11336409974DA7418755A759A75DA751A765A7601
S11336509A76DA76187759779977DA7783F82000AB
S113366083F8212083F8221083F8230083F82400B0
S113367083F8251083F8262083F8271083F8280080
S113368083F8292083F82A0083F82B2083F82C1050
S113369083F82D2083F82E2083F82F20704700BF55
S11336A0967E002010B50849682358430A18D37839
S11336B0947812795B0043EA8403134303F007030D
S11336C0013B0B5410BD00BFD87E002010B5074A43
S11336D0682358431318115C5878054A5970062416
S11336E004FB0022525C1A7510BD00BFD87E002076
S11336F056100020000000002DE9F84F304E6823DA
S11337002DED028B4343F218044692F82010D2F8B0
S11337101080976841B9002111634C33012182F86C
S11337205810F018FFF780FD682044433519AB6B3F
S1133730B8EB030B35D0286C381A32D000F09EFA5F
S11337401BA3D3E9002300F003FB00F0BBFD08EE4C
S1133750100A584600F082FA1A4B002200F022FCAC
S113376000F0B0FD07EE900AC8EE277A17EE900A33
S113377000F096FA10A3D3E9002300F0E9FA00F070
S1133780A1FDBDEC028B00232863286504F14C00E5
S1133790C5E90E83C5E910733044BDE8F84FFFF75F
S11337A043BDBDEC028BBDE8F88F00BFAFF30080D2
S11337B065732D3852C1F03F1E1E1E1E1E1EAE3FE5
S11337C0D87E002000408F4010B50446FFF770FEFD
S11337D0084B682202FB043307EE100AD3ED127A79
S11337E077EE877A2046C3ED0B7ABDE81040FFF7E9
S11337F0C7BC00BFD87E002070B5274D682303FBEB
S11338000055D5ED0B7AF0EEE77A2DED028B0446E8
S113381017EE900A00F044FA204B002200F098FAC8
S11338201F4B002200F094FA00F04CFDDFED1D7AEE
S113383008EE100AC8EE277A17EE900A00F030FA64
S113384011A3D3E9002300F0ADFB00F03BFD0646D5
S113385000F026FA0EA3D3E9002300F0A3FB124BD9
S1133860002200F075FA00F00DFD18EE101A85F82C
S113387021002046FFF7ECFBBDEC028B31462046CD
S1133880BDE87040FFF7FABB86C954C1A8A4DE3F67
S11338906666666666660A40D87E0020000031408F
S11338A000004E400000C345000059400B4B682205
S11338B013B502FB00330A4C0A4A9A64FFF798FDD9
S11338C02046FDF737F90021074A0091074B12689B
S11338D02068FDF7B9F902B010BD00BFD87E002002
S11338E088100020000040408C1000204D3900005A
S11338F0144B682202FB003082B0C37882785B00EC
S113390043EA82030279134303F00703013BDBB26A
S11339108DF807309DF807300B4A03EB4303D35C63
S113392083709DF8073003EB430313445B78C37043
S11339309DF8073003EB43031A449378037102B0F4
S1133940704700BFD87E0020964B0000F7B51D4C91
S11339501D4E07462078FFF779FD2078FFF7A2FE79
S113396020781A4B682505FB00F172184FF0060EFB
S113397092F801C0715C0EFB0C335B5C1375FFF7AE
S113398093FB207845437319725D5A70FFF7B4FEB8
S11339902078FFF719FF2078FFF7FEFD2078FFF766
S11339A02BFF2078FFF7D8FC2078FFF7A1FF002138
S11339B0074A0091074B12683846FDF745F903B0F2
S11339C0F0BD00BF90100020D87E002056100020CB
S11339D08C1000204D39000081F0004102E000BF4E
S11339E083F0004330B54FEA41044FEA430594EABB
S11339F0050F08BF90EA020F1FBF54EA000C55EAF6
S1133A00020C7FEA645C7FEA655C00F0E2804FEAC6
S1133A105454D4EB5555B8BF6D420CDD2C4480EAA8
S1133A20020281EA030382EA000083EA010180EAD8
S1133A30020281EA0303362D88BF30BD11F0004F26
S1133A404FEA01314FF4801C4CEA113102D040425C
S1133A5061EB410113F0004F4FEA03334CEA133397
S1133A6002D0524263EB430394EA050F00F0A780AF
S1133A70A4F10104D5F1200E0DDB02FA0EFC22FAAA
S1133A8005F2801841F1000103FA0EF2801843FA9E
S1133A9005F359410EE0A5F120050EF1200E012A8F
S1133AA003FA0EFC28BF4CF0020C43FA05F3C018CD
S1133AB051EBE37101F0004507D54FF0000EDCF146
S1133AC0000C7EEB00006EEB0101B1F5801F1BD3EF
S1133AD0B1F5001F0CD349085FEA30004FEA3C0CF3
S1133AE004F101044FEA445212F5800F80F09A80E9
S1133AF0BCF1004F08BF5FEA500C50F1000041EBED
S1133B00045141EA050130BD5FEA4C0C404141EBF0
S1133B100101013C28BFB1F5801FE9D291F0000FEB
S1133B2004BF01460020B1FA81F308BF2033A3F19A
S1133B300B03B3F120020CDA0C3208DD02F1140C91
S1133B40C2F10C0201FA0CF021FA02F10CE002F1CC
S1133B501402D8BFC2F1200C01FA02F120FA0CFCC5
S1133B60DCBF41EA0C019040E41AA2BF01EB04510E
S1133B70294330BD6FEA04041F3C1CDA0C340EDC0C
S1133B8004F11404C4F1200220FA04F001FA02F34F
S1133B9040EA030021FA04F345EA030130BDC4F10D
S1133BA00C04C4F1200220FA02F001FA04F340EA02
S1133BB00300294630BD21FA04F0294630BD94F0B3
S1133BC0000F83F4801306BF81F480110134013D9A
S1133BD04EE77FEA645C18BF7FEA655C29D094EA0B
S1133BE0050F08BF90EA020F05D054EA000C04BF89
S1133BF01946104630BD91EA030F1EBF0021002074
S1133C0030BD5FEA545C05D14000494128BF41F012
S1133C10004130BD14F580043CBF01F5801130BD76
S1133C2001F0004545F0FE4141F470014FF0000001
S1133C3030BD7FEA645C1ABF194610467FEA655CB2
S1133C401CBF0B46024650EA013406BF52EA033554
S1133C5091EA030F41F4002130BD00BF90F0000F42
S1133C6004BF0021704730B54FF4806404F132047E
S1133C704FF000054FF0000150E700BF90F0000F37
S1133C8004BF0021704730B54FF4806404F132045E
S1133C9010F0004548BF40424FF000013EE700BF2E
S1133CA042004FEAE2014FEA31014FEA02701FBFBE
S1133CB012F07F4393F07F4F81F06051704732F0F0
S1133CC07F4208BF704793F07F4F04BF41F4002147
S1133CD0704730B54FF4607401F0004521F00041A5
S1133CE01CE700BF50EA010208BF704730B54FF02F
S1133CF000050AE050EA010208BF704730B511F030
S1133D00004502D5404261EB41014FF4806404F167
S1133D1032045FEA915C3FF4D8AE4FF003025FEAED
S1133D20DC0C18BF03325FEADC0C18BF033202EB71
S1133D30DC02C2F1200300FA03FC20FA02F001FACB
S1133D4003FE40EA0E0021FA02F11444BDE600BF6E
S1133D5070B54FF0FF0C4CF4E06C1CEA11541DBF1D
S1133D601CEA135594EA0C0F95EA0C0F00F0DEF8E8
S1133D702C4481EA030621EA4C5123EA4C5350EACD
S1133D80013518BF52EA033541F4801143F480131E
S1133D9038D0A0FB02CE4FF00005E1FB02E506F0AF
S1133DA00042E0FB03E54FF00006E1FB03569CF004
S1133DB0000F18BF4EF0010EA4F1FF04B6F5007F0A
S1133DC064F5407404D25FEA4E0E6D4146EB06067C
S1133DD042EAC62141EA55514FEAC52040EA5E5005
S1133DE04FEACE2EB4F1FD0C88BFBCF5E06F1ED8AF
S1133DF0BEF1004F08BF5FEA500E50F1000041EBE6
S1133E00045170BD06F0004646EA010140EA020092
S1133E1081EA0301B4EB5C04C2BFD4EB0C0541EAB4
S1133E20045170BD41F480114FF0000E013C00F3C9
S1133E30AB8014F1360FDEBF002001F0004170BDED
S1133E40C4F10004203C35DA0C341BDC04F1140406
S1133E50C4F1200500FA05F320FA04F001FA05F292
S1133E6040EA020001F0004221F0004110EBD3705F
S1133E7021FA04F642EB06015EEA430E08BF20EA8B
S1133E80D37070BDC4F10C04C4F1200500FA04F32E
S1133E9020FA05F001FA04F240EA020001F00041C0
S1133EA010EBD37041F100015EEA430E08BF20EA33
S1133EB0D37070BDC4F1200500FA05F24EEA020E7B
S1133EC020FA04F301FA05F243EA020321FA04F0AA
S1133ED001F0004121FA04F220EA020000EBD37061
S1133EE05EEA430E08BF20EAD37070BD94F0000F61
S1133EF00FD101F00046400041EB010111F4801F95
S1133F0008BF013CF7D041EA060195F0000F18BF45
S1133F10704703F00046520043EB030313F4801F81
S1133F2008BF013DF7D043EA0603704794EA0C0F3B
S1133F300CEA135518BF95EA0C0F0CD050EA410651
S1133F4018BF52EA4306D1D181EA030101F00041CE
S1133F504FF0000070BD50EA410606BF10461946F6
S1133F6052EA430619D094EA0C0F02D150EA013602
S1133F7013D195EA0C0F05D152EA03361CBF104643
S1133F8019460AD181EA030101F0004141F0FE41E2
S1133F9041F470014FF0000070BD41F0FE4141F466
S1133FA0780170BD70B54FF0FF0C4CF4E06C1CEA66
S1133FB011541DBF1CEA135594EA0C0F95EA0C0F1B
S1133FC000F0A7F8A4EB050481EA030E52EA0335D6
S1133FD04FEA013100F088804FEA03334FF08055F7
S1133FE045EA131343EA12634FEA022245EA111524
S1133FF045EA10654FEA00260EF000419D4208BFD5
S1134000964244F1FD0404F5407402D25B084FEA81
S11340103202B61A65EB03055B084FEA32024FF42D
S113402080104FF4002CB6EB020E75EB030E22BF8A
S1134030B61A754640EA0C005B084FEA3202B6EB4A
S1134040020E75EB030E22BFB61A754640EA5C00F9
S11340505B084FEA3202B6EB020E75EB030E22BF89
S1134060B61A754640EA9C005B084FEA3202B6EB8A
S1134070020E75EB030E22BFB61A754640EADC0049
S113408055EA060E18D04FEA051545EA16754FEAAB
S113409006164FEAC30343EA52734FEAC2025FEAC9
S11340A01C1CC0D111F4801F0BD141EA00014FF058
S11340B000004FF0004CB6E711F4801F04BF014329
S11340C00020B4F1FD0C88BFBCF5E06F3FF6AFAE45
S11340D0B5EB030C04BFB6EB020C5FEA500C50F1D5
S11340E0000041EB045170BD0EF0004E4EEA113158
S11340F014EB5C04C2BFD4EB0C0541EA045170BD5F
S113410041F480114FF0000E013C90E645EA060EA2
S11341108DE60CEA135594EA0C0F08BF95EA0C0FD0
S11341203FF43BAF94EA0C0F0AD150EA01347FF418
S113413034AF95EA0C0F7FF425AF104619462CE7EF
S113414095EA0C0F06D152EA03353FF4FDAE104652
S1134150194622E750EA410618BF52EA43067FF4A3
S1134160C5AE50EA41047FF40DAF52EA43057FF433
S1134170EBAE12E74FF0FF3C06E000BF4FF0010C3E
S113418002E000BF4FF0010C4DF804CD4FEA410CA2
S11341907FEA6C5C4FEA430C18BF7FEA6C5C1BD06F
S11341A001B050EA410C0CBF52EA430C91EA030FF0
S11341B002BF90EA020F0020704710F1000F91EA4D
S11341C0030F58BF994208BF90422CBFD8176FEA1B
S11341D0E37040F0010070474FEA410C7FEA6C5CE9
S11341E002D150EA013C07D14FEA430C7FEA6C5CF0
S11341F0D6D152EA033CD3D05DF8040B704700BF1C
S11342008446104662468C461946634600E000BF69
S113421001B5FFF7B7FF002848BF10F1000F01BD3B
S11342204DF808EDFFF7F4FF0CBF012000205DF806
S113423008FB00BF4DF808EDFFF7EAFF34BF01208B
S113424000205DF808FB00BF4DF808EDFFF7E0FF24
S113425094BF012000205DF808FB00BF4DF808ED75
S1134260FFF7CEFF94BF012000205DF808FB00BFDC
S11342704DF808EDFFF7C4FF34BF012000205DF8BE
S113428008FB00BF4A0011D212F5001211D20DD55D
S11342906FF47873B3EB62520ED44FEAC12343F048
S11342A0004343EA505323FA02F070474FF00000F2
S11342B0704750EA013002D14FF0FF3070474FF0A1
S11342C0000070474FEA4102B2F1E04324BFB3F566
S11342D0001CDCF1FE5C0DD901F0004C4FEAC00279
S11342E04CEA5070B2F1004F40EB830008BF20F05D
S11342F00100704711F0804F21D113F13872BCBF17
S113430001F00040704741F480114FEA5252C2F16B
S11343101802C2F1200C10FA0CF320FA02F018BFB4
S113432040F001004FEAC1234FEAD32303FA0CFC07
S113433040EA0C0023FA02F34FEA4303CCE77FEA96
S1134340625307D150EA01331EBF4FF0FE4040F4E0
S11343504000704701F0004040F0FE4040F400008F
S1134360704700BF53B94AB9002908BF00281CBFD1
S11343704FF0FF314FF0FF3000F074B9ADF1080C8D
S11343806DE904CE00F006F8DDF804E0DDE902236F
S113439004B070472DE9F047089D04468E46002B73
S11343A04DD18A42944669D9B2FA82F252B101FAE5
S11343B002F3C2F1200120FA01F10CFA02FC41EAF5
S11343C0030E94404FEA1C48210CBEFBF8F61FFA7A
S11343D08CF708FB16E341EA034306FB07F1994215
S11343E00AD91CEB030306F1FF3080F01F819942C8
S11343F040F21C81023E63445B1AA4B2B3FBF8F0A2
S113440008FB103344EA034400FB07F7A7420AD928
S11344101CEB040400F1FF3380F00A81A74240F250
S113442007816444023840EA0640E41B00261DB1BB
S1134430D4400023C5E900433146BDE8F0878B42F0
S113444009D9002D00F0EF800026C5E900013046AF
S11344503146BDE8F087B3FA83F6002E4AD18B4289
S113446002D3824200F2F980841A61EB0303012033
S11344709E46002DE0D0C5E9004EDDE702B9FFDE1F
S1134480B2FA82F2002A40F09280A1EB0C014FEACA
S11344901C471FFA8CFE0126200CB1FBF7F307FB27
S11344A0131140EA01410EFB03F0884208D91CEBCA
S11344B0010103F1FF3802D2884200F2CB80434667
S11344C0091AA4B2B1FBF7F007FB101144EA014446
S11344D00EFB00FEA64508D91CEB040400F1FF31D5
S11344E002D2A64500F2BB800846A4EB0E0440EAC3
S11344F003409CE7C6F12007B34022FA07FC4CEACC
S1134500030C20FA07F401FA06F31C43F9404FEABE
S11345101C4900FA06F3B1FBF9F8200C1FFA8CFED3
S113452009FB181140EA014108FB0EF0884202FA27
S113453006F20BD91CEB010108F1FF3A80F08880E8
S1134540884240F28580A8F102086144091AA4B2A5
S1134550B1FBF9F009FB101144EA014100FB0EFE26
S11345608E4508D91CEB010100F1FF346CD28E4555
S11345706AD90238614440EA0840A0FB0294A1EBE6
S11345800E01A142C846A64656D353D05DB1B3EB43
S1134590080261EB0E0101FA07F722FA06F3F14073
S11345A01F43C5E9007100263146BDE8F087C2F11A
S11345B02003D8400CFA02FC21FA03F39140014392
S11345C04FEA1C471FFA8CFEB3FBF7F007FB1036CB
S11345D00B0C43EA064300FB0EF69E4204FA02F477
S11345E008D91CEB030300F1FF382FD29E422DD9CA
S11345F0023863449B1B89B2B3FBF7F607FB1633FF
S113460041EA034106FB0EF38B4208D91CEB01017E
S113461006F1FF3816D28B4214D9023E6144C91AFE
S113462046EA004638E72E46284605E70646E3E60E
S11346301846F8E64B45A9D2B9EB020864EB0C0E18
S11346400138A3E74646EAE7204694E74046D1E727
S1134650D0467BE7023B614432E7304609E76444D5
S1134660023842E7704700BF08B5074B044613B150
S11346700021AFF30080054B1868836A03B19847A3
S1134680204600F031F800BF00000000A84B0000F5
S113469070B50D4D0D4C641BA4100026A64209D123
S11346A00B4D0C4C00F022F8641BA4100026A6420B
S11346B005D170BD55F8043B98470136EEE755F82F
S11346C0043B98470136F2E7F4100020F410002070
S11346D0F4100020F810002002440346934200D155
S11346E0704703F8011BF9E7FEE700BFF8B500BF08
S11346F0F8BC08BC9E467047F8B500BFF8BC08BCBF
S11347009E467047050000000000000040420F0074
S1134710050100000000000000000000000000008F
S1134720433A2F55736572732F4B4F424945442FBB
S113473053696D706C696369747953747564696FD6
S11347402F53444B732F6765636B6F5F73646B2FD9
S1134750706C6174666F726D2F6472697665722F06
S113476070776D2F7372632F736C5F70776D2E6328
S113477000633A5C75736572735C6B6F6269656440
S11347805C73696D706C6963697479737475646959
S11347906F5C73646B735C6765636B6F5F73646B8F
S11347A05C706C6174666F726D5C656D6C69625C83
S11347B0696E635C656D5F74696D65722E68004334
S11347C03A2F55736572732F4B4F424945442F530B
S11347D0696D706C696369747953747564696F2F5A
S11347E053444B732F6765636B6F5F73646B2F70F8
S11347F06C6174666F726D2F656D6C69622F737274
S1134800632F656D5F636D752E6300633A5C75732A
S11348106572735C6B6F626965645C73696D706CFF
S1134820696369747973747564696F5C73646B73B9
S11348305C6765636B6F5F73646B5C706C617466FB
S11348406F726D5C636F6D6D6F6E5C696E635C73CC
S11348506C5F636F6D6D6F6E2E68000403020B0551
S11348600C0302010A0302060A09070301050806EC
S113487002000400000140000400010010000002D6
S1134880800008000200200040787D010000000044
S1134890005A620200010000C0CF6A00020000005A
S11348A0809FD50002010000002D310102020000AA
S11348B0433A2F55736572732F4B4F424945442F2A
S11348C053696D706C696369747953747564696F45
S11348D02F53444B732F6765636B6F5F73646B2F48
S11348E0706C6174666F726D2F656D6C69622F7385
S11348F072632F656D5F636F72652E6300433A2F99
S113490055736572732F4B4F424945442F53696D5C
S1134910706C696369747953747564696F2F534457
S11349204B732F6765636B6F5F73646B2F706C6180
S113493074666F726D2F656D6C69622F7372632F6D
S1134940656D5F656D752E6300633A5C75736572A2
S1134950735C6B6F626965645C73696D706C6963C9
S113496069747973747564696F5C73646B735C6781
S113497065636B6F5F73646B5C706C6174666F729C
S11349806D5C656D6C69625C696E635C656D5F62CC
S113499075732E6800633A5C75736572735C6B6F34
S11349A0626965645C73696D706C69636974797359
S11349B0747564696F5C73646B735C6765636B6F58
S11349C05F73646B5C706C6174666F726D5C656D53
S11349D06C69625C696E635C656D5F6770696F2E9C
S11349E06800433A2F55736572732F4B4F42494504
S11349F0442F53696D706C69636974795374756479
S1134A00696F2F53444B732F6765636B6F5F7364D8
S1134A106B2F706C6174666F726D2F656D6C69625B
S1134A202F7372632F656D5F6770696F2E63004328
S1134A303A2F55736572732F4B4F424945442F5398
S1134A40696D706C696369747953747564696F2FE7
S1134A5053444B732F6765636B6F5F73646B2F7085
S1134A606C6174666F726D2F656D6C69622F737201
S1134A70632F656D5F727463632E6300433A2F5531
S1134A80736572732F4B4F424945442F53696D70C0
S1134A906C696369747953747564696F2F53444BFB
S1134AA0732F6765636B6F5F73646B2F706C6174D6
S1134AB0666F726D2F656D6C69622F7372632F65FB
S1134AC06D5F74696D65722E6300433A2F5573658B
S1134AD072732F4B4F424945442F53696D706C6973
S1134AE06369747953747564696F2F53444B732FDE
S1134AF06765636B6F5F73646B2F706C6174666F53
S1134B00726D2F656D6C69622F7372632F656D5FB3
S1134B1075736172742E6300000108070F000A00A8
S1134B20C8002000A000010000000000A0006801EF
S1134B300A200706020A0407000000020700433A9D
S1134B402F55736572732F4B4F424945442F536958
S1134B506D706C696369747953747564696F2F53EC
S1134B60444B732F6765636B6F5F73646B2F706C5B
S1134B706174666F726D2F736572766963652F75E4
S1134B8064656C61792F7372632F736C5F756465F0
S1134B906C61792E63000100010001010000010134
S10F4BA00100010000000100941000203E
S10B4BACA0B5FF7F0100000029
S10F4BB4C04B0000001000203F00000077
S1134BC000800140000309110080014001030A1123
S1134BD00080014002030B110084014000030C1407
S1134BE0008401400102090D0084014002020A0D03
S1134BF0C0EA210100F04902C0EA2101008000005E
S1134C00010000000000000000020000030000009A
S1134C10C0EA2101FFFF0000FF00010000000100C5
S1134C2000FF01FF0000000000000000FF01FF0082
S1134C3000010000000100FF0000000055330000E7
S1134C40313300001D330000010000000A000000A1
S1134C50010000000000000000000000000000004F
S1134C600000000000000000000000000000000040
S1134C700000000000000000000000000000000030
S1134C800000000000000000000000000000000020
S1134C900000000000000000000000000000000010
S1134CA00000000000000000000000000000000000
S10F4CB000000000310100000D010000B4
S903055D9A
